:020000040800F2
:10000000C8160020A50200089D40000865400008B1
:10001000994000082D0900086D4C00080000000000
:10002000000000000000000000000000F542000891
:100030004909000800000000A1400008F94200083A
:10004000BF020008BF020008BF020008BF0200088C
:10005000BF020008BF020008BF020008BF0200087C
:10006000BF020008BF020008BF02000831090008F3
:100070003D090008BF020008BF020008BF020008D7
:10008000BF02000800000000F1050008BF020008E0
:10009000BF020008BF020008BF020008BF0200083C
:1000A00011430008BF020008BF020008BF02000899
:1000B000BF020008BF020008BF020008BF0200081C
:1000C000BF020008BF020008BF020008BF0200080C
:1000D000BF020008BF020008BF020008BF020008FC
:1000E0004D090008BF020008BF020008BF02000857
:1000F000BF020008BF020008BF02000800000000A5
:1001000000000000BF02000800000000BF0200085D
:10011000BF02000800000000BF020008BF02000884
:10012000BF020008BF020008BF020008BF020008AB
:10013000BF0200080000000000000000BF0200082D
:10014000BF020008BF02000800000000000000001D
:10015000000000000000000000000000000000009F
:10016000000000000000000000000000BF020008C6
:10017000BF020008000000000000000000000000B6
:1001800000000000BF0200080000000000000000A6
:10019000000000000000000000000000000000005F
:1001A0000000000000000000BF020008BF020008BD
:1001B000BF020008BF020008BF02000800000000E4
:1001C00000000000BF020008000000000000000066
:1001D000BF020008BF02000800F002F800F052F869
:1001E00014A696E8000CB244B344DA4501D100F0FD
:1001F00049F8BAE80F000FA696E83000A5EB040511
:1002000004EB0607AAEB0704A7F101074FEA15154F
:100210004FEA3414A4F10104AC4201D300F032F8E7
:1002200013F0010F18BFFB1A43F0010300F001F8AF
:10023000DBE71847F0590000105A0000103A24BFBD
:1002400078C878C1FAD8520724BF30C830C144BF3B
:1002500004680C6070470000704700000023002411
:1002600000250026103A28BF78C1FBD8520728BFC6
:1002700030C148BF0B6070471FB505F039FC1FBD8A
:1002800010B510BD00F04EF91146FFF7F5FF04F070
:10029000E5FE00F06CF903B4FFF7F2FF03BC00F0D9
:1002A0002BF900000948804709480047FEE7FEE7B0
:1002B000FEE7FEE7FEE7FEE7FEE7FEE7FEE7FEE716
:1002C00004480549054A064B70470000FD420008F6
:1002D000D9010008C8050020C8160020C807002062
:1002E000C807002053EA020C00F069802DE9F04BAA
:1002F0004FF00006002B1FBFB3FA83F503FA05F495
:1003000024FA05F65E4012BF1643B2FA82F502FAED
:1003100005F4C5F120051EBF22FA05FC44EA0C04D1
:10032000203556EA044C4FEA144418BF641C4FF0C1
:1003300000084FF00009904271EB030C39D30029FB
:1003400019BFB1FA81F701FA07F6B0FA80F700FA9F
:1003500007F6C7F120071EBF20FA07FC46EA0C0685
:100360002037B6FBF4FCA7EB0507103F07F01F0B87
:10037000CBF120062CFA06F60CFA0BFB44BFB34671
:100380000026202FA4BF5E464FF0000B5BEA060C50
:1003900008BF4FF0010B19EB0B0948EB0608ABFB4C
:1003A000027C06FB02CC0BFB03CCC01B71EB0C01E7
:1003B000C1E70B46024641464846BDE8F08B13B5FF
:1003C000084318BF4FF0FF300146AFF30080BDE88F
:1003D0001C4070470EB5054614460E4613A000F0AB
:1003E00079F8284600F076F816A000F073F8304649
:1003F00000F070F815A000F06DF800218DF80B10DA
:100400000A210DF10A008DF80A1008E094FBF1F2C0
:1004100001FB124294FBF1F4303200F8012D002C64
:10042000F4DC00F057F800F04AF800002A2A2A20ED
:10043000617373657274696F6E206661696C65645F
:100440003A2000002C2066696C6520002C206C6925
:100450006E6520004FF0000200B5134694469646A4
:10046000203922BFA0E80C50A0E80C50B1F12001C7
:10047000BFF4F7AF090728BFA0E80C5048BF0CC075
:100480005DF804EB890028BF40F8042B08BF7047D3
:1004900048BF20F8022B11F0804F18BF00F8012B45
:1004A000704770477047704710B500F02FF800682C
:1004B00010BD10B5044600F029F8046010BD10B559
:1004C000002000F027F8FFF7DBFEBDE81040012018
:1004D00000F012B810B5044602E0641C00F004F805
:1004E00020780028F9D110BD08B569468DF80000C4
:1004F0000320ABBE08BD000001491820ABBEFEE7DB
:100500002600020000487047100000200048704795
:100510001000002010B500F039F8BDE8104000F0E0
:100520002FB870477546FFF7EDFFAE4605006946E8
:10053000534620F00700854618B020B5FFF7C0FEEF
:10054000BDE820404FF000064FF000074FF00008D4
:100550004FF0000BAC46ACE8C009ACE8C009ACE811
:10056000C009ACE8C00921F007018D46704710B5FD
:100570000446AFF300802046BDE81040FFF78BBE75
:10058000002801D0FFF7B8BF7047000010B5002168
:1005900002A000F013F8012010BD000053494741AC
:1005A0004252543A2041626E6F726D616C207465E4
:1005B000726D696E6174696F6E00000070B50546FA
:1005C0000C460A2000E06D1CFFF78EFF35B128783D
:1005D0000028F8D102E0641CFFF786FF14B12078F0
:1005E0000028F8D1BDE870400A20FFF77DBF000069
:1005F00080B540F2E410C2F2000001F02DF840F2A4
:100600005020C2F20000BDE8804001F025B8000093
:100610000146806AC36DC26D13F0500F08D0D20638
:1006200048BF01F017B8406D426B0846104700BF45
:1006300042F40071C16501680B68CA681B0703D4E6
:10064000910707D500F0C0BB12F4406FFAD1C9681A
:100650008904F7D4C16D21F48071C165C16DC904ED
:1006600048BF00F0B1BBC16D41F00101C16500F0B0
:10067000ABBB0000806AC16D41F04001C165016EF5
:1006800041F00401016600F0E5BF0000806A00F05F
:10069000DFBF000070B582B00446002001902168E1
:1006A0008A68D20711D14FF6C076C7F6FF76886800
:1006B00006F17F0210420BD0E06D40F01000E065C3
:1006C000206E40F001002066012002B070BD00BF26
:1006D0008868304040F00100886040F20830C5F280
:1006E00000000068000221D401F0CEFD21680A68F4
:1006F000D20717D1054602E00868C00712D1886802
:10070000C00704D18868304040F00100886001F0E3
:10071000BBFD401B21680328EED30868C007EBD15E
:10072000CAE700BF002002B070BD00BF40F2080061
:10073000C2F20000006842F663518009C0F23E51E7
:10074000A0FB0101880900EB40000C2101EB8000B7
:10075000019001980028C7D00198013801900198B4
:100760000028C1D001980138019001980028BBD021
:1007700001980138019001980028B5D001980138FE
:10078000019001980028E7D1AEE70000012884BF5E
:100790006FF0010070472DE9F04186B00C4641F240
:1007A0004C01C4F202010A6840F2BC2342F001028B
:1007B0000A600A68C2F2000302F001020192019A83
:1007C0000A6801AE42F001020A600A68022702F0DC
:1007D00001020192019A0A690C2542F001020A61A4
:1007E0000969942210FB023801F001000190019880
:1007F00004200190012003904FF090403146029771
:100800000497059501F06AFC0820CDE901074FF037
:1008100090403146059501F061FC4046214603F0C9
:1008200023FC002806B0BDE8F04114BF6FF00300C0
:100830000020704780B586B041F24C00C4F202003F
:10084000016841F001010160006801A900F00100A8
:100850000190019820200190012002900020039037
:10086000032004904FF0904001F038FC4FF090408E
:100870002021002201F002FD002006B080BD000012
:100880007047000040F21041C2F2000101EBC000CD
:1008900001F0FEBB10B586B041F24C02C4F2020278
:1008A0001368044643F004001060126840F600002C
:1008B00002F004020192019A4FF40052C4F60000C3
:1008C000019202220392049221B34FF48811029103
:1008D00001A901F003FC40F21040C2F2000000EB5D
:1008E000C4040D21C0F20061204601F0CBFB40F6AC
:1008F0002512C0F600022046002101F0E7FB282067
:100900000F21002201F036FD282001F021FD0020FA
:1009100006B010BD0021029101A901F0DFFB00200B
:1009200006B010BD0020FFF7ABBF0000FEE70000DF
:1009300040F25030C2F2000001F044BA40F2B03050
:10094000C2F2000001F03EBA704700000020FFF73D
:1009500099BF0000EFF3108072B600BFFEE7000001
:1009600070470000704700007047000070470000AB
:100970007047000090F85820012A04BF02207047F9
:1009800070B582B00022019200920268B2F1A04FCD
:1009900030D140F208324FF6006C4FF60055C5F2E8
:1009A0000002CFF6FF7CCFF6FF7552F80C4053598A
:1009B00023435B071ED4D1F800E01368BEF1000F9B
:1009C00023F4604424D04B6890F8386043EA4633FF
:1009D00023431360535952F80C603343DB0723D190
:1009E000136840F61F768968B343194341EA0E0144
:1009F00019E000BFC16D41F02001C1650121002255
:100A000080F8582002B0BDE870400846704700BF2B
:100A10001460515952F80C301943C90704D11168B8
:100A200040F61F73994311600021E8E7F0B581B0EB
:100A30000022009290F85820012A03D10221084692
:100A400001B0F0BD0123076880F85830BB685B0730
:100A500034D4D1E900351F26C5F3012407EB840403
:100A6000226B05F01F05AE40C3F38463B243AB4075
:100A70001A432263BA68BB6802F0040203F0080359
:100A8000D21840F0BC800A6807F114030426C2F3B0
:100A90004064D1F808E006EAD25C53F82440C2F37F
:100AA00004550722AA40BEF1004F24EA02040BD1EC
:100AB00043F80C401A6842F000430DE0C16D41F06C
:100AC0002001C165012178E10EFA05F2224343F8C5
:100AD0000C201A6822F000437B61D1E90435FC68E0
:100AE000042B5FD13A6E3A6E0B68C2F3846293FABC
:100AF000A3F6C3F3846C6FF3DF43B6FA86F5002BDD
:100B00002C464FF6FF7E08BF6446A242C0F2070E95
:100B10000CD13A6E22F000423A660A6802EA0E03ED
:100B2000C2F3846C92FAA2F2B2FA82F57A6E7A6E0D
:100B3000002BC2F384622C4608BF6446A2420CD14B
:100B40007A6E22F000427A660A6802EA0E03C2F365
:100B5000846C92FAA2F2B2FA82F5BA6EBA6E002BE7
:100B6000C2F384622C4608BF6446A2420CD1BA6E1E
:100B700022F00042BA660A6802EA0E03C2F3846CED
:100B800092FAA2F2B2FA82F5FA6EFA6E002BC2F372
:100B9000846208BF6546AA4231D1FA6E22F0004253
:100BA000FA662CE0062202EA940205FA02FC0E68BC
:100BB00007F1600555F823404FF20002C0F2FF3202
:100BC00006F0F846224046EA0C06324342F0004264
:100BD00045F823200A698B6955F8226026F0807653
:100BE000334345F822300A690B7F55F82260012B08
:100BF00026F0007608BF06F1007645F82260BA6854
:100C00000D68D20750D1CA68D7F8B0602B466FF391
:100C1000DF4326EA030C4FF6FF7602F01804C0F219
:100C20000706E64000242E40C4F27F0446EA0C0684
:100C3000A242C7F8B06037D193B195FAA5F2B2FAE3
:100C400082F2013202F01E03092B02F01F0310D8BA
:100C500001229A4003EB430342EA035315E000BF2D
:100C6000012202EB956202F01E030A2B02F01F0321
:100C7000EED3012200269A4003EB4303CFF6206611
:100C800006EB03531A4342F00073C3F3406607EBCD
:100C900086068A687569C3F3045307249C40A543FC
:100CA0009A402A4372610D680021C8F208010D4282
:100CB00000F0828040F2083CC5F2000CDCF80040F5
:100CC0000021CCF221318D4204F0E07E04D01021CD
:100CD000C9F2C0018D4241D1B7F1A04F4FF00001E0
:100CE00008BF14F4000268D1DCF8001042F6635229
:100CF00021F0E07141EA0E0141F40001CCF800104E
:100D000040F20801C2F200010968C0F23E528909AE
:100D1000A1FB0212910901EB41010C2202EB8101BE
:100D200000910099002947D000990139009100995C
:100D3000002941D00099013900910099E1B300994F
:100D4000013900910099B9B30099013900910099D6
:100D500000294FF00001E7D12FE000BF0021CCF2C5
:100D600052718D4210D10021B1EB1E6F0CD1ACF548
:100D700002718F4220D0DCF8001021F0E07141EACE
:100D80000E0141F0807115E0ACF502718F424FF019
:100D9000000112D00022CCF68432954208BF14F430
:100DA00080020AD1DCF8001021F0E07141EA0E0166
:100DB00041F48001CCF800100021002280F8582076
:100DC000084601B0F0BD0000F0B581B02DED068BF6
:100DD00082B040F25021C2F2000188420CD002B031
:100DE000BDEC068B01B0F0BD3ACD133FABAA2A3F54
:100DF000ABAAAA3EDA0FC94040F2CC00C2F2000012
:100E0000031D0ECBD0E90A6540F27017C2F200074D
:100E1000C0E90461F96C046B0029C0E9065403625F
:100E2000426200F0D98391ED000A91ED011A91ED33
:100E3000022A97ED153A40F29451B8EE400A97ED28
:100E4000164A97ED175A97ED186AB8EE411AB8EEA0
:100E5000422AC2F2000197ED197AD7ED1A0AD7EDAE
:100E60001B1A23EE000A23EE011A23EE022ACA6897
:100E700030EE440A31EE451A32EE462A20EE070AD9
:100E800020EE811A21EE822A002A87ED100A87EDD2
:100E9000111A87ED122A00F09F8392ED000A92ED5D
:100EA000011A92ED022A91ED053AB8EE400A91ED51
:100EB000064A91ED075A91ED086AB8EE411AB8EE6C
:100EC000422A91ED097AD1ED0A0AD1ED0B1A23EEEF
:100ED000000A23EE011A23EE022AC26B30EE440A06
:100EE00031EE451A32EE462A20EE070A20EE811A2C
:100EF00021EE822A002A81ED000A81ED011A81ED9E
:100F0000022A00F0758392ED000A90ED111AB8EEF6
:100F1000400A90ED122A90ED133A21EE000A416D3D
:100F200030EE420A20EE030A002980ED0E0A00F09E
:100F30005F8391ED000A90ED171AB8EE400A90ED2C
:100F4000182A90ED193A21EE000A30EE420A20EEFE
:100F5000030A6FF0C00680ED140A06F1C00040F2EB
:100F60000044ADF806000020C4F60004ADF804000B
:100F700020460221002201F081F940F218400A25A2
:100F8000C2F200000DF1060101AA0223009502F051
:100F900007F920460221012201F070F9BDF8040092
:100FA00097ED071A20F0C000704000BA000C00EE68
:100FB000100AB8EE400AB8EE411A80EE011AF86045
:100FC00097ED043AB7EE000AB88A97ED062AB6EE16
:100FD00000AA31EE004A34EE433A04EE100AB8EEAD
:100FE000444A23EE043ABDEEC34AB8EEC44A33EE97
:100FF000443A31EE424AB4EE4A4AF1EE10FA87ED35
:10100000001A87ED013A02DDB8680138B86032EEA7
:10101000412AB4EE4A2AF1EE10FA02DDB868013036
:10102000B86040F23411C2F2000187ED061A91ED6A
:10103000051A91ED062A91ED043A32EE011AB4EE4A
:10104000431A81ED051A40F25010F1EE10FAC4BFB8
:1010500091ED031A81ED051AC2F20000D0E90623D2
:1010600081ED001A81ED011A511C994228BF00211F
:10107000816130D3416890ED022A91ED001ABEEEF5
:10108000003A31EE422AB4EE432AF1EE10FA03DAC6
:1010900032EE002A09E000BFB4EE4A2AF1EE10FA5F
:1010A000C4BFBFEE003A32EE032A90ED033A90ED52
:1010B000044A90ED055A22EE032A30EE440A25EE4A
:1010C000000A22EE042A32EE000A80ED050A80EDC5
:1010D000000A80ED021A40F27C44C2F20004D4F807
:1010E0000001002800F01B82D4E900011FEDC23A84
:1010F00091ED010A91ED021A91ED002A30EE010AFC
:1011000020EE0A0A1FEDC71A32EE400A20EE010A4D
:1011100084ED250A91ED010A91ED022A30EE420A92
:1011200020EE030A84ED260A91ED000A91ED012AD2
:1011300091ED024A30EE020A1FEDD32A30EE040A86
:1011400020EE020A84ED270A90ED010A90ED024A92
:1011500090ED005A30EE040A20EE0A0A35EE400AFD
:1011600020EE010A84ED2B0A90ED010A90ED021A9F
:1011700030EE410A20EE030A84ED2C0A90ED000ABD
:1011800090ED011A90ED023A30EE010A206930EE3E
:10119000030A20EE020A002884ED2D0A00F03482B2
:1011A00090ED010A1FEDED1A20EE019AB0EE490A0A
:1011B00004F018FBB0EE408AB0EE490A04F06AFA77
:1011C00094ED251A94ED263AD4F89C0094ED2B4A20
:1011D00094ED2C5A28EE032A21EE006A20EE033A01
:1011E00021EE081AC4F8A800D4F8B40036EE022A9A
:1011F00033EE411A28EE053A24EE006A36EE033A41
:10120000C4F8C000D4F8100120EE055A24EE084AB4
:1012100084ED2E3A94ED313A35EE444A84ED282A95
:1012200084ED291A84ED2F4A84ED383AA0B1606923
:10123000002800F0F181D4E9201294ED375A90EDA6
:10124000004A481C904228BF0020C4F8800011D2F8
:1012500094ED184A68E000BF94ED324AD4F80C01CE
:1012600084ED394A002869D194ED332A94ED341A7B
:10127000ECE000BF94ED226AD4ED240A94ED237AC9
:1012800035EE465AB4EE605AF1EE10FAB4EE475A13
:10129000C8BFB0EE605AF1EE10FAB8BFB0EE475AD0
:1012A00036EE055A84ED225A35EE445A94ED194A29
:1012B00094ED1A6A24EE054AD4ED1E1A24EE066A4D
:1012C000D4ED1D2AD4ED1C0A36EE216AB4EE626A12
:1012D00094ED1B7AF1EE10FAB4EE606AC8BFB0EE7E
:1012E000626AF1EE10FAB8BFB0EE606AD4ED1F1A70
:1012F00084ED1E6A75EE611A21EE877A37EE066A72
:1013000034EE064AB4EE624AF1EE10FAB4EE604AE8
:10131000C8BFB0EE624AF1EE10FAB8BFB0EE604A54
:1013200084ED184A84ED1F5A94ED325A34EE054A82
:10133000D4F80C0184ED394A002895D033EE422AC6
:1013400094ED093A94ED0A5A22EE033AD4ED0E0ACE
:1013500023EE055AD4ED0D1A94ED0C7A35EE205A91
:10136000B4EE615A94ED0B6AF1EE10FAB4EE475AFE
:10137000C8BFB0EE615AF1EE10FAB8BFB0EE475AEE
:10138000D4ED0F0A84ED0E5A72EE600A20EE866AE2
:1013900036EE055A33EE053AB4EE613AF1EE10FA44
:1013A000B4EE473AC8BFB0EE613AF1EE10FAB8BFFA
:1013B000B0EE473A94ED335A84ED083A84ED0F2AA3
:1013C00035EE032A94ED113A34EE411A94ED124AA7
:1013D00021EE033A94ED165A23EE044A34EE054A00
:1013E00094ED155A94ED146AB4EE454AF1EE10FAF4
:1013F000B4EE464AC8BFB0EE454AF1EE10FAB8BFA7
:10140000B0EE464A94ED177AD4ED130A31EE477ADE
:1014100027EE207A84ED164A37EE044A33EE043A7A
:10142000B4EE453AF1EE10FAB4EE463AC8BFB0EE6B
:10143000453AF1EE10FAB8BFB0EE463A94ED344AB0
:1014400084ED103A84ED171A34EE031AD4F808111B
:10145000002084ED3A2A84ED3B1AC4F8F00089B1EB
:1014600028EE013A22EE004A20EE010A22EE081A86
:1014700034EE433A31EE000A84ED3D3A84ED3E0A03
:10148000C4F8FC00D4F80411E06929B394ED3D0AD6
:1014900094ED3E1A9FED683ABEEE002A20EE024A15
:1014A00021EE031A34EE012A34EE411AB4EE420A58
:1014B000B0EE403AB0EE424AF1EE10FAC8BFB0EEDC
:1014C000423AC8BFB0EE404AB4EE441AF1EE10FA08
:1014D00008DDB0EE414A0CE09FED580A00210160A2
:1014E00041601AE0B4EE431AF1EE10FAB8BFB0EE64
:1014F000413A33EE043A23EE0A3A30EE430A30EE34
:101500000A0A32EE432A32EE0A2A80ED000A31EE50
:10151000430A80ED012A30EE0A0A80ED020A97EDB7
:101520000B2A97ED080AB8EE422A97ED091A20EE29
:10153000020A386BBCEEC00A97ED0A3A10EE101A98
:1015400021EE021A0144BCEEC11A00EE101A11EE8F
:10155000101A23EE023AB8EE400A0144BCEEC33A38
:10156000B4EE420A01EE101A13EE101AF1EE10FA60
:10157000C8BFB0EE420AB8EE411A0844BCEEC00A39
:10158000B4EE421A03EE100A87ED0D0AF1EE10FADE
:10159000C8BFB0EE421AB8EE433A40F28000BCEE4B
:1015A000C11AB4EE423AC2F2000087ED0E1AF1EE13
:1015B00010FAC8BFB0EE423A0068BCEEC32A87ED0D
:1015C0000F2A80ED0D0A80ED0E1A80ED0F2A02B071
:1015D000BDEC068B01B0F0BD45F6144045F6CA31AE
:1015E000C0F60000C0F6000140F23712FEF7F2FE2E
:1015F00045F6144045F6CA31C0F60000C0F60001B9
:101600005122FEF7E7FE00BF45F66C310CA0C0F694
:101610000001B822FEF7DEFE45F66C3102A0C0F6EE
:101620000001D122FEF7D6FE6D74722D3E76656CF8
:101630006F63697479000000D7B35D3F000000005C
:101640006D74722D3E706F736974696F6E00000067
:1016500070470000704700002DE9F047056840F230
:101660000018C5F200082E68D5F804A0D8F8087252
:101670000446B0070FD51AF002000CD0E06DC0068A
:1016800003D4E06D40F40060E0652046FFF768F9A0
:10169000256802202860700707F01F0902D51AF09C
:1016A000040004D1300749D51AF0080046D020467E
:1016B00050F85C2FD20603D4026842F40072026034
:1016C000EA6812F4406F33D12A46454508BF4FF00F
:1016D000A0421346B9F1090F08BF2B46B9F1050F17
:1016E00008BF2B46B9F1000F08BF2B46AA4208BF1E
:1016F0001346DA6892041BD42A68120718D5AA6820
:1017000052070BD46A6822F00C026A60016821F467
:10171000807101600168C90406D509E0E06D40F000
:101720001000E06504F16000016841F00101016012
:101730002046FFF749FB25680C202860B00602D53B
:101740001AF0200004D170062CD51AF0400029D0E0
:10175000204650F85C2FD20603D4026842F40052AF
:1017600002602946EF6CEA68454508BF4FF0A0418A
:101770000B46B9F1070F08BF2B46B9F1060F08BF9A
:101780002B46B9F1000F08BF2B46A94208BF0B46F4
:10179000DB6817F4C07F6BD02046FFF7E3F82568BD
:1017A0006020286030060CD51AF0800009D0E06D6A
:1017B00040F48030E065204600F0ACF925688020D8
:1017C0002860F0050DD51AF480700AD0E06D40F461
:1017D0000030E0652046FFF7C9F825684FF48070B7
:1017E0002860B0050DD51AF400700AD0E06D40F401
:1017F0008020E0652046FFF7BBF825684FF40070B5
:101800002860F0061AD51AF0100017D0E06B38B136
:10181000B9F1000F4ED0D8F8080210F4604F0BD089
:10182000E06D40F48060E065206E40F002002066CC
:101830002046FFF70FFF256810202860700558BF6D
:10184000BDE8F0871AF4806010D0E06D4FF480613D
:1018500040F48040E065206E40F00800206620469D
:101860002960BDE8F047FFF77FB800BFBDE8F0870B
:10187000990106D502F4406103F4005289187FF4FF
:101880008BAF296849067FF587AF13F400117FF409
:1018900083AFA968090711D4696821F06001696004
:1018A000016821F4805101600168C9053FF574AFFA
:1018B0000AE000BFE868C007B2D1BDE7E06D40F0C4
:1018C0001000E06504F16000016841F00101016071
:1018D00062E70000B0B582B00446002001904CB130
:1018E000E06D58B121688868800012D48868C00013
:1018F00019D54CE0012002B0B0BD00BF204600F079
:101900000BF90020206684F8580021688868800060
:10191000ECD588684FF6C072C5F6FF72104088603B
:101920008868C00033D44FF6C0728868C5F6FF726D
:1019300002F18052104000F18050886040F20800AF
:10194000C2F20000006842F663528009C0F23E52C3
:10195000A0FB02029009022202EB400001900198D4
:10196000A8B100BF019801380190019878B10198A1
:1019700001380190019850B1019801380190019807
:1019800028B101980138019001980028EAD18868AF
:10199000C00009D4E06D40F01000E065206E40F01A
:1019A00001002066012000E000208A68E36D02F05B
:1019B000040203F01003D218E26D71D122F4817297
:1019C0000232E2658A68D2071AD140F2083C4FF62B
:1019D00000534FF60062C5F2000CCFF6FF73CFF64E
:1019E000FF725CF803305CF802201A43D20707D17B
:1019F0006268DCF8003023F47C131A43CCF8002032
:101A000094F81DE0E36BD4E902C243EA4E331A4373
:101A100094F8243042EA0C02012B42EA034207D137
:101A2000D4F828C00023CFF6FE7303EB4C431A43CF
:101A3000E36A33B1D4F830C003F4787343EA0C039B
:101A40001A43D1F80CC044F20703CFF6F07303EA4F
:101A50000C031A43CA600A69636B22F040621A439E
:101A60000A618A68120744D494F83820237F520010
:101A700042EA833CCB6844F2020223EA020242EAD1
:101A80000C02CA6022690B6982B143F480330B6196
:101A9000D1F8C0C043F6FF732CEA03031A430DE0EC
:101AA00042F010010120E16502B0B0BD23F48032A4
:101AB0000A61D1F8C02043F6FF739A43C1F8C020F1
:101AC00094F840300A69012B10D140F2FD7322EAEC
:101AD000030CD4E91132D4E913E543EA0C031A43A9
:101AE00042EA0E022A4342F0010201E022F0010222
:101AF0000A6162690B6B012A23F00F0202D1236A8B
:101B0000013B1A430A63E16D012262F30101E165C1
:101B100002B0B0BD70470000F0B597B00446002099
:101B20001690CDE91400CDE9120001A84421FEF77A
:101B300091FC206840F20011C5F20001884257D0A4
:101B4000B0F1A04F40F0C9804FF4004001904FF039
:101B50000050109001A800F0E7FC002818BFFEF725
:101B6000F9FE40F2E011C2F200010A6841F24C00B5
:101B7000C4F20200531C0B6042B9016841F40051E9
:101B80000160016801F4005100910099016812ADF3
:101B900041F0040101600168032701F00401009194
:101BA00000990168002641F00101016000682946A2
:101BB00000F00100009000980820129040F600000C
:101BC000C4F600001397149600F088FA4FF0904086
:101BD0002946CDE91277149600F080FA40F250358C
:101BE0000820C2F20005C4F20200052154E000BF43
:101BF0004FF4004001904FF00050109001A800F009
:101C000093FC002818BFFEF7A5FE40F2E011C2F2D7
:101C100000010A6841F24C00C4F20200531C0B6040
:101C200042B9016841F400510160016801F40051BA
:101C300000910099016812AD41F004010160016852
:101C4000032701F00401009100990168002641F08A
:101C5000010101600068294600F001000090009831
:101C60001120129040F60000C4F60000139714965D
:101C700000F034FAC020CDE912074FF09040294619
:101C8000149600F02BFA0820C4F2020040F2B0359E
:101C90001430C2F20005242180224FF400734FF467
:101CA00000674FF0200C286028466960AE60EE6047
:101CB0002A616B61AF61C5F81CC02E6200F0D8F8D4
:101CC00008B1FEF747FE1220002100226565AC62D4
:101CD00000F050FB122000F03BFB17B0F0BD0000FD
:101CE0002DE9F04140F200170446C5F20007D7F88D
:101CF0000802236890469B685A0704D40E4694F85D
:101D00005810012902D10220BDE8F08100F01F0522
:101D10000120092D84F8580008D8A84040F221215C
:101D2000084203D02046FEF7B5FC28B1002084F815
:101D300058000120BDE8F0812168E06D40F6017295
:101D4000904300F58070E0650DB1B94203D0E06DBD
:101D500020F48010E065E06D40F21163C0044FF0A4
:101D6000000044BF206E20F006002066606D40F247
:101D70008D67C0F60003C0F6000740F275650022CB
:101D8000C0F60005C0E90B371C2345630B6084F8DF
:101D900058204A68434642F010024A60CA6842F03E
:101DA0000102CA604031324600F0F8F821684FF66F
:101DB000C0738A68C7F6FF731A4004328A60BDE8B0
:101DC000F0810000B0B5D0E910C30268DCF8001063
:101DD00003F01F030424D2F800E09C400C4218BF1B
:101DE0001EF0040522D102249C400C4218BF1EF0B4
:101DF000020529D1D940090724D51EF0080108BFE2
:101E0000B0BD116821F00E011160012101FA03F249
:101E1000CCF80420C16380F82510416B002280F8C3
:101E2000242079B1BDE8B040084700BF1168890699
:101E300003D4116821F004011160CCF80440016B57
:101E40000029EFD1B0BD00BF1168890606D4116822
:101E500021F00A011160012180F82510CCF804401E
:101E6000C16A0022002980F82420DBD1EAE70000C3
:101E700000284FF0010100F08E802DE9F04740F27C
:101E8000000CC4F2020C03684FF6F8320CF5816EB8
:101E9000CBF6FD72734538BF02F580624CF6CD4437
:101EA0001A44CCF6CC44A2FB042803F0FC02A2F1B5
:101EB0000802A2FB04290CF580656FF00304D0E949
:101EC0000262D0F810A03CBF0025C4F2020504EA6B
:101ED0009804C0E91054022580F825501D6847F683
:101EE000F07725EA07073A43476942EA0A0285691B
:101EF0003A43C7692A43056A3A432A4332431A6080
:101F00000CF50262734538BF0CF50062A3180CF59E
:101F10000862C264C9F3041240F6840C01FA02F2AA
:101F2000B6F5804FC4F2020C8364026506D100212D
:101F300041601960CCF800201EE000BF41685FFAE4
:101F400081FE013903294FF00001C3F800E0CCF80D
:101F5000002011D8AEF101020CEB820747F87C1F7C
:101F600002F01F01012202FA01F30CF1BC02394612
:101F7000CCF8C03002E000BF0022002300F1540C76
:101F80008CE80E0000210122C16380F8252080F832
:101F90002410BDE8F04708467047000090F824C0C0
:101FA000BCF1010F47D04FF0010C80F824C090F82D
:101FB00025C0BCF1010F3BD12DE9F0414FF0020CDF
:101FC00080F825C04FF0000CC0F83CC0D0F800C02D
:101FD00000F14C0E9EE83040DCF80060BEF1000FCE
:101FE00026F00106CCF8006065601CBFD0E91645FC
:101FF0006560D0E91056012706F01F06846807FACD
:1020000006F6D0F830806E60CCF804300B46102C09
:1020100004BF13460A46CCF80830CCF80C20DCF894
:102020000010B8F1000F09D041F00E010EE000BF22
:10203000002180F824100220704700BF21F0040125
:10204000CCF80010DCF8001041F00A01CCF80010C8
:10205000806C0168C90303D5016841F48071016097
:10206000BEF1000F05D0DEF8000040F48070CEF81D
:102070000000DCF8000040F00100CCF80000002077
:10208000BDE8F08100280EBF0120016000207047EC
:1020900080B50168082240F2144E01F01F0302EAE5
:1020A0005131C4F2010E4FF0010C5EF821200CFA00
:1020B00003F3134208BF80BD4EF82130406818B1C9
:1020C000BDE88040004700BF80BD000003460029F6
:1020D0001CBF0121002208465A6070472DE9F04FCD
:1020E00082B00D68002D00F0C58000F138478605EC
:1020F00046EA972741F20046C4F60006062240F25F
:10210000004EB04208BF0522C4F2010E052F38BFB1
:102110003A464FF0000C012400270026009209E007
:102120000D68013635FA06F207F102070CF1040CCE
:1021300000F0A08004FA06FB15EA0B08F0D0D1F8F5
:1021400004A003230AF003056A1EBB40012A6FEABC
:1021500003090FD88268CB6802EA0902BB401A4320
:1021600082604268CAF3001322EA0B02B3401A43AA
:10217000426003E0032D01D103251FE0C2688B6894
:1021800002EA0902BB401A43022DC26016D16FF069
:10219000030202EA560202440CF01C050F23D2F897
:1021A00020A003FA05FB0B692AEA0B0AAB4043EABD
:1021B0000A031362D1F804A00AF00305026805FAC5
:1021C00007F302EA09021A431AF4403F0260A7D05B
:1021D00041F26003C4F202031A684FF6084A42F063
:1021E00001021A601A68CFF6FF7A02F0010201922A
:1021F000019A26F00302724452F80A900CF00C0582
:102200000F23009CAB4029EA030304FA05F52B4396
:1022100042F80A30DEF808204B6842EA080540F22E
:102220000C49DC0258BF22EA0805CEF80850C4F277
:102230000109D9F800209D0242EA080458BF22EAA9
:102240000804C9F80040DEF804209D0342EA0804AF
:1022500058BF22EA0804CEF80440DEF80020DB0371
:1022600042EA080458BF22EA0804CEF800400124DC
:1022700056E700BF02B0BDE8F08F00001823002A27
:1022800008BF2823C150704740F2C450C2F200007A
:102290000068704740F2000040F2C451C2F20000F2
:1022A000C2F2000140680A681044086070470000EC
:1022B00080B5032000F08AF8002000F009F800281B
:1022C0001CBF012080BD00F029F8002080BD000067
:1022D00070B540F20006C2F200067168E1B1044632
:1022E00040F20800C2F200004FF47A720068B2FBBC
:1022F000F1F1B0FBF1F001F0D1F80F2C4FF0010536
:1023000008D838B94FF0FF3021460022002500F0F0
:1023100031F83460284670BD012070BD82B041F2B2
:102320005800C4F20200816841F0010181608168B7
:1023300001F0010101910199016841F080510160B2
:10234000006800F080500090009802B000F0E2B801
:10235000002848BF704700F01F01012202FA01F176
:102360001C2202EAD0004EF20012CEF2000281508E
:102370007047000010B54EF60C5CCEF2000CDCF895
:102380000030C3F3022E8EF00704042C28BF04246F
:10239000BEF103034FF0FF3E0EFA04F438BF0023F2
:1023A000A14399400EFA03F39A43114300F00F0240
:1023B00000F160430901043A03F5644362440028D4
:1023C00048BF02F10C03197010BD00004EF60C510D
:1023D000CEF200010A684FF6FF031A4060F30A22AA
:1023E00042F0806040F0FD7008607047B0F5007FFB
:1023F00042D0002840F0808047F21400C4F2000070
:1024000050F8141CC26E01F4C06122F48072B1F560
:10241000806FC2662ED150F8141C012262F34A214B
:1024200040F8141C40F20801C2F20001096832228F
:1024300051434DF68362C4F21B32A1FB0212910C90
:102440000268520511D54A1C0FD0026852050CD5FE
:1024500059B10268520508D5012906D00268520513
:1024600003D50229A1F10401EAD10068400544BF67
:10247000032070470020704747F21400C4F20000A8
:1024800050F8141CC26E01F4C06142F48072B1F5C0
:10249000806FC266EED150F8141C012262F34A210B
:1024A00040F8141C40F20801C2F20001096832220F
:1024B00051434DF68362C4F21B32A1FB0212910C10
:1024C0000268520511D54A1C0FD0026852050CD57E
:1024D00059B10268520508D5012906D00268520593
:1024E00003D50229A1F10401EAD10068400544BFE7
:1024F00003207047BEE700BF47F21400C4F200009B
:1025000050F8141C022262F34A2140F8141C0020E7
:102510007047000047F20800C4F20000016841F46F
:1025200080410160704700002DE9F04182B004460F
:10253000807841F288060007C4F2020602D4002027
:102540002FE000BF56F8300C5FEAC0080BD456F8F5
:10255000300C40F0805046F8300C56F8300C00F04B
:1025600080500190019847F20007C4F200073868D4
:1025700040F480703860FFF787FE05463868C00574
:1025800000F1D680FFF780FE401B0228F6D9032019
:10259000B8F1000F05D456F8301C21F0805146F8F0
:1025A000301C2168CA0713D18A0719D44A071FD4DF
:1025B0000A0725D48A062BD44A0631D40A0637D412
:1025C000CA053DD48A0543D44A0549D457E000BF23
:1025D0003268636822F003021A4332608A07E5D545
:1025E0003268A36822F00C021A4332604A07DFD532
:1025F0003268E36822F030021A4332600A07D9D504
:102600003268236922F0C0021A4332608A06D3D5A9
:102610003268636922F440621A4332604A06CDD5BB
:102620003268A36922F440521A4332600A06C7D5C1
:102630003268E36922F440421A433260CA05C1D5C8
:102640003268236A22F440321A4332608A05BBD5CD
:102650003268636A22F440221A4332604A050ED57A
:102660003268A36A22F440121A43B3F5801F326025
:1026700005D156F87C2C42F4801246F87C2C0A05D1
:102680000ED53268E36A22F440021A43B3F5800F94
:10269000326005D156F87C2C42F4801246F87C2C2E
:1026A000CA040ED53268236B22F040721A43B3F18C
:1026B000807F326005D156F87C2C42F4801246F8B7
:1026C0007C2C8A040ED53268636B22F040621A4378
:1026D000B3F1006F326005D156F87C2C42F48012C1
:1026E00046F87C2C4A040ED53268A36B22F0406277
:1026F0001A43B3F1006F326005D156F87C2C42F4D6
:10270000801246F87C2C09040ED53168E26B21F06A
:1027100040511143B2F1805F316005D156F87C1C05
:1027200041F4803146F87C1C02B0BDE8F08100BF66
:10273000B06810F4407010D0216C88420BD0B068A3
:10274000B16820F4407041F48031B160B16821F487
:102750008031B160B060C0070CD1B068216C20F44A
:1027600040700843B0600020B8F1000F3FF519AF8A
:1027700011E700BFFFF788FD054641F2883700BF2B
:10278000B0688007E9D4FFF77FFD401BB842F7D956
:10279000FDE600002DE9F047002865D042F2000A6E
:1027A000C4F2020A0446DAF800000D4600F00F00F9
:1027B00088420CD2DAF8000020F00F002843CAF853
:1027C0000000DAF8000000F00F00A8424CD12168A8
:1027D00041F20808C807C4F2020803D1880740F193
:1027E000D480B9E0606802283AD0032840D158F874
:1027F000082C920138D5D8F80420D8F8043042F2D9
:102800000046C3F3031302F00302D8F80470013347
:10281000C0F2F406032A04BF43F20066C0F26E164B
:10282000B6FBF3F2D8F80430C7F306277A43C3F3B4
:102830004163022707EB4303B2FBF3F24BF2004381
:10284000C0F2C4439A425DD9D8F8002012F0F00FCC
:102850004DD0890756D5A168002953D147E000BF64
:1028600058F8081C890307D40120BDE8F08700BF91
:1028700058F8081C4905F7D5D8F8001001F00C01EC
:1028800004293FD0D8F8001001F00C01082939D0F4
:10289000D8F8001001F00C010C2933D1D8F804103D
:1028A000D8F8042042F20047C2F3031201F00301FA
:1028B000D8F804300132C0F2F407032904BF43F210
:1028C0000067C0F26E17B7FBF2F1D8F80420C3F32B
:1028D00006235943C2F34162022303EB4202B1FBD8
:1028E000F2F14BF20042C0F2C44291420AD9D8F848
:1028F0000010082262F307114FF00109C8F8001018
:1029000002E000BF4FF00009D8F8001021F00301E9
:102910000843C8F80000FFF7B7FC064641F28837C5
:10292000D8F80000616800F00C00B0EB810F07D010
:10293000FFF7AAFC801BB842F2D90320BDE8F0875C
:102940002168880708D4B9F1000F1ED0D8F800001C
:1029500020F0F00017E000BF480705D5D8F80000C8
:1029600040F4E060C8F80000080706D5D8F8000079
:10297000072262F30D20C8F80000D8F80000A26812
:1029800020F0F0001043C8F80000DAF8000000F072
:102990000F00A8421BD9DAF8000020F00F002843EE
:1029A000CAF80000FFF770FC064641F2883700BF06
:1029B000DAF8000000F00F00A84207D0FFF764FC2F
:1029C000801BB842F4D90320BDE8F087216848078E
:1029D00007D5D8F80000E26820F4E0601043C8F89A
:1029E0000000080708D5D8F80000216920F46050DD
:1029F00040EAC100C8F80000D8F8000042F20041E7
:102A0000C0F2F40100F00C00042808462DD0D8F8DC
:102A1000000000F00C00082843F20060C0F26E10C5
:102A200023D0D8F8002002F00C020C2A1CD1D8F8D0
:102A30000420D8F8043002F00302C3F30313D8F8DB
:102A400004700133032A08BF0146B1FBF3F0D8F844
:102A50000410C7F30627C1F341610222784302EB59
:102A60004101B0FBF1F000E00020D8F8001045F67D
:102A70002C32C1F30311C0F60002515C40F208028F
:102A800001F01F0120FA01F140F20000C2F2000043
:102A90000068C2F200021160BDE8F047FFF718BC01
:102AA00040F2080041F20801C2F20000C4F2020143
:102AB0000068096845F63C32C1F30221C0F6000205
:102AC000515C01F01F01C8407047000040F208004F
:102AD00041F20801C2F20000C4F202010068096874
:102AE00045F63C32C1F3C221C0F60002515C01F050
:102AF0001F01C8407047000041F20C01C4F20201FE
:102B000051F8040C42F20042C0F2F40200F00C0052
:102B10000428104608BF704751F8040C00F00C0060
:102B2000082843F20060C0F26E1025D051F8043C32
:102B300003F00C030C2B1CBF0020704780B5D1F8AC
:102B400000C00B680CF0030CC3F3031E0B680EF1FE
:102B5000010EBCF1030F08BF02460968B2FBFEF08C
:102B6000C3F30623C1F341610222584302EB410142
:102B7000B0FBF1F0BDE8804070470000002804BFC2
:102B8000012070472DE9F04182B00446007841F2FF
:102B90000006C007C4F202061ED1207880073DD48B
:102BA0002078000764D42078400700F187802078DF
:102BB000800600F1D980E569002D00F04482B068FC
:102BC00000F00C000C2840F03181012D40F0908184
:102BD000012002B0BDE8F081B06800F00C01F0689F
:102BE000082961D0032281F00C0122EA0000084488
:102BF000B0FA80F0400957D16068B0F5803F07D047
:102C0000B0F5A02F40F0E480306840F480203060C0
:102C1000306840F480303060E5E000BFB068F168B3
:102C200000F00C00042871D001F0030180F00C00CA
:102C300081F002010844B0FA80F0400966D1E168F1
:102C40003068002900F0E08040F480703060FFF7C9
:102C50001BFB05463068400500F10A81FFF714FBB5
:102C6000401B0228F6D9032002B0BDE8F08100BF66
:102C70006169D6F89400002900F0948040F00100CA
:102C8000C6F89400FFF700FB054600BFD6F8940095
:102C900080073FF588AFFFF7F7FA401B0228F5D908
:102CA000032002B0BDE8F081306880037FF575AF86
:102CB000606800287FF471AF3EE000BFB06D5FEA4E
:102CC000C00808D4B06D40F08050B065B06D00F021
:102CD00080500190019847F20007C4F2000738685D
:102CE000C0052DD4386840F480703860FFF7CCFA06
:102CF000054600BF3868C00522D4FFF7C5FA401B5F
:102D00000228F7D9032002B0BDE8F0813068400501
:102D100001D5E06880B17068216920F0FE4040EA8A
:102D20000160706040F20000C2F200000068FFF72E
:102D3000CFFA00283FF434AF012002B0BDE8F081A3
:102D4000A068012808D0052840F0B080D6F890008F
:102D500040F00400C6F89000D6F8900040F0010062
:102D6000C6F89000B0E000BFA169D6F8980000292D
:102D700000F0868040F00100C6F89800FFF784FA62
:102D8000054600BFD6F8980080073FF514AFFFF75F
:102D90007BFA401B02284FF00300F3D902B0BDE8D4
:102DA000F08100BF20F00100C6F89400FFF76CFA34
:102DB000054600BFD6F8940080077FF5F4AEFFF714
:102DC00063FA401B0228F5D9032002B0BDE8F08168
:102DD0003168002821F480313160316821F480218C
:102DE000316000F0BF80FFF74FFA0546306880037E
:102DF0003FF5D3AEFFF748FA401B6428F6D903200D
:102E000002B0BDE8F08100BF20F480703060FFF7B1
:102E10003BFA0546306840057FF5C2AEFFF734FA4D
:102E2000401B02284FF00300F4D9B7E7306820F0C8
:102E300080703060FFF728FA022D05460CD100BFE4
:102E40003068800140F1BA80FFF71EFA401B02286B
:102E50004FF00300F4D9A1E73068800140F1EC8025
:102E6000FFF712FA401B02284FF00300F4D995E750
:102E70007068216920F0FE4040EA016070608FE6D2
:102E800020F00100C6F89800FFF7FEF9054600BFE4
:102E9000D6F8980080077FF58EAEFFF7F5F9401B56
:102EA00002284FF00300F3D978E700BFD6F890105E
:102EB000002821F00101C6F89010D6F8901021F0FA
:102EC0000401C6F890105DD0FFF7DEF9054641F227
:102ED000883700BFD6F89000800765D4FFF7D4F993
:102EE000401BB842F6D9032002B0BDE8F08100BF14
:102EF000F068216A00F003028A427FF41DAF626A23
:102F00006FF00F0300F0F00103EB021291427FF427
:102F100013AFA16A00F4FE42B2EB012F7FF40CAFB5
:102F2000E16A00F07842B2EBC16F7FF405AF226B2B
:102F30000023CFF6E07303EA025200F4C001A2F5C9
:102F4000001291427FF4F8AE616B4FF07E4202EACC
:102F5000016100F0C06001F17E4188427FF4ECAE77
:102F600071E000BFFFF790F9054600BF30688003AD
:102F70007FF513AEFFF788F9401B64284FF003007C
:102F8000F4D90BE7FFF780F9054641F2883700BF17
:102F9000D6F89000800707D5FFF776F9401BB842B6
:102FA0004FF00300F4D9F9E6B8F1000F3FF5FFAD9B
:102FB000B06D20F08050B065F9E500BFF06848F2D0
:102FC0000C01C0F29F1104F1200700EA010C8ECF22
:102FD0006FF00F00D4E90C5400EB02100022CFF682
:102FE000E07241EA0C0102EA05520843A2F5001220
:102FF0004FF07E4540EA032005EA0465104305F1E1
:103000007E4540EAC7602843F060306840F0807039
:103010003060F06840F08070F060FFF735F90446EA
:10302000306880010FD4FFF72FF9001B02284FF002
:103030000300F5D9B2E600BFF0684FF6FC71CFF699
:10304000EE610840F060002002B0BDE8F0810000B1
:10305000002804BF01207047B0B50446406A28B17B
:103060000020206104F1140006E000BF6068B0F5A4
:10307000827F03D004F11C00002101600025A562BD
:1030800094F85D0020B9204684F85C5000F052F8B6
:10309000022084F85D002068D4F80CE00268BEF5D8
:1030A000E06F22F0400202604EF4006298BF0125FA
:1030B000B2F5706F1CBF0023A3624FEA053CD4E950
:1030C0000135D4E9042103F4827305F404452B444B
:1030D00002F002021A44A36901F00101E5691144FA
:1030E00003F40072114405F03802256A114405F01A
:1030F0008002A56A114405F40052114301600421C5
:10310000626A0EF4706501EA1341636B45EA0C05CF
:1031100002F01002294303F00803114319434160F0
:10312000C16921F40061C16100200121206684F899
:103130005D10B0BD006843F60001C4F20001884292
:1031400018BF704780B586B041F24C00C4F202004F
:10315000C16841F48041C160C16801F480410191BE
:103160000199016841F002010160006801A900F0C5
:103170000200019001984FF46040019002200290FB
:103180000020CDE903000520059040F20040C4F680
:103190000000FEF7A3FF06B0BDE8804070470000C6
:1031A0002DE9F04381B01E4615460F460446FFF751
:1031B0006BF894F85D108146012909D1002F4FF07A
:1031C000010018BF002D0FD101B0BDE8F08300BF92
:1031D0006068B0F5827F0DD104294FF00200F3D171
:1031E000A1680029EAD0EFE7002EEDD094F85C004A
:1031F000012803D1022001B0BDE8F083012084F84A
:103200005C0094F85D0004281CBF052084F85D0074
:10321000002020662564A4F84660A4F84460A763F3
:10322000E687C4E913002068A687E1684268B1F523
:10323000E06F22F48052134698BF03F58053012EAD
:1032400088BF134643600268520603D4026842F006
:10325000400202606268731EB2FA82F2B3FA83F32C
:10326000DDF8208052095B09B1F5E06F43EA020105
:103270006CD931B137F8021BC160A763E08F013808
:10328000E087012518F1010035D101E0FEF7FCFFD0
:10329000E08F20B9B4F84600002800F0CD80206807
:1032A000816889070CD5E18F51B1012D08D1A16B3F
:1032B000002531F8022BC260A163E18F0139E1875B
:1032C0008168C907E2D0B4F846100029DED0C06892
:1032D000216C012521F8020B2164B4F84600013865
:1032E000A4F84600D2E700BFFEF7CEFFA0EB09002E
:1032F000404580F09780E08F20B9B4F84600002860
:1033000000F09A802068816889070CD5E18F51B15F
:10331000012D08D1A16B002531F8022BC260A163F9
:10332000E18F0139E1878168C907DDD0B4F8461023
:103330000029D9D0C068216C012521F8020B216435
:10334000B4F846000138A4F84600CDE789B1E18F12
:1033500002294FF6FE7103D337F8022BC26004E056
:103360003A7801310273A06B471CA763E08F0844D1
:10337000E087012608F10105E08F18B9B4F846008E
:10338000002859D020688168890719D5E18FB9B123
:10339000012E15D1E28FA16B022A07D331F8022B3F
:1033A000C260A163E18F023908E000BF09780173B0
:1033B000A16B20680131A163E18F01390026E1870B
:1033C0008168C90726D0B4F8461019B3B4F846107E
:1033D000022913D3C168226C22F8021B2264B4F8BC
:1033E00046100239A4F84610B4F84610012910D846
:1033F000416841F4805141600BE000BF007B216CCB
:103400000870206C01302064B4F846000138A4F83C
:1034100046000126FEF738FF002DADD0A0EB0900D5
:103420004045A9D3012084F85D00002084F85C00A9
:10343000032001B0BDE8F08320464FF4C05142465E
:103440004B4600F02FFE68B9204641464A4600F040
:10345000E9FE38B920464FF4C06142464B4600F0C1
:1034600021FE68B1206E40F02000206620202066FA
:10347000002084F85C00012001B0BDE8F08300BFAB
:10348000012084F85D00002084F85C00206E002894
:1034900018BF012001B0BDE8F0830000411E0020EC
:1034A000B0EB116F1CBF012070474EF21002CEF23C
:1034B000000251604EF62351CEF20001F0230B7052
:1034C000072190601160704770470000704700004E
:1034D0007047000090F83C20012A04BF022070478A
:1034E000B0B5D1E90232D1E900CE22F47C5223F406
:1034F000705343EA020448F2FF73CEF6F0730EEA0B
:103500000302224303F5006404EA0C0442EA040CBB
:103510000C6903F5C05222404C6942EA0C02224376
:1035200003F5605422400C6B03F5F04323401A432B
:103530008B6940F2000CCC69CEF6FF7C0CEA0343A9
:103540001443D0F800C043F20042C4F20102944593
:1035500043EA040305D042F60042C4F20102944556
:1035600016D14FF6FF72CDF60F421A40D1E9083E50
:10357000D1E90A410025CDF6F04505EA045422437D
:1035800023F008531A432EF000531A4342EA010372
:103590000021CCF8443080F83C10BDE8B04008462B
:1035A000704700007047000070470000704700003F
:1035B00090F83C20012A4FF002024AD070B580F802
:1035C0003D20026843F2004C54689368C4F2010C39
:1035D00042F6004E6245C4F2010E01D0724503D19D
:1035E0004D6824F470042C434FF68F75CFF6FF55C9
:1035F0000E682C4042F6FF35C4F201053443AA425E
:1036000054600FDCB2F1804F16D040F20046C4F295
:103610000006B24210D040F60006C4F20006B242E4
:103620000AD00EE0724507D044F20006C4F201064B
:10363000B24201D0624504D1896823F08003194366
:1036400091600121002280F83D1080F83C20BDE807
:10365000704010467047000041B1082910D004297D
:1036600014BF00F1470200F145020BE090F844203E
:10367000012A1CBF01207047022280F8442013E079
:1036800000F146021278012A1CBF01207047022275
:10369000082907D0042914BF80F8472080F8452066
:1036A00002E000BF80F84620026801F00F0004210C
:1036B000136A01FA00F023EA00011162116A08435B
:1036C0001062506C42F6FF31C4F2010140F4004038
:1036D0008A42506410DCB2F1804F1FD040F20040AB
:1036E000C4F20000824219D040F60000C4F200008B
:1036F000824213D01FE000BF42F60040C4F2010036
:1037000082420BD044F20000C4F20100824205D094
:1037100043F20040C4F2010082420CD190680721BC
:10372000C0F20101014006294FF0000008D0B1F5B8
:10373000803F08BF7047106840F001001060002013
:10374000704700007047000070470000F0B581B07E
:1037500004460068C5680669B10717D515F002016F
:1037600014D06FF002010161012121778069800787
:1037700004D02046FFF7E8FF06E000BF204600F037
:103780002BF9204600F06CFB00202077700719D53C
:1037900015F0040016D020686FF0040101610221C9
:1037A0002177806910F4407F04D02046FFF7CCFFDA
:1037B00006E000BF204600F00FF9204600F050FB65
:1037C00000202077300717D515F0080014D02068A6
:1037D0006FF00801016104212177C069800703D0DF
:1037E0002046FFF7B1FF05E0204600F0F5F820463F
:1037F00000F036FB00202077F00619D515F01000F8
:1038000016D020686FF01001016108212177C0698E
:1038100010F4407F04D02046FFF796FF06E000BF7B
:10382000204600F0D9F8204600F01AFB002020774F
:10383000F00718BF15F0010006D020686FF00101F5
:103840000161204600F0D6FB16F4025F05F0800708
:1038500018BF002F02D1F00509D410E020686FF4E2
:10386000025101612046FFF731FEF00507D537B15F
:1038700020686FF4807101612046FFF725FE700615
:1038800009D515F0400006D020686FF040010161B5
:10389000204600F0B1FBB00609D515F0200006D097
:1038A00020686FF0200101612046FFF711FEF00251
:1038B00009D515F4801006D020686FF480110161DD
:1038C0002046FFF771FEB00209D515F4001006D0AE
:1038D00020686FF4001101612046FFF763FE70025B
:1038E00009D515F4800006D020686FF480010161CD
:1038F0002046FFF75BFE30020CD515F4000009D01E
:1039000021686FF4000220460A6101B0BDE8F04072
:10391000FFF718BF01B0F0BD006842F60041C4F2E5
:103920000101884218BF70472DE9F04186B041F28D
:103930004C00C4F20200016840F2004841F004016A
:1039400001600168C4F6000801F0040101910199C9
:10395000016801AD41F0020101600168062401F037
:103960000201019101990168022641F00101016003
:103970000068002700F001000190019808F58060C0
:10398000294601940296CDE903770596FEF7A6FB3A
:10399000012001A9C1C140462946CDE90474FEF7C2
:1039A0009DFB4FF4106001A9C1C14FF09040294622
:1039B000CDE90474FEF792FB4FF4007001A9C1C178
:1039C0000C200590404629460497FEF787FB06B079
:1039D000BDE8F041704700007047000090F83C30AF
:1039E000012B04BF022070474FEAB202052A00F201
:1039F00093812DE9F041DFE812F007005500A9009E
:103A0000FD005101950100BF03681D6A1A6AA3F108
:103A1000804622F001021A621A46A6F596369F05E4
:103A2000D3F804C052F818EF47EA96268F68D1F809
:103A3000008025F00205072E45EA07050AD8012770
:103A4000B74017F0E50F1FBFCF6825F00C0527F032
:103A500004073D43072E0CD8012707FA06F616F097
:103A6000E50F1FBFD1E905672CF44074264346EAF1
:103A7000070C4FF68C74CFF6FE740EEA040747EA83
:103A80000807C3F804C09F614F6809695F631D623E
:103A90009F6947F008079F619F6927F004079F61AE
:103AA0007EE100BF036843F200461D6A1A6AC4F251
:103AB000010622F010021A621A46D3F804C052F826
:103AC000188FB3428E68D1F800E025F0200545EA52
:103AD000061505D042F60046C4F20106B34207D1EE
:103AE000CE686FF0400725F0C00507EA061635439B
:103AF000A3F18046A6F596369F0547EA9626072E3F
:103B00000CD8012707FA06F616F0E50F1FBFD1E91A
:103B100005672CF44064374344EA870C48F6FF44B9
:103B2000CFF6FF6404EA080444EA0E27C3F804C091
:103B30009F614F6809699F631D629F6947F4006731
:103B40009F619F6927F480679F6128E1036843F2C2
:103B500000461D6A1A6AC4F2010622F480721A62D3
:103B60001A46D3F804C052F81C8FB3428E68D1F8BD
:103B700000E025F4007545EA062505D042F600462A
:103B8000C4F20106B34207D1CE6840F2FF473602C5
:103B900025F44065BE433543A3F18046A6F596362D
:103BA0009F0547EA9626072E0CD8012707FA06F646
:103BB00016F0E50F1FBFD1E905672CF440543743D9
:103BC00044EA071C4FF68C74CFF6FE7404EA08042E
:103BD00044EA0E07C3F804C0DF614F680969DF6378
:103BE0001D62DF6947F00807DF61DF6927F004071E
:103BF000DF61D5E0036843F200461D6A1A6AC4F229
:103C0000010622F480521A621A46D3F804C052F810
:103C10001C8FB3428E68D1F800E025F4005545EAC8
:103C2000063505D042F60046C4F20106B34207D17C
:103C3000CE6844F6FF77360325F44045BE4335434E
:103C4000A3F18046A6F596369F0547EA9626072EED
:103C50000CD8012707FA06F616F0E50F1FBFD1E9C9
:103C600005672CF44044374344EA871C48F6FF4478
:103C7000CFF6FF6404EA080444EA0E27C3F804C040
:103C8000DF614F6809691F641D62DF6947F40067DF
:103C9000DF61DF6927F48067DF6180E00368D3F8C4
:103CA00020C01A6AA3F1804722F480321A621A46B1
:103CB000A7F596379C055D6852F8508FD1F800E063
:103CC0008E6844EA9727072F09D80124BC4014F0D6
:103CD000E50F1EBF4C6925F4803545EA04252CF418
:103CE000003747EA06474FF68C76CFF6FE76033666
:103CF00006EA080646EA0E065D601E654E6809691A
:103D00009E641F621F6D47F008071F651F6D27F037
:103D100004071F6544E000BF0121002280F83C2019
:103D2000084670470368D3F820C01A6AA3F1804799
:103D300022F480121A621A46A7F596379C055D6830
:103D400052F8508FD1F800E08E6844EA9727072F89
:103D500009D80124BC4014F0E50F1EBF4C6925F4BE
:103D6000802545EA84252CF4001747EA065748F6D3
:103D7000FF46CFF6FF6606F5407606EA080646EAF5
:103D80000E265D601E654E680969DE641F621F6D48
:103D900047F400671F651F6D27F480671F650902E0
:103DA0001368194311600021BDE8F041002280F83A
:103DB0003C20084670470000002804BF01207047DF
:103DC00010B5044690F83D0028B9002084F83C0066
:103DD000204600F023F8022084F83D002068211DD1
:103DE00000F09CFA012084F8480084F83E0084F832
:103DF0003F0084F8400084F8410084F8420084F8D1
:103E0000430084F8440084F8450084F8460084F8B0
:103E1000470084F83D00002010BD0000006842F615
:103E20000041C4F20101884218BF704780B582B0DA
:103E300041F26000C4F202000168002241F4006116
:103E400001600068002100F40060019001981820D2
:103E5000FEF790FA182002B0BDE88040FEF778BA6D
:103E60007047000071B10A1F8B0743EA9202032AD0
:103E700012D8DFE802F00315191D00BF00F13F035F
:103E800018E000BF90F83E20012A1CBF01207047B7
:103E9000022280F83E202CE000F143030AE000BF3C
:103EA00000F1400306E000BF00F1410302E000BF63
:103EB00000F142031B78012B1CBF01207047032A2D
:103EC00008D8DFE802F0030B0F1300BF022280F8CE
:103ED0003F200EE0022280F843200AE0022280F810
:103EE000402006E0022280F8412002E0022280F811
:103EF0004220026801F01F014FF0010C136A0CFA16
:103F000001F18B431362136A90050B43A2F18041C8
:103F1000A1F5963140EA91210629136244D80CFAA2
:103F200001F010F0650F3FD0506C42F6FF31C4F243
:103F3000010140F400408A4250640FDCB2F1804F2E
:103F40001ED040F20040C4F20000824218D040F679
:103F50000000C4F20000824212D01EE042F600408F
:103F6000C4F2010082420BD044F20000C4F201000E
:103F7000824205D043F20040C4F2010082420CD1DB
:103F800090680721C0F20101014006294FF00000AE
:103F900008D0B1F5803F08BF7047106840F00100BD
:103FA00010600020704700BF42F6FF30C4F20100ED
:103FB0008242C3DD43F6FF70C4F20100824207DC97
:103FC00042F60040C4F201008242D3D1D8E700BFDC
:103FD00044F20000C4F201008242D1D044F6000055
:103FE000C4F20100824202BF506C40F400405064B1
:103FF000D3E70000704700007047000010B5D0B153
:104000000446D0F8880028B9002084F884002046AF
:1040100000F026F82420C4F888002068A16A02680D
:1040200022F00102026011B1204600F009FA204698
:1040300000F034FB10B1012010BD00BF21684868BA
:1040400020F490404860886820F02A008860086862
:1040500040F0010220460A60BDE8104000F066BA58
:1040600070470000FEE7000048F2000CD1E9003282
:10407000C4F2000CC0E900C34B8982600A898989B7
:104080004FF00C0C81614FF40041C0E9043CC26068
:10409000C161FFF7B3BF0000FEE70000FEE70000CC
:1040A000704700002DE9F04782B000261F46904679
:1040B0000D4681468DF80360FEF7E6F8381A00EBEE
:1040C0000807FEF7E1F840F20801C2F200010968B2
:1040D00023225143090DD9F8004079430191A16889
:1040E000294235D0824618F1010035D0B5F5C06FB0
:1040F0001AD100BF207B8DF803009DF80300FEF766
:10410000C3F8A0EB0A00B8425ED2019801990028DA
:10411000A1F101010191D9F80010896808BF074693
:1041200011F4C06FE6D112E0FEF7AEF8A0EB0A0082
:10413000B84249D2019801990028A1F101010191E9
:10414000D9F80010896808BF07462942ECD100263B
:10415000304602B0BDE8F0870026B5F5C06F25D126
:10416000207B8DF803009DF80300A06810F4C06F59
:10417000EDD0207B8DF803009DF80300A06810F4BB
:10418000C06FE4D0207B8DF803009DF80300A06889
:1041900010F4C06FDBD0207B8DF803009DF8030086
:1041A000A06810F4C06FDBD1D2E700BFA06828423E
:1041B000CDD0A0682842CAD0A0682842C7D0A06845
:1041C0002842F3D1C4E700BFD9E900014268B1F544
:1041D000827F22F0E00242600BD1D9F80810B1F5DD
:1041E000004F02D0B1F5806F03D1016821F040018A
:1041F0000160D9F82810B1F5005F07D1016821F4FA
:1042000000510160016841F400510160012089F80A
:104210005D00002089F85C000326304602B0BDE84E
:10422000F0870000F0B581B015460E460446FEF753
:104230002BF8281A8719FEF727F840F20801C2F276
:1042400000010968C1F3CB317943009121688A6884
:10425000120622D50546701C15D000BFFEF714F8D3
:10426000401BB8421CD2009800990028A1F101011E
:1042700000912168896808BF07460806EED40CE063
:104280008868000609D58868000606D58868000693
:1042900044BF88685FEA0060F2D4002001B0F0BD3E
:1042A000D4E900014268B1F5827F22F0E002426069
:1042B0000AD1A168B1F5004F02D0B1F5806F03D1EA
:1042C000016821F040010160A16AB1F5005F07D1EA
:1042D000016821F400510160016841F4005101605E
:1042E000012084F85D00002084F85C00032001B008
:1042F000F0BD000070470000FDF7CCBF4EF68850BF
:10430000CEF20000016841F47001016070470000C6
:1043100040F28000C2F20000FFF718BA40F2FF7CC2
:104320000268C4F2000C604522DD40F60003C4F2CE
:104330000003984225D043F20043C4F2010398429F
:104340001FD042F60043C4F20103984219D043F251
:10435000FF33C4F2010398421DDC60452ADCB0F152
:10436000804F3DD040F20043C4F2000336E000BF6E
:10437000B0F1804F05D040F20043C4F200039842F0
:10438000E5D14B6822F070021A4343F2FF33C4F2C6
:1043900001039842E1DD44F2FF33C4F20103984285
:1043A00012DC43F20043C4F20103984218D044F2F5
:1043B000000311E040F60003C4F2000398420FD05E
:1043C00042F6004308E000BF44F60003C4F20103D4
:1043D000984205D044F20043C4F20103984203D14D
:1043E000CB6822F440721A4380B54B6922F0800EEC
:1043F0008A6843EA0E03D1F800C00360C262A0F1EC
:104400008042A2F59632830543EA9222072AC0F839
:1044100028C0BDE8804007D8012303FA02F212F059
:10442000E50F1CBF09690163012141610169C907E9
:1044300008BF7047016921F0010101617047000068
:10444000816A0A070ED4CA0717D18A0720D44A07FF
:1044500029D4CA0632D48A063BD480B54A0644D44D
:1044600058E000BF0268D0F838C0536823F4004316
:1044700043EA0C035360CA07E7D00268D0F82CC0A7
:10448000536823F4003343EA0C0353608A07DED5F4
:104490000268D0F830C0536823F4803343EA0C0339
:1044A00053604A07D5D50268D0F834C0536823F466
:1044B000802343EA0C035360CA06CCD50268D0F8C7
:1044C0003CC0936823F4805343EA0C0393608A064C
:1044D000C3D50268D0F840C0936823F4005343EA80
:1044E0000C03936080B54A0614D50268D0F844C026
:1044F0005368BCF5801F23F4801343EA0C03536018
:1045000008D1D2F804C0D0F848E02CF4C00343EA44
:104510000E035360090658BF80BD0168C06C4A682D
:1045200022F400221043486080BD0000B0B582B084
:1045300004460020C4F89000FDF7A6FE2168054659
:104540000A68120737D56FF07E4C20464FF40011F1
:1045500000222B46CDF800C000F0ECF950B300BFAC
:10456000206850E8000F216820F0800041E8000238
:10457000DAB1206850E8000F216820F0800041E89F
:10458000000292B1206850E8000F216820F08000FE
:1045900041E800024AB1206850E8000F216820F08D
:1045A000800041E80002002ADAD12020C4F8880007
:1045B00060E000BF21680868400761D56FF07E4C5D
:1045C00020464FF4800100222B46CDF800C000F0B9
:1045D000B1F9002854D000BF206850E8000F2168CE
:1045E00020F4907041E80002E2B1206850E8000F2A
:1045F000216820F4907041E800029AB1206850E8E8
:10460000000F216820F4907041E8000252B1206848
:1046100050E8000F216820F4907041E80002002A61
:10462000DAD100BF206850E8020F216820F00100B5
:1046300041E80202DAB1206850E8020F216820F058
:10464000010041E8020292B1206850E8020F21689F
:1046500020F0010041E802024AB1206850E8020F50
:10466000216820F0010041E80202002ADAD120206E
:10467000C4F88C000320002184F8841002B0B0BD7F
:104680002020C4F88800C4F88C000020E066206771
:10469000002184F8841002B0B0BD000070B505465A
:1046A00005F108041ECC0068194341EA0403EE69D1
:1046B000046846F6F311CCF6FF71214019433143EB
:1046C0000160416848F2000C21F4405111434160FF
:1046D000AA69C4F2000C60451CBF296A0A438168BC
:1046E0004FF2FF43C1F2FF13194011438160C16AC9
:1046F000D5F824E021F00F0141EA0E01C16244F631
:10470000FF31C4F2000188424FF0100314DD44F67B
:104710000041C4F20001884222D0604528D043F60F
:104720000001C4F20101884238D141F28801C4F28B
:1047300002010B687BA22DE044F20041C4F20001AB
:1047400088421DD044F60001C4F20001884225D100
:1047500041F28801C4F2020109680B0916E000BFAA
:1047600041F28801C4F2020109688B090EE000BF22
:1047700041F28801C4F2020109688B0A06E000BF19
:1047800041F28801C4F2020109688B0845F65C32E7
:10479000C0F6000203F0030152F82130604542F2F6
:1047A0000040C0F2F40015D0B6F5004F22D1082B1E
:1047B0004FF0010100F2AD80DFE803F0065C6AAB68
:1047C00060ABABAB680000BFFEF76AF9002840F0B1
:1047D00059809AE0082B4FF0010100F29A80DFE83F
:1047E00003F0059825981B9898982300FEF758F930
:1047F000B0B98AE0082B4FF0010100F28A80DFE8AF
:1048000003F005636F88678888886D00FEF748F9B4
:10481000002860D179E000BFFEF76EF9002874D05F
:10482000D5F824E002E000BF4FF4004045F64431E3
:10483000C0F6000131F81E106A68B0FBF1F002EB1F
:10484000420188424FF0010163D31303984260D8BC
:10485000010E000210EB520041F100010023FBF7B2
:1048600041FD4FF60052A0F54071C0F20F02914297
:1048700049D34DE0FEF72AF920B946E0FEF73CF9AE
:10488000002842D0D5F824E002E000BF4FF40040F9
:1048900045F64431C0F6000131F81E106A68B0FBDD
:1048A000F1F0510801EB4000B0FBF2F04FF6EF726F
:1048B000A0F1100191422BD84FF6F0710140C0F3E6
:1048C000420008441FE000BFFEF700F918B91CE0E1
:1048D000FEF712F9C8B1D5F824E001E04FF400402A
:1048E00045F64431C0F6000131F81E104FF6EF7264
:1048F000B0FBF1F0696800EB5100B0FBF1F0A0F102
:104900001001914204D82968C860002101E000BF6D
:1049100001214FF00110A866002208466A67AA67C5
:1049200070BD00BF01000000040000000200000094
:10493000080000002DE9F041804600681546C26974
:104940000E461140891BB1FA81F14909A94223D1D0
:10495000069C2CB3611C29D1C1693140891BB1FA75
:1049600081F14909A94217D1C1693140891BB1FAC6
:1049700081F14909A9420FD1C1693140891BB1FABE
:1049800081F14909A94207D1C1693140891BB1FAB6
:1049900081F14909A942DFD00020BDE8F08100BFC4
:1049A000FDF772FC0320BDE8F08100BF1F4607E061
:1049B000C0693040801BB0FA80F04009A842EBD1BA
:1049C000FDF762FCC01BA04200F2AE80D8F80000E8
:1049D00001684907ECD5402EEAD0802EE8D0C169A5
:1049E000090700F1A580C1690905E1D54FF400610F
:1049F0000162D8F8000050E8000FD8F8001020F449
:104A0000907041E800020AB3D8F8000050E8000FA7
:104A1000D8F8001020F4907041E80002B2B1D8F844
:104A2000000050E8000FD8F8001020F4907041E822
:104A300000025AB1D8F8000050E8000FD8F8001072
:104A400020F4907041E80002002AD2D14FF6FE70A7
:104A5000CEF6FF70D8F8001051E8021FD8F80020F9
:104A6000014042E80213F3B1D8F8001051E8021FE8
:104A7000D8F80020014042E80213A3B1D8F8001092
:104A800051E8021FD8F80020014042E8021353B158
:104A9000D8F8001051E8021FD8F80020014042E881
:104AA0000213002BD6D1D8F86C0001282CD1D8F8ED
:104AB000000050E8000FD8F8001020F0100041E886
:104AC00000020AB3D8F8000050E8000FD8F8001030
:104AD00020F0100041E80002B2B1D8F8000050E820
:104AE000000FD8F8001020F0100041E800025AB181
:104AF000D8F8000050E8000FD8F8001020F010009F
:104B000041E80002002AD2D120200021C8F88C0000
:104B1000C8F86C10C8F87410C8F89000032088F822
:104B20008410BDE8F08100BF0320BDE8F08100BF24
:104B300008210162D8F8000050E8000FD8F80010F2
:104B400020F4907041E800020AB3D8F8000050E861
:104B5000000FD8F8001020F4907041E80002B2B1C4
:104B6000D8F8000050E8000FD8F8001020F490703A
:104B700041E800025AB1D8F8000050E8000FD8F818
:104B8000001020F4907041E80002002AD2D14FF6C4
:104B9000FE70CEF6FF70D8F8001051E8021FD8F86A
:104BA0000020014042E80213F3B1D8F8001051E8A8
:104BB000021FD8F80020014042E80213A3B1D8F840
:104BC000001051E8021FD8F80020014042E802130B
:104BD00053B1D8F8001051E8021FD8F80020014066
:104BE00042E80213002BD6D1D8F86C0001282CD152
:104BF000D8F8000050E8000FD8F8001020F010009E
:104C000041E800020AB3D8F8000050E8000FD8F8D5
:104C1000001020F0100041E80002B2B1D8F8000006
:104C200050E8000FD8F8001020F0100041E8000212
:104C30005AB1D8F8000050E8000FD8F8001020F062
:104C4000100041E80002002AD2D12020C8F88C00D0
:104C500000200821C8F86C00C8F87400C8F890104B
:104C600088F884000120BDE8F0810000FEE7000024
:104C7000C16170472DE9F0412DED028B8EB040F2FD
:104C80007C4440F23415C2F20004C2F200059FEDEC
:104C9000358A216905F11C06DFED330A9FED331AD1
:104CA0003046B0EE480A052201234FF005080127DF
:104CB00000F002F9B3EE040A2846F0EE480A00F0CC
:104CC000ADF944F20000C4F21C60009049F69A105D
:104CD000C4F20900019041F26F20C3F60330029044
:104CE00046F26660CBF6E660059046F26660C3F673
:104CF000E66004900020C4F2600006904DF20A7055
:104D000066610026C3F62340CDE9070649F69A10EE
:104D1000CBF619700A9049F69A10C3F619700990EB
:104D20000020CCF216300C900020C4F216300B900C
:104D3000694620460396CDF8348000F051F84CF6D1
:104D4000CD40C3F64C602561C4E93300C4E9407727
:104D5000C4E94276C4E944660EB0BDEC028BBDE8FE
:104D6000F08100BF00401C4600400845000016438B
:104D70000023C0E90033836003618182C261704710
:104D80000022C0E9002170479FED061A30EEA02AEC
:104D900022EE011A81EE000A0021416080ED000A36
:104DA000704700BFDA0F494020EEA12A80EE022AA8
:104DB00020EE213A002123EE011ACBF68071002368
:104DC00000F1100C80ED010A80ED031A4FF07E52C5
:104DD00003608CE80E00C36180ED022A704700007A
:104DE000B0B50D46F1EC011A044691EC030A2030EF
:104DF000FFF7DAFFD5E90401C4E90C10281DD5ED51
:104E0000001A90EC030A04F14000FFF7CDFFD5E94A
:104E10000401C4E9141005F11800D5ED003A90EC36
:104E2000070A696B04F1600000F07EF804F1940059
:104E30007021FBF70FFB01200021C4E94101C4E907
:104E40004311C4F81411B0BD0123934001EE103A90
:104E5000B8EEC11AB7EE002A82EE011A0023C0EDA7
:104E6000040A80ED050AC0E90031826080ED031A72
:104E7000704700000023C0E90033C0E90232C0E9F6
:104E80000413C0E90633704780EE200A31EE612A30
:104E900000218160C0ED001A80ED011A82EE000A47
:104EA00080ED030A704700000021C0ED010A80ED8B
:104EB000020A01607047000070B5BDEEE02A14469A
:104EC00012EE102A48F6890672439FED162AB4EBBB
:104ED000125F88BF140D03EE104A20EE022AB8EECE
:104EE000433A82EE032A04EE103AB8EE444A80EECA
:104EF000030A06460020B060306006F110000D463F
:104F000082EE042A82EE202AF0EE410A86ED032A80
:104F1000FFF73AFF06F118002146FFF731FF7560F1
:104F200070BD00BF00007042B0B52DED0C8B82EE5D
:104F3000A34A83EE233AB0EE60CAB0EE40DA0546EB
:104F40002830B0EE638A0C46B0EE429AB0EE61AA09
:104F5000B0EE41BAB0EE440AF0EE430AFFF7A4FF08
:104F600005F120002146FFF70BFF2CEE080A8DEE1D
:104F7000000A2DEE081A21EE0B1A00202860C5E960
:104F8000060085ED01DA85ED031A85ED049A85EDBD
:104F900005AA85ED020ABDEC0C8BB0BD0123934040
:104FA00001EE103AB8EEC11AB7EE002A82EE011AED
:104FB0000023C0E90033C0E902310261C0ED060AF6
:104FC000C0ED070AC0ED080A80ED090A80ED0A0A63
:104FD00080ED0B0A80ED051A7047000080B500F0E7
:104FE00031F848F21F51C5F2EB11A0FB010148094D
:104FF00000EE100A9FED081AB8EEC00A20EE010A72
:10500000BFEE001A40F27C4030EE010AC2F200000E
:1050100080ED370A80BD00BFCDCCCC3DB0EE402A3C
:105020000022DFED071A014640F80C2BB7EE001AFC
:10503000B0EE600AF0EE420A4A60FFF725BF00BFFB
:1050400000000000FDF720B9704700007047000025
:1050500070470000704700007047000098B0FDF7EF
:1050600027F900240020CDE90544CDE90344CDE92A
:105070000144FDF7BBF94FF4807103914021049185
:1050800004210220099155210090CDE90700CDE9C6
:105090000A10CDE90C006846FDF770FD20B1EFF372
:1050A000108072B6FEE700BF0F200E904FF0030A8B
:1050B0000EA80421CDE90FA4CDE911444FF0040856
:1050C000FDF768FB20B1EFF3108072B6FEE700BF7A
:1050D000002641F24C070496C4F20207386840F2F9
:1050E000004440F0040038603868C4F6000400F062
:1050F00004000E900E9838680A2140F020003860B5
:105100003868002200F020000E900E9838680A25BA
:1051100040F001003860386800F001000E900E98F1
:10512000386840F002003860386800F002000E90E5
:105130000E982046FDF7A2F84FF001096946204677
:105140000095CDE901960396FCF7C8FF57F8040CCB
:10515000002140F0040047F8040C57F8040C00222A
:1051600000F004000090009857F8040C40F0010093
:1051700047F8040C57F8040C00F001000090009868
:105180000B20FDF7F7F80B20FDF7E2F80C200021CB
:105190000022FDF7EFF80C20FDF7DAF840F2E410FA
:1051A000C2F200004FF0A0414FF4403280E84600C8
:1051B0004FF4A4614FF480621096CDE90E66CDE9FC
:1051C0000666CDE90466CDE90266CDE90066C0E970
:1051D0000366C0E905988683C0F820A080F82460A3
:1051E000C0E90B1280F83890C66380F84060FCF785
:1051F00071FB28B1EFF3108072B600BFFEE700BF6D
:1052000040F2E410C2F200000EA90E96FBF7B2FBCA
:1052100020B1EFF3108072B6FEE700BF0220C0F2AB
:105220003040009006207F2101900020039104214E
:105230000290CDE9041040F2E410C2F20000694689
:10524000FBF7F4FB20B1EFF3108072B6FEE700BF6E
:105250000420C0F6600000900C20019040F2E410A1
:10526000C2F200006946FBF7E1FB28B1EFF31080C2
:1052700072B600BFFEE700BF40F20020C2F2B0509D
:1052800000901220019040F2E410C2F20000694642
:10529000FBF7CCFB20B1EFF3108072B6FEE700BF46
:1052A00040F2502040F20011C2F20000C5F20001AD
:1052B0004FF4403200240123042580E816004FF407
:1052C000A4614FF48062CDE90644CDE90444CDE900
:1052D0000244CDE90044C0E90344C0E905358483B4
:1052E000056280F82440C0E90B1280F83830C463AE
:1052F00080F84040FCF7EEFA20B1EFF3108072B670
:10530000FEE700BF0820C0F6904000900620CDE9DF
:1053100001047F20CDE9030540F25020C2F20000D5
:1053200069460594FBF782FB20B1EFF3108072B65B
:10533000FEE700BF1020C1F2C00000900C200190D9
:1053400040F25020C2F200006946FBF76FFB28B123
:10535000EFF3108072B600BFFEE700BF2020C1F25D
:10536000F04000901220019040F25020C2F2000064
:105370006946FBF75BFB18B1EFF3108072B6FEE7EE
:105380004020C1F6201000901820019040F25020DB
:10539000C2F200006946FBF749FB18B1EFF3108039
:1053A00072B6FEE743F6000440F21840C4F200046F
:1053B000C2F200004FF4827100254FF4E062012632
:1053C0004FF400733027C0E900410721C0E90252C1
:1053D000C0E90456C0E90637C0E90855C0E90A51DA
:1053E000C0E90C55FDF734FE20B1EFF3108072B622
:1053F000FEE700BF68463421FBF72CF804F5744142
:1054000040F27004C2F20004204640F8101F20272A
:1054100042F2341100F10C02C0E9015762C2856109
:10542000FEF7CAFC20B1EFF3108072B6FEE700BFB2
:1054300004F11005002615A928461597CDE9166632
:10544000FEF7B6F820B1EFF3108072B6FEE700BFAA
:105450007020CDE90E060EA928460022CDE910667F
:10546000CDE912661496FEF7B9FA18B1EFF3108081
:1054700072B6FEE70EA928460422FEF7AFFA18B16D
:10548000EFF3108072B6FEE70EA928460822FEF759
:10549000A5FA18B1EFF3108072B6FEE7002655208A
:1054A000CDE903064FF40050CDE905064FF000703A
:1054B000CDE9090669462846CDE900660296CDE9A0
:1054C0000766CDE90B66FEF705F818B1EFF310801B
:1054D00072B6FEE72846FEF71FFA0020FBF7AAF98E
:1054E00000200121FBF7D6F94FF4E130C4E90006B2
:1054F00000202146A660A681FBF748F920B1EFF312
:10550000108072B6FEE700BFFFF7A4FD00F012F8AE
:10551000FFF79AFDFFF7AEFBFFF79EFDFFF798FD43
:10552000FFF794FD00F004F8FFF758FDF8E70000DE
:10553000704700002DE9F0412DED048B40F2CC04C2
:10554000C2F200040020214641F8040B40F2E410AE
:10555000C2F200000322FCF7C3FB40F2502004F12A
:105560002801C2F200000422FCF7BAFB40F28005D9
:10557000C2F2000528460021FEF774FC28460421EB
:10558000FEF770FC28460821FEF76CFC2846002137
:10559000FEF762F828460421FEF75EF82846082147
:1055A000FEF75AF804F13805B2EE048AB6EE009A16
:1055B00028462146B0EE480AF0EE490A0C2218238C
:1055C000FFF742FC40F27018C2F2000808F14007F1
:1055D00004F110013846B0EE480AF0EE490A0C22F8
:1055E0001823FFF7DBFC9FED1F8A9FED1F9A04F144
:1055F000500604F134013046B0EE480AF0EE490A94
:105600000C221823FFF720FC04F11C0140F29454F3
:10561000C2F200042046B0EE480AF0EE490A0C221D
:105620001823FFF7BBFC4046072143F6FF72FFF744
:105630009FFB40F27C40C2F20000C0E9004708F145
:1056400020042146C0E90265C0F81080FFF710FB76
:105650002046002142F23412BDEC048BBDE8F0413B
:10566000FFF708BCCDCCCC3D000000004100080293
:1056700018BF04200A0E18BF40F001004FF07F420F
:1056800032EA010108BF40F00200012808BF0520EE
:105690007047000010EE101A08B5444A6846B2EB95
:1056A000410F28D94FF0E640B0EB410F94BF0020E6
:1056B0004FF0FF3000900098002861DB60EE000A98
:1056C00010F0010F45D010F0020FDFED391A9FEDF9
:1056D000391A00EEA11ADFED381A40EE811A21EED8
:1056E000A01AF0EE400A40EE010A08BFF1EE600A8F
:1056F000B0EE600A08BD314B21F0004293423CD924
:1057000011F0004FDFED2E0A20EE201ADFED2D0AFA
:1057100019BF31EE601A71EE200A31EE201A71EED7
:10572000600ABDEEE01A11EE100A9FED271A00F094
:10573000030000EEC10A9FED251A009000EEC10A99
:105740009FED231A00EEC10A9FED221A00EEC10A56
:10575000B1E79FED211A9FED210A10F0020F00EE34
:10576000810A9FED1F1A00EE801AB7EE000A00EEC4
:10577000810A18BFB1EE400A08BD00F00FF99AE7A0
:1057800010EE100A4000B0F17F4F3CBFB7EE000AA8
:1057900008BD07D14FF00100FAF78BFEBDE80840C5
:1057A00000F0ECB8BDE8084000F0E4B8B61F927E07
:1057B000336D4CB9DA82083CA0AA2ABE490E49468C
:1057C00083F9223F0000004B0000C93F00A0FD39D3
:1057D0000020A2331A61342CB93AB2BACA9F2A3DCA
:1057E000DDFFFFBE00B510EE101A2DED028B81B06B
:1057F000524A6846B2EB410F2ED94FF0E640B0EB6B
:10580000410F94BF00204FF0FF3000900098B0EEA1
:10581000408A00286ADB10F0010F4BD068EE080ABE
:105820009FED471A9FED470A00EE810A9FED461A49
:1058300010F0020F00EE801AB7EE000A00EE810AA7
:1058400002BF01B0BDEC028B00BD00BF01B0B1EEE4
:10585000400ABDEC028B00BD3C4B21F0004293425C
:1058600041D911F0004FDFED3A0A20EE201ADFEDAA
:10587000390A19BF31EE601A71EE200A31EE201A92
:1058800071EE600ABDEEE01A11EE100A9FED321AB9
:1058900000F0030000EEC10A9FED301A009000EE08
:1058A000C10A9FED2F1A00EEC10A9FED2E1A00EEDD
:1058B000C10AABE728EE080A9FED2B1ADFED2B0A91
:1058C00010F0020F40EE010A9FED291A00EE201A97
:1058D00061EE000AB0EE480A08EE200AB6D101B027
:1058E000BDEC028B00BD00F059F88FE718EE100AEE
:1058F0004000B0F17F4F0DD218EE100AFFF7B6FE50
:10590000042808BF00F042F8B0EE480A01B0BDEC30
:10591000028B00BD09D10120FAF7CBFD01B0BDEC2F
:10592000028B5DF804EB00F029B801B0B0EE480A34
:10593000BDEC028B5DF804EB00F01CB8B61F927E44
:10594000B93AB2BACA9F2A3DDDFFFFBE490E4946A9
:1059500083F9223F0000004B0000C93F00A0FD3941
:105960000020A2331A61342C336D4CB9DA82083C22
:10597000A0AA2ABE30EE000A70470000DFED020A3E
:1059800080EEA00A70470000000000009FED020AB0
:1059900020EE000A70470000000000102DE9F00121
:1059A0004FF07F42B2EB410F9FBF4FF0FF310160DC
:1059B000BDE8F00170474FF0004242EA0123C1F315
:1059C000C752783A551112F01F0C434CCCF1200607
:1059D0007C44C1F3C752A2F178024FEA621204EB91
:1059E000820254F8254008BFD2E9015612D055680A
:1059F00004FA0CF425FA06F73C43976805FA0CF50F
:105A000027FA06F8D26807FA0CFCF24045EA0805C6
:105A10004CEA0206A4FB034CA5FB0352A6FB03635E
:105A20001D449D4234BF012600261319334416B18C
:105A3000934202D903E0934201D2012200E0002206
:105A4000624402F1200C9206DC0C42EA443200EE81
:105A5000102A5B03DFED210AF8EEC01A00EE103ABF
:105A60004FEA9C1C11F0004FB8EE400AC0F800C08D
:105A700020EE201A00EE105ADFED190AB8EE400AA7
:105A800020EE200A71EE810A70EE800A10EE902A54
:105A900002F500626FF30B0200EE902A70EEE11A3D
:105AA00031EEC11ADFED101A30EE411A9FED0D0AEA
:105AB00020EE800A01EE210A9FED0C1A00EE810A09
:105AC00004BFBDE8F0017047CCF180510160BDE832
:105AD000F001B1EE400A70473801000000000036C6
