:020000040800F2
:10000000A00C00202902000889410008613800087E
:100010008541000889070008B14D00080000000074
:10002000000000000000000000000000F541000892
:10003000B7080008000000008B410008F7410008E5
:10004000430200084302000843020008430200087C
:10005000430200084302000843020008430200086C
:10006000430200084302000843020008430200085C
:10007000430200084302000843020008430200084C
:100080004302000843020008190600084302000862
:10009000430200084302000843020008B9080008B0
:1000A0004302000805430008F54200084302000827
:1000B00043020008154300084302000843020008F9
:1000C00043020008430200084302000843020008FC
:1000D0004302000843020008A14D00084302000843
:1000E000430200088D410008430200084302000853
:1000F00043020008430200084302000843020008CC
:1001000043020008430200084302000843020008BB
:1001100043020008430200084302000843020008AB
:100120008D0700084302000843020008430200084C
:10013000430200084302000843020008430200088B
:10014000430200084302000843020008430200087B
:1001500043020008430200089D070008430200080C
:10016000430200084302000843020008430200085B
:100170004302000843020008430200080000000098
:10018000430200084302000800F002F800F03CF8C7
:100190000AA090E8000C82448344AAF10107DA45E2
:1001A00001D100F031F8AFF2090EBAE80F0013F0F8
:1001B000010F18BFFB1A43F001031847485D000008
:1001C000685D0000103A24BF78C878C1FAD8520799
:1001D00024BF30C830C144BF04680C6070470000C1
:1001E0000023002400250026103A28BF78C1FBD840
:1001F000520728BF30C148BF0B6070471FB505F0DC
:1002000037FE1FBD10B510BD00F04EF91146FFF7C7
:10021000F5FF05F06EFD00F06CF903B4FFF7F2FF97
:1002200003BC00F02BF9000009488047094800474B
:10023000FEE7FEE7FEE7FEE7FEE7FEE7FEE7FEE796
:10024000FEE7FEE704480549054A064B70470000F3
:10025000D942000889010008A0060020A00C002057
:10026000A0080020A008002053EA020C00F06980DA
:100270002DE9F04B4FF00006002B1FBFB3FA83F5BA
:1002800003FA05F424FA05F65E4012BF1643B2FAEB
:1002900082F502FA05F4C5F120051EBF22FA05FC1D
:1002A00044EA0C04203556EA044C4FEA144418BFC3
:1002B000641C4FF000084FF00009904271EB030CF2
:1002C00039D3002919BFB1FA81F701FA07F6B0FA5C
:1002D00080F700FA07F6C7F120071EBF20FA07FCD7
:1002E00046EA0C062037B6FBF4FCA7EB0507103FE7
:1002F00007F01F0BCBF120060CFA0BFB2CFA06F6CD
:1003000044BFB3460026202FA4BF5E464FF0000B2B
:100310005BEA060C08BF4FF0010B19EB0B09ABFBB6
:10032000027C48EB0608C01B06FB02CC0BFB03CC8F
:1003300071EB0C01C1E70B46024641464846BDE859
:10034000F08B13B54FF000004FF00001AFF30080C9
:10035000BDE81C40704700000EB5054614460E4629
:1003600013A000F079F8284600F076F816A000F007
:1003700073F8304600F070F815A000F06DF8002119
:100380008DF80B100A210DF10A008DF80A1008E013
:1003900094FBF1F201FB124294FBF1F4303200F8CD
:1003A000012D002CF4DC00F057F800F04AF80000B2
:1003B0002A2A2A20617373657274696F6E206661E0
:1003C000696C65643A2000002C2066696C65200029
:1003D0002C206C696E6520004FF0000200B51346BA
:1003E00094469646203922BFA0E80C50A0E80C5055
:1003F000B1F12001BFF4F7AF090728BFA0E80C5006
:1004000048BF0CC05DF804EB890028BF40F8042BFE
:1004100008BF704748BF20F8022B11F0804F18BF6B
:1004200000F8012B704770477047704710B500F017
:100430002FF8006810BD10B5044600F029F80460DC
:1004400010BD10B5002000F027F8FFF7DBFEBDE877
:100450001040012000F012B810B5044602E0641C00
:1004600000F004F820780028F9D110BD08B56946DD
:100470008DF800000320ABBE08BD00000149182024
:10048000ABBEFEE726000200004870473C06002095
:10049000004870473C06002010B500F039F8BDE870
:1004A000104000F02FB870477546FFF7EDFFAE46DD
:1004B00005006946534620F00700854618B020B570
:1004C000FFF7C0FEBDE820404FF000064FF00007E8
:1004D0004FF000084FF0000B21F00701AC46ACE8EC
:1004E000C009ACE8C009ACE8C009ACE8C0098D4659
:1004F000704710B50446AFF300802046BDE81040B9
:10050000FFF78BBE002801D0FFF7B8BF704700008F
:1005100010B5002102A000F013F8012010BD00006A
:10052000534947414252543A2041626E6F726D61A5
:100530006C207465726D696E6174696F6E00000085
:1005400070B505460C460A2000E06D1CFFF78EFFD3
:1005500035B128780028F8D102E0641CFFF786FF47
:1005600014B120780028F8D1BDE870400A20FFF7C8
:100570007DBF70B50546AC6B206C00F0500050BBE1
:10058000206C40F4007020642068806800F04050C7
:10059000E8B9207ED8B92068C06A00F4700020B1A4
:1005A0002068806800F4806088B92068406820F086
:1005B000200021684860206C20F480702064206C4A
:1005C00000F4805018B9206C40F0010020642046EF
:1005D00000F040FA0BE0206C00F0100018B120464B
:1005E00000F03EFA03E0A06BC16C2846884770BD5E
:1005F00070B50546AC6B40202064606C40F0040090
:100600006064204600F02CFA70BD70B50446A56BFE
:10061000284600F024FA70BD10B5024800F021FA17
:1006200010BD00003800002055494A6822F44032CD
:100630004A604A6843681A434A600268526822F472
:10064000807203685A6002685368026943EA0222B2
:1006500003685A600268526822F0407203685A6068
:100660000268526883681A4303685A600268926895
:1006700022F4006203689A6002689268C3681A43B1
:1006800003689A603F4B826A9A4218D00268926867
:1006900022F0706203689A6002689268836A1A4363
:1006A00003689A600268926822F0405203689A6078
:1006B00002689268C36A1A4303689A600BE0026892
:1006C000926822F0706203689A600268926822F071
:1006D000405203689A600268926822F0020203683E
:1006E0009A6002689368027E43EA420203689A6055
:1006F0002022125CA2B10268526842F400620368D0
:100700005A600268526822F4604203685A600268C4
:100710005368426A521E43EA423203685A6005E057
:100720000268526822F4006203685A600268D26A62
:1007300022F470020368DA620268D36A828B521E66
:1007400043EA02520368DA620268926822F4007295
:1007500003689A600268936890F8302043EA422266
:1007600003689A600268926822F4806203689A6063
:1007700002689368426943EA822203689A6070477C
:10078000002301400100000F00BFFEE710B5024842
:1007900000F01CFC10BD00008000002010B50248D5
:1007A00000F014FC10BD000058030020014608783A
:1007B00010381823B0FBF3F20848805CC865032AA0
:1007C00005D908686FF30900001D886503E0086813
:1007D0006FF309008865886D704700007A5E000835
:1007E000014600208A6A8B69CBB932B1012A0DD04B
:1007F000022A03D0032A10D10EE000BFCB6A03F017
:100800008073B3F1807F00D1012007E0CB6AB3F1A0
:10081000C07F00D1012001E000E000BF34E08B691F
:10082000B3F5005F1AD132B1012A07D0022A03D0F2
:10083000032A11D10AE000BF01200EE0CB6A03F0C9
:100840008073B3F1807F00D1012006E0CB6AB3F161
:10085000C07F00D1012000E000BF15E032B1012AC5
:1008600005D0022A04D0032A0CD103E000BF00BF48
:10087000012008E0CB6A03F08073B3F1807F00D1E0
:10088000012000E000BF00BF704730B50468246855
:1008900024F4802405682C60046863608468402C1C
:1008A00004D10468A2600468E16003E00468A16008
:1008B0000468E26030BD704710B5802000F066FD2E
:1008C00010BD70477047000038B502460020009008
:1008D00000BF92F83C00012801D1022038BD012060
:1008E00082F83C0000BF0868092816D91068C06863
:1008F0000C780A3C04EB44050724AC40A043146880
:10090000E0600C780A3C04EB44048868A04014685A
:10091000E46820431468E06013E0106800690C7814
:1009200004EB44050724AC40A043146820610C7814
:1009300004EB44048868A0401468246920431468C8
:1009400020614868072817D21068406B0C79641E34
:1009500004EB84051F24AC40A0431468606308883E
:1009600080B20C79641E04EB8404A0401468646BAC
:1009700020431468606331E048680D2817D210687E
:10098000006B0C79E41F04EB84051F24AC40A043EA
:1009900014682063088880B20C79E41F04EB840497
:1009A000A0401468246B20431468206316E010688C
:1009B000C06A0C790D3C04EB84051F24AC40A043B5
:1009C0001468E062088880B20C790D3C04EB840462
:1009D000A0401468E46A20431468E062194B1A4C82
:1009E0001068A04206D10868122803D1586840F464
:1009F00080005860144C1068A0421CD10868102870
:100A000002D00868112816D1586840F400005860D8
:100A1000086810280FD10D4800680D4CB0FBF4F0A9
:100A200000EB80004000009002E00098401E009023
:100A300000980028F9D100BF002082F83C0000BFD8
:100A400000BF4BE700230140002001400C000020C4
:100A500040420F0010B5044605F00CF910BD704778
:100A6000704770B504460025002620680068C0F372
:100A7000400520684068C0F3401695B38EB3206CE3
:100A800000F0100018B9206C40F400702064206859
:100A9000806800F04050E8B9207ED8B92068C06A6C
:100AA00000F4700020B12068806800F4806088B98C
:100AB0002068406820F0200021684860206C20F405
:100AC00080702064206C00F4805018B9206C40F0D5
:100AD000010020642046FFF7BDFF6FF0120021687F
:100AE000086020680068C0F3800520684068C0F393
:100AF000C016E5B3DEB3206C00F0100018B9206C0E
:100B000040F4005020642068806800F4401038BB36
:100B10002068806B00F4401020B12068806800F4E9
:100B20008060E8B92068406800F48060C0B920683F
:100B3000806800F0405098B9207E88B920684068ED
:100B400020F0800021684860206C20F480502064F0
:100B5000206C00F4807018B9206C40F00100206413
:100B60002046FFF7AFFE6FF00C0021680860206898
:100B7000006800F0010520684068C0F3801685B168
:100B80007EB12068006800F0010050B1206C40F494
:100B900080302064204600F053F86FF00100216897
:100BA000086020680068C0F3401520684068C0F302
:100BB00080667DB176B1606C40F0020060646FF0D9
:100BC0002000216808602046FFF74AFF6FF02000F0
:100BD0002168086070BD000070B5044600250CB99E
:100BE000012070BD1549A06A884200D000BF206C6A
:100BF00030B9204600F026F80020606484F83C00FC
:100C0000206C00F0100088B9206C20F4885040F06F
:100C1000020020642046FFF707FD00206064206C7E
:100C200020F0020040F00100206400E0012500BF38
:100C3000002084F83C0000BF2846D2E70100000FE6
:100C40007047000010B586B00446142101A8FFF7D4
:100C5000C3FB2D492068884253D100BF002000907B
:100C60002A48006840F480702849086008460068F7
:100C700000F48070009000BF00BF00BF0020009013
:100C800022481438006840F00400204914390860F4
:100C90000846006800F00400009000BF00BF3F203D
:100CA0000190032002900020039001A9184800F051
:100CB0007BFB18481849086000204860002116484E
:100CC0008160C1604FF480610161890041618900E8
:100CD00081618911C161490201620021416200F014
:100CE00095FA08B1FFF7EDFD00BF0B48A0638463E0
:100CF00000BF00221146122000F012FE122000F068
:100D0000FFFD06B010BD0000002001404438024045
:100D1000000802401064024080000020F8B504463C
:100D20000D4616460020009000BF94F83C000128B4
:100D300001D10220F8BD012084F83C0000BF2068EA
:100D4000806800F00100A0B92068806840F00100D0
:100D500021688860494800684949B0FBF1F000EB20
:100D60004000009002E00098401E0090009800288B
:100D7000F9D12068806800F0010000287CD0206C48
:100D800040F20161884340F480702064206840682C
:100D900000F4806028B1206C20F4005040F48050B2
:100DA0002064206C00F48050B0F5805F04D1606C4A
:100DB00020F00600606401E00020606400BF0020B5
:100DC00084F83C0000BF2F4F2F48A16BC8632F4809
:100DD000A16B08642E48A16BC8646FF022002168E3
:100DE00008602068406840F08060216848602068A2
:100DF000806840F4807021688860226802F14C01AC
:100E000033462A46A06B00F077FA786800F01F009E
:100E100018BB20492068884213D01F4920688842A7
:100E200004D1381D006800F01F0050B11B49206834
:100E3000884221D11348001D006800F01F001028CF
:100E40001AD22068806800F0405028B92068806875
:100E500040F08040216888600EE00E49206888429A
:100E60000AD12068806800F0405028B92068806866
:100E700040F080402168886000205BE70C00002083
:100E800040420F0000230140730500080B060008D4
:100E9000F10500080020014000210140002201402E
:100EA00070B503460024002500BF5879012801D100
:100EB000022070BD0120587100BF0220187118680F
:100EC000046840F6FE7090408443D1E9000640EA91
:100ED000060505FA02F004431868046018680668FD
:100EE000C02090408643186806600120187100BF3A
:100EF0000020587100BF00BFDBE710B504460CB9F5
:100F0000012010BD207920B900206071204600F03A
:100F100009F80220207100202061012020710020AA
:100F2000EFE7000010B586B00446142101A8FFF7D2
:100F300053FA1949206888422BD100BF0020009045
:100F40001648006840F000501449086008460068E0
:100F500000F00050009000BF00BF00BF00200090D4
:100F60000E481038006840F001000C491039086044
:100F70000846006800F00100009000BF00BF30206C
:100F80000190032002900020039001A9044800F082
:100F90000BFA06B010BD000000740040403802405B
:100FA00000000240014691F83500022803D080205D
:100FB000486501207047052081F835000868006801
:100FC00020F001000A6810600020F3E7F8B504463D
:100FD000002000908C4800684FF41651B0FBF1F7E8
:100FE000A56D2E6894F85C1008208840304098B1B8
:100FF0002068006800F0040070B12068006820F0EC
:1010000004002168086094F85C1008208840A860FB
:10101000606D40F00100606594F85C10012088402C
:10102000304068B12068406900F0800040B194F819
:101030005C1001208840A860606D40F0020060658F
:1010400094F85C1004208840304068B12068006843
:1010500000F0020040B194F85C1004208840A860C1
:10106000606D40F00400606594F85C1010208840CA
:10107000304078B32068006800F0080050B394F85E
:101080005C1010208840A8602068006800F4802070
:1010900080B12068006800F4002028B9206CC8B135
:1010A0002046216C884715E0A06C98B12046A16CC1
:1010B00088470FE02068006800F4807028B9206835
:1010C000006820F0080021680860206C10B12046FC
:1010D000216C884794F85C1020208840304000281C
:1010E00065D02068006800F0100000285FD094F8F8
:1010F0005C1020208840A86094F83500052828D18D
:101100002068006820F016002168086020684069A7
:1011100020F0800021684861206C08B9A06C28B1DB
:101120002068006820F008002168086094F85C10CE
:101130003F208840A86000BF002084F8340000BF32
:10114000012084F83500206D10B12046216D8847BC
:10115000F8BD2068006800F4802080B12068006835
:1011600000F4002028B9606C10B12046616C8847FB
:101170001DE0E06BD8B12046E16B884717E020689E
:10118000006800F4807068B92068006820F01000E2
:101190002168086000BF002084F8340000BF0120EF
:1011A00084F83500E06B10B12046E16B8847606D34
:1011B00038B3606D00F00100F0B1052084F835000F
:1011C0002068006820F001002168086000BF0098D6
:1011D000401C0090B84200D905E02068006800F08B
:1011E00001000028F3D100BF00BF002084F83400C4
:1011F00000BF012084F83500E06C10B12046E16C9E
:10120000884700BFA4E700000C0000202DE9F04152
:101210000446002500F0CEF9074614B90120BDE8C8
:10122000F081606A00B100BF00BF002084F8340084
:1012300000BF022084F835002068006820F001001B
:10124000216808600AE000F0B5F9C01B052805D93F
:1012500020206065032084F83500E0E720680068FE
:1012600000F001000028EED1206805682148054003
:10127000D4E901010843E168084321690843616931
:101280000843A1690843E1690843216A084305430B
:10129000606A042803D1D4E90B01084305432068A0
:1012A00005602068456925F00705606A0543606AA6
:1012B00004280DD1A06A0543E06A48B12046FFF733
:1012C0008FFA28B140206065012084F83500A6E738
:1012D000206845612046FFF769FA064694F85C10DD
:1012E0003F208840B06000206065012084F8350010
:1012F000002094E73F8010F02DE9F04704460D46AA
:1013000016461F464FF00008D4F8589000BF94F8D6
:101310003400012802D10220BDE8F087012084F8C2
:10132000340000BF94F83500012825D1022084F84C
:101330003500002060653B46324629462046FFF7CF
:10134000A4FA94F85C103F208840C9F8080020688F
:10135000006840F0160021680860206C28B1206801
:10136000006840F00800216808602068006840F0CC
:1013700001002168086006E000BF002084F8340006
:1013800000BF4FF002084046C6E7704710B504465C
:1013900004480068204020B1024804602046FFF75E
:1013A000F4FF10BD143C0140F8B502460B46002581
:1013B000002400200021DCE0012606FA01F51E6869
:1013C00006EA0504AC4273D15E68012E08D05E685F
:1013D000022E05D05E68112E02D05E68122E13D147
:1013E00090684F000326BE40B0434F00DE68BE4009
:1013F00030439060506801268E40B0431E79C6F39A
:1014000000168E4030435060D0684F000326BE4027
:10141000B0434F009E68BE403043D0605E68022EED
:1014200002D05E68122E13D1CF0802F1200656F8C2
:1014300027004E07F70E0F26BE40B0434F07FF0EA2
:101440001E69BE403043CF0802F1200646F827004F
:1014500010684F000326BE40B0431E7906F0030615
:101460004F00BE40304310605E6806F08056B6F113
:10147000805F7DD100BF00260096404E366846F45E
:1014800080463E4F3E603E46366806F480460096F3
:1014900000BF00BF3A4E8F0856F827008E07370F5F
:1014A0000F26BE40B043374EB24202D1002624E0A0
:1014B0005EE0354EB24201D101261EE0334EB2420B
:1014C00001D1022619E0324EB24201D1032614E0C6
:1014D000304EB24201D104260FE02F4EB24201D16C
:1014E00005260AE02D4EB24201D1062605E02C4E1B
:1014F000B24201D1072600E008268F073F0FBE4009
:1015000030431F4E8F0846F82700264E3068A04310
:101510005E6806F48036B6F5803F00D12043214E48
:101520003060361D3068A0435E6806F40036B6F5BC
:10153000003F00D120431B4E361D3060361D306801
:10154000A0435E6806F48016B6F5801F00D12043E4
:10155000144E08363060361D3068A0435E6806F4CD
:101560000016B6F5001F00D120430E4E0C36306039
:10157000491C1029FFF420AFF8BD00004438024098
:101580000838014000000240000402400008024008
:10159000000C0240001002400014024000180240FB
:1015A000001C0240003C01400AB1816101E00B04D3
:1015B0008361704701480068704700000000002008
:1015C00070B504460CB9012070BD94F83D0028B9EF
:1015D000002084F83C00204600F0DAF8242084F84B
:1015E0003D002068006820F0010021680860206844
:1015F000006840F40040216808602068006820F41A
:1016000000402168086000F075FB05465C49606891
:10161000884206D85B48854201D2012007E00020BD
:1016200005E05948854201D2012000E00020012850
:1016300000D1C9E75548B5FBF0F62068406820F0B6
:101640003F003043216848604D496068884201D8B6
:10165000701C07E04FF4967070434FF47A71B0FB42
:10166000F1F0401C2168096A21F03F01084321681C
:10167000086243496068884214D8681E616849005E
:10168000B0FBF1F0401CC0F30B00042801D2042091
:101690003DE0681E61684900B0FBF1F0401CC0F3FA
:1016A0000B0034E0A06838B9681E616801EB4101A5
:1016B000B0FBF1F0401C0AE0681E616801EBC1025A
:1016C00002EB0111B0FBF1F0401C40F48040C0F38C
:1016D0000B0008B901201AE0A06848B9681E6168CB
:1016E00001EB4101B0FBF1F0401CC0F30B000CE03A
:1016F000681E616801EBC10202EB0111B0FBF1F061
:10170000401CC0F30B0040F4804040F400402168CE
:10171000C9694CF6FF72914308432168C861D4E956
:10172000070108432168096821F0C00108432168C6
:101730000860D4E9031008432168896848F2FF3241
:101740009143084321688860D4E905010843216872
:10175000C96821F0FF0108432168C860206800685B
:1017600040F001002168086000202064202084F8F7
:101770003D000020206384F83E0000BF24E7000005
:10178000A086010080841E0000093D0040420F0039
:1017900010B586B00446142101A8FEF71DFE1B49B2
:1017A000206888422FD100BF0020009018480068B0
:1017B00040F00200164908600846006800F0020088
:1017C000009000BF00BF4FF44060019012200290D3
:1017D0000120039004900420059001A90D48FFF713
:1017E000E3FD00BF0020009009481030006840F47D
:1017F00080000749103108600846006800F4800046
:10180000009000BF00BF06B010BD000000580040AF
:101810003038024000040240034800680349097858
:1018200008440149086070470000002008000020BB
:1018300010B50D48006840F400700B490860084678
:10184000006840F4806008600846006840F48070DA
:101850000860032000F0A2F8042000F007F800F070
:101860002BF8002010BD0000003C024070B504467B
:101870000E4800784FF47A71B1FBF0F00C4909681A
:10188000B1FBF0F5284601F0A9F808B1012070BDC0
:10189000102C07D200222146501E00F041F80548C6
:1018A000046001E00120F2E70020F0E708000020DA
:1018B0000C0000200400002008B500BF00200090AC
:1018C0000E48006840F480400C49086008460068F3
:1018D00000F48040009000BF00BF00BF00200090D7
:1018E000081F006840F08050091F08600846006823
:1018F00000F08050009000BF00BF08BD4438024097
:1019000001460846002809DB00F01F0301229A4027
:1019100043099B0003F1E023C3F8002100BF704797
:101920002DE9F05F80460D461646002703F056FA73
:10193000074639462A46334601F00700C0F1070A38
:10194000BAF1040F02D94FF0040A01E0C0F1070A0E
:10195000D14600F1040ABAF1070F02D24FF0000A93
:1019600001E0A0F1030AD4464FF0010A0AFA09FA8D
:10197000AAF1010A0AEA020A0AFA0CFA4FF0010B6C
:101980000BFA0CFBABF1010B0BEA030B4AEA0B045D
:101990002146404603F02AFABDE8F09F00BF00F060
:1019A0000702064B19684FF6FF031940044B0B431F
:1019B00043EA0221014B196000BF70470CED00E0C3
:1019C0000000FA05F8B5044600250026207800F04E
:1019D000010020B9207800F0040004282FD1002055
:1019E0005B498866FFF7E6FD054606E0FFF7E2FD86
:1019F000401B022801D90320F8BD56480068C0F3F7
:101A0000C0600028F2D160688101207A41EA00704C
:101A100050498431086001204D498866FFF7CAFDAE
:101A2000054606E0FFF7C6FD401B022801D903204A
:101A3000E2E748480068C0F3C0600028F2D0207890
:101A400000F0020002287DD100BF00200090414834
:101A50004030006840F080503E4940310860084600
:101A6000006800F08050009000BF00BF3A48006856
:101A700040F4807038490860FFF79CFD054606E099
:101A8000FFF798FD401B022801D90320B4E7324834
:101A9000006800F480700028F2D02E487030006892
:101AA00000F440764EB3A08900F44070B04224D0D8
:101AB00028487030006820F44076012027490860EB
:101AC00000200860234870300660006800F00100C4
:101AD00098B1FFF76FFD054608E0FFF76BFD401B6F
:101AE00041F28831884201D9032085E719487030D6
:101AF0000068C0F340000028EFD000BFA08900F4C8
:101B00004070B0F5407F0CD112480830006820F4D6
:101B1000F810134AE168114008430E490831086083
:101B200007E00C480830006820F4F8100949083133
:101B30000860084870300068A189C1F30B010843B0
:101B4000044900E002E07031086000BF002053E764
:101B5000000047420038024000700040400E4742FB
:101B6000FFFCFF0F70B504460D460CB9012070BD97
:101B70005848006800F00F00A84209D255490D707E
:101B80000846006800F00F00A84201D00120EEE7EF
:101B9000207800F0020002281DD1207800F0040017
:101BA000042805D14C48006840F4E0504A490860D8
:101BB000207800F00800082805D14748006840F464
:101BC0006040454908604448006820F0F000A16882
:101BD000084341490860207800F00100A8B360681C
:101BE000012807D13C4808380068C0F34040B8B924
:101BF0000120BCE76068022802D06068032807D192
:101C0000354808380068C0F3406048B90120AEE7A5
:101C1000314808380068C0F3400008B90120A6E741
:101C20002D48006820F00300616808432A490860D5
:101C3000FFF7C0FC064609E0FFF7BCFC801B41F241
:101C40008831884202D9032091E707E022480068E2
:101C500000F00C006168B0EB810FEDD11D48006809
:101C600000F00F00A84209D91A490D700846006813
:101C700000F00F00A84201D0012078E7207800F0A2
:101C80000400042807D11448006820F4E050E168FB
:101C9000084311490860207800F00800082808D19E
:101CA0000D48006820F46040216940EAC1000A49FB
:101CB000086000F03FF808490968C1F30311074ABA
:101CC000515CC8400649086006480068FFF7CEFD31
:101CD00000204CE7003C024008380240825E0008C9
:101CE0000C0000200400002001480068704700003C
:101CF0000C00002000B5FFF7F7FF04490968C1F3A5
:101D00008221034A515CC84000BD000008380240EF
:101D1000925E000800B5FFF7E7FF04490968C1F3C8
:101D20004231034A515CC84000BD000008380240FF
:101D3000925E00082DE9F047002400250026A14608
:101D40002548006800F00C0020B1042805D00828C0
:101D50003AD105E0DFF8849039E0DFF8849036E08E
:101D60001D48001F006800F03F041B48001F00686A
:101D700000F4800078B11A481749091F0968C1F3B7
:101D80008811A0FB01700146224600233846FEF769
:101D90006BFA05460EE011480F49091F0968C1F3A7
:101DA0008811A0FB01700146224600233846FEF749
:101DB0005BFA05460848001F0068C0F30140401C5C
:101DC0004600B5FBF6F902E0DFF8109000BF00BF57
:101DD0004846BDE8F0870000083802400024F400BF
:101DE00000127A00F8B504460CB90120F8BD20783D
:101DF00000F00100002874D0F948006800F00C00E1
:101E000004280DD0F648006800F00C00082813D113
:101E1000F348001F006800F48000B0F5800F0BD17C
:101E2000EF4808380068C0F34040002859D0606887
:101E3000002856D10120D9E700BF6068B0F5803F87
:101E400008D1E7480838006840F48030E449083990
:101E500008601EE06068B0F5A02F0DD1E04808389A
:101E6000006840F48020DE490839086008460068B0
:101E700040F4803008600CE0D9480838006820F44D
:101E80008030D749083908600846006820F480206F
:101E9000086000BF606890B1FFF78CFB054606E064
:101EA000FFF788FB401B642801D903209EE7CC483C
:101EB00008380068C0F340400028F1D011E0FFF777
:101EC00079FB054606E0FFF775FB401B642801D946
:101ED00003208BE7C24808380068C0F34040002860
:101EE000F1D1207800F0020002285FD1BC480068E0
:101EF00000F00C0058B1BA48006800F00C00082847
:101F00001CD1B748001F006800F48000B0B9B44885
:101F100008380068C0F3400020B1E068012801D013
:101F2000012063E7AE480838006820F0F800216916
:101F300040EAC100AA490839086037E0E06800B308
:101F40000120A8490860FFF735FB054606E0FFF7CA
:101F500031FB401B022801D9032047E7A04808387D
:101F60000068C0F340000028F1D09D4808380068A0
:101F700020F0F800216940EAC10099490839086059
:101F800014E0002097490860FFF714FB054606E0BF
:101F9000FFF710FB401B022801D9032026E79048D9
:101FA00008380068C0F340000028F1D1207800F024
:101FB000080008282CD16069A8B101208A4908606E
:101FC000FFF7F8FA054606E0FFF7F4FA401B02288F
:101FD00001D903200AE782486C300068C0F3400052
:101FE0000028F1D014E000207F490860FFF7E2FAF2
:101FF000054606E0FFF7DEFA401B022801D9032060
:10200000F4E677486C300068C0F340000028F1D156
:10201000207800F00400042870D100277048383080
:10202000006800F0805090B900BF002000906C481C
:102030003830006840F080506949383108600846FF
:10204000006800F08050009000BF00BF0127674883
:10205000006800F48070B0B96448006840F4807093
:1020600062490860FFF7A6FA054606E0FFF7A2FA04
:10207000401B022801D90320B8E65C48006800F440
:1020800080700028F2D000BFA068012808D1544811
:102090006830006840F001005149683108601DE077
:1020A000A06805280DD14E486830006840F0040053
:1020B0004B49683108600846006840F0010008603C
:1020C0000CE047486830006820F00100444968315E
:1020D00008600846006820F00400086000BFA0689F
:1020E000A8B1FFF767FA054609E0FFF763FA401B5E
:1020F00041F28831884202D9032077E626E0384849
:1021000068300068C0F340000028EED013E0FFF70D
:1021100051FA054608E0FFF74DFA401B41F28831BD
:10212000884201D9032061E62D4868300068C0F379
:1021300040000028EFD1012F07D12948383000682E
:1021400020F0805026493831086000BFA06900287F
:1021500045D02348006800F00C0008285DD0A06935
:10216000022845D100201F490866FFF723FA0546DB
:1021700006E0FFF71FFA401B022801D9032035E6CD
:10218000174808380068C0F340600028F1D1D4E94E
:1021900007010843616A40EA81110122A06AC2EB8B
:1021A000500041EA00412C20005D41EA00600C49EA
:1021B000091F086001200B490866FFF7FBF9054677
:1021C00006E0FFF7F7F9401B022801D903200DE6CE
:1021D000034808380068C0F340600028F1D03FE0B1
:1021E0000838024000004742800E4742007000401D
:1021F00000201C490866FFF7DDF9054606E0FFF7F9
:10220000D9F9401B022801D90320EFE516480068E0
:10221000C0F340600028F2D122E0A069012800D17B
:10222000E4E51148001D066806F48001E06981427A
:1022300014D106F03F01206A81420FD147F6C070E9
:102240003040616A884209D106F44031A06A814277
:1022500004D106F07061E06A814201D00120C5E539
:102260000020C3E500004742003802407047704735
:1022700010B5044620688068C0F3003078B120684B
:10228000C068C0F3002050B12046FFF7F0FF20687F
:10229000C06800F0800060F4C0702168C8602068E9
:1022A0008068C0F3403078B12068C068C0F3402037
:1022B00050B12046FFF7DAFF2068C06800F08000C8
:1022C00060F420702168C8604FF400300249086053
:1022D0000120607710BD0000143C014010B5044699
:1022E0000CB9012010BD607F20B900202077204666
:1022F00000F060F80220607700BFCA2021684862C1
:1023000053202168486200BF204601F054FF40B1CD
:1023100000BFFF202168486200BF042060770120D1
:10232000E0E72068806822490840216888602169C8
:102330006068084361690843216889680843216827
:1023400088602168E068086120680169208941EAA5
:102350000040216808612068C06820F08000216882
:10236000C8602068806800F0200060B9204600F056
:1023700053FA40B100BFFF202168486200BF04202B
:1023800060770120AEE72068006C20F4802021688F
:1023900008642068006CA16908432168086400BFD4
:1023A000FF202168486200BF01206077002099E784
:1023B000BFFF8FFF10B504460749206888420AD145
:1023C000012006490860002203212920FFF7A8FA0E
:1023D0002920FFF795FA10BD002800403C0E474227
:1023E0002DE9F84103460C461546002600277C4897
:1023F000006840094FF47A71B0FBF1F04843009057
:1024000000BF187F012802D10220BDE8F881012019
:10241000187700BF0220587755BB1868806800F015
:10242000400000B102E00020E07000BFE06900B9A8
:1024300000E000BF207801F0B1FE4FEA004860786C
:1024400001F0ACFE48EA0028A07801F0A7FE48EAB7
:102450000008E07848EA004894F8200001F09EFE69
:1024600048EA0060E1690843616940EA01061FE04B
:102470001868806800F0400000B102E00020E070C1
:1024800000BFE06900B900E000BF20780004617877
:1024900040EA0120A1780843E17840EA014094F83D
:1024A000201040EA0160E1690843616940EA0106E1
:1024B000A169606840EA010700BFCA201968486244
:1024C00053201968486200BF606AB0F5807F36D13A
:1024D0001868806820F48070196888601868C0687F
:1024E00000F0800060F4C0701968C86000BF0098F8
:1024F000411E009160B900BFFF201968486200BF0B
:102500000320587700BF0020187700BF03207CE726
:102510001868C06800F001000028E8D01868C6619B
:10252000186847641868806840F48070196888608B
:102530001868806840F480501968886035E0186831
:10254000806820F40070196888601868C06800F01E
:10255000800060F420701968C86000BF0098411EB8
:10256000009160B900BFFF201968486200BF0320D6
:10257000587700BF0020187700BF032045E7186890
:10258000C068C0F340000028E8D0186806621868E8
:1025900087641868806840F400701968886018685B
:1025A000806840F40050196888600E48006840F464
:1025B00000300C4908600B480830006840F40030D7
:1025C00008490831086000BFFF201968486200BF51
:1025D0000120587700BF0020187700BF00BF14E724
:1025E0000C000020003C01402DE9F04104460D465E
:1025F0001646002700BF207F012802D10220BDE837
:10260000F0810120207700BF022060774EB9687802
:1026100000F01000102804D1687800F0EF000A30B4
:10262000687086B9E87801F0B9FD0304687801F0B4
:10263000B5FD43EA0023A87801F0B0FD03432878F4
:1026400043EA403709E0E8780004697840EA01206D
:10265000A9780843297840EA413700BFCA20216899
:10266000486253202168486200BF204601F0A3FD64
:1026700060B100BFFF202168486200BF042060777E
:1026800000BF0020207700BF0120B8E7164838407F
:10269000216848602068C06820F080002168C86018
:1026A0002068806800F0200080B9204600F0B4F86F
:1026B00060B100BFFF202168486200BF042060773E
:1026C00000BF0020207700BF012098E700BFFF2057
:1026D0002168486200BF0120607700BF002020779A
:1026E00000BF00BF8BE700003FFFFF002DE9F04176
:1026F00004460D461646002700BF207F012802D160
:102700000220BDE8F0810120207700BF0220607721
:10271000CEB92068806800F0400000B102E00020DF
:10272000E87000BF287801F039FD0304687801F0F3
:1027300035FD43EA0023A87801F030FD0343E87833
:1027400043EA004712E02068806800F0400000B1D2
:1027500002E00020E87000BF28780004697840EAB1
:102760000120A9780843E97840EA014700BFCA2060
:102770002168486253202168486200BF204601F06A
:102780001AFD60B100BFFF202168486200BF04202D
:10279000607700BF0020207700BF0120B1E71D480F
:1027A0003840216808602068806820F48020216813
:1027B0008860D5E9030108432168896808432168D6
:1027C00088602068C06820F080002168C8602068A8
:1027D000806800F0200080B9204600F01DF860B14C
:1027E00000BFFF202168486200BF0420607700BF5F
:1027F0000020207700BF012083E700BFFF20216871
:10280000486200BF0120607700BF0020207700BF32
:1028100000BF76E77F7F7F0070B504460025206803
:10282000C06820F0A0002168C860FEF7C3FE05461E
:1028300007E0FEF7BFFE401BB0F57A7F01D9032009
:1028400070BD2068C06800F020000028F1D0002092
:10285000F6E710B504460CB9012010BD606A00B956
:1028600000BF0021A16294F8510028B9002084F82B
:102870005000204600F034F8022084F8510020680F
:10288000006820F0400021680860D4E90101084395
:10289000E16808432169084361690843218B01F419
:1028A00000710843E1690843216A0843A16A0843AB
:1028B000216808600421A06901EA1040616A0843A8
:1028C000216848602068C06920F400602168C86100
:1028D00000206065012084F851000020BDE7000061
:1028E00010B586B00446142101A8FDF775FD3749DF
:1028F0002068884230D100BF002000903448006832
:1029000040F48050324908600846006800F4805066
:10291000009000BF00BF00BF002000902C4814387A
:10292000006840F002002A4914390860084600682F
:1029300000F00200009000BF00BF3820019002208C
:10294000029000200390022004900520059001A928
:102950002048FEF729FD36E01F492068884232D121
:1029600000BF002000901A48001F006840F480401B
:102970001749091F08600846006800F4804000906D
:1029800000BF00BF00BF002000901148143800684D
:1029900040F002000E49143908600846006800F053
:1029A0000200009000BF00BF4FF4204001900220C1
:1029B000029000200390012004900520059001A9B9
:1029C0000448FEF7F1FC06B010BD000000300140E5
:1029D00044380240000402400038004070B504460C
:1029E0002546681EB0F1807F01D301200FE0681EEC
:1029F0004FF0E02148610F214FF0FF3002F0F6F96F
:102A000000204FF0E021886107200861002070BDA0
:102A10007047704710B50346002200BF93F83C0092
:102A2000012801D1022010BD012083F83C0000BF25
:102A300022F0FF00CC6840EA040222F440708C6867
:102A400040EA040222F480604C6840EA040222F466
:102A500000600C6840EA040222F480500C6940EAED
:102A6000040222F400504C6940EA040222F480403F
:102A7000CC6940EA04021868426400BF002083F871
:102A80003C0000BF00BFCEE730B502460B4600BF9A
:102A900092F83C00012801D1022030BD012082F8CB
:102AA0003C0000BF022082F83D00106844681068B6
:102AB000816824F070041868044310684460184D5D
:102AC0001068A8421BD01068B0F1804F17D0154D88
:102AD0001068A84213D0144D1068A8420FD0134DAF
:102AE0001068A8420BD0124D1068A84207D0114DB3
:102AF0001068A84203D0104D1068A84205D121F0FB
:102B000080015868014310688160012082F83D000F
:102B100000BF002082F83C0000BF00BFBDE70000FE
:102B2000000001400004004000080040000C00408C
:102B300000040140004001400018004070B5044608
:102B40000D4604222946206801F069FC2068406C8B
:102B500040F40040216848642068806800F007065F
:102B6000062E05D02068006840F00100216808604A
:102B7000002070BD10B504460CB9012010BD94F8BA
:102B80003D0028B9002084F83C00204600F00CF8F5
:102B9000022084F83D00211D206801F0C3FB0120C4
:102BA00084F83D000020E9E710B586B00446142102
:102BB00001A8FDF711FC6D492068884220D100BFB3
:102BC000002000906A48006840F0010068490860F1
:102BD0000846006800F00100009000BF00BF00221E
:102BE00011461920FEF79CFE1920FEF789FE0022EF
:102BF00011461A20FEF794FE1A20FEF781FEB2E07D
:102C00002068B0F1804F32D100BF002000905848BA
:102C1000001F006840F001005549091F0860084680
:102C2000006800F00100009000BF00BF00BF00205E
:102C300000904F481438006840F001004C491439A6
:102C400008600846006800F00100009000BF00BF67
:102C500001200190022002900120039000200490A6
:102C60000120059001A94348FEF79EFB7BE0424905
:102C7000206888421AD100BF002000903C48001F05
:102C8000006840F002003A49091F086008460068E1
:102C900000F00200009000BF00BF002201211D20B3
:102CA000FEF73EFE1D20FEF72BFE5CE03349206858
:102CB000884258D100BF002000902D48006840F0A5
:102CC00002002B4908600846006800F002000090EE
:102CD00000BF00BF00BF00200090254814380068E6
:102CE00040F004002249143908600846006800F0EA
:102CF0000400009000BF00BF481501900220029020
:102D00000020039003200490059001A91C48FEF7C1
:102D10004BFB1C481C4908604FF060604860002174
:102D200019488160C1604FF48061016100214161F7
:102D300081614FF48071C1614902016200214162E9
:102D4000FEF764FA08B1FDF7BCFD00BF0E49216330
:102D50000846846300BF00BFA163846300BF00BF57
:102D60006163846300BF06B010BD00000000014035
:102D700044380240000002400004004000040140CA
:102D800000080240B8640240580300200146086869
:102D9000C06840F001000B68D8600868806800F0E7
:102DA0000702062A05D00868006840F001000B6899
:102DB0001860002070472DE9F04104460D4600BF21
:102DC00094F83C00012802D10220BDE8F0810120E6
:102DD00084F83C0000BF022084F83D00206886682B
:102DE00026F0770626F47F462068866028685028FB
:102DF00033D00CDC202850D004DC00284BD0102825
:102E000051D149E0302849D040284CD139E06028E0
:102E10002DD0702807D0B0F5805F03D0B0F5005FEB
:102E200041D10DE040E0D5E902136A68206801F065
:102E300007FB2068866846F077062068866033E0E6
:102E4000D5E902136A68206801F0FAFA2068806800
:102E500040F480402168886026E0EA68696820685C
:102E600001F033FC5021206801F0F5FA1CE0EA681B
:102E70006968206801F084FC6021206801F0EBFAA9
:102E800012E0EA686968206801F01FFC40212068B0
:102E900001F0E1FA08E000BF00BF00BF2968206828
:102EA00001F0D9FA00E000BF00BF012084F83D0026
:102EB00000BF002084F83C0000BF00BF85E72DE97B
:102EC000F04104460D4614B90120BDE8F08194F8A4
:102ED0003D0028B9002084F83C00204600F046F868
:102EE000022084F83D002068806844F2070188438E
:102EF00021688860211D206801F014FA2068D0F84C
:102F00000880206886692068076A286840EA0808FF
:102F100040F203308643A969A86840EA01200643CD
:102F200040F60C4086434FF2F0008643E969E868BA
:102F300040EA0120064328690001296A40EA01307D
:102F4000064327F0220727F088076969686840EA86
:102F5000011007432068C0F8088020688661206857
:102F60000762012084F83D000020AEE710B586B06E
:102F70000446142101A8FDF72FFA1B492068884256
:102F800030D100BF002000901848006840F00400D5
:102F9000164908600846006800F00400009000BF71
:102FA00000BF00BF0020009010481038006840F0BB
:102FB00008000E49103908600846006800F0080053
:102FC000009000BF00BF4FF44050019002200290DB
:102FD00001200390002004900220059001A90448DC
:102FE000FEF7E2F906B010BD00080040403802408C
:102FF000000C024070472DE9F04104460D4616468C
:1030000000BF94F83C00012802D10220BDE8F08105
:10301000012084F83C0000BF022084F83D0096B9EE
:10302000EB68D5E90012206801F062FB2068806936
:1030300020F00C002168886120688069A968084335
:10304000216888613DE0042E13D1EB68D5E90012B8
:10305000206801F0A9FB2068806920F440602168A5
:10306000886120688069A96840EA01202168886138
:1030700027E0082E12D1EB68D5E90012206801F094
:10308000B0FB2068C06920F00C002168C86120688E
:10309000C069A96808432168C86112E0EB68D5E9F6
:1030A0000012206801F0B9FB2068C06920F440607C
:1030B0002168C8612068C069A96840EA01202168C8
:1030C000C861012084F83D0000BF002084F83C0066
:1030D00000BF00BF9AE710B504460CB9012010BD2F
:1030E00094F83D0028B9002084F83C00204600F008
:1030F0000CF8022084F83D00211D206801F012F92F
:10310000012084F83D000020E9E7704710B504462F
:1031100020680069C0F34000D8B12068C068C0F3DF
:103120004000B0B16FF002002168086101202077F3
:103130002068806900F0030018B12046FFF75AFFAD
:1031400005E0204600F038F9204600F0F0F90020B4
:10315000207720680069C0F38000D8B12068C0687B
:10316000C0F38000B0B16FF0040021680861022054
:1031700020772068806900F4407018B12046FFF77E
:1031800039FF05E0204600F017F9204600F0CFF99E
:103190000020207720680069C0F3C000D8B1206803
:1031A000C068C0F3C000B0B16FF0080021680861CA
:1031B000042020772068C06900F0030018B1204681
:1031C000FFF718FF05E0204600F0F6F8204600F073
:1031D000AEF90020207720680069C0F30010D8B154
:1031E0002068C068C0F30010B0B16FF01000216813
:1031F0000861082020772068C06900F4407018B189
:103200002046FFF7F7FE05E0204600F0D5F82046FF
:1032100000F08DF9002020772068006900F001009F
:1032200058B12068C06800F0010030B16FF00100B3
:1032300021680861204600F0A7F920680069C0F302
:10324000C01058B12068C068C0F3C01030B16FF032
:103250008000216808612046FFF7DAFB20680069DA
:10326000C0F3801058B12068C068C0F3801030B13E
:103270006FF0400021680861204600F0BCF920682A
:103280000069C0F3401058B12068C068C0F3401016
:1032900030B16FF02000216808612046FFF7B9FBCC
:1032A00010BD000010B586B00446142101A8FDF73A
:1032B00093F820492068884239D100BF002000904F
:1032C0001D48006840F001001B490860084600687E
:1032D00000F00100009000BF00BF00BF0020009080
:1032E0000846006840F0020008600846006800F0E8
:1032F0000200009000BF00BF4FF4F0600190022078
:1033000002900020039004900120059001A90B4831
:10331000FEF74AF80320019002200290002003905B
:1033200004900120059001A90548FEF73DF806B07C
:1033300010BD000000000140303802400000024093
:103340000004024070B504460E46154600BF94F8CE
:103350003C00012801D1022070BD012084F83C000E
:1033600000BF022084F83D0035B1042D09D0082D9E
:103370000CD00C2D14D10EE03146206801F074F809
:103380000FE03146206801F0A7F80AE031462068D6
:1033900001F0E0F805E03146206801F017F900E09F
:1033A00000BF00BF012084F83D0000BF002084F86A
:1033B0003C0000BF00BFCFE7704710B504460CB912
:1033C000012010BD94F83D0028B9002084F83C008D
:1033D000204600F00CF8022084F83D00211D2068F2
:1033E00000F0A0FF012084F83D000020E9E77047CD
:1033F00070B504460D46164600BF94F83C000128FF
:1034000001D1022070BD012084F83C0000BF0220E1
:1034100084F83D0036B1042E1BD0082E31D00C2E7E
:103420005ED145E02946206801F01EF820688069D9
:1034300040F00800216888612068806920F004005D
:10344000216888612068806929690843216888614A
:1034500047E02946206801F03FF82068806940F481
:103460000060216888612068806920F4806021689C
:10347000886120688069296940EA012021688861A3
:103480002FE02946206801F065F82068C06940F007
:1034900008002168C8612068C06920F00400216824
:1034A000C8612068C069296908432168C86118E0BB
:1034B0002946206801F08AF82068C06940F400605D
:1034C0002168C8612068C06920F480602168C861F3
:1034D0002068C069296940EA01202168C86100E0CC
:1034E00000BF00BF012084F83D0000BF002084F829
:1034F0003C0000BF00BF85E710B504460CB90120B1
:1035000010BD94F83D0028B9002084F83C00204606
:1035100000F00CF8022084F83D00211D206800F026
:1035200001FF012084F83D000020E9E77047704763
:1035300070B504460E4601223146206800F05EFF59
:103540000F492068884203D00E492068884201D183
:10355000012000E0002028B12068406C40F40040C9
:10356000216848642068806800F00705062D05D0B2
:103570002068006840F0010021680860002070BDEC
:103580000000014000040140704770B504460D463C
:1035900000BF94F83C00012801D1022070BD012039
:1035A00084F83C0000BF022084F83D0029462046F4
:1035B00001F036F848B1012084F83D0000BF00203A
:1035C00084F83C0000BF0120E8E72068C06820F0D4
:1035D00040002168C8602068C06820F480402168ED
:1035E000C860012084F83D0000BF002084F83C0042
:1035F00000BF00BFD2E77047704700002DE9F047D9
:103600000446206805682068C668206847694FF04E
:103610000008C14605F00F08B8F1000F0AD105F007
:10362000200038B106F0200020B1204601F03DF91D
:10363000BDE8F087B8F1000F72D007F0010018B9AB
:1036400006F4907000286BD005F0010030B106F44C
:10365000807018B1E06B40F00100E06305F00400F9
:1036600030B107F0010018B1E06B40F00200E063F8
:1036700005F0020030B107F0010018B1E06B40F036
:103680000400E06305F0080048B106F0200010B91E
:1036900007F0010018B1E06B40F00800E063E06B58
:1036A00070B305F0200028B106F0200010B12046CC
:1036B00001F0FBF820684069C0F38019E06B00F06E
:1036C000080010B9B9F1000F23D0204601F0CDF861
:1036D0002068406900F04000402816D12068406909
:1036E00020F0400021684861606B50B11748616B61
:1036F0000865606BFDF756FC10B1606B016D884783
:103700000CE02046FFF778FF08E02046FFF774FF43
:1037100004E02046FFF770FF0020E06388E7FFE742
:1037200005F0800030B106F0800018B1204601F0AD
:1037300003FB7DE705F0400030B106F0400018B112
:10374000204601F0A2F873E700BF71E75748000870
:1037500010B504460CB9012010BDA06900B100E00D
:1037600000BF94F8390028B9002084F838002046BA
:1037700000F028F8242084F839002068C06820F47C
:1037800000502168C860204601F0E2F82068006916
:1037900020F49040216808612068406920F02A00E8
:1037A000216848612068C06840F400502168C86002
:1037B0000020E063202084F8390084F83A000020DB
:1037C000CAE7000010B586B00446142101A8FCF732
:1037D00003FE1F492068884237D100BF00200090B7
:1037E0001C48006840F400301A4908600846006828
:1037F00000F40030009000BF00BF00BF0020009028
:1038000014481038006840F001001249103908606F
:103810000846006800F00100009000BF00BF0C20C7
:1038200001900220029000200390012004900720C4
:10383000059001A90848FDF7B7FD002202212620C6
:10384000FEF76EF82620FEF75BF806B010BD00000C
:10385000004400404038024000000240704770477A
:1038600000BFFEE71FB5002000900190029003907A
:103870003748384908604FF48030486000213548A7
:103880008160012101610176002180F820104FF054
:103890008051C162491081620021C1600621C1616D
:1038A000012180F8301000214161FDF795F908B140
:1038B000FDF707F80A2000900120019000200290F7
:1038C00069462448FDF700F808B1FCF7FAFF0B2021
:1038D0000090022001900120029069461D48FCF7EB
:1038E000F3FF08B1FCF7EDFF0C20009003200190DE
:1038F0000220029069461748FCF7E6FF08B1FCF782
:10390000E0FF0D2000900420019003200290694602
:103910001048FCF7D9FF08B1FCF7D3FF0E20009048
:1039200005200190029069460A48FCF7CDFF08B1D6
:10393000FCF7C7FF0F200090062001900290694617
:103940000448FCF7C1FF08B1FCF7BBFF1FBD000036
:1039500000200140380000201CB50020009001909C
:103960000F48104908600846FDF7C7FA08B1FCF790
:10397000A8FF00200090022001900022694609481B
:10398000FDF78EFA08B1FCF79CFF00200190102291
:1039900069460448FDF784FA08B1FCF792FF1CBDA4
:1039A00000740040E000002008B500BF0020009037
:1039B0000E48006840F480000C4908600846006822
:1039C00000F48000009000BF00BF002211463820A4
:1039D000FDF7A6FF3820FDF793FF00221146462091
:1039E000FDF79EFF4620FDF78BFF08BD30380240F3
:1039F00000B587B0142102A8FCF7EEFC00BF002040
:103A000001907548006840F010007349086008464E
:103A1000006800F01000019000BF00BF00BF002050
:103A200001900846006840F00400086008460068FD
:103A300000F00400019000BF00BF00BF0020019013
:103A40000846006840F0800008600846006800F002
:103A50008000019000BF00BF00BF00200190084619
:103A6000006840F0010008600846006800F00100AE
:103A7000019000BF00BF00BF002001900846006811
:103A800040F0020008600846006800F00200019063
:103A900000BF00BF00BF002001900846006840F052
:103AA000080008600846006800F00800019000BFA8
:103AB00000BF00224FF440514848FDF775FD002239
:103AC0004FF4E0414648FDF76FFD00224FF4A0415E
:103AD0004448FDF769FD0122D1034348FDF764FD29
:103AE000FF200290002003900120049002A93C488E
:103AF000FDF75AFC4FF40050029001200390002083
:103B00000490059002A93548FDF74EFC4FF4E040C3
:103B100002900120039000200490059002A93048F3
:103B2000FDF742FC4FF4A0400290012003900020DA
:103B30000490059002A92B48FDF736FC4FF4804015
:103B40000290002003900120049002A92748FDF76D
:103B50002BFC4FF4004002900120039000200490C1
:103B60000220059002A92048FDF71EFC4FF480605A
:103B70000290002003900120049002A91748FDF74D
:103B800013FC4FF480500290012003900020049019
:103B90000220059002A91148FDF706FCFF200290C3
:103BA000002003900220049002A91048FDF7FCFBBE
:103BB000802002900E4803900220049002A9094838
:103BC000FDF7F2FB002201211720FDF7A9FE1720C7
:103BD000FDF796FE07B000BD3038024000080240F5
:103BE000001002400004024000000240000C0240AD
:103BF0000000211010B50B480B4908600B484860C5
:103C0000002109488160C1604FF4804101610021B9
:103C100041618161C1610162FDF7D2FC08B1FCF72D
:103C200050FE10BD00580040F4000020400D03007D
:103C300000B591B014210CA8FCF7CEFB00200B902E
:103C4000282101A8FCF7C8FB2E482F490860002056
:103C500048607F212C488160FF21C1600021016103
:103C600041618161FEF73AFB08B1FCF72AFE0C20A6
:103C70008DF830003B208DF831001E208DF8320089
:103C800000200F90109000220CA91F48FEF72EFD77
:103C900008B1FCF716FE02208DF82C0001208DF8EB
:103CA0002D008DF82E0013208DF82F0000220BA977
:103CB0001548FEF799FC08B1FCF703FE00208DF8CB
:103CC00004003B208DF805008DF80600332002909B
:103CD0000020049005900D4806904FF0706007900A
:103CE0000020089001208DF8240000020A90002294
:103CF00001A90548FEF774FB08B1FCF7E2FD11B01D
:103D000000BD000000280040480100200000808025
:103D100010B50E480E4908604FF4827048600021CB
:103D20000B488160C160016141614FF400718161A4
:103D30001821C16100210162416281620A21C162D0
:103D4000FEF787FD08B1FCF7BCFD10BD0030014057
:103D50006801002010B50F480F4908604FF48270C9
:103D6000486000210C488160C1600221016101218D
:103D70004161490281612021C161002101624162EA
:103D800081620A21C162FEF764FD08B1FCF799FD6A
:103D900010BD000000380040C001002000B595B003
:103DA000002011901290139014900F9010901C21ED
:103DB00008A8FCF711FB20216846FCF70DFB4048E2
:103DC000404908600020486020213E48816041F25F
:103DD0006701C16000210161012141610021816110
:103DE000FEF7C8FE08B1FCF76CFD4FF4805011904F
:103DF00011A93448FEF7DFFF08B1FCF762FD314836
:103E0000FFF77AFB08B1FCF75CFD2E48FFF7D5FA07
:103E100008B1FCF756FD20200F90002010900FA94C
:103E20002848FEF731FE08B1FCF74BFD60200890F2
:103E300041F26800099000200A900B900C900D90C0
:103E40000E90002208A91F48FFF7D2FA08B1FCF72C
:103E500038FD002008900990042208A91948FFF7AE
:103E600071FA08B1FCF72DFD082208A91548FFF7E3
:103E700069FA08B1FCF725FD4FF47A7009900C221D
:103E800008A91048FFF75EFA08B1FCF71AFD0020F8
:103E900000900190029096200390002004904FF42F
:103EA000005005900020079069460648FEF7B2FDD5
:103EB00008B1FCF706FD0348FFF7F4F915B000BDA3
:103EC000000001401802002000B58FB000200B90C8
:103ED0000C900D900E90142106A8FCF77DFA00209E
:103EE0000290039004900590009001904FF0804064
:103EF0002A49086053204860002128488160491EF3
:103F0000C160002101618161FEF734FE08B1FCF758
:103F1000D8FC4FF480500B900BA92048FEF74BFFC4
:103F200008B1FCF7CEFC1D48FFF7D5F808B1FCF747
:103F3000C8FC0420069050200790002008900990AB
:103F40000A9006A91548FFF720FB08B1FCF7B9FC59
:103F50000020029001200390002004900590002290
:103F600002A90E48FFF747F808B1FCF7AAFC0220A7
:103F700002900390042202A90848FFF73CF808B118
:103F8000FCF79FFC00200090019069460348FEF773
:103F90007BFD08B1FCF795FC0FB000BD5802002076
:103FA00000B58BB000200790089009900A9014216A
:103FB00002A8FCF711FA0020009001901A481B4952
:103FC00008600020486020211848816042F2CF013B
:103FD000C160002101618161FEF7CCFD08B1FCF7F1
:103FE00070FC4FF48050079007A91048FEF7E3FEDD
:103FF00008B1FCF766FC062002900020039002A99D
:104000000A48FFF7C2FA08B1FCF75BFC20200090D9
:104010000020019069460548FEF736FD08B1FCF71F
:1040200050FC0BB000BD00000004004098020020CE
:1040300000B58BB0242102A8FCF7CEF90020009037
:10404000019018481849086000204860002116486F
:10405000816042F2CF01C1600021016181610320D2
:10406000029000200390012004900020059006900B
:10407000079001200890002009900A9002A90A48A0
:10408000FEF71DFF08B1FCF71CFC0020009001901A
:1040900069460548FEF7F8FC08B1FCF712FC0BB0C6
:1040A00000BD000000080040D802002000B58BB021
:1040B00000200790089009900A90059006900190C2
:1040C0000290039004901F481F490860A720486091
:1040D00000211D4881604FF6FF71C1600021016120
:1040E00041618161FEF746FD08B1FCF7EAFB4FF440
:1040F0008050079007A91448FEF75DFE08B1FCF751
:10410000E0FB1148FEF7E7FF08B1FCF7DAFB0020FF
:104110000590069005A90C48FEF7B6FC08B1FCF71F
:10412000D0FB002001900120029000200390049019
:104130000C2201A90448FEF75EFF08B1FCF7C1FBA1
:104140000BB000BD000401401803002010B50B485F
:104150000B4908604FF49640486000210848816090
:10416000C16001610C21416100218161C161FFF7E2
:10417000EFFA08B1FCF7A5FB10BD000000440040B9
:10418000B803002000BFFEE77047704710B5024833
:10419000FEF76EF810BD0000480100200146002225
:1041A00003E0521CA1F10A00C1B20A29F9D210079A
:1041B00041EA1060704770B5044600252068C06869
:1041C00000F04000A0B9681E2168C860FDF7F2F950
:1041D000054607E0FDF7EEF9401BB0F57A7F01D9FF
:1041E000032070BD2068C06800F040000028F1D0B6
:1041F0000020F6E7704710B5FDF70EFB10BD00007C
:1042000000B597B030210BA8FCF7E6F8142106A8FA
:10421000FCF7E2F80020029003900490059000BFA4
:1042200001902B48006840F08050294908600846FA
:10423000006800F08050019000BF00BF00BF002068
:1042400001902448006840F48040224908600846F4
:10425000006800F48040019000BF00BF05200B9073
:104260004FF480300C9001200D90022011904105F8
:104270001291082113914FF4A87114910221159104
:10428000042116910BA8FDF7ADFD08B1FCF719FB51
:104290000F20069002200790002008904FF4A050B5
:1042A00009904FF480500A90052106A8FDF75AFCAA
:1042B00008B1FCF706FB02200290C001059002A89D
:1042C000FDF780FB08B1FCF7FCFA17B000BD000059
:1042D00040380240007000400548006840F470001B
:1042E000034908604FF00060014980390860704759
:1042F00088ED00E010B50248FEF708FF10BD000091
:104300001802002010B50248FEF700FF10BD0000A3
:104310001802002010B50248FEF7F8FE10BD00009C
:104320009802002010B50268294B98420ED0B0F1D7
:10433000804F0BD0274B984208D0274B984205D08E
:10434000264B984202D0264B984203D122F07002AD
:104350004B681A431E4B984220D0B0F1804F1DD0BD
:104360001C4B98421AD01C4B984217D01B4B9842BA
:1043700014D01B4B984211D01A4B98420ED01A4BB6
:1043800098420BD0194B984208D0194B984205D04F
:10439000184B984202D0184B984203D122F4407235
:1043A000CB681A4322F080034C6943EA040202609E
:1043B0008B68C3620B688362054B984202D0084B3E
:1043C000984201D10B6903630123436110BD0000D2
:1043D000000001400004004000080040000C0040C4
:1043E00000040140004001400044014000480140F9
:1043F00000180040001C00400020004030B501F0D3
:104400001F05012404FA05F3046A9C430462046A4C
:1044100001F01F0502FA05F52C43046230BD30B5EA
:1044200001F01F05042404FA05F3046A9C430462A6
:10443000046A01F01F0502FA05F52C43046230BD41
:1044400030B50C46816821F47F4142EA03252543BB
:104450002943816030BD0A46816821F0700142F035
:10446000070319438160704730B5056A25F00105DF
:104470000562026A4368846924F0700424F003042E
:104480000D682C4322F002028D682A43104DA84289
:1044900000D103E00F4DA84206D100BF22F0080270
:1044A000CD682A4322F00402094DA84202D0094DEA
:1044B000A84207D123F4807323F400734D692B4382
:1044C0008D692B43436084614D684563026230BD52
:1044D000000001400004014030B5056A25F01005D8
:1044E0000562026A4368846924F4E04424F4407459
:1044F0000D6844EA052422F020028D6842EA051284
:10450000124DA84200D103E0114DA84207D100BFCF
:1045100022F08002CD6842EA051222F040020B4DE3
:10452000A84202D00A4DA84209D123F4806323F4A3
:1045300000634D6943EA85038D6943EA850343605F
:1045400084614D688563026230BD00000000014057
:104550000004014030B5056A25F480750562026AE1
:104560004368C46924F0700424F003040D682C43EC
:1045700022F400728D6842EA0522124DA84200D151
:1045800003E0114DA84207D100BF22F40062CD68BC
:1045900042EA052222F480620A4DA84202D00A4D66
:1045A000A84209D123F4805323F400534D6943EA10
:1045B00005138D6943EA05134360C4614D68C56303
:1045C000026230BD000001400004014030B5056AC0
:1045D00025F480550562036A4468C26922F4E0420A
:1045E00022F440720D6842EA052223F400538D68DC
:1045F00043EA0533084DA84202D0084DA84204D131
:1046000024F480444D6944EA85144460C2614D68D5
:104610000564036230BD0000000001400004014059
:104620002DE9F04105460C462868866826F070069C
:104630006068064326F007062068064328688660FF
:10464000606800F00F0100293BD10011082838D222
:10465000DFE800F0333435360B272D04D4E903139B
:10466000A2682868FFF7ECFE2CE02068052802D13C
:104670000120BDE8F0812868D0F820802868006A11
:1046800020F00100296808622868876927F0F00790
:10469000206947EA0017286887612868C0F82080E9
:1046A00010E02269A168286800F00FF80AE022698A
:1046B000A168286800F064F804E000BF00BF00BFF4
:1046C00000E000BF00BF0020D3E730B50B46144622
:1046D000026A056A25F001050562816921F0F00191
:1046E00041EA041122F00A021A438161026230BDDC
:1046F00070B50C461546066A26F001060662816909
:10470000026A184EB04214D0B0F1804F11D0164E4C
:10471000B0420ED0154EB0420BD0154EB04208D06C
:10472000144EB04205D0144EB04202D0134EB042E7
:1047300001D1012600E000261EB121F0030129432A
:1047400001E041F0010121F0F001F02606EA031634
:10475000314322F00A0204F00A0632438161026208
:1047600070BD00000000014000040040000800404F
:10477000000C0040000401400040014000180040CF
:1047800030B50B461446056A25F0100505628169AF
:10479000026A21F4704141EA043122F0A00242EAA7
:1047A00003128161026230BD70B50C461546066A7F
:1047B00026F0100606628169026A21F4407141EA1E
:1047C000052121F470414FF4704606EA0336314367
:1047D00022F0A002A02606EA04163243816102629A
:1047E00070BD70B50C461546066A26F480760662E2
:1047F000C169026A21F00301294321F0F001F0268A
:1048000006EA0316314322F420624FF4206606EADA
:1048100004263243C161026270BD70B50C46154674
:10482000066A26F480560662C169026A21F4407164
:1048300041EA052121F470414FF4704606EA03363F
:10484000314322F420424FF4204606EA0436324334
:10485000C161026270BD70B50546AC6B0020E08599
:10486000E0842046FEF7C8FE70BD0168C96821F4E7
:1048700090710268D1600168496921F00101026804
:104880005161202180F83A10704710B50446206825
:10489000C06820F040002168C860202084F83900FA
:1048A0002046FEF7DCFF002010BD70B5044694F8EA
:1048B0003A0022284AD1A068B0F5805F13D1A56ADA
:1048C000206940B920684068C0F308002880A06AC9
:1048D000801CA06219E020684068C0B22880A06AED
:1048E000401CA06211E0206938B920684068C1B25C
:1048F000A26A501CA062117007E02068406800F0B6
:104900007F01A26A501CA0621170E08D401E80B22F
:10491000E085C8B92068C06820F020002168C86020
:104920002068C06820F480702168C86020684069F1
:1049300020F0010021684861202084F83A002046D8
:10494000FEF78CFF002070BD0020FCE70220FAE794
:104950002DE9F84F04462068006920F44050E168D2
:104960000843216808612169A06808436169084318
:10497000E169084300902068C06849F20C618843EF
:10498000009908432168C8602068406920F440709D
:10499000A169084321684861E069B0F5004F75D10D
:1049A000E3492068884203D0E249206888426FD1F9
:1049B000FDF7B0F9814602206168A0FB01510B466A
:1049C0001920A9FB00712A463846FBF74DFC6421EB
:1049D000B0FBF1F04FEA001A02206168A0FB015120
:1049E0000B461920A9FB00712A463846FBF73CFC10
:1049F000074602206168A0FB01510B461920A9FB64
:104A000000B12A465846FBF72FFC6421B0FBF1F0B9
:104A100000EBC00101EB0010A7EB8000322101EB9D
:104A2000C0006421B0FBF1F000F0F8000AEB400A8E
:104A300002206168A0FB01510B461920A9FB0071FF
:104A40002A463846FBF710FC074602206168A0FBA7
:104A500001510B461920A9FB00B12A465846FBF725
:104A600003FC6421B0FBF1F000EBC00101EB00108E
:104A7000A7EB8000322101EBC0006421B0FBF1F014
:104A800000F007005044216888604FE16EE0FFE7C6
:104A9000FDF730F9814602206168A0FB01510B4609
:104AA0001920A9FB00712A463846FBF7DDFB64217B
:104AB000B0FBF1F04FEA001A02206168A0FB01513F
:104AC0000B461920A9FB00712A463846FBF7CCFBA0
:104AD000074602206168A0FB01510B461920A9FB83
:104AE00000B12A465846FBF7BFFB6421B0FBF1F04A
:104AF00000EBC00101EB0010A7EB8000322101EBBD
:104B0000C0006421B0FBF1F000F0F8000AEB400AAD
:104B100002206168A0FB01510B461920A9FB00711E
:104B20002A463846FBF7A0FB074602206168A0FB37
:104B3000015003461920A9FB00B12A465846FBF74D
:104B400093FB6421B0FBF1F000EBC00101EB00101E
:104B5000A7EB8000322101EBC0006421B0FBF1F033
:104B600000F00700504421688860DFE07049206849
:104B7000884203D06F49206888426BD1FDF7CAF89C
:104B8000814604206168A0FB01510B461920A9FB56
:104B900000712A463846FBF767FB824604206168AD
:104BA000A0FB01510B461920A9FB00712A4638468B
:104BB000FBF75AFB6421B0FBF1F000EBC00101EB05
:104BC0000010AAEB8000322101EB00106421B0FB41
:104BD000F1F000F0F00A04206168A0FB01500346E8
:104BE0001920A9FB00712A463846FBF73DFB6421DA
:104BF000B0FBF1F00AEB001A04206168A0FB015140
:104C00000B461920A9FB00712A463846FBF72CFBFE
:104C1000074604206168A0FB015003461920A9FB48
:104C200000B12A465846FBF71FFB6421B0FBF1F0A8
:104C300000EBC00101EB0010A7EB8000322101EB7B
:104C400000106421B0FBF1F000F00F005044216827
:104C500088606BE0FDF74EF8814604206168A0FB98
:104C6000015003461920A9FB00712A463846FBF77C
:104C7000FBFA824604206168A0FB0150034619201C
:104C8000A9FB00712A463846FBF7EEFA6421B0FB17
:104C9000F1F000EBC00101EB0010AAEB8000322123
:104CA00001EB00106421B0FBF1F000F0F00A0420E9
:104CB0006168A0FB015003461920A9FB00712A4638
:104CC0003846FBF7D1FA6421B0FBF1F00AEB001A89
:104CD00004206168A0FB017003461920A9FB005065
:104CE00001463A462846FBF7BFFA074604206168AA
:104CF000A0FB015003461920A9FB00B12A465846E3
:104D0000FBF7B2FA6421B0FBF1F000EBC00101EB5C
:104D10000010A7EB8000322101EB00106421B0FBF2
:104D2000F1F000F00F00504421688860BDE8F88F72
:104D30000010014000140140014691F8390021287B
:104D40002CD18868B0F5805F0FD10A6A1088C0F353
:104D500008000B685860086918B9086A801C086266
:104D600009E0086A401C086205E00B6A581C0862EA
:104D700018780B685860C88C401E80B2C88458B937
:104D80000868C06820F080000B68D8600868C068B8
:104D900040F040000B68D860002070470220FCE71C
:104DA00010B50248FEF72AFC10BD0000B803002031
:104DB00000BFFEE74100080218BF04200A0E18BF1A
:104DC00040F001004FF07F4232EA010108BF40F09D
:104DD0000200012808BF0520704700000248006853
:104DE000C0F30220704700000CED00E010B5002871
:104DF00004DB0A07130E054A135406E00A07140ED3
:104E0000034A00F00F031B1FD45410BD00E400E060
:104E100018ED00E010EE101A08B5444A6846B2EBEF
:104E2000410F28D94FF0E640B0EB410F94BF00206E
:104E30004FF0FF3000900098002861DB60EE000A20
:104E400010F0010F45D010F0020FDFED391A9FED81
:104E5000391A00EEE11ADFED381A40EE811A21EE20
:104E6000A01AF0EE400A40EE010A08BFF1EE600A17
:104E7000B0EE600A08BD314B21F0004293423CD9AC
:104E800011F0004FDFED2E0A20EE201ADFED2D0A83
:104E900019BF31EE601A71EE200A31EE201A71EE60
:104EA000600ABDEEE01A11EE100A9FED271A00F01D
:104EB000030000EEC10A9FED251A009000EEC10A22
:104EC0009FED231A00EEC10A9FED221A00EEC10ADF
:104ED000B1E79FED211A9FED210A10F0020F00EEBD
:104EE000810A9FED1F1A00EE801AB7EE000A00EE4D
:104EF000810A18BFB1EE400A08BD00F00FF99AE729
:104F000010EE100A4000B0F17F4F3CBFB7EE000A30
:104F100008BD07D14FF00100FBF78DFABDE808404E
:104F200000F0ECB8BDE8084000F0E4B8B61F927E8F
:104F3000336D4C39DA82083CA0AA2ABE490E494694
:104F400083F9223F0000004B0000C93F00A0FD395B
:104F50000020A2331A61342CB93AB2BACA9F2A3D52
:104F6000DDFFFFBE00B510EE101A2DED028B81B0F3
:104F7000524A6846B2EB410F2ED94FF0E640B0EBF3
:104F8000410F94BF00204FF0FF3000900098B0EE2A
:104F9000408A00286ADB10F0010F4BD068EE080A47
:104FA0009FED471A9FED470A00EE810A9FED461AD2
:104FB00010F0020F00EE801AB7EE000A00EE810A30
:104FC00002BF01B0BDEC028B00BD00BF01B0B1EE6D
:104FD000400ABDEC028B00BD3C4B21F000429342E5
:104FE00041D911F0004FDFED3A0A20EE201ADFED33
:104FF000390A19BF31EE601A71EE200A31EE201A1B
:1050000071EE600ABDEEE01A11EE100A9FED321A41
:1050100000F0030000EEC10A9FED301A009000EE90
:10502000C10A9FED2F1A00EEC10A9FED2E1A00EE65
:10503000C10AABE728EE080A9FED2B1ADFED2B0A19
:1050400010F0020F40EE410A9FED291A00EE201ADF
:1050500061EE000AB0EE480A08EE200AB6D101B0AF
:10506000BDEC028B00BD00F059F88FE718EE100A76
:105070004000B0F17F4F0DD218EE100AFFF79AFEF4
:10508000042808BF00F042F8B0EE480A01B0BDECB9
:10509000028B00BD09D10120FBF7CDF901B0BDECB9
:1050A000028B5DF804EB00F029B801B0B0EE480ABD
:1050B000BDEC028B5DF804EB00F01CB8B61F927ECD
:1050C000B93AB2BACA9F2A3DDDFFFFBE490E494632
:1050D00083F9223F0000004B0000C93F00A0FD39CA
:1050E0000020A2331A61342C336D4C39DA82083C2B
:1050F000A0AA2ABE30EE000A70470000DFED020AC7
:1051000080EEA00A70470000000000009FED020A38
:1051100020EE000A70470000000000102DE9F001A9
:105120004FF07F42B2EB410F9FBF4FF0FF31016064
:10513000BDE8F00170474FF0004242EA0123C1F39D
:10514000C752783A551112F01F0C434CCCF120068F
:105150007C44C1F3C752A2F178024FEA621204EB19
:10516000820254F8254008BFD2E9015612D0556892
:1051700004FA0CF425FA06F73C43976805FA0CF597
:1051800027FA06F8D26807FA0CFCF24045EA08054F
:105190004CEA0206A4FB034CA5FB0352A6FB0363E7
:1051A0001D449D4234BF012600261319334416B115
:1051B000934202D903E0934201D2012200E000228F
:1051C000624402F1200C9206DC0C42EA443200EE0A
:1051D000102A5B03DFED210AF8EEC01A00EE103A48
:1051E0004FEA9C1C11F0004FB8EE400AC0F800C016
:1051F00020EE201A00EE105ADFED190AB8EE400A30
:1052000020EE200A71EE810A70EE800A10EE902ADC
:1052100002F500626FF30B0200EE902A70EEE11AC5
:1052200031EEC11ADFED101A30EE411A9FED0D0A72
:1052300020EE800A01EE210A9FED0C1A00EE810A91
:1052400004BFBDE8F0017047CCF180510160BDE8BA
:10525000F001B1EE400A7047480D00000000003632
:105260000000802C22AAFD29DB0FC92F0000C92FC6
:1052700010B52DED028B0446B0EE408A84ED008A15
:10528000B5EEC08AF1EE10FA23DDD4ED000A94EDFC
:10529000010AB8EE400A20EE800ABCEEC00A10EE09
:1052A000100AA1680844E060D4ED010AF8EE600A33
:1052B000B0EE601AD4ED030AF8EE600AB0EE600AB0
:1052C000DFED070A00F04FFDBCEEC00A84ED030AD3
:1052D00001E00020E060E068BDEC028B10BD000042
:1052E0000000000010B52DED028B044600BF9FEDBD
:1052F000250A84ED210A00BF04F120009FED210A58
:1053000080ED000A9FED1F0A80ED010A9FED1D0A46
:1053100080ED020A9FED1B0A80ED030A9FED190A3A
:1053200080ED040A9FED170A80ED050A9FED150A2E
:1053300080ED060A9FED130A80ED070A9FED110A22
:1053400080ED080A00BF9FED0F0A84ED010A94ED7D
:10535000018ADFED0D0A68EE200AB0EE600AFFF761
:1053600001FE84ED020ADFED080A68EE200AB0EEC5
:10537000600AFFF74FFD84ED030A00BFBDEC028B0E
:1053800010BD000000000000DA0FC94010B52DED7F
:10539000028B00BF274890ED020AD0ED030A30EEE1
:1053A000200A80ED020A90ED020AD0ED010AB4EE67
:1053B000E00AF1EE10FA03DD90ED000A80ED020A3A
:1053C0001C4890ED020ADFED1C0A20EE208AB0EEA8
:1053D000480AFFF7C7FDF0EE408A184800F0AEFB20
:1053E000164890ED020ADFED160A20EE200A154855
:1053F00080ED000A90ED000AB1EE400AF7EE000AD7
:1054000030EE200AF0EE000A80EE201A0E4880ED01
:10541000001A0C4890ED000AF7EE000A30EE200A60
:10542000F0EE000A80EE201A074880ED011ABDEC6C
:10543000028B10BD28050020DA0FC9405804002057
:10544000CDCC4C3E2C0000201800002010B5DFED24
:10545000331A9FED331ADFED330AB7EE000A3248F4
:1054600000F030F9DFED2D1A9FED2D1ADFED2F0A38
:105470009FED2F0A2F4800F025F9DFED281A9FED48
:10548000281ADFED2D0AB7EE000A2C4800F01AF9B1
:105490009FED222ADFED2A1AB2EE021ADFED290A69
:1054A0009FED290A294800F045FADFED1C1A9FED0F
:1054B000241ADFED240A9FED260A264800F028F979
:1054C0009FED162AF1EE041A9FED1D1ADFED220A58
:1054D0009FED220A224800F093F99FED102AF1EE89
:1054E000041A9FED171ADFED1F0A9FED130A1E48DD
:1054F00000F086F9DFED0A1AB7EE001ADFED100AA8
:105500009FED060A194800F0FDF900BF1848006831
:105510000028FBD000BF00BF10BD000000409C462B
:10552000000000006F12033BF8030020CDCCCC3DFF
:10553000CDCC4C3F380400200AD7233C180400206F
:105540000000484200007A449A99193D580400200E
:1055500017B7D138E00400200000FA4377CC2B3293
:10556000000500200AD7A33DD4050020280500200F
:1055700030000020F0EE401AB0EE603AF0EE413A12
:1055800000BF9FED434A80ED004A9FED414A80ED08
:10559000014A9FED3F4A80ED024A9FED3D4A80ED72
:1055A000034A9FED3B4A80ED044A9FED394A80ED66
:1055B000054A9FED374A80ED064A9FED354A80ED5A
:1055C000074A9FED334A80ED084A00BFB7EE004A14
:1055D000C4EE234AF0EE642AB0EE004A23EE044AF9
:1055E000DFED2C4A24EE244AB0EE442AB0EE004A05
:1055F00021EE844A24EE024A24EE224AB0EE441AF6
:1056000022EE224A24EE024A24EE224AB0EE440A56
:1056100031EE004AF1EE004A34EE244AF7EE004A39
:1056200084EE845AF0EE450A21EE204A80ED094AC4
:1056300090ED094AB1EE444A80ED0A4AB1EE004AC3
:1056400034EE404AF0EE004A24EE244A24EE204A8A
:1056500080ED0B4A31EE404AF1EE004A34EE644AE6
:1056600024EE204A80ED0C4A21EE804A24EE204AA6
:1056700080ED0D4A90ED0D4AF0EE004A24EE244AEA
:1056800080ED0E4A90ED0D4A80ED0F4A7047000004
:1056900000000000DB0F49409FED081A80ED011A61
:1056A00000BFB0EE001A20EE811ADFED051A61EEA0
:1056B000211A81EE801A80ED001A70470000000068
:1056C000DA0F494080ED010A21EEA02AC0EE022A3D
:1056D000C0ED022A20EE212A22EE012A80ED032AC3
:1056E000BFEE002A80ED042AB7EE002A80ED052ADD
:1056F0009FED062A80ED002A9FED042A80ED072AFF
:105700009FED022A80ED062A70470000000000008D
:10571000B0EE402ADFED242A61EE222AB0EE620AC2
:1057200080ED052AF1EE002A61EEA22A62EEA12A9E
:1057300040EE002AB1EE003A21EE833A23EE203A01
:10574000C3EE223AC0ED063AF1EE002A61EEA22A3B
:1057500062EEA12A40EE402AB0EE003A22EE833AF1
:10576000F1EE002A61EEA22A62EEA12A40EE002AA2
:10577000C3EE223AC0ED073A00BFDFED0C2AC0EDC0
:10578000002ADFED0A2AC0ED042ADFED082AC0ED69
:10579000032ADFED062AC0ED022ADFED042AC0ED60
:1057A000012A00BF70470000DA0FC9400000000066
:1057B00030B51C464160C0ED040A80ED050A8260E8
:1057C000057A0123AB4001EE103AB8EEC11AF7EEAC
:1057D000001A81EE812A80ED032A9FED021A80EDE6
:1057E000001A30BD000000009FED040A80ED000AA1
:1057F0000023C36042608160704700000000000029
:10580000F0EE402AB0EE603A00BF9FED3B5A80EDCB
:10581000005A9FED395A80ED045A9FED375A80EDBA
:10582000035A9FED355A80ED025A9FED335A80EDB1
:10583000015A00BF9FED315A21EE055A25EE015A5B
:10584000B0EE450A9FED2E5A21EE855A25EE025AFA
:10585000F0EE450AB1EE005A21EE855A65EE025A85
:10586000B1EE005A22EE056AB0EE605A06EE025A18
:1058700035EE005A85EE856AF0EE463AB1EE005AF2
:1058800062EE055AB0EE405A15EE825AF0EE005A1A
:1058900065EE255AB1EE005A22EE056AB0EE605A66
:1058A00006EE025A35EE005A85EE856AB0EE464A9B
:1058B000B1EE005A62EE055AB0EE605A15EE825A09
:1058C00075EE005AB1EE005A22EE056AB0EE605A4B
:1058D00006EE025A35EE005A85EE856AF0EE464A2B
:1058E000C0ED093A80ED074AC0ED084AC0ED062A2E
:1058F00080ED053A7047000000000000E5E91D4218
:10590000DA0FC9419FED0A3A80ED023A80ED011AA3
:10591000C0ED001A80EE203AB0EE432A31EE613A33
:10592000F0EE432A82EE823A80ED033A704700009F
:105930000000000010B52DED068B0446F0EE409AF5
:10594000B0EE60AAB0EE419AF0EE618AB0EE428A03
:105950002046FFF7C7FCB0EE481AF0EE680AB6EE34
:10596000000A04F12000FFF705FEF0EE490AB0EE50
:10597000480A04F18000FFF78FFEF0EE481A9FED11
:10598000081AF0EE4A0AB0EE690A04F16000FFF767
:1059900099FE88EE880A84ED060ABDEC068B10BDE0
:1059A00000000000704780ED000AD0ED000A90ED85
:1059B000021A70EEC10A90ED091A60EE810A90EDAC
:1059C0000B1AD0ED041A41EE210A90ED0C1AD0ED1D
:1059D000051A41EE210AC0ED030AD0ED040AC0ED1C
:1059E000050AD0ED030AC0ED040AD0ED0D0A90EDD2
:1059F000001A60EE810A90ED0E1AD0ED011A41EE08
:105A0000210A90ED0F1AD0ED021A41EE210A90ED15
:105A10000B1AD0ED071A41EE210A90ED0C1AD0EDC9
:105A2000081A41EE210AC0ED060AD0ED070AC0EDC2
:105A3000080AD0ED060AC0ED070AD0ED010AC0ED54
:105A4000020AD0ED000AC0ED010A704710B52DED35
:105A5000028B0446B0EE408A94ED010A20EE080A5B
:105A600084ED000AD4ED061A94ED002AD4ED022A42
:105A700042EE221AB0EE610AD4ED051AB0EE611AB8
:105A8000D4ED041AF0EE610A00F06DF984ED060A17
:105A900094ED060AD4ED070A78EE600A94ED031A35
:105AA00000EE810AD4ED000A30EE200A84ED000AEF
:105AB000D4ED051AB0EE611AD4ED041AF0EE610AC5
:105AC000D4ED001AB0EE610A00F04DF984ED000A41
:105AD00084ED078A94ED000ABDEC028B10BD000036
