:020000040800F2
:10000000880C002029020008296100082D560008EC
:1000100025610008050800085D7200080000000066
:10002000000000000000000000000000B5620008B1
:10003000C109000800000000996100080D63000874
:10004000430200084302000843020008430200087C
:10005000430200084302000843020008430200086C
:10006000430200084302000843020008430200085C
:10007000430200084302000843020008430200084C
:100080004302000843020008690600084302000812
:10009000430200084302000843020008C5090008A3
:1000A0004302000809640008F963000843020008DD
:1000B00043020008196400084302000843020008D4
:1000C00043020008430200084302000843020008FC
:1000D00043020008430200084D7200084302000872
:1000E000430200089D610008430200084302000823
:1000F00043020008430200084302000843020008CC
:1001000043020008430200084302000843020008BB
:1001100043020008430200084302000843020008AB
:1001200009080008430200084302000843020008CF
:10013000430200084302000843020008430200088B
:10014000430200084302000843020008430200087B
:10015000430200084302000819080008430200088F
:10016000430200084302000843020008430200085B
:100170004302000843020008430200080000000098
:10018000430200084302000800F002F800F03CF8C7
:100190000AA090E8000C82448344AAF10107DA45E2
:1001A00001D100F031F8AFF2090EBAE80F0013F0F8
:1001B000010F18BFFB1A43F00103184734880000F1
:1001C00054880000103A24BF78C878C1FAD8520782
:1001D00024BF30C830C144BF04680C6070470000C1
:1001E0000023002400250026103A28BF78C1FBD840
:1001F000520728BF30C148BF0B6070471FB508F0D9
:100200009FFB1FBD10B510BD00F04EF91146FFF762
:10021000F5FF08F053F800F06CF903B4FFF7F2FFB4
:1002200003BC00F02BF9000009488047094800474B
:10023000FEE7FEE7FEE7FEE7FEE7FEE7FEE7FEE796
:10024000FEE7FEE704480549054A064B70470000F3
:10025000D96300088901000888060020880C002066
:10026000880800208808002053EA020C00F069800A
:100270002DE9F04B4FF00006002B1FBFB3FA83F5BA
:1002800003FA05F424FA05F65E4012BF1643B2FAEB
:1002900082F502FA05F4C5F120051EBF22FA05FC1D
:1002A00044EA0C04203556EA044C4FEA144418BFC3
:1002B000641C4FF000084FF00009904271EB030CF2
:1002C00039D3002919BFB1FA81F701FA07F6B0FA5C
:1002D00080F700FA07F6C7F120071EBF20FA07FCD7
:1002E00046EA0C062037B6FBF4FCA7EB0507103FE7
:1002F00007F01F0BCBF120062CFA06F60CFA0BFBCD
:1003000044BFB3460026202FA4BF5E464FF0000B2B
:100310005BEA060C08BF4FF0010B19EB0B0948EB29
:100320000608ABFB027C06FB02CC0BFB03CCC01B1C
:1003300071EB0C01C1E70B46024641464846BDE859
:10034000F08B13B5084318BF4FF0FF300146AFF3F1
:100350000080BDE81C4070470EB5054614460E46A9
:1003600013A000F079F8284600F076F816A000F007
:1003700073F8304600F070F815A000F06DF8002119
:100380008DF80B100A210DF10A008DF80A1008E013
:1003900094FBF1F201FB124294FBF1F4303200F8CD
:1003A000012D002CF4DC00F057F800F04AF80000B2
:1003B0002A2A2A20617373657274696F6E206661E0
:1003C000696C65643A2000002C2066696C65200029
:1003D0002C206C696E6520004FF0000200B51346BA
:1003E00094469646203922BFA0E80C50A0E80C5055
:1003F000B1F12001BFF4F7AF090728BFA0E80C5006
:1004000048BF0CC05DF804EB890028BF40F8042BFE
:1004100008BF704748BF20F8022B11F0804F18BF6B
:1004200000F8012B704770477047704710B500F017
:100430002FF8006810BD10B5044600F029F80460DC
:1004400010BD10B5002000F027F8FFF7DBFEBDE877
:100450001040012000F012B810B5044602E0641C00
:1004600000F004F820780028F9D110BD08B56946DD
:100470008DF800000320ABBE08BD00000149182024
:10048000ABBEFEE7260002000048704710000020C7
:10049000004870471000002010B500F039F8BDE8A2
:1004A000104000F02FB870477546FFF7EDFFAE46DD
:1004B00005006946534620F00700854618B020B570
:1004C000FFF7C0FEBDE820404FF000064FF00007E8
:1004D0004FF000084FF0000BAC46ACE8C009ACE8A8
:1004E000C009ACE8C009ACE8C00921F007018D469D
:1004F000704710B50446AFF300802046BDE81040B9
:10050000FFF78BBE002801D0FFF7B8BF704700008F
:1005100010B5002102A000F013F8012010BD00006A
:10052000534947414252543A2041626E6F726D61A5
:100530006C207465726D696E6174696F6E00000085
:1005400070B505460C460A2000E06D1CFFF78EFFD3
:1005500035B128780028F8D102E0641CFFF786FF47
:1005600014B120780028F8D1BDE870400A20FFF7C8
:100570007DBF000080B582B001900198806B009033
:100580000098006C10F0500F3AD1FFE70099086C0A
:1005900040F40070086400980068806810F0405FC4
:1005A0002AD1FFE70098007E30BBFFE70098006883
:1005B000C06A10F4700F07D0FFE7009800688068E9
:1005C0004005002818D4FFE700980168486820F02B
:1005D000200048600099086C20F48070086400983E
:1005E000006CC004002806D4FFE70099086C40F0B6
:1005F00001000864FFE7FFE7009800F0FBFA10E055
:100600000098006CC006002804D5FFE7009800F0B1
:10061000F9FA05E00098806BC16C01988847FFE704
:10062000FFE702B080BD000080B582B00190019864
:10063000806B00900099402008640099486C40F05D
:1006400004004864009800F0DDFA02B080BD0000AC
:1006500080B582B001900198806B0090009800F006
:10066000CDFA02B080BD000080B540F2B800C2F201
:10067000000000F0CBFA80BD82B0019042F2003061
:10068000C4F2010000900099486820F440304860AE
:1006900001984268009948681043486001980168D1
:1006A000486820F4807048600198016802694868D1
:1006B00040EA0220486001980168486820F04070D4
:1006C0004860019801688268486810434860019852
:1006D0000168886820F40060886001980168C26839
:1006E0008868104388600198806A0121C0F6007113
:1006F000884219D0FFE701980168886820F070608F
:10070000886001980168826A88681043886001984F
:100710000168886820F04050886001980168C26ACA
:100720008868104388600CE001980168886820F0B0
:100730007060886001980168886820F04050886087
:10074000FFE701980168886820F00200886001983E
:10075000027E0168886840EA42008860019890F84B
:100760002000C8B1FFE701980168486840F40060C4
:10077000486001980168486820F46040486001982A
:100780000168426A4EF20000CFF6FF7000EB423281
:1007900048681043486006E001980168486820F402
:1007A00000604860FFE701980168C86A20F47000A3
:1007B000C86201980168C2690020CFF6F07000EBB2
:1007C0000252C86A1043C86201980168886820F420
:1007D00000708860019890F830200168886840EACD
:1007E0004220886001980168886820F480608860F1
:1007F000019801684269886840EA8220886002B0F6
:1008000070470000FFE7FEE780B540F21410C2F227
:10081000000000F0F5FE80BD80B540F27410C2F219
:10082000000000F0EDFE80BD82B0019001980078DC
:1008300010384AF6AB21CAF6AA21A0FB0110000924
:100840000090009948F69410C0F60000405C0199B1
:10085000C8650098042807D3FFE7019908680422B7
:1008600062F30900886506E00199086840F2FF32EA
:1008700090438865FFE70198806D02B070470000E3
:1008800086B0059000208DF813000598806A0390CB
:100890000598806910BBFFE70398029003281BD8D6
:1008A0000299DFE801F0020D0218059890F82F0078
:1008B000C00720B1FFE701208DF81300FFE70CE02F
:1008C0000598C06AB0F1C07F04D1FFE701208DF820
:1008D0001300FFE701E000E0FFE745E005988069CD
:1008E000B0F5005F25D1FFE70398019003281ED8DB
:1008F0000199DFE801F00206021101208DF81300D2
:1009000016E0059890F82F00C00720B1FFE70120FE
:100910008DF81300FFE70BE00598C06AB0F1C07FC7
:1009200004D1FFE701208DF81300FFE700E0FFE7A7
:1009300019E003980090032804D3FFE700980328E8
:1009400004D00EE001208DF813000BE0059890F81C
:100950002F00C00720B1FFE701208DF81300FFE74B
:1009600000E0FFE7FFE7FFE79DF8130006B07047E0
:1009700084B0039002910192009303980168086883
:1009800020F4802008600098039909684860039863
:100990008068402809D1FFE70198039909688860B9
:1009A000029803990968C86008E0029803990968E9
:1009B0008860019803990968C860FFE704B0704730
:1009C0007047000080B5802001F0CAF880BD0000AB
:1009D0007047000081B0009001B0704785B003906F
:1009E000029100200190FFE7039890F83C00012855
:1009F00004D1FFE702208DF81300F7E003990120EE
:100A000081F83C00FFE7FFE7029800680A281CD342
:100A1000FFE70298008800EB4000A0F11E010720CC
:100A200000FA01F203980168C8689043C86002990F
:100A30008868098801EB41011E3900FA01F2039828
:100A40000168C8681043C86018E00298008800EB8D
:100A50004001072000FA01F20398016808699043F9
:100A6000086102998868098801EB410100FA01F2E6
:100A700003980168086910430861FFE7029840681D
:100A800006281BD8FFE70298406800EB8000411F52
:100A90001F2000FA01F203980168486B90434863F5
:100AA00002990888496801EB8101053900FA01F2D1
:100AB00003980168486B104348633DE00298406822
:100AC0000C281CD8FFE70298406800EB8000A0F1DA
:100AD00023011F2000FA01F203980168086B90437C
:100AE000086302990888496801EB8101233900FAFB
:100AF00001F203980168086B104308631BE0029839
:100B0000406800EB8000A0F141011F2000FA01F2D3
:100B100003980168C86A9043C862029908884968C6
:100B200001EB8101413900FA01F203980168C86ABA
:100B30001043C862FFE7FFE742F20030C4F2010051
:100B400000900398006842F20001C4F2010188425B
:100B50000BD1FFE702980068122806D1FFE7009941
:100B6000486840F480004860FFE70398006842F25C
:100B70000001C4F2010188422ED1FFE7029800680B
:100B8000102805D0FFE702980068112824D1FFE75C
:100B90000099486840F400004860029800681028F6
:100BA00019D1FFE740F20000C2F2000000684DF6E4
:100BB0008361C4F21B31A0FB0110800C00EB8000AC
:100BC00040000190FFE7019820B1FFE7019801384C
:100BD0000190F8E7FFE7FFE7FFE70399002081F8BE
:100BE0003C00FFE700208DF81300FFE79DF813009D
:100BF00005B0704781B0009001B0704781B000909F
:100C000001B0704781B0009001B0704780B586B0E8
:100C100005900020049003900598006800680290F9
:100C20000598006840680190029800F00200049066
:100C3000019800F020000390049800284AD0FFE7B4
:100C40000398002846D0FFE70598006CC0060028EE
:100C500006D4FFE70599086C40F400700864FFE7CC
:100C600005980068806810F0405F2AD1FFE705987A
:100C7000007E30BBFFE705980068C06A10F4700F73
:100C800007D0FFE70598006880684005002818D461
:100C9000FFE705980168486820F020004860059942
:100CA000086C20F4807008640598006CC00400286B
:100CB00006D4FFE70599086C40F001000864FFE7DF
:100CC000FFE70598FFF796FF059801686FF012009F
:100CD0000860FFE7029800F004000490019800F01B
:100CE000800003900498002858D0FFE7039800285C
:100CF00054D0FFE70598006CC006002806D4FFE733
:100D00000599086C40F400500864FFE705980068F6
:100D1000806810F4401F38D1FFE705980068806BA9
:100D200010F4401F07D0FFE7059800688068400571
:100D300000282AD4FFE7059800684068400500288D
:100D400023D4FFE705980068806810F0405F1CD14D
:100D5000FFE70598007EC0B9FFE70598016848687D
:100D600020F0800048600599086C20F480500864E9
:100D70000598006CC005002806D4FFE70599086CAB
:100D800040F001000864FFE7FFE70598FFF722FE47
:100D9000059801686FF00C000860FFE7029800F00A
:100DA00001000490019800F0400003900498C0B145
:100DB000FFE70398A8B1FFE7059800680068C0073F
:100DC00070B1FFE70599086C40F48030086405981D
:100DD00000F07EF8059801686FF001000860FFE7F9
:100DE000FFE7029800F020000490019800F0806076
:100DF00003900498B0B1FFE7039898B1FFE7059915
:100E0000486C40F002004864059801686FF02000CB
:100E1000009008600598FFF7F5FE009805990968AD
:100E20000860FFE706B080BD80B584B00290002066
:100E30008DF80700029820B9FFE701208DF80F0018
:100E400042E00298806A0121C0F60071884201D018
:100E5000FFE7FFE70298006C50B9FFE7029800F047
:100E60003BF8029900204864029981F83C00FFE7B2
:100E70000298006CC006002817D4FFE70298006CA7
:100E800040F0020020F48850029908640298FFF7AD
:100E9000F3FB0299002048640298006C40F00100C6
:100EA00020F002000299086403E001208DF8070099
:100EB000FFE7FFE70299002081F83C00FFE79DF87B
:100EC00007008DF80F00FFE79DF80F0004B080BD0C
:100ED00081B0009001B0704780B58CB00B900020BD
:100EE0000A9009900890079006900B98006842F2CB
:100EF0000001C4F20101884269D1FFE7FFE7002049
:100F0000059043F64400C4F20200016841F4807188
:100F10000160006800F4807005900598FFE7FFE726
:100F20000020049043F63000C4F20200016841F052
:100F300004010160006800F0040004900498FFE7D9
:100F40003F2006900320079000200290089040F672
:100F50000000C4F2020006A900F01EFE029940F251
:100F60001410C2F20000039046F21042C4F20202D2
:100F7000026041608160C1604FF4806202614FF4A1
:100F8000805242614FF4804282614FF48072C261AC
:100F90004FF400320262416200F0C2FC18B1FFE778
:100FA000FFF716FDFFE7FFE70B9840F21411C2F2BE
:100FB000000181630B988863FFE7122001900022F3
:100FC000114601F023FA019801F016FAFFE70CB080
:100FD00080BD000080B588B0069005910492002085
:100FE00003908DF80700FFE7069890F83C00012871
:100FF00004D1FFE702208DF81F000EE106990120C1
:1010000081F83C00FFE7FFE7069800688068C007AA
:10101000F0B9FFE706980168886840F00100886031
:1010200040F20000C2F2000000684DF68361C4F295
:101030001B31A0FB0110800C00EB40000390FFE788
:10104000039820B1FFE7039801380390F8E7FFE722
:10105000069800688068C005002807D5FFE7069855
:101060000168886820F480708860FFE7069800684F
:101070008068C007002800F0C080FFE70698006C79
:1010800040F4807040F20161884306990864069834
:10109000006840684005002809D5FFE70698006C05
:1010A00040F4805020F4005006990864FFE7069849
:1010B000006CC004002806D5FFE70699486C20F0B4
:1010C0000600486403E0069900204864FFE7FFE754
:1010D0000699002081F83C00FFE742F20030C4F29C
:1010E000010002900698816B40F27550C0F6000036
:1010F000C8630698816B40F25160C0F60000086436
:101100000698816B40F22960C0F60000C86406981A
:1011100001686FF02200086006980168486840F096
:101120008060486006980168886840F48070886034
:1011300006980168806B4C31059A049B00F0A8FC6E
:101140008DF8070002984068C006E8BBFFE70698E4
:10115000006842F20001C4F20101884224D0FFE796
:101160000698006842F20011C4F20101884208D1D9
:10117000FFE742F20430C4F201000068C00698B1F3
:10118000FFE70698006842F20021C4F2010188429C
:1011900019D1FFE742F20430C4F20100006800F008
:1011A0001F000F280FD8FFE706980068806810F02E
:1011B000405F07D1FFE706980168886840F08040EB
:1011C0008860FFE7FFE717E00698006842F2000139
:1011D000C4F2010188420ED1FFE7069800688068DA
:1011E00010F0405F07D1FFE706980168886840F07B
:1011F00080408860FFE7FFE70AE00699086C40F04E
:10120000100008640699486C40F001004864FFE74C
:101210009DF807008DF81F00FFE79DF81F0008B03C
:1012200080BD000087B005900491039200208DF8E6
:101230000B00059818B1FFE7049820B9FFE70120DB
:101240008DF81B0049E0FFE705984079012804D19B
:10125000FFE702208DF81B003FE00599012048714F
:10126000FFE7FFE70599022008710598006800680C
:101270000190039800F0100140F6FE7000FA01F1B1
:1012800001988843019004990868496808430090D0
:101290000098039901F0100100FA01F10198084348
:1012A00001900198059909680860039800F0100101
:1012B000C02000FA01F205980168086890430860B0
:1012C000059901200871FFE7059900204871FFE7A3
:1012D0009DF80B008DF81B00FFE79DF81B0007B081
:1012E0007047000080B582B00090009820B9FFE7F9
:1012F00001208DF8070016E00098007938B9FFE763
:10130000009900204871009800F012F8FFE700995A
:1013100002200871009900200861009A01211171D2
:101320008DF80700FFE79DF8070002B080BD0000C0
:1013300080B588B007900020069005900490039037
:1013400002900798006847F20041C4F20001884209
:101350002FD1FFE7FFE70020019043F64000C4F2E1
:101360000200016841F000510160006800F0005087
:1013700001900198FFE7FFE70020009043F630005E
:10138000C4F20200016841F001010160006800F050
:10139000010000900098FFE73020029003200390A6
:1013A000002004900020C4F2020002A900F0F4FB27
:1013B000FFE708B080BD000086B004900391029260
:1013C000019300200090049820B9FFE701208DF8D8
:1013D000170018E0049800680090039830B9FFE700
:1013E0000298009908440830009005E0029800999E
:1013F000084414300090FFE701980099086000202D
:101400008DF81700FFE79DF8170006B07047000041
:1014100083B001900091019820B9FFE701208DF879
:101420000B0050E0FFE701984079012804D1FFE765
:1014300002208DF80B0046E0019901204871FFE77A
:10144000FFE7019902200871009800F010010120C7
:1014500000FA01F2019801680868104308600098DA
:1014600080B9FFE701980068006800F03C003C2864
:1014700007D1FFE701980168486840F00100486023
:10148000FFE714E001980068006800F4701000990C
:1014900001F010023C219140884207D1FFE70198FA
:1014A0000168486840F002004860FFE7FFE70199E3
:1014B00001200871FFE7019900204871FFE7002033
:1014C0008DF80B00FFE79DF80B0003B0704700009C
:1014D00080B584B002900298806D019000F064FDA8
:1014E0000090029890F8350002280DD0FFE702998D
:1014F00080204865FFE70299002081F83400FFE76B
:1015000001208DF80F0055E002980168086820F06E
:101510001600086002980168486920F08000486160
:101520000298006C20B9FFE70298806C38B1FFE7A1
:1015300002980168086820F008000860FFE7029838
:101540000168086820F001000860FFE70298006861
:101550000068C007C8B1FFE700F026FD0099401AF7
:10156000062811D3FFE7029920204865029903203D
:1015700081F83500FFE70299002081F83400FFE789
:1015800003208DF80F0015E0E0E70298C16D3F20C1
:101590008840019988600299012081F83500FFE7B1
:1015A0000299002081F83400FFE7FFE700208DF862
:1015B0000F00FFE79DF80F0004B080BD82B00090DF
:1015C000009890F83500022807D0FFE700998020A6
:1015D000486501208DF807000EE00099052081F88C
:1015E000350000980168086820F001000860FFE7F6
:1015F00000208DF80700FFE79DF8070002B0704754
:1016000080B586B005900020039040F20000C2F241
:101610000000006848F2B511C1F64E31A0FB011080
:10162000800A02900598806D0190019800680490EE
:1016300004980599C96DC840000700281AD5FFE72E
:101640000598006800684007002812D5FFE7059854
:101650000168086820F0040008600598C16D082042
:101660008840019988600599486D40F001004865FF
:10167000FFE7FFE704980599C96DC840C007A0B10E
:10168000FFE7059800684069000600280CD5FFE7D1
:101690000598C16D01208840019988600599486DC1
:1016A00040F002004865FFE7FFE704980599C96D1F
:1016B000C8404007002814D5FFE705980068006877
:1016C000800700280CD5FFE70598C16D04208840ED
:1016D000019988600599486D40F004004865FFE76E
:1016E000FFE704980599C96DC840C006002847D592
:1016F000FFE7059800680068000700283FD5FFE76E
:101700000598C16D1020884001998860059800688F
:101710000068400300281AD5FFE7059800680068B4
:101720000003002809D4FFE70598006C20B1FFE70B
:101730000598016C8847FFE708E00598806C20B1A8
:10174000FFE70598816C8847FFE7FFE716E00598FB
:1017500000680068C005002807D4FFE70598016805
:10176000086820F008000860FFE70598006C20B1C9
:10177000FFE70598016C8847FFE7FFE7FFE7FFE712
:1017800004980599C96DC8408006002840F18D80F5
:10179000FFE7059800680068C006002840F18480D3
:1017A000FFE70598C16D2020884001998860059861
:1017B00090F83500052834D1FFE7059801680868DE
:1017C00020F01600086005980168486920F0800044
:1017D00048610598006C20B9FFE70598806C38B126
:1017E000FFE705980168086820F008000860FFE737
:1017F0000598C16D3F2088400199886005990120B6
:1018000081F83500FFE70599002081F83400FFE7F3
:101810000598006D20B1FFE70598016D8847FFE747
:101820007BE0059800680068400300281AD5FFE7B0
:101830000598006800680003002809D4FFE70598B0
:10184000406C20B1FFE70598416C8847FFE708E04E
:101850000598C06B20B1FFE70598C16B8847FFE78B
:10186000FFE720E0059800680068C005002811D453
:10187000FFE705980168086820F0100008600599E6
:10188000012081F83500FFE70599002081F8340038
:10189000FFE7FFE70598C06B20B1FFE70598C16B34
:1018A0008847FFE7FFE7FFE7FFE70598406DA0B334
:1018B000FFE70598406DC00730B3FFE705990520A5
:1018C00081F8350005980168086820F0010008607B
:1018D000FFE70398013003900299884201D9FFE79E
:1018E00007E0FFE7059800680068C0070028F0D10E
:1018F000FFE70599012081F83500FFE705990020F1
:1019000081F83400FFE7FFE70598C06C20B1FFE7DE
:101910000598C16C8847FFE7FFE706B080BD00006F
:1019200080B586B004900020039000F03DFB02904B
:10193000049820B9FFE701208DF81700A3E0049870
:10194000406A08B1FFE7FFE70499022081F83500FB
:10195000FFE70499002081F83400FFE7049801684C
:10196000086820F001000860FFE70498006800683C
:10197000C00790B1FFE700F017FB0299401A062854
:101980000AD3FFE70499202048650499032081F8D1
:1019900035008DF8170076E0E7E7049800680068E6
:1019A0000390039848F23F01CFF2100108400390E2
:1019B000049900914868D1F808C0CB680A6940EAE8
:1019C0000C00184310434A6910438A691043CA69DE
:1019D0001043096A01430398084303900498406A3E
:1019E000042808D1FFE70499C86A096B01430398EA
:1019F00008430390FFE70398049909680860049876
:101A0000006840690390039820F007000390049851
:101A1000416A0398084303900498406A04281AD145
:101A2000FFE70498816A0398084303900498C06A0A
:101A300080B1FFE70498FEF723FF50B1FFE7049958
:101A4000402048650499012081F835008DF8170081
:101A500019E0FFE7FFE703980499096848610498D3
:101A6000FEF7E2FE01900498C16D3F208840019985
:101A70008860049900204865049A012182F8351095
:101A80008DF81700FFE79DF8170006B080BD000035
:101A900080B588B0069005910492039300208DF8DC
:101AA0000B000698806D0190FFE7069890F83400CF
:101AB000012804D1FFE702208DF81F0045E00699B8
:101AC000012081F83400FFE7FFE7069890F8350021
:101AD00001282BD1FFE70699022081F835000699ED
:101AE0000020486506980599049A039BFEF740FF7D
:101AF0000698C16D3F20884001998860069801686A
:101B0000086840F0160008600698006C38B1FFE7DE
:101B100006980168086840F008000860FFE706982A
:101B20000168086840F00100086009E0FFE70699D5
:101B3000002081F83400FFE702208DF80B00FFE75A
:101B40009DF80B008DF81F00FFE79DF81F0008B0FF
:101B500080BD000081B0ADF8020001B07047000008
:101B600080B582B0ADF8060043F61440C4F201001F
:101B70000068BDF8061008420CD0FFE7BDF806006B
:101B800043F61441C4F201010860BDF80600FFF7F6
:101B9000E1FFFFE702B080BD8EB00D900C910020F8
:101BA0000A90099008900B90FFE70B980F2800F21D
:101BB000CC81FFE70B99012088400A900C980068BF
:101BC0000A990840099009980A99884240F0B8811A
:101BD000FFE70C98406800F00300012807D0FFE7FA
:101BE0000C98406800F0030002282FD1FFE70D9801
:101BF000806808900B984100032000FA01F10898D2
:101C0000884308900C98C0680B99490000FA01F1CC
:101C100008980843089008980D9988600D984068C6
:101C200008900B99012000FA01F108988843089068
:101C30000C984068C0F300100B9900FA01F1089865
:101C40000843089008980D994860FFE70C98406891
:101C500000F00300032818D0FFE70D98C068089033
:101C60000B984100032000FA01F10898884308907E
:101C70000C9880680B99490000FA01F10898084314
:101C8000089008980D99C860FFE70C98406800F02C
:101C90000300022826D1FFE70D980B996FF003028D
:101CA00002EA51010844006A08900B9800F007000E
:101CB00081000F2000FA01F10898884308900C98E1
:101CC00000690B9901F00701890000FA01F10898F9
:101CD0000843089008980D990B9B02EA530211449F
:101CE0000862FFE70D98006808900B9841000320F8
:101CF00000FA01F10898884308900C98406800F0B9
:101D000003000B99490000FA01F108980843089074
:101D100008980D9908600C9880798007002800F0D9
:101D20000E81FFE7FFE70020079043F64400C4F26E
:101D30000200016841F480410160006800F48040C5
:101D400007900798FFE70B9820F0030043F608017F
:101D5000C4F20101405808900B9800F00300810084
:101D60000F2000FA01F10898884308900D9800218F
:101D7000C4F20201884203D1FFE7002006905EE032
:101D80000D9840F20041C4F20201884203D1FFE7FE
:101D90000120059050E00D9840F60001C4F20201C8
:101DA000884203D1FFE70220049042E00D9840F6FC
:101DB0000041C4F20201884203D1FFE703200390EF
:101DC00034E00D9841F20001C4F20201884203D1CF
:101DD000FFE70420029026E00D9841F20041C4F292
:101DE0000201884203D1FFE70520019018E00D9819
:101DF00041F60001C4F20201884203D1FFE7062048
:101E000000900AE00D9941F60042C4F20202082057
:101E1000914208BF07200090FFE700980190FFE77C
:101E200001980290FFE702980390FFE7039804905F
:101E3000FFE704980590FFE705980690FFE70698EE
:101E4000C0B20B9901F00301890000FA01F1089872
:101E50000843089008980B9921F0030143F6080203
:101E6000C4F20102885043F60840C4F20100006841
:101E7000089009990898884308900C988079C006C2
:101E8000002805D5FFE70999089808430890FFE75F
:101E9000089843F60841C4F20101086043F60C407B
:101EA000C4F20100006808900999089888430890D6
:101EB0000C9880798006002805D5FFE709990898D5
:101EC00008430890FFE7089843F60C41C4F201016B
:101ED000086043F60440C4F20100006808900999C4
:101EE0000898884308900C9880798007002805D5C9
:101EF000FFE70999089808430890FFE7089843F618
:101F00000441C4F20101086043F60040C4F201003C
:101F10000068089009990898884308900C9880797F
:101F2000C00728B1FFE70999089808430890FFE720
:101F3000089843F60041C4F201010860FFE7FFE79B
:101F4000FFE70B9801300B902FE60EB070470000B2
:101F500083B00290ADF80610029840690090009A94
:101F6000BDF8060002EA0001904340EA01400299F0
:101F7000886103B07047000082B00190ADF8021094
:101F80008DF801209DF8010028B1FFE7BDF802009F
:101F90000199886105E0BDF802000004019988619B
:101FA000FFE702B07047000040F26060C2F200003C
:101FB0000068704780B58EB00C900C9820B9FFE790
:101FC00001208DF8370043E10C9890F83D0040B9AE
:101FD000FFE70C99002081F83C000C9800F03CF9D8
:101FE000FFE70C99242081F83D000C9801680868EF
:101FF00020F0010008600C980168086840F4004077
:1020000008600C980168086820F40040086000F03F
:1020100071FC0A900C98406848F2A061C0F201017E
:1020200088420BD8FFE70A9948F28042C0F21E02AC
:102030000020914238BF012009900AE00A9940F639
:102040000012C0F23D020020914238BF01200990E9
:10205000FFE70998012804D1FFE701208DF8370038
:10206000F6E00A984DF68361C4F21B31A0FB011023
:10207000800C0B900C980068406820F03F000B9992
:1020800008430C99096848600C980068006A20F0C1
:102090003F0008900C98406848F2A061C0F201012E
:1020A000884204D8FFE70B98013007900EE00B98A8
:1020B0004FF49671484344F6D351C1F26201A0FB3C
:1020C0000101012000EB91100790FFE708980799A4
:1020D00008430C99096808620C980068C0694CF6BE
:1020E000FF71884306900C98406848F2A061C0F2E6
:1020F000010188421FD8FFE70A9801380C99496806
:102100004900B0FBF1F001306FF31F30032803D812
:10211000FFE7042005900BE00A9801380C99496804
:102120004900B0FBF1F001306FF31F300590FFE77D
:10213000059804904CE00C98806868B9FFE70A980D
:1021400001380C99496801EB4101B0FBF1F0013015
:102150006FF31F3003900DE00A9801380C9949681D
:1021600019225143B0FBF1F00130042161F31F301B
:102170000390FFE70398000518B9FFE701200290DC
:1021800023E00C98806868B9FFE70A9801380C9939
:10219000496801EB4101B0FBF1F001306FF31F30F2
:1021A00001900DE00A9801380C99496819225143B1
:1021B000B0FBF1F00130042161F31F300190FFE723
:1021C000019840F400400290FFE702980490FFE776
:1021D0000698049908430C990968C8610C9800682E
:1021E000006820F0C0000C9B1968DA691B6A1A436A
:1021F000104308600C980068806848F2FF318843FB
:102200000C9A1168D36812691A43104388600C98BD
:102210000068C06820F0FF000C9B19685A699B6930
:102220001A431043C8600C980168086840F0010028
:1022300008600C99002008640C9A202182F83D1057
:102240000C9908630C9981F83E008DF83700FFE780
:102250009DF837000EB080BD80B588B00790002093
:10226000069005900490039002900798006845F648
:102270000001C4F20001884234D1FFE7FFE70020EB
:10228000019043F63000C4F20200016841F00201FF
:102290000160006800F0020001900198FFE74FF430
:1022A00040600290122003900120049005900420C9
:1022B000069040F20040C4F2020002A9FFF76CFC55
:1022C000FFE70020009043F64000C4F202000168DE
:1022D00041F480010160006800F4800000900098E3
:1022E000FFE7FFE708B080BD40F20400C2F2000043
:1022F000027840F26061C2F2000108681044086090
:102300007047000080B543F60041C4F2020108683E
:1023100040F400700860086840F480600860086855
:1023200040F480700860032000F08AF8042000F078
:1023300005F800F03BF8002080BD000080B582B0B9
:10234000009040F20000C2F20000006840F2040178
:10235000C2F200010A784FF47A71B1FBF2F1B0FBDE
:10236000F1F001F0B3FB20B1FFE701208DF8070089
:1023700018E000980F280DD8FFE700994FF0FF30C4
:10238000002200F043F8009840F20801C2F2000178
:10239000086003E001208DF8070003E000208DF8BD
:1023A0000700FFE79DF8070002B080BD82B0FFE79D
:1023B0000020019043F64400C4F20200016841F499
:1023C00080410160006800F4804001900198FFE7BF
:1023D000FFE70020009043F64000C4F202000168CD
:1023E00041F080510160006800F08050009000983A
:1023F000FFE702B07047000080B582B08DF807009B
:102400009DF9070004F02CFF02B080BD80B586B0B6
:102410008DF81700049103920020029004F038FF19
:1024200002909DF91700019002980499039A03F015
:102430007DFE0146019804F033FF06B080BD000028
:1024400080B582B00190019804F04CFF02B080BDCD
:1024500080B586B004900020039002900498007824
:10246000C00730B9FFE704980078400700284ED530
:10247000FFE76821C4F2472100200860FFF794FDC0
:102480000390FFE743F60000C4F20200006800F08A
:1024900000610020B0EBD16F0CD0FFE7FFF784FDA7
:1024A0000399401A032804D3FFE703208DF817008F
:1024B000E4E0E7E7049948688968800140EA017030
:1024C00043F68401C4F2020108606821C4F2472186
:1024D00001200860FFF768FD0390FFE743F6000066
:1024E000C4F20200006800F000610020B0EBD16F80
:1024F0000CD1FFE7FFF758FD0399401A032804D3D6
:10250000FFE703208DF81700B8E0E7E7FFE704983E
:1025100000788007002840F1AD80FFE7FFE700204A
:10252000019043F64000C4F20200016841F080517E
:102530000160006800F0805001900198FFE747F2C9
:102540000001C4F20001086840F480700860FFF7E1
:102550002BFD0390FFE747F20000C4F20000006883
:10256000C00500280CD4FFE7FFF71EFD0399401AB1
:10257000032804D3FFE703208DF817007EE0EAE785
:1025800043F67000C4F20200006800F4407002904C
:10259000029800283ED0FFE702980499C96801F428
:1025A0004071884236D0FFE743F67000C4F2020063
:1025B000016821F44071029140F64062C4F2472262
:1025C0000121116000211160029901600068C007BB
:1025D000F8B1FFE7FFF7E8FC0390FFE743F6700070
:1025E000C4F20200006800F002010020B0EB510FBD
:1025F0000ED1FFE7FFF7D8FC0399401A41F2893169
:10260000884204D3FFE703208DF8170036E0E5E7A2
:10261000FFE7FFE7FFE70498C06800F44070B0F5FB
:10262000407F11D1FFE743F60801C4F202010868B8
:1026300020F4F810049AD2684FF6FF43C0F6FF73F7
:102640001A401043086008E043F60801C4F2020192
:10265000086820F4F8100860FFE70498C2686FF378
:102660001F3243F67001C4F202010868104308608B
:10267000FFE7FFE700208DF81700FFE79DF8170040
:1026800006B080BD80B584B002900191029820B957
:10269000FFE701208DF80F0021E1019843F600418A
:1026A000C4F20201096801F00701884212D9FFE76C
:1026B000019943F60040C4F202000170006800F086
:1026C00007000199884204D0FFE701208DF80F0030
:1026D00005E1FFE702980078800700282AD5FFE788
:1026E000029800784007002809D5FFE743F6080163
:1026F000C4F20201086840F4E0500860FFE7029865
:1027000000780007002809D5FFE743F60801C4F266
:102710000201086840F460400860FFE743F60801E2
:10272000C4F20201086820F0F000029A9268104397
:102730000860FFE702980078C00700286ED0FFE726
:1027400002984068012811D1FFE743F60000C4F267
:102750000200006800F400310020B0EB514F04D1BA
:10276000FFE701208DF80F00B9E02CE002984068E7
:10277000022805D0FFE702984068032811D1FFE73F
:1027800043F60000C4F20200006800F0007100206F
:10279000B0EB516F04D1FFE701208DF80F009EE0F0
:1027A00010E043F60000C4F20200006800F00201ED
:1027B0000020B0EB510F04D1FFE701208DF80F008E
:1027C0008DE0FFE7FFE743F60801C4F20201086865
:1027D00020F00300029A526810430860FFF7E4FB00
:1027E0000090FFE743F60800C4F20200006800F022
:1027F0000C0002994968B0EB810F0ED0FFE7FFF79C
:10280000D3FB0099401A41F28931884204D3FFE793
:1028100003208DF80F0062E0E4E7FFE7019843F63C
:102820000041C4F20201096801F00701884212D296
:10283000FFE7019943F60040C4F20200017000680E
:1028400000F007000199884204D0FFE701208DF8CD
:102850000F0044E0FFE702980078400700280CD5FD
:10286000FFE743F60801C4F20201086820F4E050D3
:10287000029AD26810430860FFE7029800780007C8
:1028800000280DD5FFE743F60801C4F202010868ED
:1028900020F46040029A126940EAC2000860FFE733
:1028A00000F04CF843F60801C4F202010968C9B20D
:1028B0000A0948F67C11C0F60001895CC84040F264
:1028C0000001C2F20001086040F20800C2F20000FC
:1028D0000068FFF733FD00208DF80F00FFE79DF83B
:1028E0000F0004B080BD000040F20000C2F2000002
:1028F0000068704780B5FFF7F7FF43F60801C4F2A0
:1029000002010968C1F3822248F68C11C0F6000169
:10291000895CC84080BD000080B5FFF7E5FF43F645
:102920000801C4F20201096889B24A0B48F68C1109
:10293000C0F60001895CC84080BD000080B586B04B
:102940000020059004900390029043F60800C4F222
:102950000200006800F00C000146019140B1FFE761
:10296000019804280AD0FFE7019808280CD04FE00E
:1029700042F20040C0F2F40002904FE041F2002029
:10298000C0F27A00029049E043F60400C4F202006B
:10299000016801F03F01059100684002002813D54D
:1029A000FFE743F60400C4F202000068C0F3881099
:1029B00041F20021C0F27A01A0FB0101059A002337
:1029C000FDF752FC049012E043F60400C4F202004A
:1029D0000068C0F3881042F20041C0F2F401A0FB8D
:1029E0000101059A0023FDF73FFC0490FFE743F641
:1029F0000400C4F20200006800F44031022000EB41
:102A0000D130039004980399B0FBF1F0029005E0F7
:102A100042F20040C0F2F4000290FFE7029806B0D4
:102A200080BD000080B586B00490049820B9FFE70F
:102A300001208DF8170050E304980078C0070028A3
:102A400000F0A580FFE743F60800C4F2020000682A
:102A500000F00C00042813D0FFE743F60800C4F28E
:102A60000200006800F00C0008281ED1FFE743F6C2
:102A70000400C4F2020000684002002815D5FFE7F8
:102A800043F60000C4F20200006800F400310020A8
:102A9000B0EB514F08D0FFE70498406820B9FFE73A
:102AA00001208DF8170018E370E0FFE704984068F4
:102AB000B0F5803F09D1FFE743F60001C4F20201FF
:102AC000086840F48030086020E004984068B0F561
:102AD000A02F0DD1FFE743F60001C4F20201086800
:102AE00040F480200860086840F4803008600CE002
:102AF00043F60001C4F20201086820F48030086047
:102B0000086820F480200860FFE7FFE7FFE70498EB
:102B10004068E8B1FFE7FFF747FA0390FFE743F6A5
:102B20000000C4F20200006800F400310020B0EBA5
:102B3000514F0CD1FFE7FFF737FA0399401A652888
:102B400004D3FFE703208DF81700C6E2E7E71CE097
:102B5000FFF72AFA0390FFE743F60000C4F20200F1
:102B6000006800F400310020B0EB514F0CD0FFE7BB
:102B7000FFF71AFA0399401A652804D3FFE70320E8
:102B80008DF81700A9E2E7E7FFE7FFE7FFE7049802
:102B900000788007002840F19680FFE743F60800A0
:102BA000C4F20200006810F00C0F13D0FFE743F6E8
:102BB0000800C4F20200006800F00C0008282CD1C4
:102BC000FFE743F60400C4F2020000684002002858
:102BD00023D4FFE743F60000C4F20200006800F0CF
:102BE00002010020B0EB510F09D0FFE70498C06844
:102BF000012804D0FFE701208DF817006DE243F6AD
:102C00000001C4F20201086820F0F800049A126979
:102C100040EAC2000860FFE754E00498C06870B35F
:102C2000FFE70021C4F2472101200860FFF7BCF94B
:102C30000390FFE743F60000C4F20200006800F0D2
:102C400002010020B0EB510F0CD1FFE7FFF7ACF908
:102C50000399401A032804D3FFE703208DF81700D7
:102C60003BE2E7E743F60001C4F20201086820F006
:102C7000F800049A126940EAC200086021E00021CD
:102C8000C4F2472100200860FFF78EF90390FFE7A8
:102C900043F60000C4F20200006800F002010020C8
:102CA000B0EB510F0CD0FFE7FFF77EF90399401A04
:102CB000032804D3FFE703208DF817000DE2E7E7B0
:102CC000FFE7FFE7FFE704980078000700284BD5EF
:102CD000FFE70498406918B3FFE740F68061C4F24B
:102CE000472101200860FFF75FF90390FFE743F6F3
:102CF0007400C4F20200006800F002010020B0EB92
:102D0000510F0CD1FFE7FFF74FF90399401A032841
:102D100004D3FFE703208DF81700DEE1E7E722E0A8
:102D200040F68061C4F2472100200860FFF73CF9BB
:102D30000390FFE743F67400C4F20200006800F05D
:102D400002010020B0EB510F0CD0FFE7FFF72CF988
:102D50000399401A032804D3FFE703208DF81700D6
:102D6000BBE1E7E7FFE7FFE70498007840070028AA
:102D700040F1CE80FFE700208DF8070043F64000C9
:102D8000C4F202000068C000002815D4FFE7FFE786
:102D90000020009043F64000C4F20200016841F0B8
:102DA00080510160006800F0805000900098FFE7BB
:102DB00001208DF80700FFE747F20000C4F2000091
:102DC0000068C005002822D4FFE747F20001C4F2E2
:102DD0000001086840F480700860FFF7E5F8039090
:102DE000FFE747F20000C4F200000068C0050028B9
:102DF0000CD4FFE7FFF7D8F80399401A032804D34F
:102E0000FFE703208DF8170067E1EAE7FFE7FFE738
:102E100004988068012809D1FFE743F67001C4F2E5
:102E20000201086840F0010008601FE00498806813
:102E300005280DD1FFE743F67001C4F202010868CE
:102E400040F004000860086840F0010008600CE0F1
:102E500043F67001C4F20201086820F00100086026
:102E6000086820F004000860FFE7FFE7FFE7049828
:102E70008068F8B1FFE7FFF797F80390FFE743F6A4
:102E80007000C4F20200006800F002010020B0EB04
:102E9000510F0ED1FFE7FFF787F80399401A41F26F
:102EA0008931884204D3FFE703208DF8170014E12D
:102EB000E5E71EE0FFF778F80390FFE743F67000C0
:102EC000C4F20200006800F002010020B0EB510FD4
:102ED0000ED0FFE7FFF768F80399401A41F28931F5
:102EE000884204D3FFE703208DF81700F5E0E5E7FB
:102EF000FFE79DF80700012809D1FFE743F64001ED
:102F0000C4F20201086820F080500860FFE7FFE784
:102F100004988069002800F0DC80FFE743F6080091
:102F2000C4F20200006800F00C00082800F0858060
:102F3000FFE70498806902285CD1FFE76021C4F2B2
:102F4000472100200860FFF72FF80390FFE743F6C2
:102F50000000C4F20200006800F000710020B0EB35
:102F6000516F0CD0FFE7FFF71FF80399401A0328B1
:102F700004D3FFE703208DF81700AEE0E7E70499DC
:102F8000C869D1F820C04B6A8A6A40EA0C0040EA5E
:102F90008310D2034FF6FF739A43A2F58032104399
:102FA000C96A40EA016043F60401C4F20201086004
:102FB0006021C4F2472101200860FEF7F5FF03906D
:102FC000FFE743F60000C4F20200006800F0007161
:102FD0000020B0EB516F0CD1FFE7FEF7E5FF03993E
:102FE000401A032804D3FFE703208DF8170074E08C
:102FF000E7E721E06021C4F2472100200860FEF7E6
:10300000D3FF0390FFE743F60000C4F2020000681C
:1030100000F000710020B0EB516F0CD0FFE7FEF71D
:10302000C3FF0399401A032804D3FFE703208DF858
:10303000170052E0E7E7FFE74AE0049880690128BB
:1030400004D1FFE701208DF8170046E043F60400A5
:10305000C4F202000068029004988069012831D00F
:10306000FFE7029800F480000499C969884229D1D9
:10307000FFE7029800F03F000499096A884221D1D5
:10308000FFE7029847F6C07108400499496AB0EB1F
:10309000811F17D1FFE7029800F440300499896A34
:1030A000C9034FF6FF729143A1F58031884209D1DF
:1030B000FFE7029800F070600499C96AB0EB016FF5
:1030C00004D0FFE701208DF8170006E0FFE7FFE7D7
:1030D000FFE700208DF81700FFE79DF8170006B006
:1030E00080BD000081B0009001B0704781B00090B9
:1030F00001B0704780B582B0019043F61441C4F22C
:1031000001014FF40030086001980068806800F405
:1031100080510020B0EB113F19D0FFE70198006803
:10312000C06800F480710020B0EB112F0ED0FFE7D3
:1031300001980068C06860F4C07020F48070019944
:103140000968C8600198FFF7D1FFFFE7FFE7019822
:103150000068806800F400510020B0EB513F19D0A6
:10316000FFE701980068C06800F400710020B0EB30
:10317000512F0ED0FFE701980068C06860F42070FE
:1031800020F4007001990968C8600198FFF7AAFF50
:10319000FFE7FFE701990120487702B080BD0000FA
:1031A00080B584B00290029820B9FFE701208DF825
:1031B0000F0077E00298407F38B9FFE702990020BE
:1031C0000877029800F072F8FFE70299022048772A
:1031D00002980068C06800F010010020B0EB111FD9
:1031E0004FD1FFE7FFE702980168CA2048620298C2
:1031F000016853204862FFE7029802F0F5FF8DF85E
:1032000007009DF8070020BBFFE702980168886867
:103210004FF6BF72CFF68F7210408860029A116825
:1032200050681369526918430243886810438860E4
:1032300002980168C068086102980168826808699C
:1032400040EA02400861029803F010F88DF8070088
:10325000FFE79DF8070068B9FFE702980168086C6E
:1032600020F480200864029801688269086C104389
:103270000864FFE7FFE702980168FF204862FFE764
:1032800003E000208DF80700FFE79DF8070020B954
:10329000FFE7029901204877FFE79DF807008DF8C6
:1032A0000F00FFE79DF80F0004B080BD80B586B029
:1032B000059000200490039002900190059800680A
:1032C00042F60001C4F2000188421DD1FFE702204E
:1032D00001904FF48070049001A8FFF7B9F818B17D
:1032E000FFE7FDF775FBFFE740F63C61C4F24721BD
:1032F000012008602920009003210022FFF786F8B2
:103300000098FFF779F8FFE706B080BD80B58AB076
:1033100008900791069240F20000C2F20000006897
:10332000400944F6D351C1F26201A0FB01108009AB
:103330004FF47A7148430590002004900390FFE712
:103340000898007F012804D1FFE702208DF82700AC
:1033500045E1089901200877FFE7FFE70899022077
:1033600048770698E0BBFFE7089800688068400649
:10337000002801D5FFE703E007990020C870FFE7A8
:103380000798C06908B9FFE700E0FFE707980078F1
:1033900002F00CFF000400900798407802F006FF4E
:1033A0000146009840EA012001900798807802F0D9
:1033B000FDFE0146019801440798C27890F820006C
:1033C00041EA8251029102F0F1FE0146029840EA80
:1033D0000160079A5169D26910430843049027E0BD
:1033E0000898006880684006002801D5FFE703E0E0
:1033F00007990020C870FFE70798C06908B9FFE780
:1034000000E0FFE70799087891F801C08B78CA7847
:10341000000440EA0C20184440EA825091F8202031
:1034200040EA0260CA691043496908430490FFE713
:1034300007994868896908430390FFE7089801687D
:10344000CA2048620898016853204862FFE707983D
:10345000406AB0F5807F46D1FFE708980168886828
:1034600020F48070886008980068C06860F4C070BC
:1034700020F4807008990968C860FFE70598013852
:103480000590059890B9FFE7FFE708980168FF20CD
:103490004862FFE7089903204877FFE70899002072
:1034A0000877FFE703208DF8270098E0FFE70898EA
:1034B0000068C068C0070028E0D0FFE704980899BA
:1034C0000968C86103980899096848640898016800
:1034D000886840F48070886008980168886840F4C3
:1034E0008050886059E008980168886820F400706E
:1034F000886008980068C06860F4207020F400704C
:1035000008990968C86040F20000C2F20000006833
:10351000400944F6D351C1F26201A0FB01108009B9
:103520004FF47A7148430590FFE7059801380590FC
:10353000059890B9FFE7FFE708980168FF20486207
:10354000FFE7089903204877FFE7089900200877EC
:10355000FFE703208DF8270041E0FFE708980068A7
:10356000C06800F002010020B0EB510FDDD0FFE792
:10357000049808990968086203980899096888649A
:1035800008980168886840F40070886008980168AD
:10359000886840F400508860FFE743F60041C4F2B9
:1035A0000101086840F40030086043F60841C4F2A5
:1035B0000101086840F400300860FFE708980168DE
:1035C000FF204862FFE7089901204877FFE7089944
:1035D00000200877FFE700208DF82700FFE79DF81F
:1035E00027000AB080BD000080B588B00690059124
:1035F000049200200390FFE70698007F012804D181
:10360000FFE702208DF81F007DE006990120087772
:10361000FFE7FFE7069902204877049868B9FFE7BB
:1036200005984078C006002807D5FFE70599487837
:1036300000F0EF000A304870FFE70498E0B9FFE7B8
:103640000598C07802F0B2FD00040090059840781B
:1036500002F0ACFD0146009840EA01200190059877
:10366000807802F0A3FD0146019808440599097885
:1036700040EA413003900CE0059801784378827865
:10368000C078000440EA0320104440EA413003902F
:10369000FFE7FFE706980168CA20486206980168BC
:1036A00053204862FFE7069802F09EFD8DF80B005C
:1036B0009DF80B0078B9FFE703984FF63F71C0F211
:1036C000FF010840069909684860069802F0CEFD9F
:1036D0008DF80B00FFE79DF80B0020B9FFE7069976
:1036E00001204877FFE7FFE706980168FF2048625E
:1036F000FFE7FFE7069900200877FFE79DF80B003A
:103700008DF81F00FFE79DF81F0008B080BD000086
:1037100080B588B006900591049200200390FFE7E1
:103720000698007F012804D1FFE702208DF81F00D2
:1037300095E0069901200877FFE7FFE70699022048
:103740004877049840BBFFE7069800688068400609
:10375000002801D5FFE703E005990020C870FFE7C6
:103760000598007802F022FD00040090059840784A
:1037700002F01CFD0146009840EA012001900598E6
:10378000807802F013FD0146019808440599C97834
:1037900040EA8150039018E006980068806840066F
:1037A000002801D5FFE703E005990020C870FFE776
:1037B000059908784B788A78C978000440EA032094
:1037C000104440EA81500390FFE7FFE70698016844
:1037D000CA2048620698016853204862FFE70698AD
:1037E00002F002FD8DF80B009DF80B00F8B9FFE721
:1037F000039847F67F71C0F27F0108400699096877
:10380000086006980168886820F48020886005991F
:10381000C868096940EA010206980168886810438F
:103820008860069802F022FD8DF80B00FFE79DF8F6
:103830000B0020B9FFE7069901204877FFE7FFE773
:1038400006980168FF204862FFE7FFE7069900201D
:103850000877FFE79DF80B008DF81F00FFE79DF844
:103860001F0008B080BD000080B584B00290002029
:1038700001900298016847F65F70C0F20100C860CD
:10388000FEF792FB0190FFE702980068C06880068F
:1038900000280DD4FFE7FEF787FB0199401AB0F529
:1038A0007A7F04D9FFE703208DF80F0004E0EBE7EF
:1038B00000208DF80F00FFE79DF80F0004B080BDD9
:1038C00080B584B00290029820B9FFE701208DF8FE
:1038D0000F0071E00298406A60B9FFE70298406803
:1038E000B0F5827F01D1FFE703E002990020C861B3
:1038F000FFE705E002990020086102994861FFE7AF
:10390000029900208862029890F8510040B9FFE7C0
:103910000299002081F85000029800F051F8FFE76A
:103920000299022081F8510002980168086820F08D
:1039300040000860029A019211685068D2F808C0ED
:10394000D36800F482700CF4044C604403F4006308
:103950001844136903F002031844536903F0010388
:103960001844936903F400731844D36903F03803CF
:103970001844136A03F080031843926A02F4005259
:1039800010430860029A508B00F004001168526ADC
:1039900002F010021044486002980168C86920F4DF
:1039A0000060C861029900204865029A012182F8EE
:1039B00051108DF80F00FFE79DF80F0004B080BD97
:1039C00080B58AB009900020089007900690059075
:1039D00004900998006843F20001C4F20101884292
:1039E00033D1FFE7FFE70020039043F64400C4F221
:1039F0000200016841F480510160006800F48050C9
:103A000003900398FFE7FFE70020029043F63000A1
:103A1000C4F20200016841F002010160006800F098
:103A2000020002900298FFE73820049002200590DF
:103A30000021069107900520089040F20040C4F252
:103A4000020004A9FEF7A8F83EE00998006843F6D2
:103A50000001C4F20001884235D1FFE7FFE70020F2
:103A6000019043F64000C4F20200016841F4804135
:103A70000160006800F4804001900198FFE7FFE7D3
:103A80000020009043F63000C4F20200016841F0CB
:103A900002010160006800F0020000900098FFE75A
:103AA0004FF4204004900220059000200690012051
:103AB00007900520089040F20040C4F2020004A9DB
:103AC000FEF76AF8FFE7FFE70AB080BD80B582B075
:103AD0000190019802F0F0FB02B080BD81B000902F
:103AE00001B0704781B0009001B0704784B002907F
:103AF000019100200090FFE7029890F83C00012817
:103B000004D1FFE702208DF80F0044E00299012064
:103B100081F83C00FFE7FFE7009820F0FF000199E3
:103B2000C96808430090009820F4407001998968A2
:103B300008430090009820F4806001994968084388
:103B40000090009820F400600199096808430090F3
:103B5000009820F48050019909690843009000986A
:103B600020F400500199496908430090009820F41E
:103B700080400199C969084300900098029909683A
:103B80004864FFE70299002081F83C00FFE700202D
:103B90008DF80F00FFE79DF80F0004B0704700009C
:103BA00085B003900291FFE7039890F83C0001284C
:103BB00004D1FFE702208DF813007EE00399012075
:103BC00081F83C00FFE7FFE70399022081F83D0000
:103BD000039800684068019003980068806800902E
:103BE000019820F070000190029801680198084344
:103BF00001900198039909684860039800680021C2
:103C0000C4F2010188423CD0FFE703980068B0F19C
:103C1000804F36D0FFE70398006840F20041C4F2BD
:103C2000000188422DD0FFE70398006840F60001AC
:103C3000C4F20001884224D0FFE70398006840F6F0
:103C40000041C4F2000188421BD0FFE703980068DE
:103C500040F20041C4F20101884212D0FFE703980C
:103C6000006844F20001C4F20101884209D0FFE774
:103C70000398006841F60001C4F2000188420ED1A9
:103C8000FFE7009820F080000090029841680098BB
:103C9000084300900098039909688860FFE703993A
:103CA000012081F83D00FFE70399002081F83C00E6
:103CB000FFE700208DF81300FFE79DF8130005B023
:103CC0007047000080B58AB008900791079828B91E
:103CD000FFE7089890F8420005901CE00798042838
:103CE00005D1FFE7089890F84300049010E007988A
:103CF000082805D1FFE7089890F84400039004E0F5
:103D0000089890F845000390FFE703980490FFE7B8
:103D100004980590FFE70598012804D0FFE70120EB
:103D20008DF8270093E0079828B9FFE7089902204B
:103D300081F842001EE00798042806D1FFE70899A1
:103D4000022081F84300029012E00798082806D16B
:103D5000FFE70899022081F84400019005E00899E6
:103D6000022081F845000190FFE701980290FFE7EB
:103D70000298FFE7089800680799042202F042FCC5
:103D800008980168486C40F400404864089800684E
:103D90000021C4F2010188423CD0FFE70898006886
:103DA000B0F1804F36D0FFE70898006840F200413C
:103DB000C4F2000188422DD0FFE70898006840F661
:103DC0000001C4F20001884224D0FFE7089800688F
:103DD00040F60041C4F2000188421BD0FFE708987A
:103DE000006840F20041C4F20101884212D0FFE7AE
:103DF0000898006844F20001C4F20101884209D029
:103E0000FFE70898006841F60001C4F2000188420B
:103E100012D1FFE708980068806800F0070006905C
:103E20000698062807D0FFE708980168086840F060
:103E300001000860FFE706E008980168086840F0A4
:103E400001000860FFE700208DF82700FFE79DF8DC
:103E500027000AB080BD000080B584B003900291B5
:103E6000039800680299002202F0CCFBFFE7039858
:103E70000068006A41F21111084210D1FFE703986F
:103E80000068006A40F24441084207D1FFE7039806
:103E90000168486C20F400404864FFE7FFE7FFE753
:103EA000FFE703980068006A41F21111084210D13F
:103EB000FFE703980068006A40F24441084207D1D6
:103EC000FFE703980168086820F001000860FFE739
:103ED000FFE7FFE7029828B9FFE70399012081F87F
:103EE00042001EE00298042806D1FFE70399012052
:103EF00081F84300019012E00298082806D1FFE7FC
:103F00000399012081F84400009005E00399012005
:103F100081F845000090FFE700980190FFE70198C5
:103F2000FFE7002004B080BD80B582B0009000980B
:103F300020B9FFE701208DF807003FE0009890F8D6
:103F40003D0040B9FFE70099002081F83C0000984F
:103F500000F038F8FFE70099022081F83D00009951
:103F600051F8040B02F060FA0099012081F8460034
:103F7000FFE70099012081F83E00009981F83F0099
:103F8000009981F84000009981F84100FFE7FFE7C0
:103F90000099012081F84200009981F843000099BE
:103FA00081F84400009981F84500FFE7009901205D
:103FB00081F83D0000208DF80700FFE79DF807001D
:103FC00002B080BD80B592B01190002010900F908B
:103FD0000E900D900C90119800680021C4F2010120
:103FE000884225D1FFE7FFE700200B9043F644000D
:103FF000C4F20200016841F001010160006800F0B4
:1040000001000B900B98FFE7192003900022049207
:104010001146FEF7FBF90398FEF7EEF9049A1A2011
:1040200005901146FEF7F2F90598FEF7E5F9DCE098
:1040300011980068B0F1804F31D1FFE7FFE7002011
:104040000A9043F64000C4F20200016841F0010109
:104050000160006800F001000A900A98FFE7FFE79E
:104060000020099043F63000C4F20200016841F0DC
:1040700001010160006800F0010009900998FFE764
:1040800001200C9002210D910E9000210F911090B3
:104090000020C4F202000CA9FDF77EFDA4E01198F7
:1040A000006840F20041C4F2000188421BD1FFE7E2
:1040B000FFE70020089043F64000C4F202000168C8
:1040C00041F002010160006800F0020008900898C9
:1040D000FFE71D20029001210022FEF797F90298C8
:1040E000FEF78AF97FE01198006840F20041C4F2BF
:1040F0000101884276D1FFE7FFE70020079043F6F1
:104100004400C4F20200016841F00201016000684D
:1041100000F0020007900798FFE7FFE700200690F5
:1041200043F63000C4F20200016841F0040101606E
:10413000006800F0040006900698FFE74FF4007056
:104140000C9002200D90002000900E9003200F9004
:10415000109040F60000C4F202000CA9FDF71CFD0F
:10416000009940F27410C2F20000019046F2B84289
:10417000C4F2020202604FF0606242608160C1607E
:104180004FF480620261416181614FF48072C261CB
:104190004FF4003202624162FDF7C2FB18B1FFE743
:1041A000FCF716FCFFE7FFE7119840F27411C2F22A
:1041B0000001016311988863FFE7FFE7119840F25F
:1041C0007411C2F20001816311988863FFE7FFE771
:1041D000119840F27411C2F2000141631198886392
:1041E000FFE7FFE7FFE7FFE7FFE712B080BD000052
:1041F00083B00190019890F83D00012804D0FFE7BA
:1042000001208DF80B006AE00199022081F83D0041
:1042100001980168C86840F00100C8600198006812
:104220000021C4F2010188423CD0FFE701980068F8
:10423000B0F1804F36D0FFE70198006840F20041AE
:10424000C4F2000188422DD0FFE70198006840F6D3
:104250000001C4F20001884224D0FFE70198006801
:1042600040F60041C4F2000188421BD0FFE70198EC
:10427000006840F20041C4F20101884212D0FFE719
:104280000198006844F20001C4F20101884209D09B
:10429000FFE70198006841F60001C4F2000188427E
:1042A00012D1FFE701980068806800F007000090D5
:1042B0000098062807D0FFE701980168086840F0D9
:1042C00001000860FFE706E001980168086840F017
:1042D00001000860FFE700208DF80B00FFE79DF864
:1042E0000B0003B07047000080B586B004900391C6
:1042F00000208DF80B00FFE7049890F83C0001289F
:1043000004D1FFE702208DF81700ABE004990120EB
:1043100081F83C00FFE7FFE70499022081F83D00A7
:104320000498006880680190019820F0770001905F
:10433000019820F47F4001900198049909688860F1
:10434000039800680090002872D0FFE700981028BA
:104350006ED0FFE7009820286AD0FFE70098302849
:1043600066D0FFE70098402855D0FFE70098502816
:1043700037D0FFE70098602840D0FFE7009870280A
:104380000BD0FFE70098B0F5805F05D0FFE70098FD
:10439000B0F5005F16D052E055E004980068039B2A
:1043A0005A689968DB6802F049F9049800688068E7
:1043B0000190019840F077000190019804990968F4
:1043C000886040E004980068039B5A689968DB683D
:1043D00002F034F904980168886840F480408860ED
:1043E00031E004980068039A5168D26802F0A6FB95
:1043F00004980068502102F03BF924E0049800681A
:10440000039A5168D26802F04DFC0498006860215C
:1044100002F02EF917E004980068039A5168D268F8
:1044200002F08CFB04980068402102F021F90AE0B8
:10443000049800680399096802F01AF903E0012062
:104440008DF80B00FFE70499012081F83D00FFE79C
:104450000499002081F83C00FFE79DF80B008DF8DF
:104460001700FFE79DF8170006B080BD80B586B045
:1044700004900391049820B9FFE701208DF81700FC
:1044800088E0049890F83D0040B9FFE704990020C7
:1044900081F83C00049800F081F8FFE704990220BD
:1044A00081F83D0004980168886844F2070290434F
:1044B0008860049951F8040B01F0B6FF0498006875
:1044C00080680290049800688069019004980068F0
:1044D000006A0090039801680298084302900198CE
:1044E00040F203318843019003998868896940EA62
:1044F0000121019808430190019840F60C4188433E
:10450000019001984FF2F001884301900399C86827
:10451000C96940EA0121019808430190039908699B
:10452000096A000140EA01310198084301900098AE
:1045300020F022000090009820F08800009003995D
:104540004868496940EA01110098084300900298C0
:10455000049909688860019804990968886100983D
:104560000499096808620499012081F846000499B9
:1045700081F83E00049981F83F00049981F84200D7
:10458000049981F84300049981F83D0000208DF8DA
:104590001700FFE79DF8170006B080BD80B588B012
:1045A00007900020069005900490039002900798D1
:1045B000006840F60001C4F20001884234D1FFE7F0
:1045C000FFE70020019043F64000C4F202000168BA
:1045D00041F004010160006800F0040001900198BE
:1045E000FFE7FFE70020009043F63000C4F202002E
:1045F000016841F008010160006800F008000090C7
:104600000098FFE74FF440500290022003900121F0
:10461000049100210591069040F60040C4F202008A
:1046200002A9FDF7B9FAFFE708B080BD81B000909C
:1046300001B0704780B586B00490039102920020CB
:104640008DF80700FFE7049890F83C00012804D19A
:10465000FFE702208DF8170080E00499012081F81F
:104660003C00FFE7FFE70298B0B9FFE70498006855
:10467000039B19685A68DB6802F088FA049801689D
:10468000886920F00C0088610398826804980168AA
:1046900088691043886156E00298042817D1FFE723
:1046A00004980068039B19685A68DB6802F024FBD1
:1046B00004980168886920F44060886103988268E2
:1046C00004980168886940EA022088613AE002980B
:1046D000082816D1FFE704980068039B19685A68F8
:1046E000DB6802F03FFB04980168C86920F00C0009
:1046F000C8610398826804980168C8691043C8615A
:104700001FE002980C2817D1FFE704980068039B6C
:1047100019685A68DB6802F05BFB04980168C86995
:1047200020F44060C8610398826804980168C869F1
:1047300040EA0220C86103E001208DF80700FFE78E
:10474000FFE7FFE7FFE7FFE70499002081F83C005F
:10475000FFE79DF807008DF81700FFE79DF81700A9
:1047600006B080BD80B582B00090009820B9FFE708
:1047700001208DF807003FE0009890F83D0040B917
:10478000FFE70099002081F83C00009800F038F81D
:10479000FFE70099022081F83D00009951F8040BD1
:1047A00001F042FE0099012081F84600FFE70099E0
:1047B000012081F83E00009981F83F00009981F8BE
:1047C0004000009981F84100FFE7FFE700990120D0
:1047D00081F84200009981F84300009981F8440073
:1047E000009981F84500FFE70099012081F83D001C
:1047F00000208DF80700FFE79DF8070002B080BD9C
:1048000081B0009001B0704780B584B003900398E8
:104810000068C068029003980068006901909DF8E4
:1048200004008007002824D5FFE79DF808008007D2
:1048300000281DD5FFE7039801686FF002000861AA
:10484000039901200877039800688069800720B1E8
:10485000FFE70398FFF7EAFE06E0039800F03EF951
:10486000039800F033FAFFE7039900200877FFE789
:10487000FFE79DF804004007002825D5FFE79DF8D5
:104880000800400700281ED5FFE7039801686FF075
:104890000400086103990220087703980068806982
:1048A00010F4407F04D0FFE70398FFF7BFFE06E057
:1048B000039800F013F9039800F008FAFFE7039952
:1048C00000200877FFE7FFE79DF8040000070028B5
:1048D00024D5FFE79DF80800000700281DD5FFE755
:1048E000039801686FF008000861039904200877B5
:1048F00003980068C069800720B1FFE70398FFF7BD
:1049000095FE06E0039800F0E9F8039800F0DEF960
:10491000FFE7039900200877FFE7FFE79DF8040011
:10492000C006002825D5FFE79DF80800C00600282E
:104930001ED5FFE7039801686FF010000861039926
:104940000820087703980068C06910F4407F04D0FD
:10495000FFE70398FFF76AFE06E0039800F0BEF851
:10496000039800F0B3F9FFE7039900200877FFE709
:10497000FFE79DF80400C00778B1FFE79DF8080045
:10498000C00748B1FFE7039801686FF001000861B4
:10499000039800F009FBFFE7FFE79DF8040000061D
:1049A000002810D5FFE79DF808000006002809D56B
:1049B000FFE7039801686FF0800008610398FFF734
:1049C0008DF8FFE7FFE79DF804004006002810D5AA
:1049D000FFE79DF808004006002809D5FFE7039887
:1049E00001686FF040000861039800F039FBFFE7B1
:1049F000FFE79DF804008006002810D5FFE79DF82A
:104A000008008006002809D5FFE7039801686FF0C9
:104A1000200008610398FFF765F8FFE7FFE704B09F
:104A200080BD000080B58CB00B9000200A900990EA
:104A30000890079006900B9800680021C4F20101CD
:104A4000884249D1FFE7FFE70020059043F6300098
:104A5000C4F20200016841F001010160006800F049
:104A6000010005900598FFE7FFE70020049043F65A
:104A70003000C4F20200016841F0020101600068E8
:104A800000F0020004900498FFE74FF4F0600690F5
:104A900002200090079000200190089009900120CA
:104AA00002900A900020C4F2020006A90391FDF7CB
:104AB00073F8009B019A029803994FF0030CCDF80C
:104AC00018C00793089209920A9040F20040C4F27D
:104AD0000200FDF761F8FFE70CB080BD81B00090E7
:104AE00001B0704780B586B0049003910292002017
:104AF0008DF80700FFE7049890F83C00012804D1E6
:104B0000FFE702208DF8170089E00499012081F861
:104B10003C00FFE7FFE7029800900C2800F270804D
:104B20000099DFE801F0076D6D6D206D6D6D3A6DD8
:104B30006D6D530004980068039901F0AFFD04986F
:104B40000168886940F008008861049801688869F4
:104B500020F004008861039802690498016888695C
:104B60001043886150E004980068039901F00CFE3E
:104B700004980168886940F40060886104980168BD
:104B8000886920F48060886103980269049801684C
:104B9000886940EA0220886136E004980068039939
:104BA00001F06CFE04980168C86940F00800C86113
:104BB00004980168C86920F00400C861039802697C
:104BC00004980168C8691043C8611DE00498006832
:104BD000039901F0CDFE04980168C86940F40060B3
:104BE000C86104980168C86920F48060C8610398AE
:104BF000026904980168C86940EA0220C86103E0BC
:104C000001208DF80700FFE7FFE70499002081F8F5
:104C10003C00FFE79DF807008DF81700FFE79DF8BF
:104C2000170006B080BD000080B582B000900098EB
:104C300020B9FFE701208DF807003FE0009890F8C9
:104C40003D0040B9FFE70099002081F83C00009842
:104C500000F038F8FFE70099022081F83D00009944
:104C600051F8040B01F0E0FB0099012081F84600A7
:104C7000FFE70099012081F83E00009981F83F008C
:104C8000009981F84000009981F84100FFE7FFE7B3
:104C90000099012081F84200009981F843000099B1
:104CA00081F84400009981F84500FFE70099012050
:104CB00081F83D0000208DF80700FFE79DF8070010
:104CC00002B080BD81B0009001B0704781B000900B
:104CD00001B0704780B58CB00A900991099828B945
:104CE000FFE70A9890F83E0007901CE00998042816
:104CF00005D1FFE70A9890F83F00069010E0099868
:104D0000082805D1FFE70A9890F84000059004E0D4
:104D10000A9890F841000590FFE705980690FFE794
:104D200006980790FFE70798012804D0FFE70120C5
:104D30008DF82F00AFE0099828B9FFE70A99022003
:104D400081F83E001EE00998042806D1FFE70A9981
:104D5000022081F83F00049012E00998082806D14B
:104D6000FFE70A99022081F84000039005E00A99C4
:104D7000022081F841000390FFE703980490FFE7C9
:104D80000498FFE70A98006809990122019201F04E
:104D90001DFC01980A9909680022C4F2010291429F
:104DA00002900CD0FFE70A9800684FF60041CBF65E
:104DB000FE710844B0FA80F040090290FFE70298C3
:104DC000C00738B1FFE70A980168486C40F400401A
:104DD0004864FFE70A9800680021C4F20101884294
:104DE0003CD0FFE70A980068B0F1804F36D0FFE76B
:104DF0000A98006840F20041C4F2000188422DD0B8
:104E0000FFE70A98006840F60001C4F200018842FA
:104E100024D0FFE70A98006840F60041C4F2000180
:104E200088421BD0FFE70A98006840F20041C4F2B4
:104E30000101884212D0FFE70A98006844F200019D
:104E4000C4F20101884209D0FFE70A98006841F6E0
:104E50000001C4F20001884212D1FFE70A980068FD
:104E6000806800F0070008900898062807D0FFE740
:104E70000A980168086840F001000860FFE706E052
:104E80000A980168086840F001000860FFE7002008
:104E90008DF82F00FFE79DF82F000CB080BD0000BB
:104EA00080B586B0059004910598006804990022A9
:104EB00001F08CFB0598016801200022C4F2010278
:104EC000914203900CD0FFE7059800684FF600412F
:104ED000CBF6FE710844B0FA80F040090390FFE77A
:104EE0000398C007D8B1FFE7FFE705980068006A9C
:104EF00041F21111084210D1FFE705980068006ADD
:104F000040F24441084207D1FFE705980168486C28
:104F100020F400404864FFE7FFE7FFE7FFE7FFE713
:104F200005980068006A41F21111084210D1FFE7AC
:104F300005980068006A40F24441084207D1FFE743
:104F400005980168086820F001000860FFE7FFE7A6
:104F5000FFE7049828B9FFE70599012081F83E0092
:104F60001EE00498042806D1FFE70599012081F886
:104F70003F00029012E00498082806D1FFE7059947
:104F8000012081F84000019005E00599012081F899
:104F900041000190FFE701980290FFE70298FFE7C8
:104FA000002006B080BD000080B582B0019001985D
:104FB00040F2F821C2F20001884203D1FFE703F07A
:104FC00055F9FFE702B080BD80B584B00290019131
:104FD000FFE7029890F83C00012804D1FFE7022087
:104FE0008DF80F0037E00299012081F83C00FFE7BF
:104FF000FFE70299022081F83D000298019901F033
:1050000009FD70B1FFE70299012081F83D00FFE73B
:105010000299002081F83C00FFE701208DF80F0085
:1050200019E002980168C86820F04000C860029842
:105030000168C86820F48040C8600299012081F8A6
:105040003D00FFE70299002081F83C00FFE70020C7
:105050008DF80F00FFE79DF80F0004B080BD000041
:1050600081B0009001B0704782B00190ADF802109D
:1050700002B0704781B0009001B0704780B592B027
:105080001190119800680068109011980068C0682D
:105090000F901198006840690E9000200D900C90C0
:1050A000109800F00F000D900D9888B9FFE79DF85B
:1050B0004000800600280AD5FFE79DF83C008006E6
:1050C000002804D5FFE7119801F024FF02E2FFE772
:1050D0000D98002800F0C280FFE79DF83800C00757
:1050E00038B9FFE7BDF83C0010F4907F00F0B680BF
:1050F000FFE79DF84000C00758B1FFE79DF83D006D
:10510000C00730B1FFE71199486C40F001004864D6
:10511000FFE79DF84000400700280BD5FFE79DF80A
:105120003800C00730B1FFE71199486C40F0020029
:105130004864FFE79DF84000800700280BD5FFE793
:105140009DF83800C00730B1FFE71199486C40F076
:1051500004004864FFE79DF840000007002811D5CF
:10516000FFE79DF83C008006002805D4FFE79DF886
:105170003800C00730B1FFE71199486C40F00800D3
:105180004864FFE71198406C002866D0FFE79DF85F
:105190004000800600280AD5FFE79DF83C00800605
:1051A000002804D5FFE7119801F0B4FEFFE711983D
:1051B00000684069C0F380100C901198406C0007A3
:1051C000002804D4FFE70C9800283ED0FFE7119890
:1051D00001F042FE119800684069400600282FD572
:1051E000FFE7FFE7FFE71198006850E8050F20F0A0
:1051F00040000B90FFE70B991198026842E80510F8
:105200000028F0D1FFE7FFE71198C06B98B1FFE7E6
:105210001198C16B46F63D60C0F600000865119814
:10522000C06BFCF7CBF928B1FFE71198C06B016D9B
:105230008847FFE703E01198FFF71CFFFFE703E053
:105240001198FFF717FFFFE706E01198FFF712FF2D
:10525000119900204864FFE7FFE73BE11198006BDC
:10526000012840F01781FFE79DF84000C0060028A4
:1052700040F11081FFE79DF83C00C006002840F196
:105280000981FFE7FFE700200A9011980068006895
:105290000A901198006840680A900A98FFE71198F0
:1052A000006840694006002840F19A80FFE71198A5
:1052B000C06B00684068ADF82600BDF826000028E5
:1052C00075D0FFE7BDF826001199898D88426EDA06
:1052D000FFE7BDF826001199C8851198C06BC06919
:1052E000B0F5807F58D0FFE7FFE7FFE7119800682F
:1052F00050E8030F20F480700890FFE70899119898
:10530000026842E803100028F0D1FFE7FFE7FFE75B
:10531000FFE71198006850E8050F20F001000790A2
:10532000FFE707991198026842E805100028F0D1BC
:10533000FFE7FFE7FFE7FFE71198006850E8050F78
:1053400020F040000690FFE706991198026842E8B5
:1053500005100028F0D1FFE7FFE71199202081F820
:105360004200119900200863FFE7FFE711980068E9
:1053700050E8030F20F010000590FFE70599119801
:10538000026842E803100028F0D1FFE7FFE7119818
:10539000C06BFCF79DF8FFE7119902204863119854
:1053A000818DC28D891A89B2FFF75EFE17E0BDF8C4
:1053B00026001199898D884210D1FFE71198C06BA2
:1053C000C069B0F5807F08D1FFE7119902204863DA
:1053D0001198818DFFF748FEFFE7FFE7FFE779E0CF
:1053E0001199888DC98D401AADF812001198C08DA1
:1053F00000284ED0FFE7BDF81200002849D0FFE793
:10540000FFE7FFE71198006850E8030F20F4907061
:105410000390FFE703991198026842E803100028FF
:10542000F0D1FFE7FFE7FFE7FFE71198006850E8DA
:10543000050F20F001000290FFE702991198026821
:1054400042E805100028F0D1FFE7FFE7119920207E
:1054500081F84200119900200863FFE7FFE71198E7
:10546000006850E8030F20F010000190FFE7019959
:105470001198026842E803100028F0D1FFE7FFE727
:105480001199022048631198BDF81210FFF7ECFD46
:10549000FFE71FE09DF84000000600280AD5FFE75F
:1054A0009DF83C000006002804D5FFE7119801F0A4
:1054B00083FE0FE09DF84000400600280AD5FFE774
:1054C0009DF83C004006002804D5FFE7119801F044
:1054D0000DFDFFE712B080BD80B582B0009000984E
:1054E00020B9FFE701208DF8070040E000988069AF
:1054F00008B1FFE700E0FFE7009890F8410040B9ED
:10550000FFE70099002081F84000009800F034F88F
:10551000FFE70099242081F8410000980168C868DD
:1055200020F40050C860009801F0A8FD00980168C0
:10553000086920F49040086100980168486920F0EB
:105540002A00486100980168C86840F40050C860AB
:10555000009900204864009A202182F84110009AA6
:1055600082F84210009948638DF80700FFE79DF824
:10557000070002B080BD000080B58CB00B90002009
:105580000A9009900890079006900B98006844F2E2
:105590000041C4F2000188423ED1FFE7FFE700204E
:1055A000059043F64000C4F20200016841F4003166
:1055B0000160006800F4003005900598FFE7FFE700
:1055C0000020049043F63000C4F20200016841F06C
:1055D00001010160006800F0010004900498FFE7F9
:1055E0000C20069002200190079000200290089065
:1055F0000120099007200A900020C4F2020006A9A9
:10560000FCF7CAFA0199029A26200390FCF7FEFEE5
:105610000398FCF7F1FEFFE70CB080BD81B000906D
:1056200001B0704781B0009001B07047FFE7FEE71E
:1056300080B586B0002100910591049103910291FB
:1056400040F2B800C2F20000019042F20002C4F23F
:10565000010202604FF480324260816001220261E7
:10566000027680F820104FF08053C3624FF0006341
:105670008362C1600623C36180F830204161FBF77B
:10568000D3FB18B1FFE7FBF7A3F9FFE70A2002906D
:1056900001200390049040F2B800C2F2000002A979
:1056A000FBF79CF918B1FFE7FBF792F9FFE70B2036
:1056B00002900220039040F2B800C2F2000002A95A
:1056C000FBF78CF918B1FFE7FBF782F9FFE70C2035
:1056D00002900320039040F2B800C2F2000002A939
:1056E000FBF77CF918B1FFE7FBF772F9FFE70D2034
:1056F00002900420039040F2B800C2F2000002A918
:10570000FBF76CF918B1FFE7FBF762F9FFE70E2032
:1057100002900520039040F2B800C2F2000002A9F6
:10572000FBF75CF918B1FFE7FBF752F9FFE70F2031
:1057300002900620039040F2B800C2F2000002A9D5
:10574000FBF74CF918B1FFE7FBF742F9FFE706B0AA
:1057500080BD000080B582B000200190009040F232
:105760000010C2F2000047F20041C4F200010160E3
:10577000FBF7B8FD18B1FFE7FBF72AF9FFE70022B6
:1057800000920220019040F20010C2F2000069462F
:10579000FBF748FD18B1FFE7FBF71AF9FFE7002018
:1057A000019040F20010C2F2000069461022FBF79F
:1057B00039FD18B1FFE7FBF70BF9FFE702B080BD39
:1057C00080B584B0FFE70020039043F63000C4F2B8
:1057D0000200016841F480010160006800F480006B
:1057E00003900398FFE738200090002201921146B1
:1057F000FCF70CFE0098FCF7FFFD019A4620029092
:105800001146FCF703FE0298FCF7F6FD04B080BDDC
:1058100080B59AB0002019901890179016901590A6
:10582000FFE70020149043F63000C4F20200016844
:1058300041F010010160006800F01000149014980D
:10584000FFE7FFE70020139043F63000C4F20200A8
:10585000016841F004010160006800F00400139049
:105860001398FFE7FFE70020129043F63000C4F2E0
:105870000200016841F080010160006800F08000D2
:1058800012901298FFE7FFE70020119043F63000D6
:10589000C4F20200016841F001010160006800F0FB
:1058A000010011901198FFE7FFE70020109043F6E8
:1058B0003000C4F20200016841F00201016000689A
:1058C00000F0020010901098FFE7FFE700200F9013
:1058D00043F63000C4F20200016841F008010160A3
:1058E000006800F008000F900F98FFE740F60000F6
:1058F000C4F2020006904FF4405100220D92FCF7D2
:105900003BFB0D9A41F20000C4F2020002904FF4FA
:10591000E0410191FCF730FB0D9A40F20040C4F2E7
:1059200002000A904FF4A0410391FCF725FB0020F0
:10593000C4F2020005904FF40041049101220C9240
:10594000FCF71AFB02980C990D9AFF230793159305
:105950001692179115A90B91FCF71EF906980B9951
:105960000C9B0D9A4FF4005CCDF854C0169317921F
:105970001892FCF711F9DDF804C002980B990C9B02
:105980000D9ACDF854C0169317921892FCF704F9AB
:10599000DDF80CC00A980B990C9B0D9ACDF854C0F9
:1059A000169317921892FCF7F7F80B990C980D9A2A
:1059B0004FF4804315931692179040F60040C4F2BE
:1059C00002000890FCF7E8F8DDF810C005980B9984
:1059D0000C9B0D9ACDF854C016931792022209928F
:1059E0001892FCF7D9F806980B990C9A0D9B4FF476
:1059F000806CCDF854C016931792FCF7CDF806983A
:105A0000099A0B99DDF830C00D9B4FF4805ECDF8FC
:105A100054E0CDF858C017931892FCF7BDF8DDF8A4
:105A20001CC00898099A0B990D9BCDF854C0169389
:105A30001792FCF7B1F8099A0A980B9980231593ED
:105A40004FF4041316931792FCF7A6F80C990D9ACD
:105A500017200E90FCF7DAFC0E98FCF7CDFC1AB07C
:105A600080BD000080B582B040F2D410C2F20000C8
:105A7000019045F60001C4F20001016040F640517A
:105A8000C0F20301416000218160C1604FF4804297
:105A9000026141618161C1610162FCF78BFA18B159
:105AA000FFE7FAF795FFFFE702B080BD80B592B03F
:105AB00000200090119010900F900E900D900C907F
:105AC00002A82821FAF788FC009940F22820C2F2A7
:105AD0000000019042F60002C4F200020260416040
