:020000040800F2
:10000000181700207902000819410008E54000088F
:100010001541000801090008F14C0008000000002B
:10002000000000000000000000000000794300080C
:100030001D090008000000001D4100087D43000864
:10004000930200089302000893020008930200083C
:10005000930200089302000893020008930200082C
:1000600093020008930200089302000805090008A3
:100070001109000893020008930200089302000887
:100080009302000800000000C50500089302000864
:1000900093020008930200089302000893020008EC
:1000A0009543000893020008930200089302000899
:1000B00093020008930200089302000893020008CC
:1000C00093020008930200089302000893020008BC
:1000D00093020008930200089302000893020008AC
:1000E0002109000893020008930200089302000807
:1000F0009302000893020008930200080000000029
:1001000000000000930200080000000093020008B5
:100110009302000800000000930200089302000808
:10012000930200089302000893020008930200085B
:100130009302000800000000000000009302000885
:100140009302000893020008000000000000000075
:10015000000000000000000000000000000000009F
:1001600000000000000000000000000093020008F2
:1001700093020008000000000000000000000000E2
:1001800000000000930200080000000000000000D2
:10019000000000000000000000000000000000005F
:1001A0000000000000000000930200089302000815
:1001B0009302000893020008930200080000000068
:1001C0000000000093020008000000000000000092
:1001D000930200089302000800F002F800F03CF8D7
:1001E0000AA090E8000C82448344AAF10107DA4592
:1001F00001D100F031F8AFF2090EBAE80F0013F0A8
:10020000010F18BFFB1A43F001031847F05A000012
:10021000105B0000103A24BF78C878C1FAD85207A2
:1002200024BF30C830C144BF04680C607047000070
:100230000023002400250026103A28BF78C1FBD8EF
:10024000520728BF30C148BF0B6070471FB505F08B
:10025000BFFC1FBD10B510BD00F04EF91146FFF7F1
:10026000F5FF04F06FFF00F06CF903B4FFF7F2FF45
:1002700003BC00F02BF900000948804709480047FB
:10028000FEE7FEE7FEE7FEE7FEE7FEE7FEE7FEE746
:10029000FEE7FEE704480549054A064B70470000A3
:1002A00081430008D9010008180600201817002013
:1002B000180800201808002053EA020C00F069809A
:1002C0002DE9F04B4FF00006002B1FBFB3FA83F56A
:1002D00003FA05F424FA05F65E4012BF1643B2FA9B
:1002E00082F502FA05F4C5F120051EBF22FA05FCCD
:1002F00044EA0C04203556EA044C4FEA144418BF73
:10030000641C4FF000084FF00009904271EB030CA1
:1003100039D3002919BFB1FA81F701FA07F6B0FA0B
:1003200080F700FA07F6C7F120071EBF20FA07FC86
:1003300046EA0C062037B6FBF4FCA7EB0507103F96
:1003400007F01F0BCBF120062CFA06F60CFA0BFB7C
:1003500044BFB3460026202FA4BF5E464FF0000BDB
:100360005BEA060C08BF4FF0010B19EB0B0948EBD9
:100370000608ABFB027C06FB02CC0BFB03CCC01BCC
:1003800071EB0C01C1E70B46024641464846BDE809
:10039000F08B13B5084318BF4FF0FF300146AFF3A1
:1003A0000080BDE81C4070470EB5054614460E4659
:1003B00013A000F079F8284600F076F816A000F0B7
:1003C00073F8304600F070F815A000F06DF80021C9
:1003D0008DF80B100A210DF10A008DF80A1008E0C3
:1003E00094FBF1F201FB124294FBF1F4303200F87D
:1003F000012D002CF4DC00F057F800F04AF8000062
:100400002A2A2A20617373657274696F6E2066618F
:10041000696C65643A2000002C2066696C652000D8
:100420002C206C696E6520004FF0000200B5134669
:1004300094469646203922BFA0E80C50A0E80C5004
:10044000B1F12001BFF4F7AF090728BFA0E80C50B5
:1004500048BF0CC05DF804EB890028BF40F8042BAE
:1004600008BF704748BF20F8022B11F0804F18BF1B
:1004700000F8012B704770477047704710B500F0C7
:100480002FF8006810BD10B5044600F029F804608C
:1004900010BD10B5002000F027F8FFF7DBFEBDE827
:1004A0001040012000F012B810B5044602E0641CB0
:1004B00000F004F820780028F9D110BD08B569468D
:1004C0008DF800000320ABBE08BD000001491820D4
:1004D000ABBEFEE726000200004870471000002077
:1004E000004870471000002010B500F039F8BDE852
:1004F000104000F02FB870477546FFF7EDFFAE468D
:1005000005006946534620F00700854618B020B51F
:10051000FFF7C0FEBDE820404FF000064FF0000797
:100520004FF000084FF0000BAC46ACE8C009ACE857
:10053000C009ACE8C009ACE8C00921F007018D464C
:10054000704710B50446AFF300802046BDE8104068
:10055000FFF78BBE002801D0FFF7B8BF704700003F
:1005600010B5002102A000F013F8012010BD00001A
:10057000534947414252543A2041626E6F726D6155
:100580006C207465726D696E6174696F6E00000035
:1005900070B505460C460A2000E06D1CFFF78EFF83
:1005A00035B128780028F8D102E0641CFFF786FFF7
:1005B00014B120780028F8D1BDE870400A20FFF778
:1005C0007DBF000080B540F23420C2F2000001F08F
:1005D00081F840F2A020C2F20000BDE8804001F0A6
:1005E00079B800000146806AC36DC26D13F0500FE8
:1005F00008D0D20648BF01F06BB8406D426B084688
:10060000104700BF42F40071C16501680B68CA68F9
:100610001B0703D4910707D500F0D0BB12F4406F3D
:10062000FAD1C9688904F7D4C16D21F48071C1651C
:10063000C16DC90448BF00F0C1BBC16D41F00101EB
:10064000C16500F0BBBB0000806AC16D41F0400194
:10065000C165016E41F00401016601F039B8000086
:10066000806A01F033B8000070B582B00446002003
:10067000019021688A68D20711D14FF6C076C7F67B
:10068000FF76886806F17F0210420BD0E06D40F0E3
:100690001000E065206E40F001002066012002B0ED
:1006A00070BD00BF8868304040F00100886040F2B3
:1006B0000830C5F200000068000221D401F040FEBD
:1006C00021680A68D20717D1054602E00868C0070A
:1006D00012D18868C00704D18868304040F001001A
:1006E000886001F02DFE401B21680328EED30868C6
:1006F000C007EBD1CAE700BF002002B070BD00BF49
:1007000040F20800C2F20000006842F6635180091E
:10071000C0F23E51A0FB0101880900EB40000C2112
:1007200001EB8000019001980028C7D001980138A2
:10073000019001980028C1D00198013801900198DA
:100740000028BBD001980138019001980028B5D04D
:1007500001980138019001980028E7D1AEE7000028
:10076000012884BF6FF0010070472DE9F04186B089
:100770000C4641F24C01C4F202010A6840F20C330B
:1007800042F001020A600A68C2F2000302F00102AC
:100790000192019A0A6801AE42F001020A600A68F9
:1007A000022702F001020192019A0A690C2542F027
:1007B00001020A610969942210FB023801F001006C
:1007C0000190019804200190012003904FF0904087
:1007D000314602970497059501F0D6FC0820CDE933
:1007E00001074FF090403146059501F0CDFC4046A1
:1007F000214603F079FC002806B0BDE8F04114BFA3
:100800006FF003000020704780B586B041F24C00C5
:10081000C4F20200016841F001010160006801A911
:1008200000F0010001900198202001900120029029
:1008300000200390032004904FF0904001F0A4FCAE
:100840004FF090402021002201F074FD002006B0FE
:1008500080BD00007047000040F26041C2F200011C
:1008600001EBC00001F06ABC10B586B041F24C0249
:10087000C4F202021368044643F0040010601268D8
:1008800040F6000002F004020192019A4FF4005277
:10089000C4F60000019202220392049221B34FF4A5
:1008A0008811029101A901F06FFC40F26040C2F290
:1008B000000000EBC4040D21C0F20061204601F0ED
:1008C00037FC40F6F902C0F600022046002101F094
:1008D00053FC28200F21002201F0AAFD282001F05E
:1008E00093FD002006B010BD0021029101A901F086
:1008F0004BFC002006B010BD0020FFF7ABBF00008E
:10090000FEE7000040F2A030C2F2000001F09EBA03
:1009100040F20040C2F2000001F098BA70470000B7
:100920000020FFF799BF0000EFF3108072B600BF00
:10093000FEE70000704700007047000070470000AD
:10094000704700007047000070B582B090F85820E2
:10095000012A03D10221084602B070BD0022019293
:1009600000920268B2F1A04F30D140F208324FF647
:10097000006C4FF60055C5F20002CFF6FF7CCFF6B3
:10098000FF7552F80C40535923435B071ED4D1F82E
:1009900000E01368BEF1000F23F4604422D04B68DE
:1009A00090F8386043EA463323431360535952F8B2
:1009B0000C603343DB0723D1136840F61F76896848
:1009C000B343194341EA0E0117E000BFC16D41F086
:1009D0002001C1650121002280F85820084602B09C
:1009E00070BD00BF1460515952F80C301943C9074B
:1009F00008D1116840F61F73994311600021EAE79E
:100A00000021E8E70021E6E7F0B581B0002200927E
:100A100090F85820012A03D10221084601B0F0BD08
:100A20000123076880F85830BB685B0736D4D1E9EA
:100A300000531F26C3F3012407EB8404226B03F049
:100A40001F039E40B243C5F3846606FA03F31A43BC
:100A50002263BA68BB6802F0040203F00803D218EC
:100A600040F0BD800A6807F114030426C2F3406415
:100A7000D1F808E006EAD25C53F82450C2F30454DB
:100A80000722A240BEF1004F25EA02050CD143F82F
:100A90000C501A6842F000430EE000BFC16D41F0F7
:100AA0002001C165012182E10EFA04F22A4343F8D4
:100AB0000C201A6822F000437B61D1E90434FD6800
:100AC000042B5FD13A6E3A6E0B68C2F3846293FADC
:100AD000A3F6C3F3846C6FF3DF43B6FA86F5002BFD
:100AE0002C464FF6FF7E08BF6446A242C0F2070EB6
:100AF0000CD13A6E22F000423A660A6802EA0E030E
:100B0000C2F3846C92FAA2F2B2FA82F57A6E7A6E2D
:100B1000002BC2F384622C4608BF6446A2420CD16B
:100B20007A6E22F000427A660A6802EA0E03C2F385
:100B3000846C92FAA2F2B2FA82F5BA6EBA6E002B07
:100B4000C2F384622C4608BF6446A2420CD1BA6E3E
:100B500022F00042BA660A6802EA0E03C2F3846C0D
:100B600092FAA2F2B2FA82F5FA6EFA6E002BC2F392
:100B7000846208BF6546AA4231D1FA6E22F0004273
:100B8000FA662CE0062202EA95020E6807F160057B
:100B900004FA02FC55F823404FF20002C0F2FF3283
:100BA00006F0F846224046EA0C06324342F0004284
:100BB00045F823200A698B6955F8226026F0807673
:100BC000334345F822300A690B7F55F82260012B28
:100BD00026F0007608BF06F1007645F82260BA6874
:100BE000D20750D10C68CA68D7F8B06023466FF3BB
:100BF000DF4326EA030C4FF6FF7602F01805C0F239
:100C00000706EE4000252640C4F27F0546EA0C06A2
:100C1000AA42C7F8B06036D193B194FAA4F2B2FAFE
:100C200082F2013202F01E03092B02F01F0310D8DA
:100C300001229A4003EB430342EA035315E000BF4D
:100C4000012202EB946202F01E030A2B02F01F0342
:100C5000EED3012200269A4003EB4303CFF6206631
:100C600006EB03531A4342F00073C3F3406607EBED
:100C700086068A687569C3F3045307249C40A5431C
:100C80009A402A43726109680022C8F208021142A0
:100C900054D040F2083CC5F2000CDCF800300022D1
:100CA000CCF22132914203F0E07404D01022C9F258
:100CB000C002914244D119024FF0000177D4B7F13C
:100CC000A04F74D1DCF8001042F6635221F0E071BD
:100CD000214341F40001CCF8001040F20801C2F2B7
:100CE00000010968C0F23E528909A1FB0212910974
:100CF00001EB41010C2202EB8101009100990029D6
:100D00003CD000BF0099013900910099002947D0DB
:100D10000099013900910099002943D000990139C7
:100D20000091009900293FD0009901390091009964
:100D300000294FF00001E5D139E000BF002136E085
:100D40000022CCF25272914208BF13F0807217D089
:100D50000022CCF6843291424FF0000108BF13F418
:100D6000800224D1ACF50272974220D0DCF800104A
:100D700021F0E071214341F480010CE0002116E0F4
:100D8000ACF502718F4211D0DCF8001021F0E07157
:100D9000214341F08071CCF80010002107E000BF32
:100DA000002104E0002102E0002100E000210022F7
:100DB00080F85820084601B0F0BD0000B0B52DED18
:100DC000068B82B040F2A021C2F20001884203D01B
:100DD00002B0BDEC068BB0BD40F21010C2F20000B4
:100DE000D0E90D5140F27C14C2F200044160616D03
:100DF000D0E903230029C0E90553C0E90725436270
:100E0000826200F0278491ED000A91ED011A91EDC4
:100E1000022A94ED173A40F2E451B8EE400A94EDFC
:100E2000184A94ED195A94ED1A6AB8EE411AB8EEC0
:100E3000422AC2F2000194ED1B7AD4ED1C0AD4EDD3
:100E40001D1A23EE000A23EE011A23EE022ACA68B5
:100E500030EE440A31EE451A32EE462A20EE070AF9
:100E600020EE811A21EE822A002A84ED120A84EDF6
:100E7000131A84ED142A00F0ED8392ED000A92ED2E
:100E8000011A92ED022A91ED053AB8EE400A91ED71
:100E9000064A91ED075A91ED086AB8EE411AB8EE8C
:100EA000422A91ED097AD1ED0A0AD1ED0B1A23EE0F
:100EB000000A23EE011A23EE022A026C30EE440AE5
:100EC00031EE451A32EE462A20EE070A20EE811A4C
:100ED00021EE822A002A81ED000A81ED011A81EDBE
:100EE000022A00F0C38392ED000A90ED121AB8EEC8
:100EF000400A90ED132A90ED143A21EE000A816D1C
:100F000030EE420A20EE030A002980ED0F0A00F0BD
:100F1000AD8391ED000A90ED181AB8EE400A90EDFD
:100F2000192A90ED1A3A21EE000A30EE420A20EE1C
:100F3000030A6FF0C00580ED150A05F1C000ADF899
:100F400006000021606CADF80410002104F0DCF80C
:100F5000206C0DF1060101AA022304F0E1F8606C97
:100F6000012104F0D1F8BDF8040094ED0E1A20F030
:100F7000C000684000BA000C00EE100AB8EE400A4B
:100F8000B8EE411A80EE011AE062A08E94ED0C3AA0
:100F900000EE100AB8EE404AB7EE000A94ED0F2AB0
:100FA000B6EE00AA31EE005A35EE433A23EE043A8B
:100FB000BDEEC34AB8EEC44A33EE443A31EE424A7B
:100FC000B4EE4A4AF1EE10FA84ED081A84ED093ABB
:100FD00002DDA06A0138A06232EE412AB4EE4A2A4C
:100FE000F1EE10FA02DDA06A0130A06240F20C00BE
:100FF000C2F20000006840F2CC450028C2F20005B1
:1010000084ED0F1A48D040F2F810C2F20000416B94
:10101000002941D040F2CC02C2F2000229681268D5
:1010200090ED012A01EB820191ED001A90ED087A12
:10103000D0ED070A27EE027A60EE810A90ED023ABF
:1010400030EE877AD0ED090A90ED034A90ED056AFB
:1010500090ED045AD0ED061A20EE833A33EE073AAB
:1010600026EE046AD0E90B1233EE463A21EE855A99
:1010700033EE453A013180ED0A3A80ED011A80EDF8
:10108000022A80ED033A80ED044A9142C16282BF98
:1010900000210122C0E90D1240F2D400C2F200008A
:1010A00090ED051A90ED062A90ED043A32EE011A01
:1010B000B4EE431A80ED051AF1EE10FAC4BF90EDBC
:1010C000031A80ED051A80ED001A80ED011A40F236
:1010D000F000C2F20000D0E906120131914228BFAF
:1010E000002181612FD3416890ED022A91ED001A11
:1010F000BEEE003A31EE422AB4EE432AF1EE10FA87
:1011000002DA32EE002A08E0B4EE4A2AF1EE10FAD2
:10111000C4BFBFEE003A32EE032A90ED033A90EDE1
:10112000044A90ED055A22EE032A30EE440A25EED9
:10113000000A22EE042A32EE000A80ED050A80ED54
:10114000000A80ED021AD5F80001002800F025827F
:10115000D5E900019FED623A91ED010A91ED021A85
:1011600091ED002A30EE010A20EE0A0A9FEDF61AF0
:1011700032EE400A20EE010A85ED250A91ED010AC2
:1011800091ED022A30EE420A20EE030A85ED260A8E
:1011900091ED000A91ED012A91ED024A30EE020A2A
:1011A0009FEDED2A30EE040A20EE020A85ED270AB3
:1011B00090ED010A90ED024A90ED005A30EE040ADB
:1011C00020EE0A0A35EE400A20EE010A85ED2B0AD0
:1011D00090ED010A90ED021A30EE410A20EE030A6A
:1011E00085ED2C0A90ED000A90ED011A90ED023A7F
:1011F00030EE010A286930EE030A20EE020A0028C8
:1012000085ED2D0A00F03E8290ED010A9FEDD31A84
:1012100020EE019AB0EE490A04F054FBB0EE408A89
:10122000B0EE490A04F0A6FA95ED251A95ED263A96
:10123000D5F89C0095ED2B4A95ED2C5A28EE032A03
:1012400021EE006A28EE011A23EE003AC5F8A80044
:10125000D5F8B40036EE022A33EE411A28EE053AEC
:1012600024EE006A36EE033AC5F8C000D5F8100146
:1012700028EE044A25EE005A85ED2E3A95ED313AD6
:1012800035EE444A85ED282A85ED291A85ED2F4A49
:1012900085ED383AA0B16869002800F0FB8190ED37
:1012A000004AD5E9200195ED375A0130884228BF20
:1012B0000020C5F8800015D295ED184A6CE000BFFB
:1012C00095ED324AD5F80C0185ED394A00286DD1EB
:1012D00095ED332A95ED341A85ED3A2AF0E000BFFA
:1012E0003ACD133F95ED226AD5ED240A95ED237A88
:1012F00035EE465AB4EE605AF1EE10FAB4EE475AA3
:10130000C8BFB0EE605AF1EE10FAB8BFB0EE475A5F
:1013100036EE055A85ED225A35EE445A95ED194AB6
:1013200095ED1A6A24EE054AD5ED1E1A24EE066ADA
:10133000D5ED1D2AD5ED1C0A36EE216AB4EE626A9F
:1013400095ED1B7AF1EE10FAB4EE606AC8BFB0EE0C
:10135000626AF1EE10FAB8BFB0EE606AD5ED1F1AFE
:1013600085ED1E6A75EE611A21EE877A37EE066A00
:1013700034EE064AB4EE624AF1EE10FAB4EE604A78
:10138000C8BFB0EE624AF1EE10FAB8BFB0EE604AE4
:1013900085ED184A85ED1F5A95ED325A34EE054A0F
:1013A000D5F80C0185ED394A002891D033EE422A58
:1013B00095ED093A95ED0A5A22EE033AD5ED0E0A5B
:1013C00023EE055AD5ED0D1A95ED0C7A35EE205A1F
:1013D000B4EE615A95ED0B6AF1EE10FAB4EE475A8D
:1013E000C8BFB0EE615AF1EE10FAB8BFB0EE475A7E
:1013F000D5ED0F0A85ED0E5A72EE600A20EE866A70
:1014000036EE055A33EE053AB4EE613AF1EE10FAD3
:10141000B4EE473AC8BFB0EE613AF1EE10FAB8BF89
:10142000B0EE473A95ED335A85ED083A85ED0F2A2F
:1014300035EE032A95ED113A34EE411A95ED124A34
:1014400021EE033A95ED165A23EE044A34EE054A8E
:1014500095ED155A95ED146AB4EE454A85ED3A2A94
:10146000F1EE10FAB4EE464AC8BFB0EE454AF1EECE
:1014700010FAB8BFB0EE464A95ED177AD5ED130ACB
:1014800031EE477A27EE207A85ED164A37EE044A88
:1014900033EE043AB4EE453AF1EE10FAB4EE463AC1
:1014A000C8BFB0EE453AF1EE10FAB8BFB0EE463A1A
:1014B00095ED344A85ED103A85ED171A34EE031A8E
:1014C000D5F80811002085ED3B1AC5F8F00089B168
:1014D00028EE013A22EE004A20EE010A22EE081A16
:1014E00034EE433A31EE000A85ED3D3A85ED3E0A91
:1014F000C5F8FC00D5F80411E86939B395ED3D0A4B
:1015000095ED3E1A9FED6B3ABEEE002A20EE024AA0
:1015100021EE031A34EE012A34EE411AB4EE420AE7
:10152000B0EE403AB0EE424AF1EE10FAC8BFB0EE6B
:10153000423AC8BFB0EE404AB4EE441AF1EE10FA97
:101540000EDDB0EE414A12E0ABAA2A3F9FED5A0AE7
:101550000021016041601EE0ABAAAA3EDA0FC9403B
:10156000B4EE431AF1EE10FAB8BFB0EE413A33EEE2
:10157000043A23EE0A3A30EE430A30EE0A0A32EE1B
:10158000432A32EE0A2A80ED000A31EE430A80ED4A
:10159000012A30EE0A0A80ED020A94ED032A94ED46
:1015A000000AB8EE422A94ED011A20EE020A2069E0
:1015B000BCEEC00A94ED023A10EE101A21EE021AA7
:1015C0000144BCEEC11A00EE101A11EE101A23EEFF
:1015D000023AB8EE400A0144BCEEC33AB4EE420A05
:1015E00001EE101A13EE101AF1EE10FAC8BFB0EEA9
:1015F000420AB8EE411A0844BCEEC00AB4EE421AE0
:1016000003EE100A84ED050AF1EE10FAC8BFB0EE41
:10161000421AB8EE433A40F28000BCEEC11AB4EE72
:10162000423AC2F2000084ED061AF1EE10FAC8BF89
:10163000B0EE423A0068BCEEC32A84ED072A80ED82
:101640000D0A80ED0E1A80ED0F2A02B0BDEC068B5C
:10165000B0BD00BF45F6EE4045F6A741C0F600001C
:10166000C0F6000140F23712FEF79EFE45F6EE404E
:1016700045F6A741C0F60000C0F600015122FEF772
:1016800093FE00BF45F64C410CA0C0F60001B82205
:10169000FEF78AFE45F64C4102A0C0F60001D122B9
:1016A000FEF782FE6D74722D3E76656C6F63697411
:1016B00079000000D7B35D3F000000006D74722D0B
:1016C0003E706F736974696F6E00000070470000B0
:1016D000704700002DE9F047056840F20018C5F298
:1016E00000082E68D5F804A0D8F808720446B007A0
:1016F0000FD51AF002000CD0E06DC00603D4E06DE7
:1017000040F40060E0652046FFF714F925680220E8
:101710002860700707F01F0902D51AF0040004D1F1
:10172000300749D51AF0080046D0204650F85C2F03
:10173000D20603D4026842F400720260EA6812F42E
:10174000406F33D12A46454508BF4FF0A0421346AB
:10175000B9F1090F08BF2B46B9F1050F08BF2B4699
:10176000B9F1000F08BF2B46AA4208BF1346DA683A
:1017700092041BD42A68120718D5AA6852070BD402
:101780006A6822F00C026A60016821F480710160CD
:101790000168C90406D509E0E06D40F01000E0657D
:1017A00004F16000016841F0010101602046FFF78B
:1017B00005FB25680C202860B00602D51AF0200031
:1017C00004D170062CD51AF0400029D0204650F8DC
:1017D0005C2FD20603D4026842F40052026029460C
:1017E000EF6CEA68454508BF4FF0A0410B46B9F1E0
:1017F000070F08BF2B46B9F1060F08BF2B46B9F1FA
:10180000000F08BF2B46A94208BF0B46DB6817F440
:10181000C07F6BD02046FFF78FF8256860202860D6
:1018200030060CD51AF0800009D0E06D40F480300D
:10183000E065204600F0ACF9256880202860F005BE
:101840000DD51AF480700AD0E06D40F40030E065E8
:101850002046FFF775F825684FF480702860B005C2
:101860000DD51AF400700AD0E06D40F48020E065D8
:101870002046FFF767F825684FF400702860F006EF
:101880001AD51AF0100017D0E06B38B1B9F1000F7B
:101890004ED0D8F8080210F4604F0BD0E06D40F441
:1018A0008060E065206E40F0020020662046FFF771
:1018B0000FFF256810202860700558BFBDE8F0872D
:1018C0001AF4806010D0E06D4FF4806140F48040E5
:1018D000E065206E40F00800206620462960BDE8E3
:1018E000F047FFF72BB800BFBDE8F087990106D598
:1018F00002F4406103F4005289187FF48BAF296829
:1019000049067FF587AF13F400117FF483AFA96810
:10191000090711D4696821F060016960016821F448
:10192000805101600168C9053FF574AF0AE000BF4E
:10193000E868C007B2D1BDE7E06D40F01000E06597
:1019400004F16000016841F00101016062E70000FC
:10195000B0B582B00446002001904CB1E06D58B1A2
:1019600021688868800012D48868C00019D54CE0CE
:10197000012002B0B0BD00BF204600F00BF90020EE
:10198000206684F85800216888688000ECD5886853
:101990004FF6C072C5F6FF72104088608868C000BC
:1019A00033D44FF6C0728868C5F6FF7202F18052D8
:1019B000104000F18050886040F20800C2F2000040
:1019C000006842F663528009C0F23E52A0FB020258
:1019D0009009022202EB400001900198A8B100BFDB
:1019E000019801380190019878B10198013801906F
:1019F000019850B1019801380190019828B10198DF
:101A00000138019001980028EAD18868C00009D403
:101A1000E06D40F01000E065206E40F001002066AF
:101A2000012000E000208A68E36D02F0040203F068
:101A30001003D218E26D71D122F481720232E26594
:101A40008A68D2071AD140F2083C4FF600534FF68D
:101A50000062C5F2000CCFF6FF73CFF6FF725CF8A0
:101A600003305CF802201A43D20707D16268DCF821
:101A7000003023F47C131A43CCF80020627FE36B20
:101A800043EA4232D4E902C31A4394F8243042EACA
:101A90000C02012B42EA034207D1D4F828C00023EC
:101AA000CFF6FE7303EB4C431A43E36A33B1D4F829
:101AB00030C003F4787343EA0C031A43D1F80CC026
:101AC00044F20703CFF6F07303EA0C031A43CA602B
:101AD0000A69636B22F040621A430A618A6812073E
:101AE00045D494F83820237F520042EA833CCB68E7
:101AF00044F2020223EA020242EA0C02CA602269AC
:101B00000B698AB143F480330B61D1F8C0C043F64E
:101B1000FF732CEA03031A430EE000BF42F01001EA
:101B20000120E16502B0B0BD23F480320A61D1F832
:101B3000C02043F6FF739A43C1F8C02094F84030A8
:101B40000A69012B10D140F2FD7322EA030CD4E99B
:101B50001132D4E913E543EA0C031A4342EA0E02B8
:101B60002A4342F0010201E022F001020A616269A7
:101B70000B6B012A23F00F0202D1236A013B1A43A7
:101B80000A63E16D012262F30101E16502B0B0BDBB
:101B900070470000F0B597B0044600201690CDE9DC
:101BA0001400CDE9120001A84421FEF73DFC206895
:101BB00040F20011C5F20001884257D0B0F1A04FA9
:101BC00040F0C9804FF4004001904FF00050109059
:101BD00001A800F007FD002818BFFEF7A5FE40F29F
:101BE000F411C2F200010A6841F24C00C4F2020092
:101BF000531C0B6042B9016841F400510160016857
:101C000001F4005100910099016812AD41F0040106
:101C100001600168032701F0040100910099016847
:101C2000002641F0010101600068294600F0010032
:101C3000009000980820129040F60000C4F60000C2
:101C40001397149600F0A0FA4FF090402946CDE982
:101C50001277149600F098FA40F2A0350820C2F2EC
:101C60000005C4F20200052154E000BF4FF400401B
:101C700001904FF00050109001A800F0B3FC002834
:101C800018BFFEF751FE40F2F411C2F200010A68DB
:101C900041F24C00C4F20200531C0B6042B90168CF
:101CA00041F400510160016801F400510091009974
:101CB000016812AD41F0040101600168032701F0E1
:101CC0000401009100990168002641F001010160C2
:101CD0000068294600F00100009000981120129041
:101CE00040F60000C4F600001397149600F04CFA7A
:101CF000C020CDE912074FF090402946149600F01D
:101D000043FA0820C4F2020040F200451430C2F247
:101D10000005242180224FF400734FF400674FF038
:101D2000200C286028466960AE60EE602A616B6115
:101D3000AF61C5F81CC02E6200F0DEF808B1FEF7F6
:101D4000F3FD1220002100226565AC6200F070FBFB
:101D5000122000F059FB17B0F0BD00002DE9F04152
:101D600040F200170446C5F20007D7F808022368BE
:101D700090469B685A0704D40E4694F858100129DF
:101D800002D10220BDE8F08100F01F050120092DDD
:101D900084F8580054D8A84040F2212108424FD07E
:101DA0002046FEF761FC28B1002184F85810BDE8F8
:101DB000F08100BF2168E06D40F60172904300F5AC
:101DC0008070B942E06500D11DB9E06D20F480104B
:101DD000E065E06D40F2E553C0044FF0000044BF01
:101DE000206E20F006002066606D40F26167C0F64C
:101DF0000003C0F6000740F249650022C0F6000566
:101E0000C0E90B371C2345630B6084F858204A68EF
:101E1000434642F010024A60CA6842F00102CA60BA
:101E20004031324600F0FEF821684FF6C0738A68F0
:101E3000C7F6FF731A4004328A60BDE8F08100BF24
:101E4000002084F858000120BDE8F081B0B5D0E949
:101E500010C30268DCF8001003F01F030424D2F85A
:101E600000E09C400C4218BF1EF0040522D1022461
:101E70009C400C4218BF1EF0020529D1D940090729
:101E800024D51EF0080108BFB0BD116821F00E0175
:101E90001160012101FA03F2CCF80420C16380F83B
:101EA0002510416B002280F8242079B1BDE8B040B4
:101EB000084700BF1168890603D4116821F00401A6
:101EC0001160CCF80440016B0029EFD1B0BD00BF18
:101ED0001168890606D4116821F00A0111600121F8
:101EE00080F82510CCF80440C16A0022002980F84F
:101EF0002420DBD1EAE7000000284FF0010100F0C8
:101F00008E802DE9F04740F2000CC4F2020C036809
:101F10004FF6F8320CF5816ECBF6FD72734538BF83
:101F200002F580624CF6CD441A44CCF6CC44A2FBB8
:101F3000042803F0FC02A2F10802A2FB04290CF51C
:101F400080656FF00304D0E90262D0F810A03CBFB6
:101F50000025C4F2020504EA9804C0E910540225E1
:101F600080F825501D6847F6F07725EA07073A43C1
:101F7000476942EA0A0285693A43C7692A43056A02
:101F80003A432A4332431A600CF50262734538BF64
:101F90000CF50062A3180CF50862C264C9F30412C0
:101FA00040F6840C01FA02F2B6F5804FC4F2020C3E
:101FB0008364026506D1002141601960CCF80020DD
:101FC0001EE000BF41685FFA81FE013903294FF02E
:101FD0000001C3F800E0CCF8002011D8AEF10102F6
:101FE0000CEB820747F87C1F02F01F01012202FA66
:101FF00001F30CF1BC023946CCF8C03002E000BF5E
:102000000022002300F1540C8CE80E000021012274
:10201000C16380F8252080F82410BDE8F047084609
:10202000704700002DE9F04190F824C0BCF1010F89
:1020300043D04FF0010C80F824C090F825C0BCF1CB
:10204000010F37D14FF0020C80F825C04FF0000C83
:10205000C0F83CC0D0F800C000F14C0E9EE8304003
:10206000DCF80060BEF1000F26F00106CCF800603D
:1020700065601CBFD0E916456560D0E91076012582
:1020800006F01F068468B540D0F830807D60CCF83B
:1020900004300B46102C04BF13460A46CCF8083017
:1020A000CCF80C20DCF80010B8F1000F08D041F09B
:1020B0000E010DE0002180F824100220BDE8F0811F
:1020C00021F00401CCF80010DCF8001041F00A0106
:1020D000CCF80010806C0168C90303D5016841F495
:1020E00080710160BEF1000F05D0DEF8000040F401
:1020F0008070CEF80000DCF8000040F00100CCF861
:1021000000000020BDE8F081B0B5044600F018F9E9
:10211000054640F20000C2F200004068611C18BF92
:10212000044400BF00F00CF9401BA042FAD3B0BD3C
:1021300000280EBF012001600020704780B50168B3
:10214000082240F2144E01F01F0302EA5131C4F29A
:10215000010E4FF0010C5EF821200CFA03F313423C
:1021600008BF80BD4EF82130406818B1BDE88040FE
:10217000004700BF80BD0000034600291CBF0121AD
:10218000002208465A6070472DE9F04F82B00D6872
:10219000002D00F0CB8041F2004400F13847C4F636
:1021A000000406224FEAB726A04208BF0522052EEA
:1021B00038BF4FEAB722002401274FF0000E002657
:1021C000009209E00D68013635FA06F20EF1040EB0
:1021D00004F1020400F0AA8007FA06FB15EA0B08D6
:1021E000F0D0D1F804A003220AF0030CACF10105F1
:1021F000A240012D6FEA020910D88268CD6802EA78
:102200000902A5402A4382604268CAF3001522EA07
:102210000B02B5402A43426006E000BFBCF1030F49
:1022200002D14FF0030C21E0C2688D6802EA090276
:10223000A5402A43BCF1020FC26017D16FF0030220
:1022400002EA560202440EF01C030F25D2F820C009
:1022500005FA03FA0D692CEA0A0C05FA03F343EABE
:102260000C031362D1F804A00AF0030C02680CFA04
:1022700004F302EA09021A431AF4403F0260A1D0B3
:1022800041F26003C4F202031A6840F2004942F0CE
:1022900001021A601A68C4F2010902F001020192F7
:1022A000019A26F003024FF6084A4A44CFF6FF7A15
:1022B00052F80AC00EF00C050F23009FAB402CEA29
:1022C000030307FA05F52B4342F80A30D9F808C092
:1022D0004B684CEA0805DA0258BF2CEA080540F2C0
:1022E0000C4CC9F80850C4F2010CDCF800209F0225
:1022F00042EA080558BF22EA0805CCF80050D9F890
:1023000004209D0342EA080758BF22EA0807C9F8DB
:102310000470D9F80020DB0342EA080758BF22EA1C
:102320000807C9F8007001274CE700BF02B0BDE8FC
:10233000F08F00001823002A08BF2823C1507047DF
:1023400040F21460C2F200000068704740F20000E2
:1023500040F21461C2F20000C2F2000140680A6853
:10236000104408607047000080B5032000F08CF82E
:10237000002000F009F800281CBF012080BD00F0FB
:1023800029F8002080BD000070B540F20006C2F2BE
:1023900000067168E1B1044640F20800C2F2000094
:1023A0004FF47A720068B2FBF1F1B0FBF1F001F08A
:1023B000BFF80F2C4FF0010508D838B94FF0FF30A7
:1023C00021460022002500F033F83460284670BD15
:1023D000012070BD82B041F25800C4F20200816851
:1023E00041F001018160816801F0010101910199D1
:1023F000016841F080510160006800F08050009059
:10240000009802B000F0E4B8002848BF7047C1B29D
:1024100000F01F00012202FA00F04EF20012CEF28C
:10242000000242EAD10121F0030108607047000078
:1024300010B54EF60C5CCEF2000CDCF80030C3F3A5
:10244000022E8EF00704042C28BF0424BEF10303DF
:102450004FF0FF3E0EFA04F438BF0023A143994029
:102460000EFA03F39A43114300F00F0200F16043A8
:102470000901043A03F564436244002848BF02F1AD
:102480000C03197010BD00004EF60C51CEF2000185
:102490000A684FF6FF031A4060F30A2242F0806098
:1024A00040F0FD7008607047B0F5007F42D0002812
:1024B00040F0808047F21400C4F2000050F8141C71
:1024C000C26E01F4C06122F48072B1F5806FC26601
:1024D0002ED150F8141C012262F34A2140F8141C3A
:1024E00040F20801C2F200010968322251434DF660
:1024F0008362C4F21B32A1FB0212910C02685205E6
:1025000011D54A1C0FD0026852050CD559B102688A
:10251000520508D5012906D00268520503D50229C3
:10252000A1F10401EAD10068400544BF03207047CF
:102530000020704747F21400C4F2000050F8141C49
:10254000C26E01F4C06142F48072B1F5806FC26660
:10255000EED150F8141C012262F34A2140F8141CF9
:1025600040F20801C2F200010968322251434DF6DF
:102570008362C4F21B32A1FB0212910C0268520565
:1025800011D54A1C0FD0026852050CD559B102680A
:10259000520508D5012906D00268520503D5022943
:1025A000A1F10401EAD10068400544BF032070474F
:1025B000BEE700BF47F21400C4F2000050F8141C3C
:1025C000022262F34A2140F8141C002070470000E8
:1025D00047F20800C4F20000016841F48041016044
:1025E000704700002DE9F04182B00446807841F246
:1025F00088060007C4F2020602D400202FE000BFC4
:1026000056F8300C10F080580BD156F8300C40F0D2
:10261000805046F8300C56F8300C00F08050019095
:10262000019847F20007C4F20007386840F4807050
:102630003860FFF785FE05463868C00500F1D68092
:10264000FFF77EFE401B0228F6D90320B8F1000FE9
:1026500005D156F8301C21F0805146F8301C216815
:10266000CA0713D18A0719D44A071FD40A0725D4E9
:102670008A062BD44A0631D40A0637D4CA053DD47B
:102680008A0543D44A0549D457E000BF32686368DD
:1026900022F003021A4332608A07E5D53268A36844
:1026A00022F00C021A4332604A07DFD53268E36831
:1026B00022F030021A4332600A07D9D53268236902
:1026C00022F0C0021A4332608A06D3D532686369A9
:1026D00022F440621A4332604A06CDD53268A369BB
:1026E00022F440521A4332600A06C7D53268E369C1
:1026F00022F440421A433260CA05C1D53268236AC7
:1027000022F440321A4332608A05BBD53268636ACC
:1027100022F440221A4332604A050ED53268A36A79
:1027200022F440121A43B3F5801F326005D156F8E7
:102730007C2C42F4801246F87C2C0A050ED53268B7
:10274000E36A22F440021A43B3F5800F326005D1E8
:1027500056F87C2C42F4801246F87C2CCA040ED524
:102760003268236B22F040721A43B3F1807F3260EB
:1027700005D156F87C2C42F4801246F87C2C8A0451
:102780000ED53268636B22F040621A43B3F1006FDA
:10279000326005D156F87C2C42F4801246F87C2C2D
:1027A0004A040ED53268A36B22F040621A43B3F19B
:1027B000006F326005D156F87C2C42F4801246F846
:1027C0007C2C09040ED53168E26B21F04051114395
:1027D000B2F1805F316005D156F87C1C41F4803144
:1027E00046F87C1C02B0BDE8F08100BFB06810F470
:1027F000407010D0216C88420BD0B068B16820F4D2
:10280000407041F48031B160B16821F48031B16031
:10281000B060C0070CD1B068216C20F44070084350
:10282000B0600020B8F1000F7FF419AF11E700BFCE
:10283000FFF786FD054641F2883700BFB068800784
:10284000E9D4FFF77DFD401BB842F7D9FDE6000053
:102850002DE9F04700286DD042F2000AC4F2020AC6
:102860000446DAF800000D4600F00F0088420CD252
:10287000DAF8000020F00F002843CAF80000DAF868
:10288000000000F00F00A84254D1216841F208086E
:10289000C807C4F2020803D1880740F1D880BDE020
:1028A000606802283AD0032840D158F8082C9201D9
:1028B00040D5D8F80420D8F8043042F20046C3F3DB
:1028C000031302F00302D8F804700133C0F2F406D7
:1028D000032A04BF43F20066C0F26E16B6FBF3F2A1
:1028E000D8F80430C7F306277A43C3F341630227BD
:1028F00007EB4303B2FBF3F24BF20043C0F2C443D5
:102900009A4261D9D8F8002012F0F00F51D089070F
:102910005AD5A168002957D14BE000BF58F8081CD0
:1029200089035CBF0120BDE8F08707E058F8081C68
:10293000490503D40120BDE8F08700BFD8F8001096
:1029400001F00C0104293FD0D8F8001001F00C016F
:10295000082939D0D8F8001001F00C010C2933D126
:10296000D8F80410D8F8042042F20047C2F303124A
:1029700001F00301D8F804300132C0F2F407032952
:1029800004BF43F20067C0F26E17B7FBF2F1D8F84C
:102990000420C3F306235943C2F34162022303EB2D
:1029A0004202B1FBF2F14BF20042C0F2C44291424A
:1029B0000AD9D8F80010082262F307114FF0010974
:1029C000C8F8001002E000BF4FF00009D8F800106E
:1029D00021F003010843C8F80000FFF7B1FC0646E8
:1029E00041F28837D8F80000616800F00C00B0EBC5
:1029F000810F07D0FFF7A4FC801BB842F2D9032057
:102A0000BDE8F0872168880708D4B9F1000F1ED00F
:102A1000D8F8000020F0F00017E000BF480705D507
:102A2000D8F8000040F4E060C8F80000080706D5B8
:102A3000D8F80000072262F30D20C8F80000D8F88B
:102A40000000A26820F0F0001043C8F80000DAF897
:102A5000000000F00F00A8421BD9DAF8000020F0B7
:102A60000F002843CAF80000FFF76AFC064641F24F
:102A7000883700BFDAF8000000F00F00A84207D046
:102A8000FFF75EFC801BB842F4D90320BDE8F08755
:102A90002168480707D5D8F80000E26820F4E06014
:102AA0001043C8F80000080708D5D8F800002169CD
:102AB00020F4605040EAC100C8F80000D8F80000D7
:102AC00042F20041C0F2F40100F00C000428084674
:102AD0002DD0D8F8000000F00C00082843F2006068
:102AE000C0F26E1023D0D8F8002002F00C020C2A9D
:102AF0001CD1D8F80420D8F8043002F00302C3F344
:102B00000313D8F804700133032A08BF0146B1FB50
:102B1000F3F0D8F80410C7F30627C1F3416102228D
:102B2000784302EB4101B0FBF1F000E00020D8F85F
:102B3000001045F60C42C1F30311C0F60002515CCF
:102B400040F2080201F01F0120FA01F140F20000FA
:102B5000C2F200000068C2F200021160BDE8F04756
:102B6000FFF712BC40F2080041F20801C2F2000077
:102B7000C4F202010068096845F61C42C1F3022153
:102B8000C0F60002515C01F01F01C8407047000010
:102B900040F2080041F20801C2F20000C4F2020152
:102BA0000068096845F61C42C1F3C221C0F6000264
:102BB000515C01F01F01C8407047000080B541F230
:102BC0000C01C4F2020151F8040C42F20042C0F2BE
:102BD000F40200F00C000428104608BF80BD51F834
:102BE000040C00F00C00082843F20060C0F26E10E4
:102BF00022D051F8043C03F00C030C2B1CBF002026
:102C000080BDD1F800C00B680CF0030CC3F3031EA9
:102C10000B680EF1010EBCF1030F08BF02460968F4
:102C2000B2FBFEF0C3F30623C1F341610222584315
:102C300002EB4101B0FBF1F080BD00002DE9F04155
:102C400082B0002800F006810446007841F20006B8
:102C5000C007C4F2020655D12078800774D42078CA
:102C6000000700F197802078400700F1B7802078B6
:102C7000800600F10781E569002D00F03082B06820
:102C800000F00C000C2840F05981012D00F0E2808A
:102C9000F068216A00F003028A4240F0DB80626A39
:102CA0006FF00F0300F0F00103EB0212914240F0CD
:102CB000D180A16A00F4FE42B2EB012F40F0CA803D
:102CC000E16A00F07842B2EBC16F40F0C380226B42
:102CD0000023CFF6E07303EA025200F4C001A2F52C
:102CE0000012914240F0B680616B4FF07E4202EAE2
:102CF000016100F0C06001F17E41884240F0AA808D
:102D0000EDE100BFB06800F00C01F06808295BD06D
:102D1000032281F00C0122EA00000844B0FA80F09E
:102D2000400951D16068B0F5803F07D0B0F5A02FC1
:102D300040F0DA80306840F480203060306840F441
:102D400080303060DBE000BFB068F16800F00C005C
:102D5000042869D001F0030180F00C0081F0020129
:102D60000844B0FA80F040095ED1E168306800297B
:102D700000F0D28040F480703060FFF7E1FA054641
:102D80003068400500F1FC80FFF7DAFA401B0228AA
:102D9000F6D92EE16169D6F89400002900F0908000
:102DA00040F00100C6F89400FFF7CAFA054600BFDC
:102DB000D6F8940080073FF556AFFFF7C1FA401BE5
:102DC0000228F5D915E100BF306880037FF544AFD4
:102DD000606800287FF440AF3CE000BFB06D10F0A9
:102DE000805808D1B06D40F08050B065B06D00F0F3
:102DF00080500190019847F20007C4F2000738683C
:102E0000C0052BD4386840F480703860FFF798FA1A
:102E1000054600BF3868C00520D4FFF791FA401B73
:102E20000228F7D9E5E000BF3068400501D5E06829
:102E300080B17068216920F0FE4040EA0160706056
:102E400040F20000C2F200000068FFF79DFA00287F
:102E50003FF405AF012002B0BDE8F081A068012871
:102E600008D0052840F0AA80D6F8900040F0040071
:102E7000C6F89000D6F8900040F00100C6F8900027
:102E8000A9E000BFA169D6F89800002900F0808071
:102E900040F00100C6F89800FFF752FA054600BF5F
:102EA000D6F8980080073FF5E6AEFFF749FA401BD9
:102EB00002284FF00300F3D902B0BDE8F08100BF53
:102EC00020F00100C6F89400FFF73AFA054600BF6B
:102ED000D6F8940080077FF5C6AEFFF731FA401BA5
:102EE0000228F5D985E000BF3168002821F480313F
:102EF0003160316821F48021316000F07F80FFF77C
:102F00001FFA0546306880033FF5A6AEFFF718FAB2
:102F1000401B6428F6D96CE020F480703060FFF725
:102F20000FFA0546306840057FF599AEFFF708FABD
:102F3000401B02284FF00300F4D9BDE7306820F0B1
:102F400080703060FFF7FCF9022D05460CD100BF00
:102F50003068800140F17E80FFF7F2F9401B0228C3
:102F60004FF00300F4D9A7E73068800140F1B0804A
:102F7000FFF7E6F9401B02284FF00300F4D99BE766
:102F80007068216920F0FE4040EA0160706066E6EA
:102F900020F00100C6F89800FFF7D2F9054600BFFF
:102FA000D6F8980080077FF566AEFFF7C9F9401B99
:102FB00002284FF00300F3D97EE700BFD6F8901047
:102FC00021F00101C6F89010D6F8901021F004010C
:102FD000C6F8901010B3FFF7B3F9054641F28837F1
:102FE000D6F8900080072BD4FFF7AAF9401BB8420F
:102FF000F6D9032002B0BDE8F08100BFFFF7A0F9C9
:10300000054600BF306880037FF526AEFFF798F9CC
:10301000401B64284FF00300F4D94DE7FFF790F907
:10302000054641F2883700BFD6F89000800707D5E3
:10303000FFF786F9401BB8424FF00300F4D93BE795
:10304000B8F1000F7FF413AEB06D20F08050B06582
:103050000DE600BFF06848F20C01C0F29F1104F1C8
:10306000200700EA010C8ECF6FF00F00D4E90C545A
:1030700000EB02100022CFF6E07241EA0C0102EAF6
:1030800005520843A2F500124FF07E4540EA0320A6
:1030900005EA0465104305F17E4540EAC760284310
:1030A000F060306840F080703060F06840F0807010
:1030B000F060FFF745F90446306880010FD4FFF750
:1030C0003FF9001B02284FF00300F5D9F4E600BFDA
:1030D000F0684FF6FC71CFF6EE610840F06000201A
:1030E00002B0BDE8F0810000002804BF0120704755
:1030F000B0B50446406A28B10020206104F11400F4
:1031000006E000BF6068B0F5827F03D004F11C00C8
:10311000002101600025A56294F85D0020B92046D9
:1031200084F85C5000F052F8022084F85D002068BA
:10313000D4F80CE00268BEF5E06F22F040020260B5
:103140004EF4006298BF0125B2F5706F1CBF0023DA
:10315000A3624FEA053CD4E90135D4E9042103F424
:10316000827305F404452B4402F002021A44A36959
:1031700001F00101E569114403F40072114405F006
:103180003802256A114405F08002A56A114405F44D
:103190000052114301600421626A0EF4706501EA75
:1031A0001341636B45EA0C0502F01002294303F05A
:1031B0000803114319434160C16921F40061C161F1
:1031C00000200121206684F85D10B0BD80B586B076
:1031D000006843F60001C4F20001884202D006B044
:1031E00080BD00BF41F24C00C4F20200C16841F44E
:1031F0008041C160C16801F4804101910199016879
:1032000041F002010160006801A900F00200019094
:1032100001984FF460400190022002900020CDE917
:1032200003000520059040F20040C4F60000FEF7C0
:10323000ABFF06B080BD00002DE9F04381B01E4613
:1032400015460F460446FFF77BF894F85D1081465B
:1032500001290DD06068B0F5827F15D1A0680028E3
:103260004FF0020008BF042902D001B0BDE8F0838E
:10327000002F4FF0010018BF002DF6D0002EF4D023
:1032800094F85C00012803D1022001B0BDE8F0836E
:10329000012084F85C0094F85D0004281CBF052020
:1032A00084F85D00002020662564A4F84660A4F838
:1032B0004460A763E687C4E913002068A687E16835
:1032C0004268B1F5E06F22F48052134698BF03F5CF
:1032D0008053012E88BF134643600268520603D410
:1032E000026842F0400202606268731EB2FA82F223
:1032F000B3FA83F3DDF8208052095B09B1F5E06F82
:1033000043EA02016CD931B137F8021BC160A763EF
:10331000E08F0138E087012518F1010035D101E087
:10332000FFF70EF8E08F20B9B4F84600002800F04F
:10333000CD802068816889070CD5E18F51B1012DBE
:1033400008D1A16B002531F8022BC260A163E18F87
:103350000139E1878168C907E2D0B4F84610002935
:10336000DED0C068216C012521F8020B2164B4F87D
:1033700046000138A4F84600D2E700BFFEF7E0FFA0
:10338000A0EB0900404580F09780E08F20B9B4F8A9
:103390004600002800F09A802068816889070CD5D3
:1033A000E18F51B1012D08D1A16B002531F8022B1D
:1033B000C260A163E18F0139E1878168C907DDD06F
:1033C000B4F846100029D9D0C068216C012521F835
:1033D000020B2164B4F846000138A4F84600CDE79A
:1033E00089B1E18F02294FF6FE7103D337F8022B22
:1033F000C26004E03A7801310273A06B471CA763F6
:10340000E08F0844E087012608F10105E08F18B934
:10341000B4F84600002859D020688168890719D57A
:10342000E18FB9B1012E15D1E28FA16B022A07D32A
:1034300031F8022BC260A163E18F023908E000BFBE
:1034400009780173A16B20680131A163E18F013913
:103450000026E1878168C90726D0B4F8461019B361
:10346000B4F84610022913D3C168226C22F8021B5B
:103470002264B4F846100239A4F84610B4F8461095
:10348000012910D8416841F4805141600BE000BF30
:10349000007B216C0870206C01302064B4F8460079
:1034A0000138A4F846000126FEF74AFF002DADD0F2
:1034B000A0EB09004045A9D3012084F85D0000205D
:1034C00084F85C00032001B0BDE8F08320464FF48F
:1034D000C05142464B4600F023FE68B920464146A3
:1034E0004A4600F0E1FE38B920464FF4C06142463A
:1034F0004B4600F015FE68B1206E40F020002066BB
:1035000020202066002084F85C00012001B0BDE886
:10351000F08300BF012084F85D00002084F85C0087
:10352000206E002818BF012001B0BDE8F083000024
:10353000411E0020B0EB116F1CBF012070474EF2FE
:103540001002CEF2000251604EF62351CEF200017D
:10355000F0230B70072190601160704770470000E6
:103560007047000070470000B0B590F83C20012A79
:1035700004BF0220B0BDD1E90232D1E900CE22F46D
:103580007C5223F4705343EA020448F2FF73CEF6F0
:10359000F0730EEA0302224303F5006404EA0C040C
:1035A00042EA040C0C6903F5C05222404C6942EA1D
:1035B0000C02224303F5605422400C6B03F5F043E8
:1035C00023401A438B6940F2000CCC69CEF6FF7C95
:1035D0000CEA03431443D0F800C043F20042C4F2A3
:1035E0000102944543EA040305D042F60042C4F2C6
:1035F0000102944516D14FF6FF72CDF60F421A40E4
:10360000D1E9083ED1E90A410025CDF6F04505EAA9
:103610000454224323F008531A432EF000531A4354
:1036200042EA01030021CCF8443080F83C100846FF
:10363000B0BD0000704700007047000070470000F8
:1036400070B590F83C20012A4FF0020247D080F874
:103650003D20026843F2004C54689368C4F2010CA8
:1036600042F6004E6245C4F2010E01D0724503D10C
:103670004D6824F470042C434FF68F75CFF6FF5538
:103680000E682C4042F6FF35C4F201053443AA42CD
:1036900054600FDCB2F1804F16D040F20046C4F205
:1036A0000006B24210D040F60006C4F20006B24254
:1036B0000AD00EE0724507D044F20006C4F20106BB
:1036C000B24201D0624504D1896823F080031943D6
:1036D00091600121002280F83D1080F83C201046C6
:1036E00070BD000041B1082910D0042914BF00F1B9
:1036F000470200F145020BE090F84420012A1CBF6C
:1037000001207047022280F8442013E000F14602B5
:103710001278012A1CBF012070470222082907D015
:10372000042914BF80F8472080F8452002E000BF3C
:1037300080F84620026801F00F000421136A01FAA4
:1037400000F023EA00011162116A08431062506C14
:1037500042F6FF31C4F2010140F400408A42506455
:1037600010DCB2F1804F1FD040F20040C4F20000E4
:10377000824219D040F60000C4F20000824213D009
:103780001FE000BF42F60040C4F2010082420BD0AD
:1037900044F20000C4F20100824205D043F200402E
:1037A000C4F2010082420CD190680721C0F20101ED
:1037B000014006294FF0000008D0B1F5803F08BF56
:1037C0007047106840F00100106000207047000052
:1037D0007047000070470000F0B581B004460068F3
:1037E000C5680669B10717D515F0020114D06FF04E
:1037F00002010161012121778069800704D0204600
:10380000FFF7E8FF06E000BF204600F02DF9204654
:1038100000F06AFB00202077700719D515F004002E
:1038200016D020686FF004010161022121778069C0
:1038300010F4407F04D02046FFF7CCFF06E000BF25
:10384000204600F011F9204600F04EFB00202077C2
:10385000300717D515F0080014D020686FF0080164
:10386000016104212177C069800703D02046FFF75A
:10387000B1FF05E0204600F0F7F8204600F034FBE9
:1038800000202077F00619D515F0100016D020681A
:103890006FF01001016108212177C06910F4407FA9
:1038A00004D02046FFF796FF06E000BF204600F058
:1038B000DBF8204600F018FB00202077F00718BF47
:1038C00015F0010006D020686FF00101016120466B
:1038D00000F0D0FB16F4025F05F0800718BF002F40
:1038E00002D1F00509D410E020686FF402510161A3
:1038F0002046FFF735FEF00507D537B120686FF495
:10390000807101612046FFF729FE700609D515F088
:10391000400006D020686FF040010161204600F0B1
:10392000ABFBB00609D515F0200006D020686FF07B
:10393000200101612046FFF715FEF00209D515F4BC
:10394000801006D020686FF4801101612046FFF7D7
:1039500073FEB00209D515F4001006D020686FF48C
:10396000001101612046FFF765FE700209D515F4CC
:10397000800006D020686FF4800101612046FFF7C7
:103980005DFE30020CD515F4000009D021686FF4FB
:10399000000220460A6101B0BDE8F040FFF718BF01
:1039A00001B0F0BD2DE9F04186B0006842F600415B
:1039B000C4F20101884203D006B0BDE8F08100BF27
:1039C00041F24C00C4F20200016840F2004841F0AC
:1039D000040101600168C4F6000801F004010191CE
:1039E0000199016801AD41F00201016001680624FE
:1039F00001F00201019101990168022641F00101E3
:103A000001600068002700F001000190019808F5AE
:103A10008060294601940296CDE903770596FEF76A
:103A2000B3FB012001A9C1C140462946CDE9047478
:103A3000FEF7AAFB4FF4106001A9C1C14FF09040FE
:103A40002946CDE90474FEF79FFB4FF4007001A9ED
:103A5000C1C10C200590404629460497FEF794FB0F
:103A600006B0BDE8F0810000704700002DE9F0418C
:103A700090F83C30012B04BF0220BDE8F0814FEAF2
:103A8000B202052A00F28A81DFE812F00600500037
:103A9000A400F8004C01900103681D6A1A6AA3F1A2
:103AA000804622F001021A621A465C6852F818CF6A
:103AB0008F68A6F59636D1F800E025F002054FEAAA
:103AC000B626072E45EA07050AD80127B74017F0A2
:103AD000E50F1FBFCF6825F00C0527F004073D4315
:103AE000072E0BD8012707FA06F616F0E50F1FBFC1
:103AF00024F44074D1E9056734433C434FF68C7697
:103B0000CFF6FE760CEA060747EA0E075C609F6177
:103B10004F6809695F631D629F6947F008079F61ED
:103B20009F6927F004079F617DE100BF036843F2AE
:103B300000461D6A1A6AC4F2010622F010021A62D7
:103B40001A46D3F804C052F8188FB3428E68D1F8E1
:103B500000E025F0200545EA061505D042F60046AE
:103B6000C4F20106B34207D1CE686FF0400725F0DA
:103B7000C00507EA06163543A3F18046A6F596363A
:103B80004FEAB626072E0CD8012707FA06F616F0DC
:103B9000E50F1FBFD1E905672CF44064374344EAC1
:103BA000870C48F6FF44CFF6FF6404EA080444EAB1
:103BB0000E27C3F804C09F614F6809699F631D62A7
:103BC0009F6947F400679F619F6927F480679F6141
:103BD00028E100BF036843F200461D6A1A6AC4F276
:103BE000010622F480721A621A46D3F804C052F811
:103BF0001CEFB3428E68D1F8008025F4007545EAC9
:103C0000062505D042F60046C4F20106B34207D1AC
:103C1000CE6840F2FF47360225F44065BE43354387
:103C2000A3F18046A6F596364FEAB626072E0CD8A5
:103C3000012707FA06F616F0E50F1FBFD1E9056761
:103C40002CF44054374344EA071C4FF68C74CFF6EB
:103C5000FE740EEA040747EA0807C3F804C0DF61F0
:103C60004F680969DF631D62DF6947F00807DF619C
:103C7000DF6927F00407DF61D5E000BF036843F286
:103C800000461D6A1A6AC4F2010622F480521A62C2
:103C90001A46D3F804C052F81C8FB3428E68D1F88C
:103CA00000E025F4005545EA063505D042F6004609
:103CB000C4F20106B34207D1CE6844F6FF7736035B
:103CC00025F44045BE433543A3F18046A6F596361C
:103CD0004FEAB626072E0CD8012707FA06F616F08B
:103CE000E50F1FBFD1E905672CF44044374344EA90
:103CF000871C48F6FF44CFF6FF6404EA080444EA50
:103D00000E27C3F804C0DF614F6809691F641D6294
:103D1000DF6947F40067DF61DF6927F48067DF61EF
:103D200080E000BF0368D3F820C01A6AA3F180477F
:103D300022F480321A621A46A7F596375D6852F867
:103D4000508FD1F800E08E684FEAB727072F09D8C7
:103D50000124BC4014F0E50F1EBF4C6925F48035EA
:103D600045EA04252CF4003747EA06474FF68C76DF
:103D7000CFF6FE76033606EA080646EA0E065D60D2
:103D80001E654E6809699E641F621F6D47F0080733
:103D90001F651F6D27F004071F6544E00121002205
:103DA00080F83C200846BDE8F08100BF0368D3F8E6
:103DB00020C01A6AA3F1804722F480121A621A46C0
:103DC000A7F596375D6852F8508FD1F800E08E68FD
:103DD0004FEAB727072F09D80124BC4014F0E50F9C
:103DE0001EBF4C6925F4802545EA84252CF4001774
:103DF00047EA065748F6FF46CFF6FF6606F54076D7
:103E000006EA080646EA0E265D601E654E680969E8
:103E1000DE641F621F6D47F400671F651F6D27F486
:103E200080671F6509021368194311600021002291
:103E300080F83C200846BDE8F0810000002804BF5F
:103E40000120704710B5044690F83D0028B90020C5
:103E500084F83C00204600F023F8022084F83D005E
:103E60002068211D00F09CFA012084F8480084F8A5
:103E70003E0084F83F0084F8400084F8410084F854
:103E8000420084F8430084F8440084F8450084F834
:103E9000460084F8470084F83D00002010BD000073
:103EA00080B582B0006842F60041C4F20101884248
:103EB0001CBF02B080BD41F26000C4F20200016884
:103EC000002241F4006101600068002100F40060FC
:103ED000019001981820FEF7ABFA182002B0BDE857
:103EE0008040FEF791BA00007047000061B10A1FE0
:103EF0004FEAB202032A11D8DFE802F00214181CBC
:103F000000F13F0318E000BF90F83E20012A1CBFDB
:103F100001207047022280F83E202CE000F143038C
:103F20000AE000BF00F1400306E000BF00F14103DA
:103F300002E000BF00F142031B78012B1CBF0120EF
:103F40007047032A08D8DFE802F0030B0F1300BF05
:103F5000022280F83F200EE0022280F843200AE08F
:103F6000022280F8402006E0022280F8412002E090
:103F7000022280F84220026801F01F010120136A2A
:103F800000FA01F18B431362136A0B43A2F18041E3
:103F9000A1F596314FEAB1210629136244D8884031
:103FA00010F0650F40D0506C42F6FF31C4F20101B1
:103FB00040F400408A42506410DCB2F1804F1FD0C0
:103FC00040F20040C4F20000824219D040F60000E6
:103FD000C4F20000824213D01FE000BF42F600404E
:103FE000C4F2010082420BD044F20000C4F201008E
:103FF000824205D043F20040C4F2010082420CD15B
:1040000090680721C0F20101014006294FF000002D
:1040100008D0B1F5803F08BF7047106840F001003C
:1040200010600020704700BF42F6FF30C4F201006C
:104030008242C2DD43F6FF70C4F20100824207DC17
:1040400042F60040C4F201008242D3D1D8E700BF5B
:1040500044F20000C4F201008242D1D044F60000D4
:10406000C4F20100824202BF506C40F40040506430
:10407000D3E70000704700007047000010B5D8B1CA
:104080000446D0F8880028B9002084F8840020462F
:1040900000F026F82420C4F888002068A16A02688D
:1040A00022F00102026011B1204600F007FA20461A
:1040B00000F030FB012801D1012010BD21684868C3
:1040C00020F490404860886820F02A0088600868E2
:1040D00040F0010220460A60BDE8104000F062BADC
:1040E00070470000FEE7000048F200020B68C4F2CF
:1040F0000002C0E900230C2242614A894B68026138
:104100000A898989836081614FF40041C260C1617D
:10411000FFF7B4BFFEE70000FEE7000070470000B5
:104120002DE9F04782B000261F4690460D46814695
:104130008DF80360FEF704F9381A00EB0807FEF764
:10414000FFF840F20801C2F200010968232251433E
:10415000090DD9F8004079430191A168294271D035
:10416000824618F1010037D0B5F5C06F1CD100BFF1
:10417000207B8DF803009DF80300FEF7E1F8A0EB2B
:104180000A00B84262D2019801990028A1F1010108
:104190000191D9F80010896808BF074611F4C06F73
:1041A000E6D100264EE000BFFEF7CAF8A0EB0A00F9
:1041B000B8424BD2019801990028A1F10101019167
:1041C000D9F80010896808BF07462942ECD10026BB
:1041D000304602B0BDE8F0870026B5F5C06F25D1A6
:1041E000207B8DF803009DF80300A06810F4C06FD9
:1041F000EDD0207B8DF803009DF80300A06810F43B
:10420000C06FE4D0207B8DF803009DF80300A06808
:1042100010F4C06FDBD0207B8DF803009DF8030005
:10422000A06810F4C06FDBD10CE000BFA06828428A
:10423000CDD0A0682842CAD0A0682842C7D0A068C4
:104240002842F3D1304602B0BDE8F087D9E9000139
:104250004268B1F5827F22F0E00242600BD1D9F8CA
:104260000810B1F5004F02D0B1F5806F03D101689D
:1042700021F040010160D9F82810B1F5005F07D1A5
:10428000016821F400510160016841F400510160AE
:10429000012089F85D00002089F85C000326304683
:1042A00002B0BDE8F0870000F0B581B015460E46BB
:1042B0000446FEF745F8281A8719FEF741F840F240
:1042C0000801C2F200010968C1F3CB3179430091C2
:1042D00021688A68120622D50546701C15D000BFD9
:1042E000FEF72EF8401BB8421CD200980099002817
:1042F000A1F1010100912168896808BF07460806FD
:10430000EED40CE08868000609D58868000606D55A
:104310008868000644BF88685FEA0060F2D4002025
:1043200001B0F0BDD4E900014268B1F5827F22F00E
:10433000E00242600AD1A168B1F5004F02D0B1F5A8
:10434000806F03D1016821F040010160A16AB1F5DD
:10435000005F07D1016821F400510160016841F458
:1043600000510160012084F85D00002084F85C00A9
:10437000032001B0F0BD000070470000FDF7E6BF6C
:104380004EF68850CEF20000016841F470010160E1
:104390007047000040F28000C2F20000FFF71CBA34
:1043A00080B540F2FF7C0268C4F2000C604521DD5C
:1043B00040F60003C4F20003984224D043F20043C5
:1043C000C4F2010398421ED042F60043C4F2010336
:1043D000984218D043F2FF33C4F2010398421CDC28
:1043E000604529DCB0F1804F3CD040F20043C4F27C
:1043F000000335E0B0F1804F05D040F20043C4F235
:1044000000039842E6D14B6822F070021A4343F24F
:10441000FF33C4F201039842E2DD44F2FF33C4F2F9
:104420000103984212DC43F20043C4F201039842B4
:1044300018D044F2000311E040F60003C4F2000378
:1044400098420FD042F6004308E000BF44F6000354
:10445000C4F20103984205D044F20043C4F20103C0
:10446000984203D1CB6822F440721A434B6922F080
:10447000800E8A6843EA0E03D1F800C00360C2626E
:10448000A0F18042A2F596324FEAB222072AC0F884
:1044900028C007D8012303FA02F212F0E50F1CBF6F
:1044A00009690163012141610169C90708BF80BD34
:1044B000016921F00101016180BD000080B5816AC0
:1044C0000A070DD4CA0716D18A071FD44A0728D471
:1044D000CA0631D48A063AD44A0658D542E000BF0B
:1044E0000268D0F838C0536823F4004343EA0C0351
:1044F0005360CA07E8D00268D0F82CC0536823F490
:10450000003343EA0C0353608A07DFD50268D0F812
:1045100030C0536823F4803343EA0C0353604A07E6
:10452000D6D50268D0F834C0536823F4802343EA18
:104530000C035360CA06CDD50268D0F83CC093681E
:1045400023F4805343EA0C0393608A06C4D50268BF
:10455000D0F840C0936823F4005343EA0C039360FF
:104560004A0614D50268D0F844C05368BCF5801FD1
:1045700023F4801343EA0C03536008D1D2F804C03B
:10458000D0F848E02CF4C00343EA0E035360090658
:1045900058BF80BD0168C06C4A6822F400221043F5
:1045A000486080BDB0B582B004460020C4F89000D9
:1045B000FDF7C6FE216805460A68120737D56FF079
:1045C0007E4C20464FF4001100222B46CDF800C04F
:1045D00000F0F2F950B300BF206850E8000F2168E6
:1045E00020F0800041E80002DAB1206850E8000FB6
:1045F000216820F0800041E8000292B1206850E874
:10460000000F216820F0800041E800024AB12068D4
:1046100050E8000F216820F0800041E80002002AE5
:10462000DAD12020C4F8880060E000BF2168086863
:10463000400761D56FF07E4C20464FF48001002288
:104640002B46CDF800C000F0B7F9002854D000BFC9
:10465000206850E8000F216820F4907041E80002C3
:10466000E2B1206850E8000F216820F4907041E822
:1046700000029AB1206850E8000F216820F4907081
:1046800041E8000252B1206850E8000F216820F490
:10469000907041E80002002ADAD100BF206850E89B
:1046A000020F216820F0010041E80202DAB120681F
:1046B00050E8020F216820F0010041E8020292B1A7
:1046C000206850E8020F216820F0010041E8020252
:1046D0004AB1206850E8020F216820F0010041E84B
:1046E0000202002ADAD12020C4F88C000320002125
:1046F00084F8841002B0B0BD2020C4F88800C4F84B
:104700008C000020E0662067002184F8841002B04D
:10471000B0BD000070B5054605F108041ECC006868
:10472000194341EA0403EE69046846F6F311CCF636
:10473000FF712140194331430160416848F2000C88
:1047400021F4405111434160AA69C4F2000C604554
:104750001CBF296A0A4381684FF2FF43C1F2FF136D
:10476000194011438160C16AD5F824E021F00F019E
:1047700041EA0E01C16244F6FF31C4F200018842F1
:104780004FF0100314DD44F60041C4F200018842EA
:1047900022D0604528D043F60001C4F201018842CE
:1047A00038D141F28801C4F202010B687EA22DE0EB
:1047B00044F20041C4F2000188421DD044F60001D9
:1047C000C4F20001884225D141F28801C4F20201FD
:1047D00009680B0916E000BF41F28801C4F202012A
:1047E00009688B090EE000BF41F28801C4F20201A2
:1047F00009688B0A06E000BF41F28801C4F2020199
:1048000009688B0845F63C42C0F6000203F003013C
:1048100052F82130604542F20040C0F2F40015D059
:10482000B6F5004F24D1082B4FF0010100F2B38000
:10483000DFE803F0065E6CB164B1B1B16A0000BF9D
:10484000FEF790F9002856D15CE000BF082B4FF02E
:10485000010100F2A080DFE803F0059E259E1D9E69
:104860009E9E2300FEF77EF9C0B1D5F824E019E042
:10487000082B4FF0010100F28E80DFE803F00565A0
:10488000738C6B8C8C8C7100FEF76CF900285ED1F8
:1048900064E000BFFEF792F90028E6D100217AE03B
:1048A0004FF4004045F62441C0F6000131F81E10D7
:1048B0006A68B0FBF1F002EB420188424FF001015F
:1048C00069D31303984266D8010E000210EB520020
:1048D00041F100010023FBF7EFFC4FF60052A0F579
:1048E0004071C0F20F0291424FD3012153E000BF4B
:1048F000FEF74EF930B1D5F824E007E0FEF75EF997
:104900000028F8D1002146E04FF4004045F624414C
:10491000C0F6000131F81E106A68B0FBF1F05108D2
:1049200001EB4000B0FBF2F04FF6EF72A0F1100186
:10493000914207D84FF6F0710140C0F3420008449D
:1049400023E000BF012126E0FEF722F930B1D5F8BF
:1049500024E007E0FEF732F90028F8D100211AE040
:104960004FF4004045F62441C0F6000131F81E1016
:104970004FF6EF72B0FBF1F0696800EB5100B0FB4D
:10498000F1F0A0F11001914204D82968C86000211B
:1049900001E000BF01214FF00110A8660022084687
:1049A0006A67AA6770BD00BF010000000400000034
:1049B00002000000080000002DE9F0418046006878
:1049C0001546C2690E461140891BB1FA81F14909A9
:1049D000A94223D1069C2CB3611C29D1C169314065
:1049E000891BB1FA81F14909A94217D1C169314046
:1049F000891BB1FA81F14909A9420FD1C16931403E
:104A0000891BB1FA81F14909A94207D1C169314035
:104A1000891BB1FA81F14909A942DFD00020BDE824
:104A2000F08100BFFDF78CFC0320BDE8F08100BFE2
:104A30001F4607E0C0693040801BB0FA80F0400993
:104A4000A842EBD1FDF77CFCC01BA04200F2AE8077
:104A5000D8F8000001684907ECD5402EEAD0802E36
:104A6000E8D0C169090700F1A580C1690905E1D550
:104A70004FF400610162D8F8000050E8000FD8F848
:104A8000001020F4907041E800020AB3D8F800004A
:104A900050E8000FD8F8001020F4907041E80002B0
:104AA000B2B1D8F8000050E8000FD8F8001020F498
:104AB000907041E800025AB1D8F8000050E8000FA9
:104AC000D8F8001020F4907041E80002002AD2D1FA
:104AD0004FF6FE70CEF6FF70D8F8001051E8021FB6
:104AE000D8F80020014042E80213F3B1D8F80010D2
:104AF00051E8021FD8F80020014042E80213A3B198
:104B0000D8F8001051E8021FD8F80020014042E810
:104B1000021353B1D8F8001051E8021FD8F8002052
:104B2000014042E80213002BD6D1D8F86C000128CE
:104B30002CD1D8F8000050E8000FD8F8001020F071
:104B4000100041E800020AB3D8F8000050E8000F56
:104B5000D8F8001020F0100041E80002B2B1D8F8F7
:104B6000000050E8000FD8F8001020F0100041E8D5
:104B700000025AB1D8F8000050E8000FD8F8001031
:104B800020F0100041E80002002AD2D120200021AC
:104B9000C8F88C00C8F86C10C8F87410C8F89000F9
:104BA000032088F88410BDE8F08100BF0320BDE831
:104BB000F08100BF08210162D8F8000050E8000F22
:104BC000D8F8001020F4907041E800020AB3D8F839
:104BD000000050E8000FD8F8001020F4907041E871
:104BE0000002B2B1D8F8000050E8000FD8F8001069
:104BF00020F4907041E800025AB1D8F8000050E863
:104C0000000FD8F8001020F4907041E80002002A4C
:104C1000D2D14FF6FE70CEF6FF70D8F8001051E8F2
:104C2000021FD8F80020014042E80213F3B1D8F87F
:104C3000001051E8021FD8F80020014042E802139A
:104C4000A3B1D8F8001051E8021FD8F800200140A5
:104C500042E8021353B1D8F8001051E8021FD8F807
:104C60000020014042E80213002BD6D1D8F86C0096
:104C700001282CD1D8F8000050E8000FD8F8001017
:104C800020F0100041E800020AB3D8F8000050E814
:104C9000000FD8F8001020F0100041E80002B2B177
:104CA000D8F8000050E8000FD8F8001020F01000ED
:104CB00041E800025AB1D8F8000050E8000FD8F8D7
:104CC000001020F0100041E80002002AD2D120207C
:104CD000C8F88C0000200821C8F86C00C8F87400DF
:104CE000C8F8901088F884000120BDE8F081000029
:104CF000FEE70000C16170472DE9F04381B02DED62
:104D0000028B8EB040F2CC05C2F20005002740F2C3
:104D1000CC446F60C2F200049FED358A216905F131
:104D20002406DFED340A9FED341A3046B0EE480A0F
:104D3000052201234FF005094FF0010800F0FAF8B1
:104D40000835B3EE040A2846F0EE480A00F0BEF932
:104D500044F20000C4F21C60009049F69A10C4F2BC
:104D60000900019041F26F20C3F60330CDE902073C
:104D700046F26660CBF6E660059046F26660C3F6E2
:104D8000E66004900020C4F2600006904DF20A70C4
:104D9000C3F62340CDE9070749F69A10CBF6197000
:104DA0000A9049F69A10C3F6197009900020CCF2C7
:104DB00016300C900020C4F216300B906946204645
:104DC0006661CDF8349000F049F84CF6CD40C3F65A
:104DD0004C602561C4E93300C4E94088C4E94287D6
:104DE000C4E944770EB0BDEC028B01B0BDE8F0839E
:104DF00000401C4600400845000016430022C0E960
:104E0000002170479FED061A30EEA02A22EE011A0B
:104E100081EE000A0021416080ED000A704700BF6A
:104E2000DA0F494020EEA12A80EE022A20EE213A34
:104E3000002123EE011ACBF68071002300F1100C43
:104E400080ED010A80ED031A4FF07E5203608CE87A
:104E50000E00C36180ED022A70470000B0B50D4618
:104E6000F1EC011A044691EC030A2030FFF7DAFF57
:104E7000D5E90410C4E90C01281DD5ED001A90EC09
:104E8000030A04F14000FFF7CDFFD5E90410C4E99F
:104E9000140105F11800D5ED003A90EC070A696B92
:104EA00004F1600000F07EF804F194007021FBF73B
:104EB000BBFA01200021C4E94101C4E94311C4F84F
:104EC0001411B0BD0123934001EE103AB8EEC11A9F
:104ED000B7EE002A82EE011A0023C0ED040A80ED2D
:104EE000050AC0E90031826080ED031A70470000B6
:104EF0000023C0E90033C0E90232C0E90413C0E96D
:104F00000633704780EE200A31EE612A002181606D
:104F1000C0ED001A80ED011A82EE000A80ED030A4E
:104F2000704700000021C0ED010A80ED020A016017
:104F30007047000070B5BDEEE02A144612EE102A4C
:104F400048F6890672439FED162AB4EB125F88BFBC
:104F5000140D03EE104A20EE022AB8EE433A82EE18
:104F6000032A04EE103AB8EE444A80EE030A0646DD
:104F70000020B060306006F110000D4682EE042A79
:104F800082EE202AF0EE410A86ED032AFFF73AFF6F
:104F900006F118002146FFF731FF756070BD00BFB4
:104FA00000007042B0B52DED0C8B82EEA34A83EE6B
:104FB000233AB0EE60CAB0EE40DA05462830B0EED3
:104FC000638A0C46B0EE429AB0EE61AAB0EE41BAE6
:104FD000B0EE440AF0EE430AFFF7A4FF05F120000B
:104FE0002146FFF70BFF2CEE080A8DEE000A2DEE8E
:104FF000081A21EE0B1A00202860C5E9060085ED8D
:1050000001DA85ED031A85ED049A85ED05AA85ED93
:10501000020ABDEC0C8BB0BD0123934001EE103AA7
:10502000B8EEC11AB7EE002A82EE011A0023C0E9D9
:105030000033C0E902310261C0ED060AC0ED070A83
:10504000C0ED080A80ED090A80ED0A0A80ED0B0A1E
:1050500080ED051A7047000080B500F04BF848F26B
:105060001F51C5F2EB11A0FB0101480900EE100A27
:1050700040F20C00C2F200009FED131A0168B8EE76
:10508000C00A20EE010ABFEE001A002940F2CC410E
:1050900030EE010AC2F2000181ED370A08BF80BD7F
:1050A00040F2F811C2F20001D1E90B218A420AD97B
:1050B00040F2CC01C2F200010A68531C072A0B60BF
:1050C000A4BF0021016080BDCDCCCC3DB0EE402A14
:1050D0000022DFED071A014640F80C2BB7EE001A4C
:1050E000B0EE600AF0EE420A4A60FFF70BBF00BF65
:1050F00000000000FDF724B9704700007047000071
:10510000704700007047000080B5D0F800C0838869
:10511000CAB260461946FDF70DF9002080BD0000B7
:1051200010B582B08C461C464FF0010E9BB2114662
:105130006246CDF800E0FEF77FF8204602B010BDD1
:105140007047000098B0FDF70FF900240020CDE96A
:105150000544CDE90344CDE90144FDF7A5F94FF439
:10516000807103914021049104210220099155216D
:105170000090CDE90700CDE90A10CDE90C006846A2
:10518000FDF75CFD20B1EFF3108072B6FEE700BFC3
:105190000F200E904FF0030A0EA80421CDE90FA4B2
:1051A000CDE911444FF00408FDF752FB20B1EFF3B5
:1051B000108072B6FEE700BF002541F24C0704954F
:1051C000C4F20207386840F2004440F0040038603E
:1051D0003868C4F6000400F004000E900E98386899
:1051E0000A2140F0200038603868002200F02000DA
:1051F0000E900E9838680A2640F001003860386832
:1052000000F001000E900E98386840F002003860FF
:10521000386800F002000E900E982046FDF78AF8DC
:105220004FF00109694620460096CDE901950395A6
:10523000FCF7AAFF57F8040C002140F0040047F8DF
:10524000040C57F8040C002200F0040000900098B1
:1052500057F8040C40F0010047F8040C57F8040C10
:1052600000F00100009000980B20FDF7E1F80B2002
:10527000FDF7CAF80C2000210022FDF7D9F80C2018
:10528000FDF7C2F840F23420C2F200004FF0A04116
:105290004FF4403280E826004FF4A4614FF480625E
:1052A0001095CDE90E55CDE90655CDE90455CDE96A
:1052B0000255CDE90055C0E90355C0E9059885833D
:1052C000C0F820A080F82450C0E90B1280F8389074
:1052D000C56380F84050FCF73BFB28B1EFF310802A
:1052E00072B600BFFEE700BF40F23420C2F20000F9
:1052F0000EA90E95FBF728FB20B1EFF3108072B6D4
:10530000FEE700BF0220C0F23040009006207F215F
:1053100001900020039104210290CDE9041040F295
:105320003420C2F200006946FBF76EFB20B1EFF3B8
:10533000108072B6FEE700BF0420C0F66000009047
:105340000C20019040F23420C2F200006946FBF7C5
:105350005BFB28B1EFF3108072B600BFFEE700BF21
:1053600040F20020C2F2B05000901220019040F2B2
:105370003420C2F200006946FBF746FB20B1EFF390
:10538000108072B6FEE700BF40F2A02040F200118C
:10539000C2F20000C5F200014FF4403200240123A4
:1053A000042580E816004FF4A4614FF48062CDE933
:1053B0000644CDE90444CDE90244CDE90044C0E906
:1053C0000344C0E905358483056280F82440C0E9C0
:1053D0000B1280F83830C46380F84040FCF7B8FA0C
:1053E00020B1EFF3108072B6FEE700BF0820C0F6D0
:1053F000904000900620CDE901047F20CDE903050F
:1054000040F2A020C2F2000069460594FBF7FCFAC6
:1054100020B1EFF3108072B6FEE700BF1020C1F29A
:10542000C00000900C20019040F2A020C2F20000C9
:105430006946FBF7E9FA28B1EFF3108072B600BFB6
:10544000FEE700BF2020C1F2F04000901220019042
:1054500040F2A020C2F200006946FBF7D5FA18B16D
:10546000EFF3108072B6FEE74020C1F620100090E6
:105470001820019040F2A020C2F200006946FBF71C
:10548000C3FA18B1EFF3108072B6FEE743F60004DA
:1054900040F26840C4F20004C2F200004FF482718E
:1054A00000254FF4E06201264FF400733027C0E975
:1054B00000410721C0E90252C0E90456C0E906379D
:1054C000C0E90855C0E90A51C0E90C55FDF70CFECA
:1054D00020B1EFF3108072B6FEE700BF68463421BA
:1054E000FAF7A2FF04F5744140F27004C2F200041E
:1054F000204640F8101F202742F2341100F10C0220
:10550000C0E9015762C28561FEF798FC20B1EFF354
:10551000108072B6FEE700BF04F11005002615A941
:1055200028461597CDE91666FEF78AF820B1EFF305
:10553000108072B6FEE700BF7020CDE90E060EA9FE
:1055400028460022CDE91066CDE912661496FEF7D2
:105550008DFA18B1EFF3108072B6FEE70EA9284657
:105560000422FEF783FA18B1EFF3108072B6FEE75B
:105570000EA928460822FEF779FA18B1EFF3108039
:1055800072B6FEE700265520CDE903064FF4005021
:10559000CDE905064FF00070CDE9090669462846B9
:1055A000CDE900660296CDE90766CDE90B66FDF709
:1055B000DBFF18B1EFF3108072B6FEE72846FEF766
:1055C000F1F90020FBF720F900200121FBF74CF94D
:1055D0004FF4E130C4E9000600202146A660A68110
:1055E000FBF7BEF820B1EFF3108072B6FEE700BF04
:1055F000FFF788FD00F012F8FFF77EFDFFF77CFB58
:10560000FFF79EFDFFF77CFDFFF778FD00F004F843
:10561000FFF722FDF8E70000704700002DE9F04396
:1056200081B02DED048B0120FCF76EFD40F21014CB
:10563000C2F2000404F13C09B2EE048AB6EE009A0C
:1056400048462146B0EE480AF0EE490A0C221823DB
:10565000FFF738FC40F27C18C2F2000808F1480756
:1056600004F114013846B0EE480AF0EE490A0C2263
:105670001823FFF7D1FC9FED338A9FED339A04F195
:105680005406211D3046B0EE480AF0EE490A0C22BD
:105690001823FFF717FC40F2E455C2F2000504F1AD
:1056A00020012846B0EE480AF0EE490A0C221823E1
:1056B000FFF7B2FC40F2CC40C2F2000008F120013A
:1056C00001614146C0E90057C0E90269FFF712FBDA
:1056D0004046002142F23412FFF70AFC40F2342027
:1056E00004F10801C2F200000322FCF737FB40F28C
:1056F000A02004F12C01C2F200000422FCF72EFBD2
:1057000040F28004C2F2000420460021FEF7EEFBC6
:1057100020460421FEF7EAFB20460821FEF7E6FBBF
:1057200020460021FDF7DEFF20460421FDF7DAFFC9
:1057300020460821BDEC048B01B0BDE8F043FDF725
:10574000D1BF00BFCDCCCC3D00000000410008021D
:1057500018BF04200A0E18BF40F001004FF07F422E
:1057600032EA010108BF40F00200012808BF05200D
:105770007047000010EE101A08B5444A6846B2EBB4
:10578000410F28D94FF0E640B0EB410F94BF002005
:105790004FF0FF3000900098002861DB60EE000AB7
:1057A00010F0010F45D010F0020FDFED391A9FED18
:1057B000391A00EEA11ADFED381A40EE811A21EEF7
:1057C000A01AF0EE400A40EE010A08BFF1EE600AAE
:1057D000B0EE600A08BD314B21F0004293423CD943
:1057E00011F0004FDFED2E0A20EE201ADFED2D0A1A
:1057F00019BF31EE601A71EE200A31EE201A71EEF7
:10580000600ABDEEE01A11EE100A9FED271A00F0B3
:10581000030000EEC10A9FED251A009000EEC10AB8
:105820009FED231A00EEC10A9FED221A00EEC10A75
:10583000B1E79FED211A9FED210A10F0020F00EE53
:10584000810A9FED1F1A00EE801AB7EE000A00EEE3
:10585000810A18BFB1EE400A08BD00F00FF99AE7BF
:1058600010EE100A4000B0F17F4F3CBFB7EE000AC7
:1058700008BD07D14FF00100FAF705FEBDE808406A
:1058800000F0ECB8BDE8084000F0E4B8B61F927E26
:10589000336D4CB9DA82083CA0AA2ABE490E4946AB
:1058A00083F9223F0000004B0000C93F00A0FD39F2
:1058B0000020A2331A61342CB93AB2BACA9F2A3DE9
:1058C000DDFFFFBE00B510EE101A2DED028B81B08A
:1058D000524A6846B2EB410F2ED94FF0E640B0EB8A
:1058E000410F94BF00204FF0FF3000900098B0EEC1
:1058F000408A00286ADB10F0010F4BD068EE080ADE
:105900009FED471A9FED470A00EE810A9FED461A68
:1059100010F0020F00EE801AB7EE000A00EE810AC6
:1059200002BF01B0BDEC028B00BD00BF01B0B1EE03
:10593000400ABDEC028B00BD3C4B21F0004293427B
:1059400041D911F0004FDFED3A0A20EE201ADFEDC9
:10595000390A19BF31EE601A71EE200A31EE201AB1
:1059600071EE600ABDEEE01A11EE100A9FED321AD8
:1059700000F0030000EEC10A9FED301A009000EE27
:10598000C10A9FED2F1A00EEC10A9FED2E1A00EEFC
:10599000C10AABE728EE080A9FED2B1ADFED2B0AB0
:1059A00010F0020F40EE010A9FED291A00EE201AB6
:1059B00061EE000AB0EE480A08EE200AB6D101B046
:1059C000BDEC028B00BD00F059F88FE718EE100A0D
:1059D0004000B0F17F4F0DD218EE100AFFF7B6FE6F
:1059E000042808BF00F042F8B0EE480A01B0BDEC50
:1059F000028B00BD09D10120FAF745FD01B0BDECD5
:105A0000028B5DF804EB00F029B801B0B0EE480A53
:105A1000BDEC028B5DF804EB00F01CB8B61F927E63
:105A2000B93AB2BACA9F2A3DDDFFFFBE490E4946C8
:105A300083F9223F0000004B0000C93F00A0FD3960
:105A40000020A2331A61342C336D4CB9DA82083C41
:105A5000A0AA2ABE30EE000A70470000DFED020A5D
:105A600080EEA00A70470000000000009FED020ACF
:105A700020EE000A70470000000000102DE9F00140
:105A80004FF07F42B2EB410F9FBF4FF0FF310160FB
:105A9000BDE8F00170474FF0004242EA0123C1F334
:105AA000C752783A551112F01F0C434CCCF1200626
:105AB0007C44C1F3C752A2F178024FEA621204EBB0
:105AC000820254F8254008BFD2E9015612D0556829
:105AD00004FA0CF425FA06F73C43976805FA0CF52E
