:020000040800F2
:10000000300E002079020008FB2D0008BD280008F2
:10001000F92D00088D040008B53300080000000029
:10002000000000000000000000000000FF2D00089C
:100030008F04000800000000FD2D0008012E0008BC
:10004000930200089302000893020008930200083C
:10005000930200089302000893020008930200082C
:10006000930200089302000893020008930200081C
:10007000930200089302000893020008930200080C
:1000800093020008930200089302000893020008FC
:1000900093020008930200089302000893020008EC
:1000A00093020008930200089302000893020008DC
:1000B00093020008930200089302000893020008CC
:1000C00093020008930200089302000893020008BC
:1000D00093020008930200089302000893020008AC
:1000E000930200089302000893020008930200089C
:1000F000930200089302000893020008930200088C
:10010000930200089302000893020008930200087B
:10011000930200089302000893020008930200086B
:10012000930200089302000893020008930200085B
:10013000930200089302000893020008930200084B
:10014000930200089302000893020008930200083B
:10015000930200089302000893020008930200082B
:10016000930200089302000893020008930200081B
:10017000930200089302000893020008930200080B
:1001800093020008930200089302000893020008FB
:100190009302000800000000930200089302000888
:1001A00093020008930200089302000893020008DB
:1001B00093020008930200089302000893020008CB
:1001C00093020008930200089302000893020008BB
:1001D000930200089302000800F002F800F03CF8D7
:1001E0000AA090E8000C82448344AAF10107DA4592
:1001F00001D100F031F8AFF2090EBAE80F0013F0A8
:10020000010F18BFFB1A43F001031847D441000047
:10021000F4410000103A24BF78C878C1FAD85207D8
:1002200024BF30C830C144BF04680C607047000070
:100230000023002400250026103A28BF78C1FBD8EF
:10024000520728BF30C148BF0B6070471FB504F08C
:100250008DF81FBD10B510BD00F0E3F81146FFF793
:10026000F5FF04F02BF800F001F903B4FFF7F2FFFB
:1002700003BC00F005F90000094880470948004721
:10028000FEE7FEE7FEE7FEE7FEE7FEE7FEE7FEE746
:10029000FEE7FEE704480549054A064B70470000A3
:1002A0006D2E0008D901000830060020300E002015
:1002B000300800203008002053EA020C00F069806A
:1002C0002DE9F04B4FF00006002B1FBFB3FA83F56A
:1002D00003FA05F424FA05F65E4012BF1643B2FA9B
:1002E00082F502FA05F4C5F120051EBF22FA05FCCD
:1002F00044EA0C04203556EA044C4FEA144418BF73
:10030000641C4FF000084FF00009904271EB030CA1
:1003100039D3002919BFB1FA81F701FA07F6B0FA0B
:1003200080F700FA07F6C7F120071EBF20FA07FC86
:1003300046EA0C062037B6FBF4FCA7EB0507103F96
:1003400007F01F0BCBF120060CFA0BFB2CFA06F67C
:1003500044BFB3460026202FA4BF5E464FF0000BDB
:100360005BEA060C08BF4FF0010B19EB0B09ABFB66
:10037000027C48EB0608C01B06FB02CC0BFB03CC3F
:1003800071EB0C01C1E70B46024641464846BDE809
:10039000F08B13B54FF000004FF00001AFF3008079
:1003A000BDE81C4070474FF0000200B5134694466C
:1003B0009646203922BFA0E80C50A0E80C50B1F1BD
:1003C0002001BFF4F7AF090728BFA0E80C5048BFD1
:1003D0000CC05DF804EB890028BF40F8042B08BF6F
:1003E000704748BF20F8022B11F0804F18BF00F86B
:1003F000012B704770477047704710B500F00CF83C
:10040000006810BD10B5044600F006F8046010BD89
:1004100000487047CC05002000487047CC050020FC
:1004200070477546FFF7F4FFAE4605006946534630
:1004300020F00700854618B020B5FFF72BFFBDE878
:1004400020404FF000064FF000074FF000084FF03B
:10045000000B21F00701AC46ACE8C009ACE8C009CC
:10046000ACE8C009ACE8C0098D46704710B5044639
:10047000AFF300802046BDE81040FFF7F6BE000055
:1004800001491820ABBEFEE726000200FEE77047D8
:1004900072B6FEE72DE9F04F044690F858009BB085
:1004A0000F464FF0000B012812D0012084F85800AD
:1004B00000261796189620684FF0A048DFF81C9188
:1004C000DFF81CA1474D404506D12846009508E0BD
:1004D00002201BB0BDE8F08F48450AD15046CDF848
:1004E00000A002F0FAF90090206802F0F6F940B19D
:1004F00009E0E06D40F02000E06584F858600120DC
:10050000E7E7009850B1E06D40F02000E0654FF063
:10051000010B00BF84F858605846DAE7206841466E
:10052000884201D0A84201D12F4800E02F48D7F8D7
:1005300000C02F4B40F61F72BCF1000F2DD0D0F839
:1005400008C094F838802CF4604C4CEA483CD7F84A
:1005500004804CEA080CC0F808C0D4F800C08C45F0
:1005600001D0AC4504D18968AB6801F0010109E014
:10057000D9F80810DAF8085001F0010105F001057A
:100580009B68294303F001031943C3D1BB68396851
:1005900019438368934319431DE0876827F4604734
:1005A000876027688F4201D0AF4204D18968AB6869
:1005B00001F0010109E0D9F80810DAF8085001F05B
:1005C000010105F001059B68294303F0010319436C
:1005D000A0D18168914381609CE700000004005035
:1005E00000050050000100500003005000070050BB
:1005F000000600502DE9F84F00270446009790F8B8
:100600005800DFF81C840D46B946012811D0012698
:1006100084F85860206802F05CF960B1E06D40F049
:100620002000E0655FF0010784F858903846BDE887
:10063000F88F0220FBE7D5E900210C23206803EAAC
:1006400091131844036B01F01F014FF01F0C0CFABB
:1006500001FCC2F3846223EA0C038A401343036360
:10066000206802F036F98246206802F02EF95AEA34
:1006700000003CD1AA6829682068B2F1004F37D049
:1006800002F02FF92068416921F0004141612068A2
:100690006969C268C2F3C102520091402A69042A02
:1006A00031D000EB82002B68026EDFF878C303F0D4
:1006B000F84302EA0C020B431A4342F00041016680
:1006C00022682869A96902EB8000026E22F080721C
:1006D0000A430266297F22682869012910D0002177
:1006E00002EB8000026E22F000720A4302667DE097
:1006F000002202F0F6F82068416941F00041C5E7A8
:100700004FF00071ECE7002102F0D9F840032068B7
:100710004FF0000172D002F0D2F890FAA0F0B0FAD7
:1007200080F1286842036ED090FAA0F0B0FA80F011
:10073000814204D100221146206802F0E1F8012133
:10074000206802F0BCF8400320684FF001015DD042
:1007500002F0B5F890FAA0F0B0FA80F128684203F0
:1007600059D090FAA0F0B0FA80F0814204D1002272
:100770000121206802F0C4F80221206802F09FF8ED
:10078000400320684FF0020148D002F098F890FA38
:10079000A0F0B0FA80F12868420344D090FAA0F0AB
:1007A000B0FA80F0814204D100220221206802F0D8
:1007B000A7F80321206802F082F8400320684FF078
:1007C000030133D002F07BF890FAA0F0B0FA80F188
:1007D000286842032FD090FAA0F0B0FA80F081424E
:1007E00004D100220321206802F08AF82068816881
:1007F00011F0010F22D0ACE000E004E002F05FF85D
:10080000C0F384618DE7C0F3846091E702F057F88C
:10081000C0F38461A2E7C0F38460A6E702F04FF85A
:10082000C0F38461B7E7C0F38460BBE702F047F828
:10083000C0F38461CCE7C0F38460D0E72A7B2968E9
:1008400050F8B03FC1F3120C23EA0C0302F0180C6D
:10085000754A22FA0CF20A4013430360E9684145E5
:1008600077D1286841031CD090FAA0F1B1FA81F148
:10087000491C01F01F0109294FEA403132D80029F3
:1008800012D000BF90FAA0F1B1FA81F101F101019B
:1008900001F01F0106FA01F609D100BFC0F384611F
:1008A00009E0C0F38461E3E7C0F38461EEE790FA06
:1008B000A0F1B1FA81F101F1010101F01F0146EA55
:1008C000816102D1C0F3846003E090FAA0F0B0FA35
:1008D00080F000F1010000F01F0000EB400041EA51
:1008E000005132E000290ED090FAA0F1B1FA81F166
:1008F00001F1010101F01F0106FA01F606D100BF66
:10090000C0F3846106E0C0F38461F1E790FAA0F1DE
:10091000B1FA81F101F1010101F01F0146EA8161A3
:1009200002D1C0F3846003E090FAA0F0B0FA80F046
:1009300000F1010000F01F003C4A00EB400002EB18
:10094000005041EA000141F00071AA68206801F0FE
:10095000C8FF37482B6803423FF466AE21684FF06A
:10096000A04C3448344E354D614501D0A94201D1E7
:10097000024600E032469268DFF8C48002F0E0727E
:10098000434503D0DFF8BC80434521D15FEA02280C
:100990001ED4614506D02C4B99427FF445AEA94246
:1009A00000D0304642F40001826822F0E0720A432F
:1009B0008260264826490068B0FBF1F0401C00EB3D
:1009C0004000800000E0401E00900028FBD12BE694
:1009D000DFF8808043450FD15FEAC2180CD4A942EA
:1009E00002D11D4B9942F2D0614502D0A94200D0FC
:1009F000304642F080710CE0DFF860804345E6D17C
:100A00005302E4D4A942E2D0614500D0304642F41A
:100A10008001826822F0E0720A43826004E60000EE
:100A200000007F4000F0FF03FFFF0700000020FEF2
:100A30000000088000030050000700500001005033
:100A4000000021C31000C0900006005010000020DC
:100A5000400D0300000052C700050050000084CB89
:100A6000F8B54FF0000504002E46009502D0E06D69
:100A700010B107E00120F8BD204600F009F9266614
:100A800084F8586020688168C1F3407119B18168A9
:100A9000734A1140816020688168C1F3007189B98F
:100AA0008168704A114041F0805181606E486F4901
:100AB0000068B0FBF1F04000801C00E0401E009098
:100AC0000028FBD120688168C1F3007141B9E16D54
:100AD00041F01001E165216E41F00101216601251F
:100AE00001F0F7FEE16DC90600D430B1E06D40F0D1
:100AF0001000E06501252846F8BDE06D20F4807007
:100B000040F00200E0652068816811F0010F27D1F4
:100B10004FF0A043564A984201D0904204D19968C0
:100B2000966801F001010AE052498968524E01F0CD
:100B30000101B66806F001063143504EB66806F072
:100B4000010631430CD1984201D0904201D14C486A
:100B500000E04C486168826822F47C120A4382609B
:100B6000E168E06B627F0843A16841EA42310843D3
:100B700094F8241040EA0140012904D1218D424A11
:100B800002EB41410843E16A29B101F47871226B1B
:100B9000014342EA01002268D1683C4B19400143FD
:100BA000D16020680169626B21F0406111430161ED
:100BB000206801F08AFE70BB207F94F8381022680C
:100BC000800340EA4100D16844F2020399430143A3
:100BD000D16020690028206801690AD041F4803181
:100BE0000161206850F8C01F22696FF30D011143A5
:100BF00007E021F480310161206850F8C01F6FF3D5
:100C00000D01016094F8400001280CD020680169B2
:100C100021F001010161606901282068016B21F068
:100C20000F0111D013E0D4E911010843D4E91312E4
:100C30001143084321680A6940F2FC739A43104348
:100C400040F001000861E6E7226A521E1143016389
:100C5000E06D20F0020040F00100E0654BE700008D
:100C6000C0FFFF5FC0FFFF7F10000020400D0300AA
:100C70000001005000040050000500500006005024
:100C800000030050000700500000FEFF0740F0FF87
:100C90002DE9F0439BB00446142115A8FFF783FB10
:100CA00054216846FFF77FFB4FF40042206800267E
:100CB0009103444F0325444C4FF09049B0F1A04FAD
:100CC00012D0424BDFF80881984258D16846009212
:100CD000119100F0CFFD08B1FFF7DAFB3868401C36
:100CE0003860012821D028E068460092119100F078
:100CF000C1FD08B1FFF7CCFB3868401C3860012803
:100D000007D1E06C40F40050E064E06C00F4005067
:100D10001A90E06C40F00100E064E06C159500F082
:100D200001001A9015A9484649E0E06C40F40050D3
:100D3000E064E06C00F400501A90E06C40F00100B8
:100D4000E064E06C00F001001A90E06C40F00200FA
:100D5000E064E06C15A900F002001A90C02081E860
:100D60006100484600F060F915A9042081E861009F
:100D70004FEA080000F058F91BB0BDE8F0831549B0
:100D80008842F9D180010090C0031290684600F0BB
:100D900071FD08B1FFF77CFBE06C40F48040E0643B
:100DA000E06C00F480401A90E06C40F00200E064D7
:100DB000E06C159500F002001A9015A94046CDE9A7
:100DC0001656D7E700000020001002400001005036
:100DD00000040048000400502DE9F04790460D46FD
:100DE00004004FF0000A0FD075B1607901280ED0D1
:100DF0004FF0010984F8059002202071A96808F0DD
:100E00001006042905D04AE00120BDE8F087022041
:100E1000FBE700F033FA07465FEA08004FF00308EB
:100E200009D022E000F02AFAC01B012803D920686B
:100E3000406B000411D42068406B0004F2D4216898
:100E4000686A086418E000BF00F018FAC01B0128A7
:100E50000BD92068406B002807DA206940F00800B1
:100E6000206184F804800320CFE72068406B0028CD
:100E7000EADB2168686A48642068816C40F2FF32CE
:100E8000B2409143AA6AB240114381642068C16CA8
:100E9000FF22B2409143EA6AB2401143C164E8695B
:100EA000012808D12268916B1F20B0408143286A35
:100EB000B040084390632068C06B0721B14088436D
:100EC000A969012903D0022957D06969F1B300212A
:100ED0006B69AA681A430A434FF4807101FA06F35A
:100EE00098432B79012B00D0002111434FF400725D
:100EF00002FA06F398436B79012B00D0002220F40C
:100F00004047286842EA0108022838D057EA00071B
:100F1000216808FA06F03843C863206801684FF476
:100F20008042B240914301602268116840F6FE7031
:100F3000B0408143E868B040084310602068016811
:100F4000C022B24091430160287B00E015E0297C7B
:100F5000C0F3830001F03C0140EA811021680A6E71
:100F600040F60F73B3409A43B04002430A6684F8D8
:100F7000049000206071504647E70121A8E700F087
:100F8000E7FE0649884202D947F40047C0E7044912
:100F90008842BDD947F48047BAE700000068890954
:100FA00000B4C40470B5040003D02079002510B14A
:100FB00005E0012070BD6571204600F007F80220B1
:100FC0002071256101202071002070BD10B586B010
:100FD000044614216846FFF7E6F911492068884263
:100FE0001BD11048C16C41F48031C164C16C01F463
:100FF00080310591C16C41F00101C164C06C69464A
:1010000000F00100059010200090032001900020C6
:1010100002904FF0904000F007F806B010BD0000BD
:1010200000080050001002402DE9F04FDFF8209238
:10103000002301260324A9F1040B85B00F2709F131
:10104000040AABF1040EFAE006FA03F52A407CD05C
:1010500091F804C00CF0030CBCF1010F02D0BCF1FC
:10106000020F26D1D0F808C0CDF800C04FEA430CDB
:1010700004FA0CF8CDF810C0DDF800C02CEA080C1A
:10108000CDF800C0D1F80C80DDF810C008FA0CF8DB
:10109000DDF800C048EA0C08C0F80880D0F804C0A9
:1010A0002CEA050C0D79C5F300159D4045EA0C05A9
:1010B00045600D79ED43AD070ED0C5684FEA430892
:1010C00004FA08FC25EA0C05D1F808C00CFA08FC63
:1010D0004CEA050CC0F80CC00D7905F00305022D93
:1010E00016D1DD0800EB850CCDF808C0DCF82080B7
:1010F0005D074FEAD56C07FA0CF528EA05080D697B
:1011000005FA0CF5DDF808C045EA0805CCF82050D2
:1011100005684FEA430CCDF808C004FA0CFC25EA38
:101120000C0591F804C00CF00308DDF808C008FABB
:101130000CF848EA0508C0F800804D6815F4403FF7
:101140007CD0444DD5F860C000E077E04CF0010C55
:10115000C5F860C02D6E23F0030C05F00105009565
:101160003D4D65440295AD684FEA837C4FEA1C789B
:1011700007FA08FC25EA0C05B0F1904F06D0DFF81D
:10118000DCC0604505D14FF0010C20E04FF0000CB1
:101190001DE0DFF8CCC0604502D14FF0020C16E034
:1011A000DFF8C0C0604502D14FF0030C0FE0DFF85C
:1011B000B8C0604502D14FF0040C08E0DFF8ACC0C5
:1011C000604502D14FF0050C01E04FF0060C0CFA1F
:1011D00008FC4CEA050C029DC5F808C0D9F800507F
:1011E000CC46D1F8048095435FEAC82800D5154362
:1011F000CCF80050DAF80050D446D1F8048095437A
:101200005FEA882800D51543CCF80050DBF8005081
:10121000DC46D1F8048095435FEA883800D5154351
:10122000CCF80050DEF80050F446D1F80480954325
:101230005FEAC83800D51543CCF800505B1C0A683B
:1012400032FA03F57FF400AF05B0BDE8F08F00007F
:101250000804014000100240000001400004004862
:1012600000080048000C0048001000480014004826
:101270000AB181617047816270470000014880684F
:10128000704700000400002010B590F8DC20012A0F
:1012900021D0012280F8DC20022380F8DD304B1CB5
:1012A0001BD00368D3F8CC4344F00204C3F8CC430A
:1012B0000368D3F8CC4324F00C040C43C3F8CC43AC
:1012C0000168D1F8CC3343F00103C1F8CC3380F886
:1012D000DD20002010BD022010BD0168D1F8CC3304
:1012E00023F00203C1F8CC33EAE7000038B504006C
:1012F00056D0022084F8DD000025C4F8E050C4F880
:10130000E450C4F8E850C4F8EC50C4F8F050C4F805
:10131000F450C4F8F850207AC0071BD02149206847
:10132000884208D12048016E41F080610166006E5C
:1013300000F0806000902168086820F44042208A14
:1013400000F44040104320F44052A08A00F4405082
:1013500010430860204600F029F8207A800708D55D
:101360002168086820F44072A08900F4407010439E
:101370000860012084F8DD0084F8DC505FF0000193
:10138000C1EBC10004EB8000491C8561C5610562A9
:1013900045628562C9B205630629F1D9002038BDCE
:1013A000012038BD006801400010024008B5006807
:1013B0000649884208D10648016E41F08061016605
:1013C000006E00F08060009008BD000000680140E1
:1013D0000010024070B586B0044614216846FEF73E
:1013E000E2FF1849206888422AD11748C16C41F0B1
:1013F0000401C164C16C01F004010591C16C41F0AC
:101400000101C164C06C022500F0010005904FF499
:10141000407003240026CDE90005CDE90264694649
:1014200004940A48FFF700FE4FF470608DE86100F5
:101430000D20CDE9034069464FF09040FFF7F4FDE1
:1014400006B070BD0068014000100240000800486E
:1014500070B50D460446FFF711FF064607E0681C0D
:1014600005D0FFF70BFF801BA8420DD865B120689F
:10147000D0F88803C043C003F1D4012084F8DD0014
:10148000002084F8DC0070BD072084F8DD00032014
:1014900070BD70B590F8DD30022B1DD090F8DC30B7
:1014A000012B19D0012380F8DC30022480F8DD40C4
:1014B000EC25046805EBC1156159CE0605D54FF63C
:1014C000C076B14332400A43625180F8DD300021DA
:1014D00080F8DC10084670BD022070BD70B590F831
:1014E000DD30022B23D0022380F8DD30062920D006
:1014F0008023046803EBC115635923F00706936842
:10150000334323F01806D3683343635194250468AA
:1015100005EBC115136863519824036804EBC111EE
:1015200052685A50012180F8DD10002070BD022061
:1015300070BD0368196821F007049168214321F008
:101540001804D16821431960036811685961516812
:1015500002689161E6E770B5044690F8DD00022864
:1015600011D094F8DC0001280ED0012584F8DC505D
:10157000022084F8DD00204601F063F884F8DD5095
:10158000002084F8DC0070BD022070BD2DE9F04120
:10159000044690F8DD0015460E46022826D094F841
:1015A000DC00012821D0012784F8DC70022084F8B7
:1015B000DD00062E1CD0204601F0B2F8C6EBC600B6
:1015C00004EB80002968016269684162A968816250
:1015D000E968C162296901633146204600F0B4FF21
:1015E000062E15D0E86A40B112E00220BDE8F08175
:1015F0001146204600F0DCFFE0E78021206801EB87
:10160000C6114258EB6D22F4007242EA4322425066
:1016100084F8DD70002084F8DC00E7E72DE9F04174
:10162000044690F8DD00022824D094F8DC0001285C
:101630001FD0012584F8DC50022084F8DD00EC2066
:10164000266800EBC113F058176820F0100040EA3C
:10165000071020F480175068384320F48037D06892
:10166000384320F40037906838439769012F03D03E
:101670000CE00220BDE8F08120F004071069384337
:1016800020F002075069384340F00100F050204636
:1016900000F05AFF84F8DD50002084F8DC00E9E710
:1016A000024881684268114481607047040000204C
:1016B00010B50024032000F065F80F2000F008F8B2
:1016C00008B1012401E000F025F8204610BD00001B
:1016D00070B50E4E05460024706898B14FF47A71CB
:1016E000B1FBF0F00A490968B1FBF0F000F03CFEF4
:1016F00040B9102D06D200222946501E00F022F8D3
:10170000356000E00124204670BD00000400002088
:10171000100000200A4882B0016E41F0010101660C
:10172000016E01F001010091816D41F080518165F0
:10173000806D00F08050009002B000F093B800007F
:1017400000100240F0B40E4B1B680C46C3F302239A
:10175000C3F10705042D00D90425191D072901D25D
:10176000002300E0DB1E012606FA05F1491E214098
:1017700099409E40761E16403143F0BC01F02EBECB
:101780000CED00E0064900F0070208684FF6FF0381
:10179000184040EA0220034A1043086070470000E6
:1017A0000CED00E00000FA052B492C4B0A683221B1
:1017B0004A432B4940B1B0F5007F086829D020F496
:1017C000C06040F480602CE00868C0F3412002282B
:1017D00004D051F8800F20F4807022E0D1F880000E
:1017E00020F48070C1F88000086820F4C06040F4E4
:1017F00000700860B2FBF3F0401C00E0401E4A6934
:10180000520501D50028F9D1486940050AD50320C1
:101810007047C0F34120022806D051F8800F40F4F1
:101820008070086000207047D1F8800040F480701C
:10183000C1F88000086820F4C06040F400700860BF
:10184000B2FBF3F0401C00E0401E4A695205DBD5B4
:101850000028F9D1D8E700001000002040420F0016
:10186000007000400248816841F480418160704707
:10187000007000402DE9F843044600680026BB4D87
:1018800000035ED5A86D0027C00008D4A86D40F005
:101890008050A865A86D012700F080500090DFF807
:1018A000D092D9F8001041F48071C9F80010FFF708
:1018B000E5FC804606E000BFFFF7E0FCA0EB080077
:1018C00002282BD8D9F80000C005F5D5D5F890002E
:1018D00010F4407014D0216D814211D0D5F89000E1
:1018E000D5F8901020F4407041F48031C5F8901084
:1018F000D5F8901021F48031C5F89010C5F890000B
:10190000C00711D0FFF7BAFC804641F2883907E0E2
:10191000FFF7B4FCA0EB0801494501D903260BE011
:10192000D5F890008007F3D5D5F89000216D20F40C
:1019300040700843C5F890001FB1A86D20F080509A
:10194000A8652078C00707D0D5F88800616820F026
:1019500003000843C5F888002078800707D5D5F82C
:101960008800A16820F00C000843C5F888002078A2
:10197000400707D5D5F88800E16820F0300008431B
:10198000C5F888002078000707D5D5F888002169B8
:1019900020F0C0000843C5F888002078C00607D5AD
:1019A000D5F88800616920F440700843C5F88800C4
:1019B0002078800607D5D5F88800A16920F440601A
:1019C0000843C5F888002078400607D5D5F8880078
:1019D000E16920F440500843C5F8880020780006EB
:1019E00007D5D5F88800216A20F440400843C5F89F
:1019F00088002088C00507D5D5F88800616A20F4E2
:101A000040300843C5F888002068800307D5D5F822
:101A10009C00A16A20F003000843C5F89C002088C0
:101A2000800507D5D5F88800E16A20F440200843F6
:101A3000C5F88800208840050FD5D5F88800216BAF
:101A400020F440100843C5F88800206BB0F5801FD3
:101A500003D1E86840F48010E860208800050FD5C5
:101A6000D5F88800616B20F440000843C5F8880071
:101A7000606BB0F5800F03D1E86840F48010E86037
:101A80002088C0040FD5D5F88800A16B20F04070E5
:101A90000843C5F88800A06BB0F1807F03D1E868E7
:101AA00040F48010E86020884FF0006180040ED57B
:101AB000D5F88800E26B20F040601043C5F888003C
:101AC000E06B884203D1E86840F48010E860208829
:101AD00040040ED5D5F88800226C20F040601043F9
:101AE000C5F88800206C884203D1E86840F4801073
:101AF000E860208800040FD5D5F88800616C20F0DC
:101B000040500843C5F88800606CB0F1805F03D195
:101B1000E86840F48030E8602068C0030FD5D5F84D
:101B20008800A16C20F040400843C5F88800A06CF4
:101B3000B0F1804F03D1E86840F48030E86020685D
:101B400040030FD5D5F89C00E16C20F44010084309
:101B5000C5F89C00E06CB0F5001F03D1E86840F4C4
:101B60008010E8603046BDE8F883000000100240B5
:101B7000007000402DE9F0470E4605004FF00007C9
:101B800025D0DFF8AC81D8F8000000F00F00B0429B
:101B90000CD2D8F8001021F00F013143C8F8001022
:101BA000D8F8000000F00F00B04210D12968614C55
:101BB000C80741F2883A5AD06868DFF87C91032858
:101BC00008D0022820682DD0400500282CDB0120F9
:101BD000BDE8F08720688001F9D5E06800F00302D5
:101BE000E068C0F30310401C032A19D0534A00BF19
:101BF000B2FBF0F0E268C2F306225043E268C2F39F
:101C00004162521C5200B0FBF2F0484517D9A0685F
:101C100010F0F00F0CD0880711D5A86840B10EE085
:101C2000474AE5E78003D0E700F0BCF8484506D90D
:101C3000A06820F0F00040F08000A0608027A0683D
:101C4000696820F003000843A060FFF717FB814696
:101C500006E000BFFFF712FBA0EB090151453AD89F
:101C6000A068696800F00C00B0EB810FF2D1286821
:101C7000810714D5400703D5A06840F4E060A06058
:101C80002878000705D5A06820F4605040F4E06093
:101C9000A060A068A96820F0F000084304E0802F4D
:101CA00003D1A06820F0F000A060D8F800104046F2
:101CB00001F00F01B14216D9016821F00F01314343
:101CC0000160FFF7DBFA074607E000BFFFF7D6FA2F
:101CD000C11B514501D903207AE7D8F8000000F074
:101CE0000F00B042F2D12878400705D5A068E96816
:101CF00020F4E0600843A0602878000706D5A068BB
:101D0000296920F4605040EAC100A06000F04AF860
:101D1000A1680C4AC1F30311515C01F01F01C840D6
:101D20000949086009480068BDE8F047FFF7D0BCE2
:101D3000002002400010024000B4C4040024F4005B
:101D400000366E019E4300081000002004000020B1
:101D5000014800687047000010000020054806494F
:101D600000688968054AC1F30221515C01F01F0136
:101D7000C84070471000002000100240AE43000829
:101D80000548064900688968054AC1F3C221515CCB
:101D900001F01F01C84070471000002000100240F1
:101DA000AE430008184910B58868C0F3810217488F
:101DB000012A0BD08A68164BC2F38102022A06D090
:101DC0008A68C2F38102032A03D0002010BD18469E
:101DD00010BDCA6802F00304CA68C2F30312521CA1
:101DE000032C02D0B0FBF2F001E0B3FBF2F0CA68C2
:101DF000C968C2F306225043C1F34161491C49003E
:101E0000B0FBF1F010BD0000001002400024F4000F
:101E100000366E012DE9F84304007AD02078F84DA1
:101E2000C00747D0A868E96800F00C0001F0030182
:101E30000C2802D0082817D001E0032914D06068CC
:101E4000B0F5803F17D0B0F5A02F286817D020F448
:101E500080302860286820F4802028606068E0B125
:101E6000FFF70CFA064614E02868800322D5606864
:101E70000028D2D01EE0286840F48030EDE740F41E
:101E800080202860F7E700BFFFF7F8F9801B64287F
:101E900070D828688003F7D50CE0FFF7EFF9064605
:101EA00005E000BFFFF7EAF9801B6428F0D8286836
:101EB0008003F7D4207880074CD5A868E96800F043
:101EC0000C0001F003010C2802D004280DD001E021
:101ED00002290AD0E068002828682BD040F48070DE
:101EE0002860FFF7CBF9064619E02868400502D5BF
:101EF000E068002891D06868217C20F0FE4040EA2C
:101F000001606860BF480068FFF7E2FB002800D16D
:101F100020E072E1FFF7B2F9801B0228B8D82868E8
:101F20004005F7D56868217C20F0FE4040EA01605A
:101F300068600FE020F480702860FFF79FF9064684
:101F400005E000BFFFF79AF9801B0228A0D8286897
:101F50004005F7D42078000729D560690028D5F816
:101F6000940013D040F00100C5F89400FFF786F903
:101F7000064606E090E000BFFFF780F9801B0228CC
:101F800086D8D5F894008007F6D510E020F001003F
:101F9000C5F89400FFF772F9064604E0FFF76EF902
:101FA000801B022878D8D5F894008007F6D42078D2
:101FB000400761D5A86D0026C00008D4A86D40F088
:101FC0008050A865A86D012600F0805000908E48D2
:101FD0000168C90511D40168804641F4807101602F
:101FE000FFF74CF9074604E0FFF748F9C01B022849
:101FF00052D8D8F80000C005F6D5A068012815D041
:102000000528D5F8900016D020F00100C5F8900002
:10201000D5F8900020F00400C5F89000A06841F2C7
:102020008838B8B1FFF72AF907460EE0D5F89000D6
:1020300040F00100F0E740F00400C5F89000F5E73B
:10204000FFF71CF9C11B414526D8D5F89000800741
:10205000F6D50CE0FFF712F9074604E0FFF70EF99A
:10206000C11B414518D8D5F890008007F6D41EB1A1
:10207000A86D20F08050A8652078800629D5A06939
:102080000028D5F8980013D040F00100C5F898005A
:10209000FFF7F4F8064606E075E000BFFFF7EEF83C
:1020A000801B02286FD8D5F898008007F6D510E07D
:1020B00020F00100C5F89800FFF7E0F8064604E0BC
:1020C000FFF7DCF8801B02285DD8D5F89800800760
:1020D000F6D4E069F0B3A968C1F3810103295DD0AA
:1020E0000228286820F08070286003D0FFF7C6F827
:1020F00004464BE0FFF7C2F8064604E0FFF7BEF8DF
:10210000801B02283FD828688001F7D4F4E9080131
:102110006FF00F0202EB01110843218A52044908B3
:1021200002EB4151A26841EA02210843217D4FF0B0
:102130007E42490802EB41610843217B40EAC160CD
:10214000E968324A11400843E860286840F080702E
:10215000286000E05EE0E86840F08070E860FFF72B
:102160008DF8044605E000BFFFF788F8001B022841
:1021700009D828688001F7D54CE000BFFFF77EF84A
:10218000001B022802D90320BDE8F88328688001DB
:10219000F4D4E8681E490840E8603BE00128F3D029
:1021A000E868226A00F00301914226D1616A00F0DA
:1021B000F0020901103991421FD1A26A00F4FE41D8
:1021C000B1EB022F19D194F82C2000F07841B1EB3B
:1021D000C26F12D1218E00F4C00249084905A1F551
:1021E0000011914209D194F8341000F0C060490800
:1021F0004906A1F1007181420CD00120C4E7000022
:102200000010024004000020007000400C809F017C
:10221000FCFFEEFE0020B7E770B5040009D0606A4D
:10222000002540B125616561A56294F85D0040B16B
:102230000CE0012070BD6068B0F5827FF4D0E561EC
:10224000F2E784F85C50204600F05CF8022084F845
:102250005D002068016821F040010160E1684FF4F1
:10226000E062914201D9002001E04FF48050B1F5C5
:10227000706F02D0914200D0A562A188228901F43A
:10228000827102F404421143227C02F002021143E3
:10229000227D02F001021143228B02F400721143ED
:1022A000227F02F03802114394F8202002F08002CD
:1022B0001143228D02F40052114322681160A1697A
:1022C000042202EA114194F8242000F4805002F024
:1022D0001002114394F8342002F008021143A2893D
:1022E00002F4706211430143206841602068C169B3
:1022F00021F40061C1612566012084F85D000020A1
:1023000070BD000010B586B0044614216846FEF783
:102310004AF81249206888421ED11148816D41F463
:1023200080418165816D01F480410591C16C41F06E
:102330000201C164C06C694600F0020005904FF4D0
:102340006040009002200190002002900390052040
:1023500004900448FEF768FE06B010BD0038004047
:10236000001002400004004810B5401EB0F1807F0C
:1023700001D3012010BD4FF0E02460610F216017F0
:1023800001F02CF80020A06107202061002010BD82
:1023900090F88410012918D0012180F8841024219C
:1023A000C0F8881001680A680B6823F001030B600D
:1023B00022F0005100224266036819602021C0F813
:1023C000881080F88420104670470220704770B54E
:1023D000044690F8840001281DD0012084F8840070
:1023E0002420C4F8880020680568026822F00102F1
:1023F00002602068826822F060620A4382602046A0
:1024000000F03CFD206805602020C4F88800002012
:1024100084F8840070BD022070BD70B5044690F849
:10242000840001281DD0012084F884002420C4F8F1
:10243000880020680568026822F0010202602068B6
:10244000826822F060420A438260204600F016FD56
:10245000206805602020C4F88800002084F88400EB
:1024600070BD022070BD10B5040003D0D4F8880000
:1024700010B107E0012010BD002084F88400204640
:1024800000F026F82420C4F888002068016821F0B4
:1024900001010160A06A10B1204600F011FD204644
:1024A00000F0F2FD0128E6D02068416821F4904157
:1024B00041602068816821F02A01816020680168FC
:1024C00041F0010101602046BDE8104000F05CBD14
:1024D00010B59CB00446142115A8FDF764FF5421E3
:1024E0006846FDF760FF16492068884226D1202003
:1024F0000024009006946846FFF7BCF908B1FDF788
:10250000C7FF1048C16D41F00101C165C16D01F007
:1025100001011A91C16C41F00101C164C06C15AA9E
:1025200000F001001A900C20022182E81300CDE98E
:10253000184015A94FF09040FEF776FD1CB010BD75
:102540000080004000100240072930D2DFE801F08F
:102550000A10161C222804000068D0F8841341F0E9
:10256000010122E00068D0F8841341F002011CE070
:102570000068D0F8841341F0040116E00068D0F838
:10258000841341F0080110E00068D0F8841341F092
:1025900010010AE00068D0F8841341F0200104E043
:1025A0000068D0F8841341F04001C0F884137047EC
:1025B00070B503681A68D3F8A0534C6922F0200262
:1025C0002646144324F0C002202E2BD08C69022C06
:1025D00028D0032C2BD0042C2ED022F0E00200BFF8
:1025E00022F40064CA69224322F480640A6A224306
:1025F00022F0C0644A6A224322F000648A6A2243BD
:10260000CC6A22F0404242EA840222F000544A6B33
:10261000096B224325F4803421431A600068C0F816
:10262000A01370BD22F0C00242F02002D8E722F0D1
:10263000800242F04002D3E722F0400242F08002E2
:10264000CEE7F0B50024E426056806EBC11755F87F
:1026500007C0B82606EBC116AE59402A20D00EDCC2
:10266000082A2CD006DC012A1AD0022A27D0042AF4
:1026700031D115E0102A13D0202A2CD11FE0B2F559
:10268000007F1CD005DC802A19D0B2F5807F22D1D2
:1026900006E0B2F5806F03D0B2F5006F1BD10EE0FB
:1026A0004FF0BC0E0EEBC11E5A6845F80E204FF0DD
:1026B000C00E05680EEBC1119A686A500BE0C42485
:1026C00004EBC1145A682A51C825046805EBC111EE
:1026D0009A6862501024FE21A1401A682CEA010C6D
:1026E000A240D96842EA0C02A14011431A69D3F80A
:1026F00014C01546A2400A430CFA04FC99694CEA3E
:10270000020CA14041EA0C01082D06D1B20504D407
:10271000B20102D4DA69A24011430068C151F0BD90
:102720002DE9F04F8024036804EBC117DC5924F035
:102730007044DC510568EC59E82303EBC1139E4655
:1027400055F803C0E42303EBC1139B4655F803A0DF
:10275000D5F8A033566924F020043443202E24D029
:102760009669022E21D0032E24D0042E27D024F4E3
:10277000D07400BF24F40066D469344324F4806626
:10278000146A344324F0C066546A344324F000666B
:10279000946A344324F07046D46A3443566B24F46C
:1027A0000034B6F1005F0FD010E024F4C07444F0A0
:1027B0002004DFE724F4807444F08004DAE724F096
:1027C000800444F48074D5E744F4003424F04008D5
:1027D000946B2CF03F0C264644EA080424F480282D
:1027E000946D44EA0804DFF8D08004EA0804D2F8C3
:1027F000508048EA040992F83C40D2F8408004F046
:102800003F0444EA0C0424F0004448EA0408546CF1
:102810002AF4807C44EA0C04D2F848C0BCF5606F0E
:1028200002D0BCF5F05F01D1402E03D124F4F05466
:102830004CEA040424F48046D46C3443566D0629D3
:1028400027D2DFE801F003090F151B21126B23F4D7
:10285000003343EA42031CE0126B23F4802343EA73
:10286000820316E0126B23F4002343EAC20310E054
:10287000126B23F4801343EA02130AE0126B23F471
:10288000001343EA421304E0126B23F4800343EA8B
:10289000821345F80790056845F80E80056845F8ED
:1028A0000B40D424026804EBC11156500068C0F8F4
:1028B000A033BDE8F08F0000FFFF06FEFEE700EB4F
:1028C0008100006E00F0F84070478068C0F3C000DF
:1028D00070478068C0F3800070478068C0F3800054
:1028E0007047042303EAD15310B518444369C1F378
:1028F000045107248C40A3438A401343436110BD15
:1029000000EB8100016E21F0004111430166704728
:1029100030B58BB0002408940994202168460A94AD
:10292000FDF741FD1C484FF0A041042501604FF424
:102930004031C0E90114C4600461C0E90545047771
:1029400044770121016280F82440C462046380F866
:102950003840C46380F84040FEF782F808B172B690
:10296000FEE708A90C480894FDF794FD08B172B67B
:10297000FEE70A4800900620CDE901047F20059477
:10298000CDE9030569460448FDF734FE002801D06F
:1029900072B6FEE70BB030BD180000200200300414
:1029A00030B589B020216846FDF7FDFC194818496B
:1029B000002401604FF44031C0E90114C4600425D3
:1029C0000461C0E90545047744770121016280F87C
:1029D0002440C462046380F83840C46380F84040F7
:1029E000FEF73EF808B172B6FEE70B4800900620ED
:1029F000CDE901047F200594CDE90305694605482A
:102A0000FDF7F8FD002801D072B6FEE709B030BD31
:102A100000010050840000200800900C30B58BB0FD
:102A2000002408940994202168460A94FDF7BBFC11
:102A30001D481C49042501604FF44031C0E90114D0
:102A4000C4600461C0E9054504774477012101624F
:102A500080F82440C462046380F83840C46380F87E
:102A60004040FDF7FDFF08B172B6FEE708A90E4829
:102A70000894FDF70FFD08B172B6FEE70B48009011
:102A80000620CDE901047F200594CDE903056946C0
:102A90000548FDF7AFFD002801D072B6FEE70BB088
:102AA00030BD000000040050F0000020020030049F
:102AB0002DE9F04186B014216846FDF774FC2748E3
:102AC000C16C41F00401C164C16C01F004010591C5
:102AD000C16C41F02001C164C16C01F0200105917D
:102AE000C16C41F00101C164C16C01F001010591AB
:102AF000C16C41F00201C164C06C4FF0904700F01E
:102B000002000590002220213846FEF7B1FBDFF8D5
:102B100050804FF48066002231464046FEF7A8FB05
:102B20000024F000CDE9000469460E480294FEF747
:102B30007BFA202000900125CDE9015469463846F2
:102B40000394FEF771FA0096CDE9015469464046B8
:102B50000394FEF769FA06B0BDE8F0810010024068
:102B6000000400480008004870B5ACB00024279469
:102B7000289429941C2120A82A94FDF714FC602194
:102B80006846FDF710FC202118A8FDF70CFC6D48E5
:102B90006B49C0E900148460FEF7A8FB08B172B667
:102BA000FEE70C216748FEF76FFB08B172B6FEE73F
:102BB0000A216448FEF74CFC08B172B6FEE74FF6F6
:102BC000DF75CDE927540820CDE9294027AA002147
:102BD0005C48FEF783FC08B172B6FEE7209420AA99
:102BE000002158482694FEF719FD08B172B6FEE799
:102BF0000094019401260294CDE9034605940694BD
:102C0000079408940A940B940C940D9409940F94CF
:102C10001094119412940E941494159416946A4678
:102C2000002148481794FEF7B1FC08B172B6FEE7E0
:102C30006A4601214348FEF7A9FC08B172B6FEE7D7
:102C40006A4604213F481294FEF7A0FC08B172B610
:102C5000FEE7189419941A941B941C941D941E94C6
:102C600018AB0122002137481F94FEF774FC08B10D
:102C700072B6FEE718AB042201213248FEF76BFC66
:102C800008B172B6FEE718AB4FF4807204212D48EC
:102C9000FEF761FC08B172B6FEE718AB0222002114
:102CA0002848FEF758FC08B172B6FEE718AB0822B8
:102CB00001212448FEF74FFC08B172B6FEE718ABBD
:102CC0004FF4007204211F48FEF745FC08B172B6AC
:102CD000FEE748F2D04027900320299027AA01213F
:102CE0001848FEF7FBFB08B172B6FEE720AA0121E7
:102CF00014482096FEF792FC08B172B6FEE7002257
:102D000001211048FEF7C5FB08B172B6FEE727AAFD
:102D100004210C4827952994FEF7E0FB08B172B610
:102D2000FEE720AA042107482094FEF777FC08B1AB
:102D300072B6FEE70348FEF74DFB2CB070BD0000F5
:102D40000068014070010020164810B51449016068
:102D500015494160002181600C22C160C0E9041264
:102D60008161016241628162FFF77DFB08B172B649
:102D7000FEE700210B48FFF750FB08B172B6FEE7F3
:102D800000210848FFF723FB08B172B6FEE70548AB
:102D9000FFF7FEFA002801D072B6FEE710BD000072
:102DA000008000406C02002024330300114810B55D
:102DB0000F4901604FF48271416000214FF440726D
:102DC000C0E902124FF400720161C0E9051230221D
:102DD000C0E9072107224162C0E90A120163082104
:102DE0004163FFF719FA002801D072B6FEE710BD63
:102DF0000038004000030020FEE7FEE77047704700
:102E0000FEF74EBC10B594B038216846FDF7CBFAFA
:102E100014210EA8FDF7C7FA0020FEF7C5FC01201B
:102E200000900004032406210190CDE9084102200E
:102E30005521CDE90A1007900C900D906846FEF7D9
:102E4000E9FF08B172B6FEE70F20CDE90E040020BD
:102E500010901190129004210EA8FEF78BFE00280E
:102E600001D072B6FEE714B010BD00000248016840
:102E700041F470010160704788ED00E030B5416EAB
:102E8000B9B1026891689268C1F342610B4B520F6D
:102E90009C5CE50003F10804A25CB5FBF2F2A0F82B
:102EA0006A205A5C615CD200B2FBF1F1A0F86810B4
:102EB00030BD0121A0F86A10F8E700008E43000839
:102EC00090F82810090706D501684A68836B22F438
:102ED00000421A434A6090F82810C90706D00168DA
:102EE0004A68C36A22F400321A434A6090F82810F4
:102EF000890706D501684A68036B22F480321A43B9
:102F00004A6090F82810490706D501684A68436B63
:102F100022F480221A434A6090F82810C90606D588
:102F200001688A68C36B22F480521A438A6090F861
:102F30002810890606D501688A68036C22F40052BD
:102F40001A438A6090F82810490611D501684A682A
:102F5000436C22F480121A434A60416CB1F5801F21
:102F600006D101684A68836C22F4C0021A434A60A1
:102F700090F82810090606D501684A68C06C22F44A
:102F8000002202434A6070472DE9F84300260446B8
:102F9000C0F89060FEF772F98046206800684FF034
:102FA000200500076FF07E4713D543460022290411
:102FB0002046009700F0B4F958B1216851E8000F9D
:102FC00020F0800041E80002002AF6D1C4F88850C1
:102FD00021E020680068400722D5434600224FF4D4
:102FE00080012046009700F09BF9C8B1216851E8A4
:102FF000000F20F4907041E80002002AF6D120680A
:10300000083050E8001F21F0010140E80012002ABA
:10301000F5D1C4F88C5084F884600320BDE8F883AF
:10302000C4F88850C4F88C5044F86C6F66602676FB
:103030000020F3E710B5026852E8001F21F49071F8
:1030400042E80013002BF6D10E4B0268083252E81A
:10305000001F194042E80014002CF6D1C16E01296E
:1030600008D1016851E8002F22F0100241E8002346
:10307000002BF6D12021C0F88C100021C1664167D9
:1030800010BD0000FEFFFFEF2DE9F041044601688E
:1030900080682269E3691043626900251A4310437E
:1030A000DFF84CC20A68934B1A4002430A6020685A
:1030B0004168E26821F44051114341602168A069F0
:1030C000614501D0226A10438A688B4B1A40024343
:1030D0008A602068C16A626A21F00F011143C162EF
:1030E0008649236886488B420DD1D0F8880010F0BD
:1030F000030006D0012867D0022854D0032851D1FC
:1031000064E001204FE07F498B420BD1D0F888006A
:1031100010F00C0047D0042845D0082852D00C28C5
:1031200040D153E078498B420BD1D0F8880010F0A1
:10313000300038D0102847D0202843D0302831D153
:1031400044E072498B420BD1D0F8880010F0C000E7
:1031500029D0402838D0802834D0C02822D135E06A
:103160006B498B420ED1D0F8880010F440701AD011
:10317000B0F5807F28D0B0F5007F23D0B0F5407F38
:1031800010D123E063450DD1D0F8880010F44060E1
:1031900009D0B0F5806F17D0B0F5006F12D0B0F540
:1031A000406F13D010205B4A5B4F00264FF4004164
:1031B000634539D160B102280DD004280DD008280C
:1031C00031D10EE00220EEE70420ECE70820EAE728
:1031D000FEF7C4FD03E0114603E0FEF7E3FD010046
:1031E0007BD0606A37F810206768B1FBF2F007EB1C
:1031F0004703834269D8B0EB073F66D800230846EF
:103200001946FDF759F8090241EA106102027808EF
:10321000101871413A460023FDF74EF83F4AA0F5D9
:103220004071914257D950E0E3694FF6EF788B42F5
:103230002BD1092849D2DFE800F005080D482548C0
:1032400048480E00FEF78AFD01E0FEF799FD0100F7
:1032500001D142E01146606A37F81000B1FBF0F08E
:103260004100606801EB5001B1FBF0F1A1F11000E9
:1032700040452AD84FF6F07201EA0200C1F342013C
:10328000084328E0FEF78EFDE1E709281DD2DFE8BC
:1032900000F005080D1C1E1C1C1C0E00FEF75EFD38
:1032A00001E0FEF76DFD010001D116E01146606AF4
:1032B00037F81000B1FBF0F1606801EB5001B1FB91
:1032C000F0F0A0F11001414504D9012505E0FEF719
:1032D00069FDE8E780B22168C8600120A4F86A00AF
:1032E00024F8680F2846E6602661BDE8F0810000FA
:1032F00000800040F369FFCFFFF4FF110038014068
:10330000001002400044004000480040004C0040D3
:10331000005000400024F40076430008FFFC0F003A
:103320002DE9F047994617460D4604464FF0000830
:10333000089E33E0701C31D0FDF7A0FFA0EB090020
:10334000B04218D8BEB120680168490726D5802D43
:1033500024D0402D22D0C169C94309070DD40825C6
:1033600005622046FFF766FEC4F8905084F884801A
:103370000120BDE8F0870320FBE7C069C0430005DA
:103380000CD421684FF4006008622046FFF752FE1B
:103390002020C4F8900084F88480ECE72068C0699D
:1033A00035EA000004D00020B842C3D00020E0E796
:1033B0000120F9E7FEE74100080218BF04200A0EC9
:1033C00018BF40F001004FF07F4232EA010108BF10
:1033D00040F00200012808BF052070470907090EC8
:1033E000002804DB00F1E02080F80014704700F0B2
:1033F0000F0000F1E02080F8141D704710EE101A45
:1034000008B5444A6846B2EB410F28D94FF0E64070
:10341000B0EB410F94BF00204FF0FF3000900098B8
:10342000002861DB60EE000A10F0010F45D010F0BB
:10343000020FDFED391A9FED391A00EEE11ADFEDC8
:10344000381A40EE811A21EEA01AF0EE400A40EE42
:10345000010A08BFF1EE600AB0EE600A08BD314B08
:1034600021F0004293423CD911F0004FDFED2E0ACB
:1034700020EE201ADFED2D0A19BF31EE601A71EE31
:10348000200A31EE201A71EE600ABDEEE01A11EE4C
:10349000100A9FED271A00F0030000EEC10A9FED0D
:1034A000251A009000EEC10A9FED231A00EEC10A12
:1034B0009FED221A00EEC10AB1E79FED211A9FEDA0
:1034C000210A10F0020F00EE810A9FED1F1A00EE94
:1034D000801AB7EE000A00EE810A18BFB1EE400A6A
:1034E00008BD00F00FF99AE710EE100A4000B0F1A5
:1034F0007F4F3CBFB7EE000A08BD07D14FF0010077
:10350000FCF780FFBDE8084000F0ECB8BDE80840DB
:1035100000F0E4B8B61F927E336D4C39DA82083C75
:10352000A0AA2ABE490E494683F9223F0000004B5B
:103530000000C93F00A0FD390020A2331A61342CDD
:10354000B93AB2BACA9F2A3DDDFFFFBE00B510EE00
:10355000101A2DED028B81B0524A6846B2EB410F32
:103560002ED94FF0E640B0EB410F94BF00204FF052
:10357000FF3000900098B0EE408A00286ADB10F01F
:10358000010F4BD068EE080A9FED471A9FED470ADE
:1035900000EE810A9FED461A10F0020F00EE801A2D
:1035A000B7EE000A00EE810A02BF01B0BDEC028B4B
:1035B00000BD00BF01B0B1EE400ABDEC028B00BD02
:1035C0003C4B21F00042934241D911F0004FDFED16
:1035D0003A0A20EE201ADFED390A19BF31EE601ADF
:1035E00071EE200A31EE201A71EE600ABDEEE01A8B
:1035F00011EE100A9FED321A00F0030000EEC10A2E
:103600009FED301A009000EEC10A9FED2F1A00EED8
:10361000C10A9FED2E1A00EEC10AABE728EE080A98
:103620009FED2B1ADFED2B0A10F0020F40EE410A3E
:103630009FED291A00EE201A61EE000AB0EE480A4A
:1036400008EE200AB6D101B0BDEC028B00BD00F03F
:1036500059F88FE718EE100A4000B0F17F4F0DD2F5
:1036600018EE100AFFF7A7FE042808BF00F042F882
:10367000B0EE480A01B0BDEC028B00BD09D10120BB
:10368000FCF7C0FE01B0BDEC028B5DF804EB00F06E
:1036900029B801B0B0EE480ABDEC028B5DF804EB2E
:1036A00000F01CB8B61F927EB93AB2BACA9F2A3D42
:1036B000DDFFFFBE490E494683F9223F0000004B63
:1036C0000000C93F00A0FD390020A2331A61342C4C
:1036D000336D4C39DA82083CA0AA2ABE30EE000ACB
:1036E00070470000DFED020A80EEA00A704700007C
:1036F000000000009FED020A20EE000A7047000063
:10370000000000102DE9F0014FF07F42B2EB410FB5
:103710009FBF4FF0FF310160BDE8F00170474FF0EF
:10372000004242EA0123C1F3C752783A551112F020
:103730001F0C434CCCF120067C44C1F3C752A2F1CC
:1037400078024FEA621204EB820254F8254008BF67
:10375000D2E9015612D0556804FA0CF425FA06F79E
:103760003C43976805FA0CF527FA06F8D26807FA81
:103770000CFCF24045EA08054CEA0206A4FB034CA7
:10378000A5FB0352A6FB03631D449D4234BF0126E3
:1037900000261319334416B1934202D903E0934231
:1037A00001D2012200E00022624402F1200C9206C4
:1037B000DC0C42EA443200EE102A5B03DFED210A02
:1037C000F8EEC01A00EE103A4FEA9C1C11F0004FC0
:1037D000B8EE400AC0F800C020EE201A00EE105AE1
:1037E000DFED190AB8EE400A20EE200A71EE810AD8
:1037F00070EE800A10EE902A02F500626FF30B0261
:1038000000EE902A70EEE11A31EEC11ADFED101AC7
:1038100030EE411A9FED0D0A20EE800A01EE210ADA
:103820009FED0C1A00EE810A04BFBDE8F00170475D
:10383000CCF180510160BDE8F001B1EE400A704763
:10384000840C0000000000360000802C22AAFD2914
:10385000DB0FC92F0000C92F10B5017D022945D10A
:10386000D0F8141200F5E873D1B1032924D8D0F8A8
:10387000D421A2B300EB8102A1F1010192ED510A22
:1038800000F5927202EB8101B5EEC00AF1EE10FA7A
:1038900091ED050AD0ED740A09D230EE600A08E015
:1038A000D0F8D401D8B1184600F0C4FA1EE030EECA
:1038B000200A81ED050AF6E7042915D1D0F8D411C4
:1038C00069B190ED690AB5EEC00AF1EE10FA90ED1B
:1038D000680AD0ED740A03D230EE600A02E005E017
:1038E00030EE200A80ED680A012010BD002010BDD6
:1038F0000248006808B100207047FEE7140000206D
:10390000052101757047000010B500214160017567
:103910000122C0E90A210263074A40F80C2B02C0C9
:1039200040F8101B044600F05BF92046BDE810404B
:10393000142100F0DDBA00004C544347C1617047C8
:1039400070B504468068401CA060206B28B1207DC3
:10395000022802D9204600F03BF8207D072834D207
:10396000DFE800F004330A1319202400204600F099
:103970003BF8F0B1022013E0A06A032518B12046FD
:1039800000F028F8A8B1257513E0204600F02EF8C5
:1039900078B1042004E0204600F02AF848B1052060
:1039A000207506E0204600F01DF802E0204600F0F9
:1039B00017F8206A0021401C2062626A904203D3FB
:1039C0002046216200F003F870BD0620E8E770474A
:1039D000002070470148FFF73FBF00009C03002014
:1039E000002070470020704700207047002070477B
:1039F00001207047B0EE001A60EE810A9FED041AB4
:103A000020EE811AC1EE000AB0EE600A7047000095
:103A1000DA0F494000B53E482DED028B85B000F02D
:103A200085F93B48183000F0BDF93948383000F0CE
:103A30004FF9384800F0C6F89FED378A9FED370AF6
:103A40003448F0EE480A00F03BFA43F6FF720721D3
:103A50002F4800F09DFB2E4B9FED311A0122DFED28
:103A6000310A0521B0EE480A03F1180000F0ACFB62
:103A700048F2D04318220C2105208DE80F009FED5D
:103A80002A1ADFED2A0A224A2249F0EE417AB0EEE4
:103A9000607ADFED276AB2EE046ADFED265A9FED09
:103AA000265AF6EE004ABEEE004AF0EE413A9FED8D
:103AB000233AF0EE602AB6EE002AFEEE001AB6EEC9
:103AC000000A42F210731832A1F5067000F0D2FA23
:103AD0000F48383000F006FA0E49194AA1F5067071
:103AE00000234163D2E90012C0F8D43000EE101A6E
:103AF000C0F8D03080ED150A00EE102A80ED160ACD
:103B000005B0BDEC028B5DF804EBFFF7F9BE0000D9
:103B100064030020B405002000401C46000044421D
:103B2000000016430040084500000000CDCCCC3D0D
:103B3000103EF83E0AD7A33C0AD7A3BC6F12833AC3
:103B4000B843000810B59FED080A002180ED000A77
:103B5000416080ED020A41638163C16301640C30FE
:103B600000F044F8002010BD0000000000210160BA
:103B70004160DFED060A8160C0ED030AB7EE000A7E
:103B800080ED040AC0ED050A0846704700000000F9
:103B900000219FED0B0A0B46F7EE000A40F821309A
:103BA00000EB8102491C82ED050AC2ED080A82ED94
:103BB0000B0A0329F2DB1021C1600161002070476C
:103BC0000000000010B59FED050A80ED010A80EDB0
:103BD000000A083000F0C8F8002010BD0000000006
:103BE0000021016041600846704700009FED0B0A0C
:103BF0005FF0000180ED090A00EB8102491C82EDB3
:103C0000000A82ED020A82ED040A82ED060A022908
:103C1000F2DB80ED080A0020704700000000000081
:103C2000B7EE000A80ED000A9FED020A80ED010A5E
:103C3000002070470000000010B50446B7EE000AEF
:103C4000A0EC010A00F026FB9FED140A04F1240009
:103C500084ED040A84ED050A84ED060A84ED070A62
:103C600084ED080A00F016FB04F1300000F012FBAE
:103C700004F13C0000F00EFB04F1480000F00AFBE8
:103C800004F1540000F00CF804F1740000F008F89E
:103C90000120C4F89400002010BD000000000000C6
:103CA0009FED0A0AF7EE000A80EC020ABFEE001A46
:103CB00080ED020A80ED030A80ED041AC0ED050ACA
:103CC00080ED070A80ED060A002070470000000022
:103CD00010B50446FFF718FE04F13C00FFF7ACFFF7
:103CE00004F1DC0000F076F804F59270FFF750FF65
:103CF00004F5CA70FFF73AFF04F5D67000F024F817
:103D000004F5E870FFF71EFF0020C4F8140201203C
:103D1000C4F8D40044F8D00F9FED030A002084EDCE
:103D2000100A84ED110A10BD000000009FED050A85
:103D3000012180ED000A80ED010A80ED030A018275
:103D4000416170470000000000219FED060A0B460C
:103D500000EB8102491C82ED000A53610329F7DB65
:103D600000207047000000009FED050AF7EE000AF2
:103D700080ED020A80EC020A80ED030A0020704701
:103D800000000000BFEE000A80ED010AB7EE000A55
:103D900080ED020A9FED020A80ED000A00207047C4
:103DA0000000000010B59FED0A0AF7EE000A80ED52
:103DB000020AC0ED030A044680ED000A1030FFF746
:103DC0002FFF04F11800BDE81040FFF709BF000005
:103DD0000000000010B504462030FFF701FF04F199
:103DE0002800FFF7CFFF2046FFF75AFF002010BD45
:103DF00010B500F05BFA40F2DC510C4C884202D95D
:103E0000BEEE000A06E000F051FAB0F57A7F04D960
:103E10009FED070A84ED360A10BD00F047FAB0F5B1
:103E2000FA7FF9D9B6EE000AF4E700009C030020FF
:103E3000000000000021C163016440F8041F9FEDF1
:103E4000070A80ED0B0A083000EB8102491C82ED65
:103E5000000A82ED020A0229F6DB7047000000002A
:103E600070B591ED010AF2EE040A044620EE200A34
:103E70000C30BCEEC00A10EE105A00F03DF84FF4C2
:103E80007A70854201D9656300E06063002070BDEF
:103E9000C0ED030A80ED040AC0E90112002070475A
:103EA00010B5002300EB83045B1CC4ED050A84ED10
:103EB000080A032BF6DBC0E90312002010BD000046
:103EC000B0EE602A10B5F0EE400ADFED051AB7EE4D
:103ED000001AB0EE420A083000F061F9002010BD6F
:103EE0000000000001490860002070471400002015
:103EF000416000207047000070B50C462DED048B2A
:103F0000B0EE008A054691ED010AD1ED030A20EEDC
:103F1000080A20EE200ADFED3D0A20EE200AD1ED4E
:103F2000020A80EE209AB0EE490AFFF70FFBF0EE8E
:103F3000408AB0EE490AFFF761FAF6EE000A94ED06
:103F4000031A68EEA00AB8EE002A20EE022AC0EE9C
:103F5000811AB7EE001A71EE810A71EE611AC2EE93
:103F6000202A81EEA02AC5ED042A85ED052A2078B5
:103F7000A8B1012802D0022844D12DE030EE010A78
:103F8000D4ED041A20EE881A61EE801A81EE812A9F
:103F900085ED062AD4ED041A61EEC01A0FE031EE69
:103FA000400AD4ED041A20EE881A61EE801A81EEE0
:103FB000812A85ED062AD4ED041A61EE801A81EE7D
:103FC000A02A85ED072AD4ED040A20EE800AC0EE6F
:103FD000010AC5ED080A15E094ED040A20EE281A3E
:103FE00020EE880AC1EE000AC5ED060ADFED080AD8
:103FF000C5ED070AD4ED040A60EEA80A80EE801A27
:1040000085ED081A0020BDEC048B70BDDA0FC940A5
:104010000000000000B5FFF7EDFC80ED000A002075
:1040200000BD10B504462DED068BB0EE428AF0EED1
:10403000618AB0EE419AF0EE609AB0EE40AA543038
:1040400000F012F8B0EE482AF0EE681AB0EE491A05
:10405000F0EE690AB0EE4A0A04F1740000F004F8C8
:10406000BDEC068B002010BD001D80EC050A002071
:10407000704700002DE9F0470D462DED108B86B0FE
:10408000F0EE67AAB0EE47BAF0EE66BAB0EE46CAF6
:10409000F0EE65CAB0EE45DAF0EE64DADDE92079DB
:1040A000DDE91E8AB0EE44EAF0EE63EAB0EE43FAD0
:1040B000F0EE62FAB0EE428AF0EE618AB0EE419A1A
:1040C000F0EE609AB0EE40AA164604461946FFF795
:1040D00035FCC4E90D56B0EE482AF0EE681AB0EE91
:1040E000491AF0EE690AB0EE4A0A04F13C00FFF703
:1040F00098FF4146B0EE6C3AF0EE4D2AB0EE6D2AD4
:10410000F0EE4E1AB0EE6E1AF0EE4F0AB0EE6F0AF5
:1041100004F1DC0000F092F83A465146F0EE6B0AEA
:10412000B0EE4C0A04F59270FFF7BAFE3A465146DB
:10413000F0EE6A0AB0EE4B0A04F5CA70FFF7A8FE6B
:104140004A46002104F5D67000F025F8B3EE040AC3
:104150008DED010A94ED070A00206946B8EE400A89
:104160008DED020A8DF80000B7EE000A8DED040A0D
:104170009FED060A04F5E8708DED030AFFF770FE67
:1041800006B00020BDEC108BBDE8F087F4FD343F95
:10419000018242617047C0E903210020704780EE30
:1041A000202A31EE610A80ED011AC0ED001AC0EE3E
:1041B000020AC0ED030A0020704780ED010AC0ED3D
:1041C000020A00207047000070B5FCEEE01A0546B8
:1041D0001E4611EE900A1E2380B2B0FBF3F4A142FA
:1041E00000D20C46DFED141A05F1100060EE212A12
:1041F00001EE904AF8EE611A82EEA12A01EE902AB1
:10420000F8EE612AC2EE221A81EEA02A00EE904A50
:10421000F8EE600AC0EE201AF0EE410A85ED032A9E
:10422000B0EE610AFFF7F6FE214605F11800FFF730
:104230005FFE6E6070BD00000000704270B5044605
:104240002DED068BF0EE609AB0EE40AA0D46B0EE72
:10425000428AF0EE618AB0EE419AF0EE430AB0EE87
:10426000620A2830FFF7A9FF294604F12000FFF772
:104270003FFEB0EE482AF0EE681AB0EE491AF0EEB2
:10428000690AB0EE4A0A2046FFF7EEFEBDEC068B47
:10429000002070BD9FED040A80ED000A80ED010A48
:1042A00080ED020A7047000000000000FCF7E6BF46
:1042B0007047704770477047704700008CB0FDF73B
:1042C000F7F9FEF79FFDFEF7F3FBFEF721FBFEF784
:1042D00067FBFEF7A3FB30216846FCF764F8204932
:1042E0001E4808600846FCF75DFE08B172B6FEE79E
:1042F0000220009000208DF804008DF80500029047
:10430000039001210490CDE905010246079069461A
:104310001348FCF761FD08B172B6FEE7FEF724FC16
:10432000FEF712FDFEF742FDFFF7C5FF00F01DF896
:10433000FFF7BEFFFFF76EFBFFF7BEFFFFF7BAFF09
:10434000084C2068FFF7D4FAFFF7B3FF2068FFF7A7
:10435000F7FA00F009F8FFF74BFDF5E70008005009
:104360005C01002014000020704770474FF040703F
:10437000E1EE100A70470100020004000600080088
:104380000A000C0010002000400080000001010124
:1043900001030701000008040204080101010000F4
:1043A00000000000000001020304060708090000E5
:1043B00000000102030400008FC2F53D8FC2F53DED
:1043C000000000006E83F9A22915444ED15727FC46
:1043D000C0DD34F5999562DB4190433CAB6351FEFF
:1043E000004400080000002018000000140200082B
:1043F0001844000818000020180E000030020008C1
:10440000000000001000000001000000000000009B
:084410000024F400000000008C
:04000005080001D915
:00000001FF
